:020000040800F2
:1000000000000120354500087D3F0008853F0008BD
:10001000873F0008893F00088B3F00080000000070
:100020000000000000000000000000008D3F0008FC
:100030008F3F000800000000913F0008933F000838
:100040007D4500087D4500087D4500087D45000888
:100050007D4500087D4500087D4500087D45000878
:100060007D4500087D4500087D4500087D45000868
:100070007D4500087D4500087D4500087D45000858
:100080007D4500087D4500087D4500087D45000848
:10009000A13F00087D4500087D4500087D4500081A
:1000A0007D4500087D4500087D4500087D45000828
:1000B0007D4500087D4500087D4500087D45000818
:1000C0007D4500087D4500087D4500087D45000808
:1000D000B13F00087D4500087D4500087D450008CA
:1000E0007D4500087D4500087D4500087D450008E8
:1000F0007D4500087D4500087D4500087D450008D8
:100100007D4500087D4500087D4500087D450008C7
:100110007D4500087D4500087D4500087D450008B7
:100120007D4500087D4500087D4500087D450008A7
:1001300000000000000000000000000000000000BF
:1001400000000000000000000000000000000000AF
:10015000000000000000000000000000000000009F
:10016000000000000000000000000000000000008F
:10017000000000000000000000000000000000007F
:10018000000000000000000000000000000000006F
:10019000000000000000000000000000000000005F
:1001A000000000000000000000000000000000004F
:1001B000000000000000000000000000000000003F
:1001C000000000000000000000000000000000002F
:1001D000000000000000000000000000000000001F
:0401E0005FF8E0F1F3
:1001E40010B5054C237833B9044B13B10448AFF36D
:1001F40000800123237010BD78010020000000005E
:10020400C845000808B5034B1BB103490348AFF3C5
:10021400008008BD000000007C010020C8450008E3
:1002240010B504460E4B18784FF47A73B3FBF0F311
:100234000C4A1068B0FBF3F000F0A0F868B90F2C7A
:1002440001D901200AE0002221464FF0FF3000F0DE
:1002540055F8034B5C60002000E0012010BD00BF96
:10026400000000203001002008B5074A136843F05D
:1002740010031360032000F02FF80020FFF7D0FFD5
:1002840003F09EFD002008BD00200240034A1168CF
:10029400034B1B780B441360704700BFB803002066
:1002A40000000020014B1868704700BFB80300200D
:1002B40038B50446FFF7F6FF0546B4F1FF3F02D018
:1002C400044B1B781C44FFF7EDFF401BA042FAD3FC
:1002D40038BD00BF00000020074AD36823F4E06360
:1002E4001B041B0C000200F4E060184340F0BF60E4
:1002F40040F40030D060704700ED00E030B4174B9C
:10030400DB68C3F30223C3F10704042C28BF0424CD
:100314001D1D062D18D9033B4FF0FF3505FA04F4D3
:1003240021EA0401994005FA03F322EA030319437D
:1003340000280BDB0901C9B200F1604000F56140FF
:1003440080F8001330BC70470023E5E700F00F008D
:100354000901C9B2024B1954F4E700BF00ED00E0F3
:1003640014ED00E000F01F02400901239340024A0B
:1003740042F82030704700BF00E100E00138B0F1DE
:10038400807F0AD2064B5860064AF02182F8231077
:100394000020986007221A6070470120704700BF50
:1003A40010E000E000ED00E0042805D0054A1368E1
:1003B40023F0040313607047024A136843F00403F4
:1003C4001360704710E000E0704708B5FFF7FCFFCA
:1003D40008BD000008B590F82130022B03D0042397
:1003E4008363012008BD0268136823F00E031360C1
:1003F4000268136823F00103136003684B4A9342B5
:100404004ED9783A934224D01432934230D01432E5
:1004140093422FD0143293422FD0143293422FD0D0
:10042400143293422FD0143293422FD002F56272C9
:1004340093422ED0143293422DD0143293422CD0B6
:100444001432934202D04FF4803203E04FF48052CE
:1004540000E00122364B5A60012380F8213000234A
:1004640080F82030436B002B5ED098470020B9E71A
:100474001022EFE74FF48072ECE74FF48052E9E783
:100484004FF48032E6E74FF48012E3E74FF08072D6
:10049400E0E70122DEE71022DCE74FF48072D9E7BF
:1004A400244A934224D01432934225D014329342E6
:1004B40024D01432934224D01432934224D01432E0
:1004C400934224D01432934224D002F562729342B0
:1004D40023D01432934222D01432934221D01432C6
:1004E400934202D04FF4803203E04FF4805200E094
:1004F4000122114B5A60AFE71022FAE74FF48072E1
:10050400F7E74FF48052F4E74FF48032F1E74FF409
:100514008012EEE74FF08072EBE70122E9E7102248
:10052400E7E74FF48072E4E700205BE780000240D5
:10053400000402400800024000000240F0B482B00F
:1005440000263546ABE0002C63D0012C00D1CE68E8
:10055400FF2B72D88446FF2B72D8AC00DCF8002045
:100564000F27A74022EA070206FA04F42243CCF834
:1005740000204A6812F0805F00F09080654A946918
:1005840044F001049461926902F001020192019A1B
:10059400AC08A71C604A52F827C005F00302970074
:1005A4000F22BA402CEA020C5C4A90424ED002F56B
:1005B4008062904200F08B8002F58062904200F0ED
:1005C400888002F58062904200F0858002F58062A6
:1005D400904200F0828002F58062904234D006227C
:1005E40035E04F4FBC4214D00BD94E4FBC4210D013
:1005F40007F58037BC420CD0A7F58017BC42A7D1C1
:1006040007E0A7F58017BC4203D007F58037BC424A
:100614009ED18C687CB1012C08D04261082697E7F2
:10062400CE68083694E7CE680C3691E70261082656
:100634008EE700268CE704268AE700F1040C8AE79B
:10064400A5F10804A40089E7052200E00022BA40CD
:1006540042EA0C020234304F47F824204A6812F46C
:10066400803F3CD0304C22681A4322604A6812F41E
:10067400003F3AD02C4C62681A4362604A6812F414
:10068400801F38D0284CA2681A43A2604A6812F42A
:10069400001F36D0244CE2681343E36001350F2D6C
:1006A40035D80122AA400B6813409A42F6D14C680F
:1006B400122CB8D095D8022CB2D07FF644AF032CBC
:1006C400B7D0112C7FF444AFCE68043640E7012242
:1006D400BDE70222BBE70322B9E70422B7E7124CC5
:1006E400226822EA03022260C0E70F4C626822EA11
:1006F40003026260C2E70C4CA26822EA0302A26011
:10070400C4E7094CE26822EA0303E360C6E702B0E7
:10071400F0BC704700100240000001400008014096
:1007240000002110000031100004014083681942C8
:1007340001D1002070470120704712B909040161FA
:10074400704701617047002866D0F0B587B0044651
:1007540090F82934C3B1032384F82934206801F0C4
:10076400DDFB254655F8107B6E460FCD0FC62B6872
:100774003360231D0ECB384601F0C1FB00212068F5
:1007840001F0D6FB002315E080F8283403F02EFD99
:10079400E1E704EB4312012182F8291082F82830A2
:1007A4009386002182F82B109163D1639A1C520125
:1007B400A15001330E2BECD9002312E004EB4312B9
:1007C400002182F8291282F82832938682F82B12AB
:1007D400C2F83812C2F83C1203F112025201A150BD
:1007E40001330E2BEAD9254655F8107B6E460FCD02
:1007F4000FC62B683360231D0ECB384601F09AFBDD
:10080400002584F82450012384F82934206801F059
:10081400A5FE284607B0F0BD0120704790F82834A3
:10082400012B10D010B50446012180F8281403F0E0
:100834001CFE206801F090FE206801F067FB002098
:1008440084F8280410BD0220704790F82834012B46
:100854000DD010B50446012380F8283480F8241004
:10086400006801F073FE002084F8280410BD022003
:10087400704738B54DB2002D1CDB01F07F046401D4
:1008840004F50A74044401F07F012170ED0F6570D2
:100894002261E37090F82834012B11D0054601231E
:1008A40080F828342146006801F05AFB002085F8BE
:1008B400280438BD01F07F04640128340444E2E7CD
:1008C4000220F6E74AB2002A1BDB01F07F035B013A
:1008D40003F50A73034401F07F011970D20F5A70B3
:1008E40090F82824012A12D010B50446012280F879
:1008F40028241946006801F0C7FC002084F8280465
:1009040010BD01F07F035B0128330344E3E70220B9
:10091400704770B501F07F056C0104F50A7101445C
:100924000444C4F83C2205F1120252018618835093
:100934000023736084F8293284F8285225B10068B2
:1009440001F028FE002070BD006801F023FEF9E7E5
:1009540001F00F01123100EB41118888704770B526
:1009640001F07F056C0104F1280101440444E263B1
:10097400AA1C52018618835000237360012384F853
:10098400293084F8285025B1006801F003FE0020C6
:1009940070BD006801F0FEFDF9E770B582B0044651
:1009A4000023ADF80630ADF804302068B0F84430C8
:1009B4009BB2ADF8063013F4004F00F00D82BDF881
:1009C400065015F00F0540F0C280BDF8063013F054
:1009D400100F50D003889BB2ADF80430BDF804303A
:1009E40013F4006F79D1BDF8043013F4004FDCD058
:1009F400038823F070031B051B0D03802068B0F8E7
:100A0400503094F8282203EBC203063300EB43036F
:100A1400D3F80034C3F30903C4F84432002B7CD167
:100A24000021204603F00AFC2368B3F85020063264
:100A340003EB4203D4F838123E297CD9C1F34F1298
:100A440011F01F0F01D1013A92B26FEAC2626FEA4C
:100A5400524292B2C3F80024226813889BB223F452
:100A6400804323F0700383F4405343F4004343F082
:100A74008003138099E703889BB223F4E14323F0B6
:100A840070039BB203802268B2F8503094F82810A7
:100A940003EBC103023302EB4303D3F80034C3F383
:100AA40009036364E26B1344E3630021204603F00B
:100AB400CFFB94F82430002B3FF477AF236C002B4A
:100AC4007FF473AF94F82430226843F08003A2F8D3
:100AD4004C30002384F8243067E7B0F8503094F8A1
:100AE400282203EBC203063300EB4303D3F800349C
:100AF400C3F30903C4F84432B4F82C2204F22C41A1
:100B040001F0A5FE2268138823F070031B051B0D5A
:100B14001380204603F08AFB47E7B4F82C22D4F86C
:100B24003C1201F094FED4F84422D4F83C3213442D
:100B3400C4F83C3274E7C1F34F0211F0010F01D045
:100B4400013292B2920292B2C3F8002484E730F8E0
:100B540025309BB2ADF80430BDF8043013F4004FD7
:100B640035D1BDF8043013F0800F3FF41EAF226876
:100B740032F825309BB223F4E14323F070039BB297
:100B840022F8253004EB451393F83230002B40F063
:100B9400B2802068B0F8503004EB451292F8282057
:100BA40003EBC203023300EB4303D3F80034C3F373
:100BB4000903AA1C04EB42125360002B00F0C68008
:100BC40004EB45118A8DC96B01F0CFFCBEE030F80F
:100BD400253023F070031B051B0D20F8253004EB92
:100BE400451393F83232D3B92068B0F8503004EB8F
:100BF400451292F8282203EBC203063300EB4303A9
:100C0400B3F80064C6F3090686B304EB4511334612
:100C1400B1F82C22D1F83C1201F019FE26E020682C
:100C240004EB451393F8282230F8223013F4804F54
:100C340042D0B0F8503003EBC203023300EB43035D
:100C4400B3F80064C6F3090666BB226804EB4513D7
:100C540093F8281232F8213023F0F0031B051B0D02
:100C640043F4004343F0C00322F8213005F112039A
:100C74005B01E1184A6832444A6004EB4511D1F83B
:100C84003C223244C1F83C22E3581BB1D1F838125B
:100C94008E4228D204EB451393F82812204603F021
:100CA400CDFA5EE704EB45113346B1F82E22D1F8B4
:100CB4003C1201F0CCFDC8E7B0F8503003EBC2039E
:100CC400063300EB4303B3F80064C6F30906002EB1
:100CD400BBD004EB45113346B1F83022D1F83C12B5
:100CE40001F0B5FDB1E704EB451191F82812204657
:100CF400FFF70FFE35E7206804EB451393F828202F
:100D040030F8223013F0400F46D0B0F8503003EBE7
:100D1400C203023300EB4303D3F80034C3F30903E3
:100D2400AA1C04EB421253607BBB226804EB4513FC
:100D340093F8281032F8213023F0F0031B051B0D23
:100D440043F4404343F0800322F821302268B2F890
:100D5400503004EB451090F8281003EBC103023324
:100D640002EB4303D3F80024C2F30902AB1C5B017A
:100D7400E1184A60C16B0A44C263E35823BB90F88C
:100D84002810204603F064FA0FE604EB4511CA8DDF
:100D9400C96B01F0EAFBC8E7B0F8503003EBC203BB
:100DA400063300EB4303D3F80034C3F30903AA1C4E
:100DB40004EB42125360002BB7D004EB45110A8EAA
:100DC400C96B01F0D2FBB0E704EB451595F8281088
:100DD4002046FFF7C4FDE8E5002002B070BD10B561
:100DE4000446006801F0BCFB10F4004F45D12068B4
:100DF40001F0B6FB10F4806F43D1206801F0B0FB22
:100E040010F4804F08D02268B2F844309BB223F427
:100E140080439BB2A2F84430206801F0A1FB10F497
:100E2400005F08D02268B2F844309BB223F4005328
:100E34009BB2A2F84430206801F092FB10F4805F6A
:100E440030D1206801F08CFB10F4006F49D1206888
:100E540001F086FB10F4007F64D1206801F080FB70
:100E640010F4807F08D02268B2F844309BB223F497
:100E740080739BB2A2F8443010BD2046FFF78DFD6D
:100E8400B5E72268B2F844309BB223F480639BB286
:100E9400A2F84430204603F0EAF900212046FFF787
:100EA400D4FCAAE72268B2F840309BB223F00403D2
:100EB4009BB2A2F840302268B2F840309BB223F0D3
:100EC40008039BB2A2F84030204603F0EDF92268F3
:100ED400B2F844309BB223F480539BB2A2F844305E
:100EE400AFE72268B2F8403043F00803A2F840307C
:100EF4002268B2F844309BB223F400639BB2A2F898
:100F040044302268B2F8403043F00403A2F8403081
:100F1400206801F025FB10F4805F98D1204603F08F
:100F2400B3F994E72268B2F844309BB223F4007317
:100F34009BB2A2F84430204603F093F98DE738B50C
:100F44004AB2002A1BDB4B0103F50A730344012454
:100F54009C7001F07F051D70D20F5A7090F8282400
:100F6400A24218D00446012280F8282419460068B9
:100F740001F06CFA4DB1002084F8280438BD01F06A
:100F84007F035B0128330344E1E704F22C4120682A
:100F940001F0E9FAEFE70220F0E710B54AB2002ABF
:100FA4001ADB4B0103F50A73034400249C7001F01F
:100FB4007F011970D20F5A7090F82824012A11D099
:100FC4000446012280F828241946006801F075FAC5
:100FD400002084F8280410BD01F07F035B0128334E
:100FE4000344E2E70220F6E711F0800F0CD001F091
:100FF4007F014901283101445AB101228A72CB8010
:101004001B0C0B8100207047490101F50A71014452
:10101400F2E78A728B80F5E782B0084B1B68084AB6
:10102400A2FB03235B0A00FB03F0019000BF019BBA
:101034005A1E0192002BF9D102B0704730010020F2
:10104400D34D621070B582B00446036813F0010FEB
:101054002CD0AB4B5B6803F00C03042B1DD0A84BC6
:101064005B6803F00C03082B12D06368B3F5803F70
:1010740041D0002B55D103F1804303F504331A68A2
:1010840022F480321A601A6822F480221A6037E04F
:101094009B4B5B6813F4803FE7D0994B1B6813F4B8
:1010A400003F03D06368002B00F0AE81236813F087
:1010B400020F76D0924B5B6813F00C0F5FD0904B0D
:1010C4005B6803F00C03082B54D02369002B00F059
:1010D4008A808C4B01221A60FFF7E4F80546884B9E
:1010E4001B6813F0020F75D1FFF7DCF8401B0228D0
:1010F400F5D903208BE1824A136843F480331360EB
:10110400636843B3FFF7CEF805467D4B1B6813F4C1
:10111400003FCBD1FFF7C6F8401B6428F5D9032064
:1011240075E1B3F5A02F09D0754B1A6822F480320B
:101134001A601A6822F480221A60E1E703F18043FE
:10114400A3F53C331A6842F480221A601A6842F408
:1011540080321A60D4E7FFF7A5F80546684B1B6890
:1011640013F4003FA2D0FFF79DF8401B6428F5D983
:1011740003204CE1624B5B6813F4803FA5D1604BC4
:101184001B6813F0020F04D02369012B01D0012046
:101194003DE15B4A136823F0F803616943EAC10344
:1011A4001360236813F0080F32D0A369002B5BD0BF
:1011B400554B01221A60FFF775F80546504B5B6AE0
:1011C40013F0020F21D1FFF76DF8401B0228F5D967
:1011D40003201CE14A4A136823F0F803616943EAD7
:1011E400C1031360DDE7474B00221A60FFF75AF88A
:1011F4000546434B1B6813F0020FD2D0FFF752F899
:10120400401B0228F5D9032001E10120FFF704FF68
:10121400236813F0040F00F09780394BDB6913F057
:10122400805F33D1364BDA6942F08052DA61DB6990
:1012340003F080530193019B0125344B1B6813F485
:10124400807F25D0E368012B36D0002B4CD103F1ED
:10125400804303F504331A6A22F001021A621A6AFF
:1012640022F004021A622CE0274B00221A60FFF7D6
:1012740019F80546224B5B6A13F0020FC8D0FFF73A
:1012840011F8401B0228F5D90320C0E00025D4E75B
:101294001E4A136843F480731360FFF703F806468D
:1012A4001A4B1B6813F4807FCCD1FEF7FBFF801B25
:1012B4006428F5D90320AAE0114A136A43F0010314
:1012C4001362E36873B3FEF7EDFF06460C4B1B6A2B
:1012D40013F0020F37D1FEF7E5FF801B41F288338C
:1012E4009842F3D9032092E0052B11D0044B1A6ADB
:1012F40022F001021A621A6A22F004021A62E0E77A
:10130400001002400000424280044242007000404B
:10131400414B1A6A42F004021A621A6A42F001024C
:101324001A62CEE7FEF7BEFF06463B4B1B6A13F07C
:10133400020F08D0FEF7B6FF801B41F288339842B3
:10134400F3D9032063E0E5B9E369002B5ED0324AA8
:10135400526802F00C02082A5BD0022B17D02F4BE4
:1013640000221A60FEF79EFF04462B4B1B6813F005
:10137400007F47D0FEF796FF001B0228F5D9032013
:1013840045E0254AD36923F08053D361DCE7234B3E
:1013940000221A60FEF786FF05461F4B1B6813F0F8
:1013A400007F06D0FEF77EFF401B0228F5D90320FC
:1013B4002DE0236AB3F5803F1AD017494B6823F414
:1013C4007413226A606A024313434B60134B012275
:1013D4001A60FEF767FF04460F4B1B6813F0007F8B
:1013E4000ED1FEF75FFF001B0228F5D903200EE0A3
:1013F400094A536823F40033A1680B435360DCE7C4
:10140400002004E0002002E0012000E0002002B0FF
:1014140070BD0120FBE700BF0010024060004242A3
:10142400014B01221A6070474C00424210B487B04D
:10143400164C94E80F000DF1180C0CE90F00238AE8
:10144400ADF80430124B5B6803F00C02082A1AD181
:10145400C3F38342624412F8102C13F4803F05D185
:101464000C4800FB02F007B010BC7047084B5B68E7
:10147400C3F34043634413F8143C074800FB02F0F1
:10148400B0FBF3F0EFE70448EDE700BFE0450008E8
:101494000010024000093D0000127A00594B1B68FD
:1014A40003F007038B420CD2564A136823F0070358
:1014B4000B431360136803F007038B4201D0012030
:1014C400704770B5036813F0020F06D04E4A536894
:1014D40023F0F0038468234353600C4605460368F5
:1014E40013F0010F52D04368012B23D0022B28D0D4
:1014F400454A126812F0020F00F0828042494A689D
:1015040022F0030213434B60FEF7CCFE06466B68E1
:10151400012B1DD0022B2AD03B4B5B6813F00C0F20
:1015240034D0FEF7BFFE801B41F288339842F3D9D2
:10153400032064E0344A126812F4003FDED1012033
:101544005DE0314A126812F0007FD7D1012056E0E5
:101554002D4B5B6803F00C03042B17D0FEF7A2FE9F
:10156400801B41F288339842F2D9032047E0264B8E
:101574005B6803F00C03082B08D0FEF793FE801B76
:1015840041F288339842F2D9032038E01D4B1B689E
:1015940003F00703A3420CD91A4A136823F0070384
:1015A40023431360136803F00703A34201D001200F
:1015B40025E02B6813F0040F06D0134A536823F474
:1015C400E063E9680B4353602B6813F0080F07D0FE
:1015D4000D4A536823F46053296943EAC1035360F5
:1015E400FFF724FF084B5B68C3F30313074AD35C7C
:1015F400D840074B18600020FEF712FE002070BD93
:101604000120FCE7002002400010024044300208A0
:1016140030010020014B1868704700BF30010020E2
:101624007047000008B5064B9B6813F0800F00D18B
:1016340008BDFFF7F5FF034B80221A70F8E700BFDF
:10164400001002400A10024070B582B004460368DC
:1016540013F0010F34D03E4BDB6913F0805F48D1A7
:101664003B4BDA6942F08052DA61DB6903F0805364
:101674000193019B0125374B1B6813F4807F3AD0FB
:10168400334B1B6A13F4407311D0626802F4407246
:101694009A420CD02E4A136A23F440702E49012634
:1016A4000E6000260E60106213F0010F37D1284A35
:1016B400136A23F4407361680B431362002D3FD116
:1016C400236813F0020F06D0214A536823F44043E1
:1016D400A1680B435360236813F0100F35D01C4AE4
:1016E400536823F4800361690B435360002002B004
:1016F40070BD0025BFE7174A136843F48073136075
:10170400FEF7D0FD0646134B1B6813F4807FB7D158
:10171400FEF7C8FD801B6428F5D90320E7E7FEF730
:10172400C1FD06460A4B1B6A13F0020FBFD1FEF738
:10173400B9FD801B41F288339842F3D90320D6E7E0
:10174400D36923F08053D361BAE70020CFE700BF09
:10175400001002400070004040044242F8B50546C3
:101764000F4616461C463BE02CB1FEF79BFD069B3C
:10177400C01AA04234D32A68536823F0E0035360AC
:101784006B68B3F5827F0BD0AB6AB3F5005F14D0FE
:10179400012385F85130002385F85030032027E0D9
:1017A400AB68B3F5004F02D0B3F5806FECD12A6873
:1017B400136823F040031360E6E72A68136823F4F0
:1017C40000531B041B0C13602A68136843F4005372
:1017D4001360DDE70123B34209D0B4F1FF3FC3D165
:1017E4002B689B6837EA0303F4D00023F3E7002057
:1017F400F8BD10B582B0044600920B460022802149
:10180400FFF7ACFF034610B9184602B010BD636D74
:1018140043F0200363650323F6E72DE9F04184B028
:101824001E4690F85030012B00F0C88004460D4647
:101834009046012380F85030FEF734FD074694F8B3
:101844005130DBB2012B0AD00223012284F851204B
:10185400002284F85020184604B0BDE8F081002D21
:1018640000F0A480B8F1000F00F0A280032384F8F4
:101874005130002363652563A4F83480A4F83680CE
:10188400A363A387E38763642364A368B3F5004F6A
:101894001BD023681A6812F0400F03D11A6842F073
:1018A40040021A60E368B3F5006F14D063681BB19B
:1018B400E38E9BB2012B3ED1236815F8012B1A73DA
:1018C400E38E013B9BB2E38635E02268136843F460
:1018D40080431360DDE763681BB1E38E9BB2012B89
:1018E4000DD1236835F8022BDA60E38E013B9BB2FD
:1018F400E38604E0002E5DD0B6F1FF3F0FD1E38E06
:101904009BB27BB323689A6812F0020FF2D035F8C9
:10191400022BDA60E38E013B9BB2E386EFE7FEF72E
:10192400C1FCC01BB042EAD303238EE7002E43D090
:10193400B6F1FF3F0FD1E38E9BB29BB123689A6847
:1019440012F0020FF2D015F8012B1A73E38E013B4B
:101954009BB2E386EFE7FEF7A5FCC01BB042EAD3D7
:10196400032372E700973346012202212046FFF742
:10197400F5FE08B1032368E73A4631462046FFF7EF
:1019840038FF034618B12023636501235DE7A2688D
:1019940032B903922268D168039192680392039A40
:1019A400626D002A3FF451AF01234EE701234CE757
:1019B40001234AE7032348E7032346E702234AE7D0
:1019C4002DE9F04385B099460C9D90F85030012BD9
:1019D40000F0108104460F461646012380F850306B
:1019E400FEF760FC804694F85130DBB26268012B4C
:1019F40015D0B2F5827F0AD00223012284F8512047
:101A0400002284F85020184605B0BDE8F083A2688F
:101A1400002A40F0E780042B01D00223EDE7002FD9
:101A240000F0E280002E00F0E180B9F1000F00F038
:101A3400DF8094F85130DBB2012B2BD00023636597
:101A4400A663A4F83E90A4F83C902763A4F83690CB
:101A5400A4F834902364636423681A6812F0400F76
:101A640003D11A6842F040021A60E368B3F5006FCC
:101A740014D063681BB1E38E9BB2012B07D123689A
:101A840017F8012B1A73E38E013B9BB2E3864FF0E8
:101A9400010961E0052384F85130CFE763681BB185
:101AA400E38E9BB2012B07D1236837F8022BDA604F
:101AB400E38E013B9BB2E3864FF0010913E0E38F11
:101AC4009BB26BB123689A6812F0010F08D0DB68EF
:101AD40026F8023BE38F013B9BB2E3874FF00109F9
:101AE400B5F1FF3F1CD1E38E9BB21BB9E38F9BB2D0
:101AF400002B55D0B9F1000FE1D0E38E9BB2002B3F
:101B0400DDD023689A6812F0020FD8D037F8022B80
:101B1400DA60E38E013B9BB2E3864FF00009CEE727
:101B2400FEF7C0FBA0EB0800A842DCD3032364E764
:101B3400E38F9BB26BB123689A6812F0010F08D04F
:101B4400DB683370E38F013B9BB2E38701364FF0D0
:101B54000109B5F1FF3F1BD1E38E9BB213B9E38FAB
:101B64009BB2EBB1B9F1000FE2D0E38E9BB2002B34
:101B7400DED023689A6812F0020FD9D03A781A732B
:101B8400E38E013B9BB2E38601374FF00009CFE7B8
:101B9400FEF788FBA0EB0800A842DDD303232CE763
:101BA400CDF800802B46012202212046FFF7D6FD06
:101BB40008B1032321E7424629462046FFF719FED0
:101BC400034618B120236365012316E7A268002A9F
:101BD4007FF413AF03922268D16803919268039251
:101BE400039A0AE7022308E7012306E7012304E72F
:101BF400012302E7022306E77047000010B584B012
:101C0400044602685068936803F0410101290AD030
:101C140013F0020F0ED010F0800F0BD0636C20462F
:101C2400984704B010BD10F0400FF1D0236C20464B
:101C34009847F6E713F0600FF3D010F0200FF0D0C0
:101C440013F0400F0FD094F85110C9B203293DD0BE
:101C5400616D41F00401616500210191D168019138
:101C640091680191019913F0200F0CD0636D43F03A
:101C7400010363650023039393680393136823F0BC
:101C840040031360039B636D002BCAD02268536822
:101C940023F0E0035360012384F8513010F0030F64
:101CA4001CD02268536823F003035360E36C23B110
:101CB4000C4A5A63E06CFEF78DFBA36C002BB0D08A
:101CC400084A5A63A06CFEF785FBAAE70023029337
:101CD400D368029393680293029BA2E72046FFF71E
:101CE4008BFF9EE7ED1C000808B5406A0023C387FC
:101CF400C386FFF781FF08BD00283CD010B5044619
:101D04000023836290F85130002B31D0022384F8F1
:101D140051302268136823F0400313606368A2689B
:101D24001343E26813432269134362691343A269AC
:101D340002F400721343E2691343226A1343A16A53
:101D440022680B431360638B03F00403616A226807
:101D54000B4353602368E26A1A612268D36923F44F
:101D64000063D36100206065012384F8513010BD05
:101D740002F076F8CAE70120704700000368244A9D
:101D8400904212D002F5006290420ED0B0F1804F22
:101D94000BD0A2F59832904207D002F580629042AF
:101DA40003D002F58062904203D123F070034A68A5
:101DB4001343174A904212D002F5006290420ED0AB
:101DC400B0F1804F0BD0A2F59832904207D002F5C3
:101DD4008062904203D002F58062904203D123F4E2
:101DE4004073CA68134323F080034A6913430360B2
:101DF4008B68C3620B688362054B984203D003F57A
:101E04000063984201D10B69036301234361704766
:101E1400002C0140002847D0F8B505460C4690F840
:101E24003D30002B3BD0022385F83D30294651F844
:101E3400042B936823F0070393602868FFF79EFF41
:101E440029688A688E690F6A2068104326F44076F0
:101E540026F00306A268A36942EA0323334323F46A
:101E64007C4323F0FC03E668E26946EA02261E434B
:101E7400226A1303226943EA0213334327F0AA07B1
:101E84006268646942EA04123A43886029688B6193
:101E94002B681A62012385F83D300020F8BD80F8D4
:101EA4003C3002F03BF8BEE70120704790F83C302C
:101EB400012B22D030B4012280F83C20022380F888
:101EC4003D300468636823F07003636004686368EA
:101ED4000D682B4363600468A36823F08003A36048
:101EE4000468A36849680B43A36080F83D2000237D
:101EF40080F83C30184630BC70470220704784B0EC
:101F040001A880E80E00002004B07047B0F840300B
:101F140043F43F43A0F8403000207047B0F840300D
:101F240023F474535B045B0CA0F84030002070472A
:101F34000020704784B038B505AC84E80E00012356
:101F4400A0F840300024A0F84040A0F84440A0F895
:101F54005040FFF7DBFF2046BDE8384004B070472F
:101F640010B4CB78032B0FD8DFE803F0026D546074
:101F74000A7830F822309BB223F4EC4323F0700348
:101F840043F4007320F822300A7830F8223023F02A
:101F9400F0031B051B0D134343F4004343F080037C
:101FA40020F822308B7A002B40F0AF804B78002B46
:101FB40056D08A885208B0F850300C7803EBC4032A
:101FC40000EB43035200C3F800240A7830F82230AF
:101FD40013F0400F0BD030F8223023F0F0031B0530
:101FE4001B0D43F4004343F0C00320F822300A7869
:101FF40030F822309BB223F4E04323F0400383F013
:10200400200343F4004343F0800320F822300020EF
:1020140010BC70470A7830F822309BB223F4EC43AA
:1020240023F070039BB220F82230ADE70A7830F831
:1020340022309BB223F4EC4323F0700343F4C063D7
:1020440020F82230A0E70A7830F822309BB223F43B
:10205400EC4323F0700343F4806320F8223093E7C9
:102064008A885208B0F850300C7803EBC403043368
:1020740000EB43035200C3F80024B0F850300A7850
:1020840003EBC203063300EB43030C693E2C30D947
:10209400C4F34F1214F01F0F01D1013A92B26FEA48
:1020A400C2626FEA524292B2C3F800240A7830F84E
:1020B400223013F4804F0BD030F8223023F0F00399
:1020C4001B051B0D43F4404343F0800320F82230EA
:1020D4000A7830F822309BB223F4804323F0700353
:1020E40083F4405343F4004343F0800320F8223048
:1020F4008DE7C4F34F0214F0010F01D0013292B204
:10210400920292B2C3F80024D0E70A7830F8223061
:1021140023F4F8731B051B0D43F4014343F08003C0
:1021240020F82230CA885208B0F850300C7803EBFB
:10213400C40300EB43035200C3F800240A89520885
:10214400B0F850300C7803EBC403043300EB4303C2
:102154005200C3F800244B78002B4BD10A7830F896
:10216400223013F4804F0BD030F8223023F0F003E8
:102174001B051B0D43F4404343F0800320F8223039
:102184000A7830F8223013F0400F0BD030F82230A8
:1021940023F0F0031B051B0D43F4004343F0C0037D
:1021A40020F822300A7830F8223023F0F0031B059F
:1021B4001B0D43F4004343F0C00320F822300A7897
:1021C40030F822309BB223F4804323F0700383F46D
:1021D400405348F28004234320F822300A7830F830
:1021E40022309BB223F4E04323F04003234320F83E
:1021F40022300CE70A7830F8223013F4804F0BD0E9
:1022040030F8223023F0F0031B051B0D43F4404348
:1022140043F0800320F822300A7830F8223013F09B
:10222400400F0BD030F8223023F0F0031B051B0DB8
:1022340043F4004343F0C00320F822300A7830F816
:10224400223023F0F0031B051B0D43F4404343F0FD
:10225400800320F822300B7830F8232092B222F445
:10226400E04222F0400248F28004224320F8232076
:102274000A7830F822309BB223F4804323F07003B1
:10228400234320F82230C2E68B7A002B44D14B78CA
:102294000BB30A7830F8223013F0400F0BD030F82B
:1022A400223023F0F0031B051B0D43F4004343F0DD
:1022B400C00320F822300A7830F822309BB223F48D
:1022C400E04323F0400343F4004343F0800320F849
:1022D4002230002070470A7830F8223013F4804FFF
:1022E4000BD030F8223023F0F0031B051B0D43F410
:1022F400404343F0800320F822300A7830F822303B
:102304009BB223F4804323F0700343F4004343F06F
:10231400800320F82230DCE710B44B78002B4BD13B
:102324000A7830F8223013F4804F0BD030F8223082
:1023340023F0F0031B051B0D43F4404343F08003DB
:1023440020F822300A7830F8223013F0400F0BD0F6
:1023540030F8223023F0F0031B051B0D43F4004337
:1023640043F0C00320F822300A7830F8223023F0FA
:10237400F0031B051B0D43F4004343F0C00320F896
:1023840022300B7830F8232092B222F4804222F0DB
:10239400700248F28004224320F823200A7830F89F
:1023A40022309BB223F4E04323F04003234320F87C
:1023B4002230002010BC70470A7830F8223013F421
:1023C400804F0BD030F8223023F0F0031B051B0D97
:1023D40043F4404343F0800320F822300A7830F875
:1023E400223013F0400F0BD030F8223023F0F003EA
:1023F4001B051B0D43F4004343F0C00320F82230B7
:102404000A7830F8223023F0F0031B051B0D43F447
:10241400404343F0800320F822300B7830F8232027
:1024240092B222F4E04222F0400248F280042243B5
:1024340020F823200A7830F822309BB223F480431A
:1024440023F07003234320F82230B2E70A788AB1DC
:102454004B7813BB30F822309BB223F4804323F033
:10246400700383F4805343F4004343F0800320F863
:10247400223010E030F822309BB223F4804323F062
:10248400400383F4805383F0100343F4004343F088
:10249400800320F822300020704730F822309BB2AD
:1024A40023F4E04323F0400383F0100343F4004398
:1024B40043F0800320F82230EDE74B781BB30A7811
:1024C40030F8223013F0400F0BD030F8223023F0D4
:1024D400F0031B051B0D43F4004343F0C00320F835
:1024E40022300A7830F822309BB223F4E04323F000
:1024F400400383F0300343F4004343F0800320F8A7
:102504002230002070470A7830F8223013F4804FCC
:102514000BD030F8223023F0F0031B051B0D43F4DD
:10252400404343F0800320F822300A7830F8223008
:102534009BB223F4804323F0700383F4405343F4A9
:10254400004343F0800320F82230DAE711B98023F6
:10255400A0F84C30002070470020704700207047DE
:10256400B0F8440070470020704701335B1000EB63
:10257400420202F5806263B110B40C78487844EAF0
:10258400002422F8044B0231013B002BF5D110BC8E
:1025940070477047F8B58A694D78012D34D00B69BE
:1025A400934280F0EA80D21A8A618A7A002A40F043
:1025B400F480B0F850200C7802EBC402063200EB31
:1025C40042023E2B40F2DD80C3F34F1413F01F0F81
:1025D40001D1013CA4B26FEAC4646FEA5444A4B2CA
:1025E400C2F800440A7830F822309BB223F48043C6
:1025F40023F0700383F4405343F4004343F0800317
:1026040020F822300020F8BD0F69974225D2D21B52
:102614008A610E4604468B7A1BB30B7830F823206C
:1026240012F0400F69D0002D37D1B0F8502002EBE2
:10263400C303063300EB43033E2F22D9C7F34F12E3
:1026440017F01F0F01D1013A92B26FEAC2626FEA2A
:10265400524292B2C3F8002428E000238B6117464B
:10266400D7E7BBB28A884969FFF77FFFB4F85030D7
:10267400327803EBC203023304EB4303C3F8007460
:102684002AE0C7F34F0217F0010F01D0013292B2D2
:10269400920292B2C3F8002408E0B0F8502002EB92
:1026A400C303023300EB4303C3F800743289BBB2A3
:1026B40071692046FFF759FF7378002B4DD13278AA
:1026C40034F8223023F0F0031B051B0D43F40043C0
:1026D40043F0C00324F82230327834F822309BB21D
:1026E40023F4E04323F0400383F0300343F4004336
:1026F40043F0800324F8223084E71DBBB0F8502057
:1027040002EBC303023300EB43033E2F0ED9C7F39E
:102714004F1217F01F0F01D1013A92B26FEAC26251
:102724006FEA524292B2C3F8002414E0C7F34F0296
:1027340017F0010F01D0013292B2920292B2C3F8A3
:10274400002408E0B0F8502002EBC303023300EB8E
:102754004303C3F80074F288A9E7012BBCD1327893
:1027640034F8223023F0F0031B051B0D43F44043DF
:1027740043F0800324F82230AEE700238B61134634
:1027840013E7C3F34F0413F0010F01D00134A4B2D3
:10279400A402A4B2C2F8004424E7BDB9B0F85020A2
:1027A4000C7802EBC402023200EB42023E2B28D921
:1027B400C3F34F1413F01F0F01D1013CA4B26FEA0D
:1027C400C4646FEA5444A4B2C2F800444A7882BB99
:1027D400B0F850200C7802EBC402063200EB42023F
:1027E4003E2B1AD9C3F34F1413F01F0F01D1013C30
:1027F400A4B26FEAC4646FEA5444A4B2C2F80044B9
:10280400F0E6C3F34F0413F0010F01D00134A4B276
:10281400A402A4B2C2F80044D8E7C3F34F0413F0EF
:10282400010F01D00134A4B2A402A4B2C2F800443E
:10283400D8E6012A7FF4D6AEB0F850200C7802EB2B
:10284400C402023200EB4202C2F80034CAE6013389
:102854005B1000EB420202F5806204E0106821F88C
:10286400020B013B0432002BF8D17047D0F8183228
:102874001BB10020C3F8140270470220704710B542
:10288400D0F81842D0F81C325BB194F80002FF284B
:1028940007D09B6894F8012221469847FF2384F8C7
:1028A4000032002010BD000043230380004870471D
:1028B4000800002043230380004870474C00002098
:1028C4004323038000487047900000200A230380BC
:1028D40000487047D400002038B50446D0F8185298
:1028E40001F0B8FDC5F80C02D4F818324BB1D4F895
:1028F4001C32DB6805F50371D5F804029847002003
:1029040038BD0220FCE7000070B505460C46D0F83F
:1029140018620B7813F0600225D0202A07D1CA88E8
:102924003AB9D0F81C329B680022487898470020B6
:1029340070BD13F0800F0BD0D0F81C329B68314669
:1029440060789847E2883146284600F059FCEEE763
:102954004B7886F80032CB8886F80132CA88314633
:1029640000F063FCE3E74B780A2BE0D10122024933
:1029740000F046FCDBE700BF9401002010B50446DC
:10298400812101F000FD0121204601F0FCFC82219F
:10299400204601F0F8FCD4F8183253B1D4F81C32B4
:1029A4005B689847D4F8180201F05EFD0023C4F870
:1029B4001832002010BD38B50446037C73BB4FF4B5
:1029C40000730222812101F0CDFC4FF40073022236
:1029D4000121204601F0C6FC08230322822120465F
:1029E40001F0C0FC4FF4077001F03AFD0546C4F84D
:1029F400180248B3D4F81C321B6898470023C5F862
:102A04001432C5F81832237CA3B14023D5F804222C
:102A14000121204601F010FD002038BD4023022290
:102A2400812101F09FFC402302220121204601F074
:102A340099FCD1E74FF40073D5F804220121204614
:102A440001F0FAFC0020E8E70120E6E719B1C0F83C
:102A54001C120020704702207047D0F81832C3F8C7
:102A64000812C3F8102200207047D0F81832C3F8B7
:102A7400041200207047D0F818229AB108B5037CDC
:102A84003BB14023D2F80422012101F0D5FC0020FF
:102A940008BD4FF40073D2F80422012101F0CCFCEC
:102AA4000020F5E70220704798B108B50346D0F836
:102AB400140210B10020C3F8140209B1C3F81012B3
:102AC4001846012380F8FC31027001F0F3FB00206A
:102AD40008BD0220704719B1C0F8141200207047D5
:102AE4000220704708B501F02FFC002008BD08B58E
:102AF400D0F8143233B11B68984708B9002008BDD8
:102B04000220FCE70220FAE708B5D0F814325B682B
:102B14009847002008BD38B5044600F502752846DC
:102B240000F00CF90123C4F8F431B4F80E32C4F8FF
:102B3400F83194F8081201F01F03012B0ED03BB1B9
:102B4400022B10D001F08001204601F02AFC03E0A2
:102B54002946204600F06BFA002038BD294620465D
:102B640000F089FAF8E72946204600F0A0FAF3E7D6
:102B740010B5044621BB1346D0F8F421032A01D032
:102B8400002010BDD0F80C11D0F8102191420CD8BF
:102B9400D0F814321B6923B190F8FC21032A00D128
:102BA4009847204600F058FBEAE7891AC0F80C1150
:102BB4008A4228BF0A4692B2194600F045FBDFE775
:102BC4000A46D0F814329B69002BD9D090F8FC1136
:102BD4000329D5D111469847D2E710B504460029F8
:102BE40046D11346D0F8F421022A05D094F80032D5
:102BF400012B39D0002010BDC169026A914219D855
:102C04008169B1FBF2F302FB13132BB98A4203D897
:102C1400D0F8F83199421AD3D4F81432DB682BB1C6
:102C240094F8FC21032A01D120469847204600F05D
:102C34001EFBDBE78A1AC26192B2194600F0EDFA74
:102C440000231A461946204601F0F6FBCEE700227F
:102C5400114600F0E2FA0021C4F8F8110B460A46C6
:102C6400204601F0E9FBC1E7002384F80032C1E704
:102C74000A46D0F814325B69002BBBD090F8FC11E3
:102C84000329B7D111469847B4E738B50446402321
:102C94000022114601F066FB4025C4F810512B4672
:102CA40000228021204601F05DFB2562012384F887
:102CB400FC31D4F818322BB1D4F814325B68217982
:102CC40020469847002038BD01740020704790F8D2
:102CD400FC3180F8FD31042380F8FC31002070477A
:102CE40090F8FD3180F8FC310020704708B590F869
:102CF400FC31032B01D0002008BDD0F81432DB696D
:102D0400002BF8D09847F6E7002302E00133DBB24A
:102D140001300278002AF9D1184670474B88012BFC
:102D24000BD110B50446C0F80432D0F814329B68B5
:102D34009847204600F090FA10BD70470B78037056
:102D44004B7843708B78CA7803EB022343800B796A
:102D54004A7903EB022383808B79CA7903EB02233C
:102D6400C380704710B50446802101F01AFB00218E
:102D7400204601F016FB10BD30B583B004460D4665
:102D84004A88130A013B062B00F28180DFE803F036
:102D94000413277F7F637000D0F810321B680DF195
:102DA4000601007C9847BDF8062012B1EB88002B81
:102DB40071D103B030BD037C43B9D0F814329B6A9F
:102DC4000DF10600984702234370ECE7D0F8143263
:102DD400DB6A0DF10600984702234370E3E7D2B2A1
:102DE400052A34D8DFE802F0030B131B232BD0F899
:102DF40010325B680DF10601007C9847D3E7D0F8E8
:102E040010329B680DF10601007C9847CBE7D0F89F
:102E14001032DB680DF10601007C9847C3E7D0F857
:102E240010321B690DF10601007C9847BBE7D0F80E
:102E340010325B690DF10601007C9847B3E7D0F8C6
:102E440010329B690DF10601007C9847ABE72946D7
:102E5400FFF788FFADE7037C33B9D0F814325B6B1E
:102E64000DF1060098479EE72946FFF77BFFA0E790
:102E7400037C43B9D0F814321B6B0DF1060098475C
:102E8400072343708FE72946FFF76CFF91E7294634
:102E9400FFF768FF8DE79A4228BF1A46ADF806206F
:102EA4000146204600F0ACF983E738B504468B8828
:102EB400E3B9CB88D3B98D7805F07F0590F8FC3160
:102EC400032B0CD080F8FE51294601F099FA2046D4
:102ED40000F0C2F935B1022384F8FC3109E0FFF7B0
:102EE40041FF06E0012384F8FC3102E02046FFF7AD
:102EF40039FF38BD38B504460D468978254B19701D
:102F0400012909D890F8FC31022B09D0032B1CD0DD
:102F14002946FFF727FF02E02946FFF723FF38BDC4
:102F240081B14160032380F8FC31FFF7E0FD022802
:102F340003D0204600F090F9F1E729462046FFF738
:102F440011FFECE700F088F9E9E789B14368994299
:102F54001DD0D9B2FFF7D8FD0E4B19786160204619
:102F6400FFF7C5FD02280DD0204600F075F9D6E71D
:102F7400022380F8FC314160FFF7C6FD204600F0D3
:102F84006BF9CCE729462046FFF7ECFEC7E700F0D3
:102F940063F9C4E79501002008B5CB88012B08D15B
:102FA40090F8FC31022B07D0032B0DD0FFF7DAFE8B
:102FB40001E0FFF7D7FE08BD0146002341F8083FB2
:102FC400012200F01DF9F6E70122011D00F018F9B5
:102FD400F1E708B590F8FC31023B012B0CD8012332
:102FE400C360D0F804320BB10323C360022200F1A2
:102FF4000C0100F005F908BDFFF7B4FEFBE710B5BE
:10300400044690F8FC31023B012B0DD84B88012B70
:1030140009D10023C0F80432D0F814329B689847D1
:10302400204600F019F910BDFFF79CFEFBE708B538
:103034004B78092B1CD8DFE803F012181B151B0969
:10304400051B0F0CFFF798FE002008BDFFF72DFFAE
:10305400FAE7FFF74FFFF7E7FFF79EFFF4E7FFF705
:10306400B8FFF1E7FFF75AFEEEE7FFF7C8FFEBE71B
:10307400FFF778FEE8E738B504460D4690F8FC31D2
:10308400032B11D10B79012B0BD8D0F814329B6888
:103094009847EB880BB1002038BD204600F0DCF8DF
:1030A400F9E7FFF75FFEF6E7FFF75CFEF3E738B5F5
:1030B40005460C468A880B7803F06003202B05D163
:1030C400D0F814329B689847002038BDD1B2637899
:1030D400012B25D0002B47D0032BF5D190F8FC31E0
:1030E400022B05D0032B0AD02146FFF73BFEEBE76A
:1030F4000029E9D08029E7D001F053F9E4E7638897
:1031040023B919B1802901D001F04BF9D5F8143253
:103114009B68214628469847284600F09DF8D3E747
:1031240090F8FC31022B05D0032B0AD02146FFF77F
:1031340019FEC9E70029C7D08029C5D001F031F9AB
:10314400C2E76388002BBFD111F07F0F03D128465B
:1031540000F082F8B8E701F032F9D5F814329B6830
:10316400214628469847F2E790F8FC31022B05D017
:10317400032B09D02146FFF7F5FDA5E711F07F0FDA
:10318400A2D001F00EF99FE712F0800F11D101F0E7
:103194007F04103400EB04140434284601F01DF9B4
:1031A40070B10123236002222146284600F028F84A
:1031B4008AE701F07F04013400EB04140434ECE7E3
:1031C40000232360EFE7D0B170B50D4616460446E0
:1031D400FFF79AFD0130400080B23080287003234D
:1031E4006B70022307E001345A1CD2B2E954023353
:1031F400DBB20021A95421780029F4D170BD7047B5
:1032040010B513460222C0F8F4218361C3610A4653
:10321400002101F003F9002010BD08B513460A4649
:10322400002101F0FBF8002008BD10B5134603226D
:10323400C0F8F421C0F80831C0F80C310A46002166
:1032440001F0FAF8002010BD08B513460A46002123
:1032540001F0F2F8002008BD08B50423C0F8F431E9
:1032640000231A46194601F0D9F8002008BD08B514
:103274000523C0F8F43100231A46194601F0DCF89E
:10328400002008BD08B500224FF480510148FDF725
:1032940054FA08BD000C014010B5084C00224FF44C
:1032A40080712046FDF749FA0520FDF701F8012257
:1032B4004FF480712046FDF740FA10BD0014014020
:1032C40010B582B002AC04F8010D00224FF4007175
:1032D4000548FDF732FA4FF0FF3301222146034837
:1032E400FEF79BFA02B010BD00140140BC0300209D
:1032F40070B506460D4601224FF400710B48FDF7E8
:103304001CFA0FE02C46B5F5004F28BF4FF40044DB
:10331400A4B24FF0FF33224631460548FEF77DFA4A
:1033240026442D1B002DEDD170BD00BF00140140BB
:10333400BC030020F0B583B007460D4616461C4674
:103344002A20FFF7BDFF3B0A8DF804308DF8057085
:10335400330A8DF806308DF8076004210DEB010067
:10336400FFF7C6FF2B20FFF7ABFF2B0A8DF80430C5
:103374008DF80550230A8DF806308DF80740042196
:103384000DEB0100FFF7B4FF2C20FFF799FF03B00A
:10339400F0BD82B02DE9F04383B091460B93BDF8A4
:1033A4003470BDF83860DAB2024492B2C3F3072332
:1033B4000B449BB2013B013A9BB292B2FFF7BAFFB6
:1033C4004FF000081EE0330A8DF804308DF80560D4
:1033D400022101A8FFF78CFF01349DF82C30A34291
:1033E4000ED905FA04F313F4004FECD03B0A8DF820
:1033F40004308DF80570022101A8FFF779FFEBE78F
:1034040008F101089DF82D20424508D9A9F12003AF
:1034140002FB03830C9A32F813500024DDE703B057
:10342400BDE8F04302B0704708B501224FF4805163
:103434000148FDF782F908BD000C014070B584B065
:10344400FFF720FFFFF728FF0120FFF739FF4FF4B4
:103454007A70FCF72DFFCB20FFF732FF704C94E815
:10346400030000908DF8041005216846FFF740FF23
:10347400CF20FFF725FFA368ADF800301B0C8DF8B3
:10348400023003216846FFF733FFE820FFF718FFF7
:10349400E368ADF800301B0C8DF802300321684658
:1034A400FFF726FFEA20FFF70BFF00258DF80050F9
:1034B4008DF8015002216846FFF71AFFED20FFF74F
:1034C400FFFE2369009304216846FFF711FFF720EC
:1034D400FFF7F6FE20238DF8003001216846FFF740
:1034E40007FFC020FFF7ECFE23238DF800300121F5
:1034F4006846FFF7FDFEC120FFF7E2FE10238DF8BA
:10350400003001216846FFF7F3FEC520FFF7D8FE1F
:10351400A38AADF8003002216846FFF7E9FEC72010
:10352400FFF7CEFE86238DF8003001216846FFF7B1
:10353400DFFE3620FFF7C4FE48238DF8003001215A
:103544006846FFF7D5FE3A20FFF7BAFE55238DF8FB
:10355400003001216846FFF7CBFEB120FFF7B0FE33
:103564008DF8005018238DF8013002216846FFF7CA
:10357400BFFEB620FFF7A4FEA369ADF800301B0C14
:103584008DF8023003216846FFF7B2FEF220FFF700
:1035940097FE8DF8005001216846FFF7A9FE26200A
:1035A400FFF78EFE01268DF8006031466846FFF76E
:1035B4009FFEE020FFF784FE6D4604F11C030FCB51
:1035C40007C525F8023B1B0C2B700F216846FFF73B
:1035D4008FFEE120FFF774FE6D462C3494E80F0053
:1035E40007C525F8023B1B0C2B700F216846FFF71B
:1035F4007FFE1120FFF764FE7820FCF759FE292096
:10360400FFF75EFE3620FFF75BFEE8238DF80030FF
:1036140031466846FFF76CFEFFF706FF04B070BD45
:10362400086E0008B0F5A07F01D2EF2900D97047D9
:1036340070B582B016460D460446FFF723FE6B1C98
:10364400621C9BB292B229462046FFF773FE330AEE
:103654008DF804308DF80560022101A8FFF748FEBB
:10366400FFF7E2FE02B070BD82B02DE9F04385B0F1
:1036740006460D4617460D93BDF83C90BDF84080B4
:10368400FFF700FE10E0013700260DE0CDF80880BA
:10369400CDF804900E9B00930D9B29463046FFF70E
:1036A40078FE3444A6B201373A7882B19DF83440AA
:1036B4003319B3F5A07FE9DB9DF835301D44ADB275
:1036C4002B44EF2B03DC202ADDD00026DEE7FFF7B6
:1036D400ABFE05B0BDE8F04302B070472DE9F04100
:1036E40082B0BDF82080B0F5A07F41D204460F46D9
:1036F40016461D46EF293BD88318013BB3F5A07F3E
:1037040002DBC0F5A076B6B27B19013BEF2B02DDDC
:10371400C7F1F005ADB2FFF7B5FD321992B2EB195E
:103724009BB2013B013A9BB292B239462046FFF765
:1037340001FE4FEA18238DF804308DF8058001222C
:103744004FF400710C48FCF7F8FF0CE04FF0FF3326
:10375400022201A90948FEF760F8013CA4B2002C3A
:10376400F4D1013DADB20DB13446F8E7FFF75CFE8C
:1037740002B0BDE8F08100BF00140140BC0300208A
:1037840000B583B00090F0234FF4A07200210846E6
:10379400FFF7A4FF03B05DF804FBB0F5A07F27D2C8
:1037A400EF2925D8F8B58418013CB4F5A07F03DAD5
:1037B400CC18013CEF2C00DDF8BD1F4616460D4623
:1037C4000446FFF75FFDA21992B2EB199BB2013BCD
:1037D400013A9BB292B229462046FFF7ABFD07FBA4
:1037E40006F149000698FFF783FDFFF71DFEE3E7A6
:1037F400704710B50446FFF745FD2CB92020FFF7AC
:103804005FFDFFF711FE10BD2120F8E72DE9F04719
:1038140088B03C4B9A6942F010029A619A6902F0AE
:1038240010020092009A9A6942F004029A619A691D
:1038340002F004020192019A9A6942F008029A6124
:103844009A6902F008020292029A9A6942F02002EE
:103854009A619B6903F020030393039B2A4F002280
:1038640042F210013846FCF768FFDFF8A0A00022FE
:1038740008215046FCF761FFDFF8949000224FF4D2
:1038840080514846FCF759FFDFF8888000224FF446
:1038940040714046FCF751FF42F2100304930126A5
:1038A4000596002406940225079504A93846FCF7DA
:1038B40045FE0823049305960694079504A95046EB
:1038C400FCF73CFE202304930594069404A938468F
:1038D400FCF734FE4FF48053049305960694079541
:1038E40004A94846FCF72AFE4FF440730493059656
:1038F4000694079504A94046FCF720FE08B0BDE8ED
:10390400F08700BF00100240001001400008014091
:10391400000C01400014014008B5FFF785FD00F0DC
:103924007DFBFFF78BFD08BD2DE9F04387B0002038
:10393400FFF726FF00240DE0A5B24FF478420021E2
:103944002846FFF76FFE4FF47842EF212846FFF731
:1039540069FE0134B4F5A07FEEDB00240EE0A5B2CD
:103964004FF4784229460020FFF75CFE4FF478427A
:10397400294640F23F10FFF755FE0134EF2CEEDDEF
:1039840040F6B830FCF794FC0020FFF7F9FE864BB4
:10399400002402944FF47848CDF804805A680092C9
:1039A4001B68824A21462046FFF75EFE804D029442
:1039B4004FF4FC6701976B6800932B687D4A1E21C6
:1039C4002046FFF751FE7C4B02944FF01F09CDF8BF
:1039D40004905A6800921B68784A54212046FFF7E5
:1039E40043FE4FF47A70FCF763FC0120FFF701FFFC
:1039F4004FF47A70FCF75CFC2046FFF7FAFE41F2C4
:103A04008830FCF755FC4FF6FF70FFF7B9FE4FF610
:103A1400FF76029601946B6800932B68684A2146EE
:103A24002046FFF721FE4FF4FA70FCF741FC4846AC
:103A3400FFF7A6FECDF8089001946B6800932B68FD
:103A4400604A21462046FFF70FFE4FF4FA70FCF758
:103A54002FFC4046FFF794FECDF8088001946B6874
:103A640000932B68584A21462046FFF7FDFD4FF48A
:103A7400FA70FCF71DFC3846FFF782FE02970194AA
:103A84006B6800932B68514A21462046FFF7ECFDF2
:103A94004FF4FA70FCF70CFC40F2FF70FFF770FE75
:103AA40040F2FF73029301946B6800932B68484AB9
:103AB40021462046FFF7D8FD4FF4FA70FCF7F8FBD7
:103AC4004FF61F00FFF75CFE4FF61F0302930194AD
:103AD4006B6800932B683F4A21462046FFF7C4FDDC
:103AE4004FF4FA70FCF7E4FB4FF6E070FFF748FE82
:103AF4004FF6E073029301946B6800932B68364A87
:103B040021462046FFF7B0FD4FF4FA70FCF7D0FBD6
:103B14002046FFF735FE029401966B6800932B68EC
:103B24002E4A21462046FFF79FFD4FF4FA70FCF71A
:103B3400BFFB2B4B0093F0231A4621462820FFF7A6
:103B44002CFE40F6B830FCF7B3FB2046FFF718FE16
:103B5400029401966B6800932B68224A2146204602
:103B6400FFF782FD4FF47A70FCF7A2FB2046FFF7C3
:103B740007FEB4F57A7F13DA0DF1160105A800F0FB
:103B840063FA0028F5D0BDF81610C1F5A0714FF600
:103B9400FF7289B2BDF81400FFF744FD0134E8E771
:103BA40007B0BDE8F08300BF280100206830020898
:103BB400200100208C30020818010020B4300208D3
:103BC400D8300208E0300208E8300208EC3002087D
:103BD400F4300208FC300208043102080C310208F7
:103BE400446E000814310208FEE7000000B58DB0F1
:103BF4001748184B03600023436083604FF6FF723D
:103C0400C26003618361032203920493012205923B
:103C140006930793089309920A930B9303A9FEF75B
:103C2400F9F850B900230193029301A90848FEF75B
:103C34003DF938B90DB05DF804FB4FF4C97106487D
:103C4400FFF7D2FF40F299110348FFF7CDFF00BF01
:103C540014040020000800403431020808B50E485E
:103C64000E4B03604FF48273436000238360C36090
:103C7400036143614FF400728261C3610362436272
:103C840083620A23C362FEF737F800B908BD40F225
:103C940075110348FFF7A8FFBC030020003800405B
:103CA4003431020808B50F480F4B03604FF4827398
:103CB400436000238360C360036143614FF4007277
:103CC40082613022C2610362436283620A23C36257
:103CD400FEF712F800B908BD40F25D110348FFF782
:103CE40083FF00BF54040020003001403431020837
:103CF40000B597B001220C924FF480330D9300214C
:103D04000E9110920222139214934FF4E013159320
:103D14000CA8FDF797F958BB0F23079302210891CC
:103D2400002309934FF480620A920B9307A8FDF7CE
:103D3400B5FB10BB102301930023069301A8FDF7E4
:103D440083FCF8B9FDF76CFBFDF764FC104BA3FB97
:103D540000308009FCF712FB0420FCF725FB00224D
:103D640011464FF0FF30FCF7C9FA17B05DF804FBB9
:103D74004FF491710748FFF737FF4FF498710548E6
:103D8400FFF732FF40F237110248FFF72DFF00BF63
:103D9400D34D62103431020808B5FCF765FAFFF719
:103DA400A7FFFFF733FDFFF721FFFFF757FFFFF7EB
:103DB40079FF00F0D9F9FFF7AFFDFFF7B5FDFCE798
:103DC40000B583B0244B9A6942F001029A619A6962
:103DD40002F001020092009ADA6942F08052DA613C
:103DE400DB6903F080530193019B0320FCF774FA11
:103DF400002211466FF00B00FCF780FA00221146F6
:103E04006FF00A00FCF77AFA002211466FF00900FD
:103E1400FCF774FA002211466FF00400FCF76EFA06
:103E2400002211466FF00300FCF768FA00221146E5
:103E34006FF00100FCF762FA002211464FF0FF30E8
:103E4400FCF75CFA054A536823F0E06343F08063AF
:103E5400536003B05DF804FB001002400000014011
:103E640030B587B00368284A934204D0274A934266
:103E740020D007B030BD264B9A6942F480529A6133
:103E84009B6903F480530093009BA02302930223B5
:103E94000393032305931F4C02A92046FCF74EFB12
:103EA4004023029300230393049302A92046FCF7C2
:103EB40045FBDEE7164BDA6942F48042DA61DB69DE
:103EC40003F480430193019B4FF4204302930223A4
:103ED400039303230593104D02A92846FCF72EFBF8
:103EE4004FF48043029300240394049402A92846C7
:103EF400FCF724FB224621462420FCF7FFF924206A
:103F0400FCF730FAB5E700BF00300140003800404C
:103F14000010024000080140000C01400268134BED
:103F24009A4200D0704700B587B003F50233DA69CE
:103F340042F00402DA61DB6903F004030193019B9C
:103F44004FF440530293002303930123049302A9E3
:103F54000748FCF7F3FA074A536843F0E06343F475
:103F64008053536007B05DF804FB00BF00080040B5
:103F7400001401400000014008B5FDF753FB08BDE3
:103F8400FEE7FEE7FEE7FEE770477047704708B5B7
:103F9400FCF77CF9FCF719FA08BD000008B50248E3
:103FA400FCF71DFF08BD00BFA00E002008B50248A5
:103FB400FDF724FE08BD00BFBC0300200F4B1A68A8
:103FC40042F001021A6059680D4A0A405A601A68A0
:103FD40022F0847222F480321A601A6822F4802259
:103FE4001A605A6822F4FE025A604FF41F029A6063
:103FF400044B4FF000629A60704700BF001002400B
:104004000000FFF800ED00E008B50022102102488E
:10401400FCF793FB08BD00BF0010014008B5012266
:1040240010210248FCF789FB08BD00BF00100140C5
:1040340008B520210348FCF779FBB0FA80F0400969
:1040440008BD00BF001001402DE9F04F87B0834642
:104054000391FFF7D9FF0024A146A2460F2C35D8BF
:10406400FFF7E6FF90B30134E4B23B4F3B4D4FF012
:10407400FF33012239462846FDF7CFFB07F1040838
:104084004FF0FF360096022304AA41462846FDF766
:1040940097FC3346012207F108012846FDF7BDFBD2
:1040A4000096022305AA41462846FDF789FC9DF89F
:1040B40014209DF8153043EA02239A449DF81020F9
:1040C4009DF8113043EA02239944C7E7FFF7A6FF9E
:1040D4000F2C3ED94FEA1A1A40F2DB539A4506D9FF
:1040E40047F618139A4504D947F6181A01E040F226
:1040F400DC5A4FEA191940F2DB53994506D947F2C5
:104104009E53994504D947F29E5901E040F6CC49A3
:10411400CAEB0A1A4FEA0A13A3F5AF23A3F5C8633F
:104124000F4AA2FB03239B0BABF8003009EB890970
:104134004FEA8913A3F57F23A3F570635B08094A4B
:10414400A2FB03239B0A039A1380012007B0BDE856
:10415400F08F0020FAE700BF5C300208540400200E
:1041640027072E8E55C7891310B5094C002209491B
:104174002046FEF799FC08492046FEF7ACFC0749A7
:104184002046FEF763FC2046FEF7ACFC10BD00BFE2
:10419400AC0400205C010020E00000203401002079
:1041A400002070470020704710B5054C014620469A
:1041B400FEF75BFC2046FEF75EFC002010BD00BF4E
:1041C400AC04002010B5064C002206492046FEF738
:1041D40044FC05492046FEF748FC002010BD00BF02
:1041E400AC040020B80A0020D006002002680E4B60
:1041F4009A4200D0704700B583B003F5DA33DA6928
:1042040042F40002DA61DB6903F400030193019BC9
:10421400002211461420FCF771F81420FCF7A2F8D0
:1042240003B05DF804FB00BF005C004008B500F279
:104234002C41D0F85C04FEF76EFC08BD08B500EB19
:104244004113D3F83C22D0F85C04FEF791FC08BD7E
:1042540008B500EB4113DA6BD0F85C04FEF7BDFC43
:1042640008BD08B5D0F85C04FEF740FD08BD10B5E4
:1042740004460121D0F85C04FEF726FDD4F85C0462
:10428400FEF703FD10BD000010B50446D0F85C0431
:10429400FEF71DFDA36923B1024A136943F0060327
:1042A400136110BD00ED00E008B5D0F85C04FEF722
:1042B40017FD08BD10B504462048C0F85C44C4F896
:1042C40020021F4B036008234360022383600323FF
:1042D400C36000238361C3610362FCF734FA30BB1B
:1042E400182300221146D4F82002FCF77DFE58233F
:1042F40000228021D4F82002FCF776FEC02300229D
:104304008121D4F82002FCF76FFE4FF48873002259
:104314000121D4F82002FCF767FE4FF480730022D9
:104324008221D4F82002FCF75FFE002010BD4FF478
:1043340097710448FFF758FCD2E700BFA00E002095
:10434400005C00404431020808B5D0F82002FCF7B4
:1043540065FA18B1022803D0022008BD0020FCE74A
:104364000120FAE710B51C4613462246D0F8200275
:10437400FCF77FFA18B1022803D0022010BD0020F8
:10438400FCE70120FAE708B5D0F82002FCF79AFA16
:1043940018B1022803D0022008BD0020FCE7012048
:1043A400FAE708B5D0F82002FCF7C9FD18B10228D5
:1043B40003D0022008BD0020FCE70120FAE708B57D
:1043C400D0F82002FCF7E9FD18B1022803D002203E
:1043D40008BD0020FCE70120FAE7D0F8203211F0F4
:1043E400800F06D101F07F0103EB411191F82A02FD
:1043F400704701F07F0103EB411191F82A007047E7
:1044040008B5D0F82002FCF720FA18B1022803D02E
:10441400022008BD0020FCE70120FAE708B5D0F827
:104424002002FCF79CFA18B1022803D0022008BD30
:104434000020FCE70120FAE708B5D0F82002FCF7D9
:1044440068FA18B1022803D0022008BD0020FCE756
:104454000120FAE708B5D0F82002FCF779FA08BD84
:1044640000487047980100207047704712230B8062
:10447400004870474401002004230B800048704723
:104484005801002008B50A4628B105490548FEF739
:104494009AFE034808BD02490248FEF794FEF8E775
:1044A400001300205831020810B5044C0A46214676
:1044B4000348FEF788FE204610BD00BF001300200D
:1044C4007031020808B50A4628B105490548FEF7C7
:1044D4007AFE034808BD02490248FEF774FEF8E775
:1044E400001300208431020808B50A4628B10549A2
:1044F4000548FEF768FE034808BD02490248FEF776
:1045040062FEF8E7001300209431020808B50A4659
:1045140028B105490548FEF756FE034808BD02497F
:104524000248FEF750FEF8E700130020A03102080D
:10453400002103E00B4B5B58435004310A480B4BFA
:1045440042189A42F6D30A4A02E0002342F8043B96
:10455400084B9A42F9D3FFF731FD00F00FF8FFF74B
:104564001BFC7047B83102080000002078010020CD
:104574007801002000150020FEE7000070B500253A
:104584000C4E0D4CA41BA410A54209D100F01AF83E
:1045940000250A4E0A4CA41BA410A54205D170BDE7
:1045A40056F8253098470135EEE756F825309847F8
:1045B4000135F2E7B0310208B0310208B031020827
:1045C400B4310208F8B500BFF8BC08BC9E46704779
:0C45D400F8B500BFF8BC08BC9E4670475C
:1045E00002030405060708090A0B0C0D0E0F101034
:1045F00001020000000000000000000000000000B8
:1046000000000000000000000000000000000000AA
:10461000000000000000000000000000000000009A
:104620000000000000000000E003E003E003E003FE
:10463000E003E003E003E003C003C003C001C001E6
:10464000C001C001C001000000000000E003E00361
:10465000E003000000000000000000003C1E3C1EC3
:104660003C1E3C1E3C1E3C1E3C1E00000000000088
:10467000000000000000000000000000000000003A
:10468000000000000000000000000000000000002A
:10469000CE01CE03DE039E039C039C07FF3FFF7FFA
:1046A0003807380F780F780F780EFFFFFFFFF01EE6
:1046B000F01CE01CE03CE03DE039000000000000A0
:1046C00000000000FC03FE0FEE1FE01EE01EE01ED7
:1046D000E01EE01FE00FE007F003FC01FE01FE0119
:1046E000FE01FE01FE01FE01FE3DFC3FF00FE00178
:1046F000E001000000000000033E07F78FE78EE7AF
:104700009EE3BCE3B8E7F8E7F0F7E03FC001FF0342
:10471000FF07F307F30FF31EF33CF338F3787FF052
:104720003FE000000000000000000000E007F80F7C
:10473000780F781F781F781F780FF00FE00F801F19
:10474000C37FC3FBE7F3F7F1F7F0FFF07FF03EF82C
:104750007F7CFF3FEF1F0000000000000000000012
:10476000E003E003E003E003E003C003C001000056
:104770000000000000000000000000000000000039
:104780000000000000000000000000000000000029
:10479000000000003F007C00F001E001C003C00702
:1047A00080078007800F000F000F000F000F000F21
:1047B000000F800F80078007C007C003E001F001F1
:1047C0007C003F000F000000007E001FC007C003F8
:1047D000E001F001F000F000F800780078007800C7
:1047E000780078007800F800F000F000F001E001B7
:1047F000C003C007001F007E00780000E003C00374
:10480000C001CE39FF3F7F3F20037003F807780FC8
:104810003C1F3806000000000000000000000000FF
:104820000000000000000000000000000000000088
:10483000000000000000000000000000C001C001F6
:10484000C001C001C001C001C001FFFFFFFFC001E6
:10485000C001C001C001C001C00100000000000093
:104860000000000000000000000000000000000048
:104870000000000000000000000000000000000038
:10488000000000000000E003E003E003E003E001BB
:10489000E001E001C0018003000000000000000012
:1048A0000000000000000000000000000000FE3FCB
:1048B000FE3F0000000000000000000000000000BB
:1048C00000000000000000000000000000000000E8
:1048D00000000000000000000000000000000000D8
:1048E0000000000000000000000000000000E003E5
:1048F000E003E003E003000000000000000000000F
:104900000F000F001E001E003C003C0078007800E5
:10491000F000F000E001E001C003C0038007800761
:10492000000F000F001E001E003C003C00780078C5
:1049300000F00000F007F80F7C1F3E3E1E3C1F7C7D
:104940001F7C0F780F780F780F780F780F780F781B
:104950001F7C1F7C1E3C3E3E7C1FF80FF0070000B2
:104960000000000000000000F000F007F03FF03F02
:10497000F001F001F001F001F001F001F001F001AF
:10498000F001F001F001F001F001F001F001FF3F52
:10499000FF3F00000000000000000000E00FF83FB3
:1049A0007C3C3C003E003E003E003C003C007C0065
:1049B000F800F001E003C0078007000F001E003E72
:1049C000003CFE3FFE3F0000000000000000000031
:1049D000F00FF81F7C1C3E003E003E003C003C00F7
:1049E000F800F00FF80F7C003E001E001E001E00B5
:1049F0001E003E007C1CF81FE01F000000000000AD
:104A0000000000007800F800F800F801F803F8074B
:104A1000F807780F781E781E783C78787878FFFF52
:104A2000FFFF7800780078007800780078000000B8
:104A30000000000000000000FC1FFC1FFC1F001E07
:104A4000001E001E001E001EE01FF81FFC007C0060
:104A50003E003E001E003E003E003C007C1CF81F55
:104A6000E01F00000000000000000000FC01FE0745
:104A70008E0F001F001E003E003C003CF83DFC3F36
:104A80003E7F1F7E0F3C0F3C0F3C0F3C0F3E1F1E16
:104A90003E1FFC0FF00300000000000000000000BB
:104AA000FF3FFF3FFF3F0F001E001E003C0038008D
:104AB0007800F000F000E001E001C003C0038007CF
:104AC000800F800F000F001F001F0000000000007B
:104AD00000000000F807FC0F3E1F1E1E1E3E1E3E7B
:104AE0001E1E3C1FF80FF007F80FFC1E3E3E1F3C39
:104AF0001F7C0F7C0F7C1F3C3E3FFC1FF00700001B
:104B00000000000000000000F007F80F7C1E3E3C93
:104B10001E3C1F7C1F7C1F7C1F7C1F3C3F3EFF1FD9
:104B2000EF071F001E001E003E003C00F838F03F5B
:104B3000E01F000000000000000000000000000076
:104B40000000000000000000E003E003E003E003D9
:104B50000000000000000000000000000000E00372
:104B6000E003E003E003000000000000000000009C
:104B7000000000000000000000000000E003E0036F
:104B8000E003E0030000000000000000000000005F
:104B90000000E003E003E003E003E001E001E001E6
:104BA000C0038003000000000000000000000000BF
:104BB00003000F003F00FC00F003C00F003F00FEA9
:104BC000003FC00FF003FC003F000F000300000097
:104BD00000000000000000000000000000000000D5
:104BE000000000000000000000000000FFFFFFFFC9
:104BF000000000000000FFFFFFFF000000000000B9
:104C000000000000000000000000000000000000A4
:104C1000000000000000000000E000F8007E801F9F
:104C2000E007F8017E001F007E00F801E007801F0A
:104C3000007E00F800E0000000000000000000001E
:104C4000F01FFC3F3E381F381F381E001E003C007E
:104C50007800F000E001C003C003C007C0070000F7
:104C600000000000C007C007C007000000000000EF
:104C700000000000F803FE0F1E1F0F3E7F3CFF7870
:104C8000EF79C773C7F38FF38FF38FF39FF39FF31E
:104C9000FF73FF7BF779003C1C1FFC0FF80300003B
:104CA0000000000000000000000000000000E00321
:104CB000E003F007F007F007780F780F7C0E3C1E3A
:104CC0003C1E3E3CFE3FFF3F1F780F780FF007F081
:104CD00007F00000000000000000000000000000DD
:104CE0000000F83FFC3F3E3C1E3C1E3C1E3C3E3C50
:104CF0007C3CF03FF83F7E3C1F3C1F3C0F3C0F3C90
:104D00001F3CFE3FF83F00000000000000000000D4
:104D1000000000000000FF01FF07871F003E003C6D
:104D2000007C00780078007800780078007C007CB7
:104D3000003E003F831FFF07FF010000000000004E
:104D400000000000000000000000F07FFC7F7E7883
:104D50001F781F780F780F780F780F780F780F78FB
:104D60000F780F781F781E787E78F87FE07F00003C
:104D70000000000000000000000000000000FF3FF5
:104D8000FF3F003E003E003E003E003E003EFE3F34
:104D9000FE3F003E003E003E003E003E003EFF3F24
:104DA000FF3F0000000000000000000000000000C5
:104DB0000000FF1FFF1F001E001E001E001E001E21
:104DC000001EFF1FFF1F001E001E001E001E001EF3
:104DD000001E001E001E0000000000000000000079
:104DE000000000000000FE03FF0F871F003E007C54
:104DF000007C007800F800F87FF87FF80F780F7CCF
:104E00000F7C0F3E8F1FFF0FFE030000000000000D
:104E1000000000000000000000001F7C1F7C1F7CC1
:104E20001F7C1F7C1F7C1F7C1F7CFF7FFF7F1F7CE4
:104E30001F7C1F7C1F7C1F7C1F7C1F7C1F7C000035
:104E40000000000000000000000000000000FF3F24
:104E5000FF3FE003E003E003E003E003E003E003DF
:104E6000E003E003E003E003E003E003E003FF3FCF
:104E7000FF3F0000000000000000000000000000F4
:104E80000000FC1FFC1F7C007C007C007C007C0080
:104E90007C007C007C007C007C007C00780078003A
:104EA000F838F03FC03F00000000000000000000A4
:104EB0000000000000001F3C1E3C3C3C783CF03CE5
:104EC000E03DE03FC03F803FC03FE03FF03DF03C71
:104ED000783C7C3C3E3C1F3C0F3C00000000000046
:104EE00000000000000000000000003E003E003E08
:104EF000003E003E003E003E003E003E003E003EC2
:104F0000003E003E003E003E003EFF3FFF3F0000EF
:104F100000000000000000000000000000001FF87A
:104F20001FFC1FFC3FFE3FFE3FFE7FFF77FF77FF2A
:104F3000F7F7E7F7E7F3E7F3C7F307F007F007F052
:104F400007F000000000000000000000000000006A
:104F500000000F7C0F7C0F7E0F7F0F7F8F7F8F7F76
:104F6000CF7FEF7BEF79FF79FF78FF787F783F780D
:104F70003F781F781F78000000000000000000004C
:104F8000000000000000F007FC1F3E3E1F7C0F7871
:104F90000F780FF80FF80FF80FF80FF80FF80F78D9
:104FA0000F781F7C3E3EFC1FF00700000000000051
:104FB00000000000000000000000FC3FFF3F1F3E1B
:104FC0000F3E0F3E0F3E0F3E1F3E3F3EFC3FF03F69
:104FD000003E003E003E003E003E003E003E00001F
:104FE0000000000000000000000000000000F007CA
:104FF000FC1F3E3E1F7C0F780F780FF80FF80FF85C
:105000000FF80FF80FF80F780F781F7C3E3EFC1F4B
:10501000F8077C003F000F000300000000000000C4
:105020000000F03FFC3F7E3C3E3C1E3C1E3C3E3CB4
:105030003C3CFC3CF03FE03FF03DF83C7C3C3E3CDF
:105040001E3C1F3C0F3C0000000000000000000060
:10505000000000000000FC07FE1F0E3E003C003C6C
:10506000003C003EC01FF80FFE037F001F000F0032
:105070000F001F203E3CFC3FF01F0000000000001E
:1050800000000000000000000000FFFFFFFFE00341
:10509000E003E003E003E003E003E003E003E003F8
:1050A000E003E003E003E003E003E003E0030000CB
:1050B00000000000000000000000000000000F7C65
:1050C0000F7C0F7C0F7C0F7C0F7C0F7C0F7C0F7C88
:1050D0000F7C0F7C0F7C0F7C1E3C1E3C3E3EFC1F59
:1050E000F0070000000000000000000000000000C9
:1050F000000007F007F007F80F780F7C1E3C1E3CFD
:105100001E3E3C1E3C1F781F780FF80FF007F0077B
:10511000F007E003E00300000000000000000000D2
:1051200000000000000003E003F003F007F0E7F3E5
:10513000E7F3E7F3E773F77BF77FFF7F7F7F7F7FFF
:105140007E7F7E3F3E3E3E3E3E3E00000000000031
:105150000000000000000000000007F80F7C1E3E69
:105160003E3E3C1FF80FF007E007E003E003F007C6
:10517000F80F7C0F7C1E3E3C1F780F780FF000006C
:10518000000000000000000000000000000007F820
:1051900007780F7C1E3C1E3E3C1F780FF80FF0076F
:1051A000E003E003E003E003E003E003E003E003E7
:1051B000E00300000000000000000000000000000C
:1051C0000000FF7FFF7F0F001F003E007C00F80003
:1051D000F000E001E003C007800F000F001E003E5A
:1051E000007CFF7FFF7F0000000000000000000047
:1051F000FF078007800780078007800780078007F8
:105200008007800780078007800780078007800766
:105210008007800780078007800780078007FF07D7
:10522000FF07000000780078003C003C001E001ED4
:10523000000F000F80078007C003C003E001E001FA
:10524000F000F000780078003C003C001E001E00DA
:105250000F000F0007000000F07FF000F000F000EA
:10526000F000F000F000F000F000F000F000F000BE
:10527000F000F000F000F000F000F000F000F000AE
:10528000F000F000F000F07FF07F0000C000C001EF
:10529000C001E003E003F007F0077807780F380F4C
:1052A0003C1E3C1E1E3C1E3C0F380F780778000049
:1052B00000000000000000000000000000000000EE
:1052C00000000000000000000000000000000000DE
:1052D00000000000000000000000000000000000CE
:1052E00000000000000000000000FFFFFFFF0000C2
:1052F00000000000F00000000000000000000000BE
:10530000000000000000000000000000000000009D
:10531000000000000000000000000000000000008D
:10532000000000000000000000000000000000007D
:1053300000000000F80FFC3F7C3C3E003E003E00B9
:10534000FE07FE1F3E3E3E7C3E783E7C7E7CFF3F5D
:10535000CF1F00000000000000000000003C003CE7
:10536000003C003C003C003CF83DFE3F3E3F1F3E01
:105370000F3C0F3C0F3C0F3C0F3C0F3C1F3C1E3CB6
:105380003E3FFC3FF03B000000000000000000003A
:10539000000000000000000000000000FE03FF0FFE
:1053A000871F003E003E003C007C007C007C003CEF
:1053B000003E003E871FFF0FFE03000000000000BC
:1053C000000000001F001F001F001F001F001F0023
:1053D000FF07FF1F3F3E1F3C1F7C1F7C1F7C1F7869
:1053E0001F781F7C1F7C3F3C7F3EFF1FDF0F0000AC
:1053F00000000000000000000000000000000000AD
:1054000000000000F803FC0F3E1F1E3E1F3C1F7CE7
:10541000FF7FFF7F007C007C003C003E071FFF0FEA
:10542000FE0300000000000000000000FF01E10397
:10543000C003C007C007C007FF7FFF7FC007C007CA
:10544000C007C007C007C007C007C007C007C00724
:10545000C007C007C00700000000000000000000F7
:10546000000000000000000000000000EF07FF1F28
:105470007F3E1F3C1F7C1F7C1F781F781F781F7C7E
:105480001F7C3F3C7F3EFF1FDF0F1E001E001E00E3
:105490007C38F83F003C003C003C003C003C003CB9
:1054A000FC3DFE3F9E3F1F3F1F3E1F3C1F3C1F3CDD
:1054B0001F3C1F3C1F3C1F3C1F3C1F3C1F3C00006F
:1054C0000000000000000000F001F00100000000FA
:1054D00000000000E07FE07FE001E001E001E0018A
:1054E000E001E001E001E001E001E001E001E001B4
:1054F000E00100000000000000000000F800F800DB
:105500000000000000000000F83FF83FF800F8003D
:10551000F800F800F800F800F800F800F800F800CB
:10552000F800F800F800F800F800F000F071E07FF3
:10553000003C003C003C003C003C003C1F3C3E3C2E
:105540007C3CF83CF03DE03DC03FC03FE03FF03DDB
:10555000F83C7C3C3E3C1F3C1F3C0000000000002F
:1055600000000000F07FF001F001F001F001F00117
:10557000F001F001F001F001F001F001F001F001A3
:10558000F001F001F001F001F001F001F001000084
:10559000000000000000000000000000000000000B
:1055A000000000009EF7FFFFFFFFFFFFE7FBE7F9AA
:1055B000C7F1C7F1C7F1C7F1C7F1C7F1C7F1C7F12B
:1055C000C7F1000000000000000000000000000023
:1055D0000000000000000000FC3DFE3F9E3F1F3F1A
:1055E0001F3E1F3C1F3C1F3C1F3C1F3C1F3C1F3CE1
:1055F0001F3C1F3C1F3C000000000000000000009A
:10560000000000000000000000000000F007FC1F88
:105610003E3E1F3C1F7C0F780F780F780F780F7875
:105620001F7C1F3C3E3EFC1FF007000000000000F6
:10563000000000000000000000000000000000006A
:10564000F83DFE3F3E3F1F3E0F3C0F3C0F3C0F3CE2
:105650000F3C0F3C1F3C1E3E3E3FFC3FF83F003CD2
:10566000003C003C003C003C00000000000000004A
:1056700000000000EE07FE1F7E3E1E3C1E7C1E78D2
:105680001E781E781E781E781E7C3E7C7E3EFE1F95
:10569000DE0F1E001E001E001E001E000000000087
:1056A00000000000000000007F1FFF1FE71FC71F52
:1056B000871F001F001F001F001F001F001F001F6B
:1056C000001F001F001F000000000000000000007D
:1056D000000000000000000000000000FC07FE1FAA
:1056E0000E1E003E003E003FE01FFC07FE003E0095
:1056F0001E001E003E3CFC3FF01F000000000000AA
:105700000000000000000000000080078007800704
:10571000FF7FFF7F80078007800780078007800763
:105720008007800780078007C007FF03FF01000094
:105730000000000000000000000000000000000069
:10574000000000001E3C1E3C1E3C1E3C1E3C1E3C3D
:105750001E3C1E3C1E3C1E3C3E3C7E3CFE3EFE1F54
:10576000DE0F00000000000000000000000000004C
:10577000000000000000000007F00F780F781E3CCA
:105780001E3C1E3E3C1E3C1E780F780FF00FF007AB
:10579000F007E003E003000000000000000000004C
:1057A00000000000000000000000000003F0E3F132
:1057B000E3F3E7F3F7F3F7F3F77F777F7F7F7F7FFD
:1057C0007F7F3E3E3E3E3E3E3E3E000000000000EB
:1057D00000000000000000000000000000000000C9
:1057E0000F7C1E3E3C3E3C1FF80FF007F007E00325
:1057F000F007F807F80F7C1E3E3E1F3C1F780000A4
:105800000000000000000000000000000000000098
:105810000000000007F80F780F7C1E3C1E3C3C1E69
:105820003C1E3C1F780FF80FF007F007E003E00381
:10583000C003C003C0038007800F007F000000008A
:105840000000000000000000FF3FFF3F1F003E007F
:105850007C00F800F001E003C007800F001F001E6D
:10586000003CFF7FFF7F0000000000000000000000
:10587000FE01E003C003C003C003C003E001E00178
:10588000E001C001C003803F803FC003C001E001D0
:10589000E001E001C003C003C003C003E003FE0158
:1058A0007E000000C001C001C001C001C001C001F4
:1058B000C001C001C001C001C001C001C001C001E0
:1058C000C001C001C001C001C001C001C001C001D0
:1058D000C001C001C0010000C03FE003E001E001E1
:1058E000E001E001C001C003C003C001E001FE000F
:1058F000FE00E001C001C003C003C001E001E001FF
:10590000E001E001E003C03F003F000000000000B4
:105910000000000000000000000000000000000087
:105920000000073FC77FE773FFF17EF00000000033
:105930000000000000000000000000000000000067
:105940000000000000000000000000000000000057
:105950000000000000000000000000000000000047
:10596000000000000000000C000C000C000C000CFB
:10597000000C000C000C000C000C000C0000000CD3
:10598000000C0000000000000000001B001B001BBA
:10599000001B001B000000000000000000000000D1
:1059A000000000000000000000000000000080195E
:1059B000801980198019C07FC07F80190033C07F93
:1059C000C07F0033003300330033000000000000CC
:1059D0000000001E003F807580650074003C001EC2
:1059E00000078005806580658075003F001E00040B
:1059F000000400000000007000D840D8C0D880D952
:105A000000730006000C801BC036C066C046C0068E
:105A100080030000000000000000001E003F003373
:105A200000330033001E000CC03CC0668063806100
:105A30008063C03E801C0000000000000000000CDD
:105A4000000C000C000C000C000000000000000026
:105A50000000000000000000000000000000000046
:105A6000800000010003000600060004000C000C8A
:105A7000000C000C000C000C0004000600060003E3
:105A800000018000002000100018000C000C000431
:105A90000006000600060006000600060004000CD2
:105AA000000C0018001000200000000C002D003F2A
:105AB000001E003300000000000000000000000095
:105AC00000000000000000000000000000000000D6
