:020000040800F2
:1000000000000120794C0008654500086D45000896
:100010006F450008714500087345000800000000A6
:10002000000000000000000000000000754500080E
:100030007745000800000000794500087B4500086E
:10004000C14C0008C14C0008C14C0008C14C00085C
:10005000C14C0008C14C0008C14C0008C14C00084C
:10006000C14C0008C14C0008C14C0008C14C00083C
:10007000C14C0008C14C0008C14C0008C14C00082C
:10008000C14C0008C14C0008C14C0008C14C00081C
:1000900089450008C14C0008C14C0008994500087A
:1000A000C14C0008C14C0008C14C0008C14C0008FC
:1000B000C14C0008C14C0008C5450008C14C0008EF
:1000C000C14C0008C14C0008C14C0008C14C0008DC
:1000D000C14C0008C14C0008C14C0008C14C0008CC
:1000E000C14C0008C14C0008C14C0008C14C0008BC
:1000F000C14C0008C14C0008C14C0008C14C0008AC
:10010000C14C0008C14C0008C14C0008C14C00089B
:10011000C14C0008C14C0008C14C0008C14C00088B
:10012000C14C0008C14C0008C14C0008C14C00087B
:1001300000000000000000000000000000000000BF
:1001400000000000000000000000000000000000AF
:10015000000000000000000000000000000000009F
:10016000000000000000000000000000000000008F
:10017000000000000000000000000000000000007F
:10018000000000000000000000000000000000006F
:10019000000000000000000000000000000000005F
:1001A000000000000000000000000000000000004F
:1001B000000000000000000000000000000000003F
:1001C000000000000000000000000000000000002F
:1001D000000000000000000000000000000000001F
:0401E0005FF8E0F1F3
:1001E80010B5054C237833B9044B13B10448AFF369
:1001F80000800123237010BD480300200000000088
:10020800AC6D000808B5034B1BB103490348AFF3B5
:10021800008008BD000000004C030020AC6D000801
:1002280081F0004102E000BF83F0004330B54FEA9F
:1002380041044FEA430594EA050F08BF90EA020F0C
:100248001FBF54EA000C55EA020C7FEA645C7FEA9F
:10025800655C00F0E2804FEA5454D4EB5555B8BFC2
:100268006D420CDD2C4480EA020281EA030382EA33
:10027800000083EA010180EA020281EA0303362DC5
:1002880088BF30BD11F0004F4FEA01314FF4801C98
:100298004CEA113102D0404261EB410113F0004FAA
:1002A8004FEA03334CEA133302D0524263EB430361
:1002B80094EA050F00F0A780A4F10104D5F1200EFF
:1002C8000DDB02FA0EFC22FA05F2801841F100015A
:1002D80003FA0EF2801843FA05F359410EE0A5F12E
:1002E80020050EF1200E012A03FA0EFC28BF4CF05F
:1002F800020C43FA05F3C01851EBE37101F0004515
:1003080007D54FF0000EDCF1000C7EEB00006EEB21
:100318000101B1F5801F1BD3B1F5001F0CD34908AB
:100328005FEA30004FEA3C0C04F101044FEA445202
:1003380012F5800F80F09A80BCF1004F08BF5FEA89
:10034800500C50F1000041EB045141EA050130BD69
:100358005FEA4C0C404141EB010111F4801FA4F10C
:100368000104E9D191F0000F04BF01460020B1FA61
:1003780081F308BF2033A3F10B03B3F120020CDA99
:100388000C3208DD02F1140CC2F10C0201FA0CF077
:1003980021FA02F10CE002F11402D8BFC2F1200CDC
:1003A80001FA02F120FA0CFCDCBF41EA0C01904092
:1003B800E41AA2BF01EB0451294330BD6FEA0404DB
:1003C8001F3C1CDA0C340EDC04F11404C4F12002C6
:1003D80020FA04F001FA02F340EA030021FA04F3D8
:1003E80045EA030130BDC4F10C04C4F1200220FA2F
:1003F80002F001FA04F340EA0300294630BD21FA6D
:1004080004F0294630BD94F0000F83F4801306BF32
:1004180081F480110134013D4EE77FEA645C18BF26
:100428007FEA655C29D094EA050F08BF90EA020FBD
:1004380005D054EA000C04BF1946104630BD91EAB5
:10044800030F1EBF0021002030BD5FEA545C05D1B8
:100458004000494128BF41F0004130BD14F58004F7
:100468003CBF01F5801130BD01F0004545F0FE416B
:1004780041F470014FF0000030BD7FEA645C1ABFA0
:10048800194610467FEA655C1CBF0B46024650EAD7
:10049800013406BF52EA033591EA030F41F4002103
:1004A80030BD00BF90F0000F04BF0021704730B589
:1004B8004FF4806404F132044FF000054FF000015E
:1004C80050E700BF90F0000F04BF0021704730B51F
:1004D8004FF4806404F1320410F0004548BF4042F4
:1004E8004FF000013EE700BF42004FEAE2014FEA49
:1004F80031014FEA02701FBF12F07F4393F07F4F24
:1005080081F06051704732F07F4208BF704793F026
:100518007F4F04BF41F40021704730B54FF4607439
:1005280001F0004521F000411CE700BF50EA01023C
:1005380008BF704730B54FF000050AE050EA0102E5
:1005480008BF704730B511F0004502D5404261EB55
:1005580041014FF4806404F132045FEA915C3FF496
:10056800D8AE4FF003025FEADC0C18BF03325FEA33
:10057800DC0C18BF033202EBDC02C2F1200300FAE4
:1005880003FC20FA02F001FA03FE40EA0E0021FA09
:1005980002F11444BDE600BF70B54FF0FF0C4CF4F7
:1005A800E06C1CEA11541DBF1CEA135594EA0C0FA9
:1005B80095EA0C0F00F0DEF82C4481EA030621EAE4
:1005C8004C5123EA4C5350EA013518BF52EA03351F
:1005D80041F4801143F4801338D0A0FB02CE4FF0D1
:1005E8000005E1FB02E506F00042E0FB03E54FF001
:1005F8000006E1FB03569CF0000F18BF4EF0010EF9
:10060800A4F1FF04B6F5007F64F5407404D25FEAF4
:100618004E0E6D4146EB060642EAC62141EA5551A7
:100628004FEAC52040EA5E504FEACE2EB4F1FD0CE9
:1006380088BFBCF5E06F1ED8BEF1004F08BF5FEA67
:10064800500E50F1000041EB045170BD06F0004619
:1006580046EA010140EA020081EA0301B4EB5C04C6
:10066800C2BFD4EB0C0541EA045170BD41F48011BE
:100678004FF0000E013C00F3AB8014F1360FDEBFE3
:10068800002001F0004170BDC4F10004203C35DABF
:100698000C341BDC04F11404C4F1200500FA05F342
:1006A80020FA04F001FA05F240EA020001F00042E3
:1006B80021F0004110EBD37021FA04F642EB060159
:1006C8005EEA430E08BF20EAD37070BDC4F10C0483
:1006D800C4F1200500FA04F320FA05F001FA04F247
:1006E80040EA020001F0004110EBD37041F1000133
:1006F8005EEA430E08BF20EAD37070BDC4F120053E
:1007080000FA05F24EEA020E20FA04F301FA05F2A5
:1007180043EA020321FA04F001F0004121FA04F24D
:1007280020EA020000EBD3705EEA430E08BF20EA1D
:10073800D37070BD94F0000F0FD101F00046400057
:1007480041EB010111F4801F08BF013CF7D041EAD9
:10075800060195F0000F18BF704703F000465200DD
:1007680043EB030313F4801F08BF013DF7D043EAAE
:100778000603704794EA0C0F0CEA135518BF95EA64
:100788000C0F0CD050EA410618BF52EA4306D1D1EB
:1007980081EA030101F000414FF0000070BD50EA0A
:1007A800410606BF1046194652EA430619D094EA94
:1007B8000C0F02D150EA013613D195EA0C0F05D17E
:1007C80052EA03361CBF104619460AD181EA0301D2
:1007D80001F0004141F0FE4141F470014FF000008A
:1007E80070BD41F0FE4141F4780170BD70B54FF025
:1007F800FF0C4CF4E06C1CEA11541DBF1CEA1355A5
:1008080094EA0C0F95EA0C0F00F0A7F8A4EB050486
:1008180081EA030E52EA03354FEA013100F088807D
:100828004FEA03334FF0805545EA131343EA126346
:100838004FEA022245EA111545EA10654FEA0026FB
:100848000EF000419D4208BF964244F1FD0404F5B4
:10085800407402D25B084FEA3202B61A65EB030510
:100868005B084FEA32024FF480104FF4002CB6EBCD
:10087800020E75EB030E22BFB61A754640EA0C004D
:100888005B084FEA3202B6EB020E75EB030E22BF8D
:10089800B61A754640EA5C005B084FEA3202B6EBCE
:1008A800020E75EB030E22BFB61A754640EA9C008D
:1008B8005B084FEA3202B6EB020E75EB030E22BF5D
:1008C800B61A754640EADC0055EA060E18D04FEA1B
:1008D800051545EA16754FEA06164FEAC30343EABB
:1008E80052734FEAC2025FEA1C1CC0D111F4801F88
:1008F8000BD141EA00014FF000004FF0004CB6E781
:1009080011F4801F04BF01430020B4F1FD0C88BF1F
:10091800BCF5E06F3FF6AFAEB5EB030C04BFB6EB2A
:10092800020C5FEA500C50F1000041EB045170BD1D
:100938000EF0004E4EEA113114EB5C04C2BFD4EB4A
:100948000C0541EA045170BD41F480114FF0000ECE
:10095800013C90E645EA060E8DE60CEA135594EA4A
:100968000C0F08BF95EA0C0F3FF43BAF94EA0C0F4D
:100978000AD150EA01347FF434AF95EA0C0F7FF4C2
:1009880025AF104619462CE795EA0C0F06D152EA16
:1009980003353FF4FDAE1046194622E750EA4106FA
:1009A80018BF52EA43067FF4C5AE50EA41047FF40B
:1009B8000DAF52EA43057FF4EBAE12E74FF0FF3C70
:1009C80006E000BF4FF0010C02E000BF4FF0010C41
:1009D8004DF804CD4FEA410C7FEA6C5C4FEA430CBA
:1009E80018BF7FEA6C5C1BD001B050EA410C0CBF09
:1009F80052EA430C91EA030F02BF90EA020F00206B
:100A0800704710F1000F91EA030F58BF994208BFD1
:100A180090422CBFD8176FEAE37040F0010070478E
:100A28004FEA410C7FEA6C5C02D150EA013C07D1E5
:100A38004FEA430C7FEA6C5CD6D152EA033CD3D030
:100A48005DF8040B704700BF8446104662468C462A
:100A58001946634600E000BF01B5FFF7B7FF00285D
:100A680048BF10F1000F01BD4DF808EDFFF7F4FF86
:100A78000CBF012000205DF808FB00BF4DF808ED11
:100A8800FFF7EAFF34BF012000205DF808FB00BF34
:100A98004DF808EDFFF7E0FF94BF012000205DF856
:100AA80008FB00BF4DF808EDFFF7CEFF94BF01200B
:100AB80000205DF808FB00BF4DF808EDFFF7C4FF04
:100AC80034BF012000205DF808FB00BF4FEA410257
:100AD800B2F1E04324BFB3F5001CDCF1FE5C0DD994
:100AE80001F0004C4FEAC0024CEA5070B2F1004FDE
:100AF80040EB830008BF20F00100704711F0804FE1
:100B080021D113F13872BCBF01F00040704741F4A5
:100B180080114FEA5252C2F11802C2F1200C10FAA9
:100B28000CF320FA02F018BF40F001004FEAC1238D
:100B38004FEAD32303FA0CFC40EA0C0023FA02F331
:100B48004FEA4303CCE77FEA625307D150EA013307
:100B58001EBF4FF0FE4040F44000704701F00040D7
:100B680040F0FE4040F40000704700BF034613F811
:100B7800012B002AFBD1181A013870474FEA410CA3
:100B88007FEA6C5C02D150EA013C0AD14FEA430C7F
:100B98007FEA6C5C02D152EA033C02D14FF00000BC
:100BA80070474FF0010070474FEA410212F50012FA
:100BB80015D211D56FF47873B3EB625212D94FEA9C
:100BC800C12343F0004343EA505311F0004F23FA86
:100BD80002F018BF404270474FF00000704750EADB
:100BE800013005D111F0004008BF6FF00040704798
:100BF8004FF00000704700BF10B504460E4B187840
:100C08004FF47A73B3FBF0F30C4A1068B0FBF3F0BF
:100C180000F0A0F868B90F2C01D901200AE00022E1
:100C280021464FF0FF3000F055F8034B5C60002080
:100C380000E0012010BD00BF0000002030010020AE
:100C480008B5074A136843F010031360032000F047
:100C58002FF80020FFF7D0FF03F0A6FB002008BD07
:100C680000200240034A1168034B1B780B441360B1
:100C7800704700BF9C05002000000020014B186849
:100C8800704700BF9C05002038B50446FFF7F6FF03
:100C98000546B4F1FF3F02D0044B1B781C44FFF714
:100CA800EDFF401BA042FAD338BD00BF0000002072
:100CB800074AD36823F4E0631B041B0C000200F40A
:100CC800E060184340F0BF6040F40030D0607047E7
:100CD80000ED00E030B4174BDB68C3F30223C3F127
:100CE8000704042C28BF04241D1D062D18D9033B16
:100CF8004FF0FF3505FA04F421EA0401994005FA9A
:100D080003F322EA0303194300280BDB0901C9B2E4
:100D180000F1604000F5614080F8001330BC704776
:100D28000023E5E700F00F000901C9B2024B19548E
:100D3800F4E700BF00ED00E014ED00E000F01F0252
:100D4800400901239340024A42F82030704700BF0F
:100D580000E100E00138B0F1807F0AD2064B58600C
:100D6800064AF02182F823100020986007221A60B2
:100D780070470120704700BF10E000E000ED00E080
:100D8800042805D0054A136823F00403136070474C
:100D9800024A136843F004031360704710E000E050
:100DA800704708B5FFF7FCFF08BD0000F0B482B03B
:100DB80000263546ABE0002C63D0012C00D1CE686C
:100DC800FF2B72D88446FF2B72D8AC00DCF80020C9
:100DD8000F27A74022EA070206FA04F42243CCF8B8
:100DE80000204A6812F0805F00F09080654A94699C
:100DF80044F001049461926902F001020192019A9F
:100E0800AC08A71C604A52F827C005F003029700F7
:100E18000F22BA402CEA020C5C4A90424ED002F5EE
:100E28008062904200F08B8002F58062904200F070
:100E3800888002F58062904200F0858002F5806229
:100E4800904200F0828002F58062904234D00622FF
:100E580035E04F4FBC4214D00BD94E4FBC4210D096
:100E680007F58037BC420CD0A7F58017BC42A7D144
:100E780007E0A7F58017BC4203D007F58037BC42CE
:100E88009ED18C687CB1012C08D04261082697E776
:100E9800CE68083694E7CE680C3691E702610826DA
:100EA8008EE700268CE704268AE700F1040C8AE71F
:100EB800A5F10804A40089E7052200E00022BA4051
:100EC80042EA0C020234304F47F824204A6812F4F0
:100ED800803F3CD0304C22681A4322604A6812F4A2
:100EE800003F3AD02C4C62681A4362604A6812F498
:100EF800801F38D0284CA2681A43A2604A6812F4AE
:100F0800001F36D0244CE2681343E36001350F2DEF
:100F180035D80122AA400B6813409A42F6D14C6892
:100F2800122CB8D095D8022CB2D07FF644AF032C3F
:100F3800B7D0112C7FF444AFCE68043640E70122C5
:100F4800BDE70222BBE70322B9E70422B7E7124C48
:100F5800226822EA03022260C0E70F4C626822EA94
:100F680003026260C2E70C4CA26822EA0302A26094
:100F7800C4E7094CE26822EA0303E360C6E702B06B
:100F8800F0BC70470010024000000140000801401A
:100F980000002110000031100004014012B90904BA
:100FA8000161704701617047C3685940C16070476B
:100FB8007047000008B5054B5B69034200D108BDC6
:100FC800024B5861FFF7F4FFF9E700BF0004014046
:100FD800002866D0F0B587B0044690F82934C3B12C
:100FE800032384F82934206801F036FB254655F898
:100FF800107B6E460FCD0FC62B683360231D0ECBBA
:10100800384601F01AFB0021206801F02FFB00236D
:1010180015E080F8283403F089FCE1E704EB43127B
:10102800012182F8291082F828309386002182F85D
:101038002B109163D1639A1C5201A15001330E2BDE
:10104800ECD9002312E004EB4312002182F82912A4
:1010580082F82832938682F82B12C2F83812C2F826
:101068003C1203F112025201A15001330E2BEAD9AE
:10107800254655F8107B6E460FCD0FC62B6833609A
:10108800231D0ECB384601F0F3FA002584F82450CE
:10109800012384F82934206801F0FEFD284607B0B2
:1010A800F0BD0120704790F82834012B10D010B5FE
:1010B8000446012180F8281403F077FD206801F028
:1010C800E9FD206801F0C0FA002084F8280410BD6A
:1010D8000220704790F82834012B0DD010B5044633
:1010E800012380F8283480F82410006801F0CCFD32
:1010F800002084F8280410BD0220704738B54DB28E
:10110800002D1CDB01F07F04640104F50A7404441B
:1011180001F07F012170ED0F65702261E37090F896
:101128002834012B11D00546012380F828342146A4
:10113800006801F0B3FA002085F8280438BD01F0F2
:101148007F04640128340444E2E70220F6E74AB247
:10115800002A1BDB01F07F035B0103F50A730344DC
:1011680001F07F011970D20F5A7090F82824012AD3
:1011780012D010B50446012280F8282419460068C8
:1011880001F020FC002084F8280410BD01F07F0342
:101198005B0128330344E3E70220704770B501F090
:1011A8007F056C0104F50A7101440444C4F83C222B
:1011B80005F112025201861883500023736084F8E7
:1011C800293284F8285225B1006801F081FD0020F9
:1011D80070BD006801F07CFDF9E701F00F011231E4
:1011E80000EB41118888704770B501F07F056C01EC
:1011F80004F1280101440444E263AA1C5201861840
:10120800835000237360012384F8293084F8285020
:1012180025B1006801F05CFD002070BD006801F098
:1012280057FDF9E770B582B004460023ADF80630E3
:10123800ADF804302068B0F844309BB2ADF8063001
:1012480013F4004F00F00D82BDF8065015F00F059D
:1012580040F0C280BDF8063013F0100F50D003885C
:101268009BB2ADF80430BDF8043013F4006F79D1A7
:10127800BDF8043013F4004FDCD0038823F070036A
:101288001B051B0D03802068B0F8503094F8282205
:1012980003EBC203063300EB4303D3F80034C3F374
:1012A8000903C4F84432002B7CD10021204603F006
:1012B80065FB2368B3F85020063203EB4203D4F8E9
:1012C80038123E297CD9C1F34F1211F01F0F01D1FA
:1012D800013A92B26FEAC2626FEA524292B2C3F81E
:1012E8000024226813889BB223F4804323F0700300
:1012F80083F4405343F4004343F08003138099E799
:1013080003889BB223F4E14323F070039BB203806C
:101318002268B2F8503094F8281003EBC103023366
:1013280002EB4303D3F80034C3F309036364E26BAD
:101338001344E3630021204603F02AFB94F8243089
:10134800002B3FF477AF236C002B7FF473AF94F836
:101358002430226843F08003A2F84C30002384F83C
:10136800243067E7B0F8503094F8282203EBC20322
:10137800063300EB4303D3F80034C3F30903C4F87E
:101388004432B4F82C2204F22C4101F0FEFD22680C
:10139800138823F070031B051B0D1380204603F0F0
:1013A800E5FA47E7B4F82C22D4F83C1201F0EDFD39
:1013B800D4F84422D4F83C321344C4F83C3274E7DD
:1013C800C1F34F0211F0010F01D0013292B2920223
:1013D80092B2C3F8002484E730F825309BB2ADF808
:1013E8000430BDF8043013F4004F35D1BDF8043093
:1013F80013F0800F3FF41EAF226832F825309BB2FD
:1014080023F4E14323F070039BB222F8253004EB68
:10141800451393F83230002B40F0B2802068B0F8C2
:10142800503004EB451292F8282003EBC203023334
:1014380000EB4303D3F80034C3F30903AA1C04EBFD
:1014480042125360002B00F0C68004EB45118A8DD0
:10145800C96B01F028FCBEE030F8253023F070039A
:101468001B051B0D20F8253004EB451393F8323289
:10147800D3B92068B0F8503004EB451292F828220E
:1014880003EBC203063300EB4303B3F80064C6F36F
:10149800090686B304EB45113346B1F82C22D1F87E
:1014A8003C1201F072FD26E0206804EB451393F826
:1014B800282230F8223013F4804F42D0B0F8503050
:1014C80003EBC203023300EB4303B3F80064C6F333
:1014D800090666BB226804EB451393F8281232F814
:1014E800213023F0F0031B051B0D43F4004343F0A8
:1014F800C00322F8213005F112035B01E1184A68A4
:1015080032444A6004EB4511D1F83C223244C1F818
:101518003C22E3581BB1D1F838128E4228D204EB92
:10152800451393F82812204603F028FA5EE704EBE7
:1015380045113346B1F82E22D1F83C1201F025FDB1
:10154800C8E7B0F8503003EBC203063300EB43039F
:10155800B3F80064C6F30906002EBBD004EB4511AE
:101568003346B1F83022D1F83C1201F00EFDB1E754
:1015780004EB451191F828122046FFF70FFE35E7D6
:10158800206804EB451393F8282030F8223013F034
:10159800400F46D0B0F8503003EBC203023300EBE3
:1015A8004303D3F80034C3F30903AA1C04EB421223
:1015B80053607BBB226804EB451393F8281032F87C
:1015C800213023F0F0031B051B0D43F4404343F087
:1015D800800322F821302268B2F8503004EB45101D
:1015E80090F8281003EBC103023302EB4303D3F84E
:1015F8000024C2F30902AB1C5B01E1184A60C16B0D
:101608000A44C263E35823BB90F82810204603F02D
:10161800BFF90FE604EB4511CA8DC96B01F043FB16
:10162800C8E7B0F8503003EBC203063300EB4303BE
:10163800D3F80034C3F30903AA1C04EB4212536025
:10164800002BB7D004EB45110A8EC96B01F02BFBB8
:10165800B0E704EB451595F828102046FFF7C4FDC0
:10166800E8E5002002B070BD10B50446006801F03E
:1016780015FB10F4004F45D1206801F00FFB10F462
:10168800806F43D1206801F009FB10F4804F08D027
:101698002268B2F844309BB223F480439BB2A2F88C
:1016A8004430206801F0FAFA10F4005F08D022688C
:1016B800B2F844309BB223F400539BB2A2F84430F2
:1016C800206801F0EBFA10F4805F30D1206801F057
:1016D800E5FA10F4006F49D1206801F0DFFA10F440
:1016E800007F64D1206801F0D9FA10F4807F08D017
:1016F8002268B2F844309BB223F480739BB2A2F8FC
:10170800443010BD2046FFF78DFDB5E72268B2F8DA
:1017180044309BB223F480639BB2A2F84430204645
:1017280003F045F900212046FFF7D4FCAAE7226818
:10173800B2F840309BB223F004039BB2A2F84030C9
:101748002268B2F840309BB223F008039BB2A2F89B
:101758004030204603F048F92268B2F844309BB282
:1017680023F480539BB2A2F84430AFE72268B2F862
:10177800403043F00803A2F840302268B2F8443001
:101788009BB223F400639BB2A2F844302268B2F8FB
:10179800403043F00403A2F84030206801F07EFA9C
:1017A80010F4805F98D1204603F00EF994E7226880
:1017B800B2F844309BB223F400739BB2A2F84430D1
:1017C800204603F0EEF88DE738B54AB2002A1BDB55
:1017D8004B0103F50A73034401249C7001F07F0553
:1017E8001D70D20F5A7090F82824A24218D00446CF
:1017F800012280F828241946006801F0C5F94DB186
:10180800002084F8280438BD01F07F035B012833E9
:101818000344E1E704F22C41206801F042FAEFE7C3
:101828000220F0E710B54AB2002A1ADB4B0103F593
:101838000A73034400249C7001F07F011970D20FD1
:101848005A7090F82824012A11D00446012280F801
:1018580028241946006801F0CEF9002084F82804ED
:1018680010BD01F07F035B0128330344E2E7022047
:10187800F6E711F0800F0CD001F07F014901283103
:1018880001445AB101228A72CB801B0C0B810020C3
:101898007047490101F50A710144F2E78A728B80A9
:1018A800F5E7000082B0084B1B68084AA2FB032337
:1018B8005B0A00FB03F0019000BF019B5A1E0192D6
:1018C800002BF9D102B0704730010020D34D6210CF
:1018D80070B582B00446036813F0010F2CD0AB4BEF
:1018E8005B6803F00C03042B1DD0A84B5B6803F066
:1018F8000C03082B12D06368B3F5803F41D0002B4E
:1019080055D103F1804303F504331A6822F4803279
:101918001A601A6822F480221A6037E09B4B5B68D1
:1019280013F4803FE7D0994B1B6813F4003F03D0B2
:101938006368002B00F0AE81236813F0020F76D0A5
:10194800924B5B6813F00C0F5FD0904B5B6803F011
:101958000C03082B54D02369002B00F08A808C4B91
:1019680001221A60FFF78AF90546884B1B6813F0B5
:10197800020F75D1FFF782F9401B0228F5D9032021
:101988008BE1824A136843F480331360636843B37E
:10199800FFF774F905467D4B1B6813F4003FCBD164
:1019A800FFF76CF9401B6428F5D9032075E1B3F5FE
:1019B800A02F09D0754B1A6822F480321A601A6871
:1019C80022F480221A60E1E703F18043A3F53C3357
:1019D8001A6842F480221A601A6842F480321A6047
:1019E800D4E7FFF74BF90546684B1B6813F4003F33
:1019F800A2D0FFF743F9401B6428F5D903204CE136
:101A0800624B5B6813F4803FA5D1604B1B6813F0F1
:101A1800020F04D02369012B01D001203DE15B4A6C
:101A2800136823F0F803616943EAC103136023686C
:101A380013F0080F32D0A369002B5BD0554B01225D
:101A48001A60FFF71BF90546504B5B6A13F0020F4B
:101A580021D1FFF713F9401B0228F5D903201CE117
:101A68004A4A136823F0F803616943EAC103136023
:101A7800DDE7474B00221A60FFF700F90546434BA4
:101A88001B6813F0020FD2D0FFF7F8F8401B0228AA
:101A9800F5D9032001E10120FFF704FF236813F0C3
:101AA800040F00F09780394BDB6913F0805F33D166
:101AB800364BDA6942F08052DA61DB6903F0805311
:101AC8000193019B0125344B1B6813F4807F25D0BB
:101AD800E368012B36D0002B4CD103F1804303F58A
:101AE80004331A6A22F001021A621A6A22F0040206
:101AF8001A622CE0274B00221A60FFF7BFF8054650
:101B0800224B5B6A13F0020FC8D0FFF7B7F8401BEF
:101B18000228F5D90320C0E00025D4E71E4A13683F
:101B280043F480731360FFF7A9F806461A4B1B6845
:101B380013F4807FCCD1FFF7A1F8801B6428F5D976
:101B48000320AAE0114A136A43F001031362E36811
:101B580073B3FFF793F806460C4B1B6A13F0020F9A
:101B680037D1FFF78BF8801B41F288339842F3D9BD
:101B7800032092E0052B11D0044B1A6A22F00102CF
:101B88001A621A6A22F004021A62E0E700100240A0
:101B9800000042428004424200700040414B1A6AF1
:101BA80042F004021A621A6A42F001021A62CEE78F
:101BB800FFF764F806463B4B1B6A13F0020F08D088
:101BC800FFF75CF8801B41F288339842F3D9032071
:101BD80063E0E5B9E369002B5ED0324A526802F04F
:101BE8000C02082A5BD0022B17D02F4B00221A6058
:101BF800FFF744F804462B4B1B6813F0007F47D0CF
:101C0800FFF73CF8001B0228F5D9032045E0254AD8
:101C1800D36923F08053D361DCE7234B00221A6099
:101C2800FFF72CF805461F4B1B6813F0007F06D002
:101C3800FFF724F8401B0228F5D903202DE0236A7A
:101C4800B3F5803F1AD017494B6823F47413226AFE
:101C5800606A024313434B60134B01221A60FFF77B
:101C68000DF804460F4B1B6813F0007F0ED1FFF7E9
:101C780005F8001B0228F5D903200EE0094A53682D
:101C880023F40033A1680B435360DCE7002004E031
:101C9800002002E0012000E0002002B070BD012019
:101CA800FBE700BF0010024060004242014B0122E6
:101CB8001A6070474C00424210B487B0164C94E842
:101CC8000F000DF1180C0CE90F00238AADF8043051
:101CD800124B5B6803F00C02082A1AD1C3F3834243
:101CE800624412F8102C13F4803F05D10C4800FB15
:101CF80002F007B010BC7047084B5B68C3F3404361
:101D0800634413F8143C074800FB02F0B0FBF3F0FF
:101D1800EFE70448EDE700BFC86D00080010024077
:101D280000093D0000127A00594B1B6803F00703B5
:101D38008B420CD2564A136823F007030B431360F7
:101D4800136803F007038B4201D00120704770B578
:101D5800036813F0020F06D04E4A536823F0F003CD
:101D68008468234353600C460546036813F0010F4B
:101D780052D04368012B23D0022B28D0454A126841
:101D880012F0020F00F0828042494A6822F00302F2
:101D980013434B60FEF772FF06466B68012B1DD09C
:101DA800022B2AD03B4B5B6813F00C0F34D0FEF7A4
:101DB80065FF801B41F288339842F3D9032064E021
:101DC800344A126812F4003FDED101205DE0314A46
:101DD800126812F0007FD7D1012056E02D4B5B68C6
:101DE80003F00C03042B17D0FEF748FF801B41F2C9
:101DF80088339842F2D9032047E0264B5B6803F00A
:101E08000C03082B08D0FEF739FF801B41F28833FA
:101E18009842F2D9032038E01D4B1B6803F00703F2
:101E2800A3420CD91A4A136823F00703234313600B
:101E3800136803F00703A34201D0012025E02B68B3
:101E480013F0040F06D0134A536823F4E063E968DB
:101E58000B4353602B6813F0080F07D00D4A5368E3
:101E680023F46053296943EAC1035360FFF724FF51
:101E7800084B5B68C3F30313074AD35CD840074B8E
:101E880018600020FEF7B8FE002070BD0120FCE7B6
:101E980000200240001002402C960008300100206B
:101EA800014B1868704700BF3001002070470000E0
:101EB80008B5064B9B6813F0800F00D108BDFFF7EB
:101EC800F5FF034B80221A70F8E700BF00100240AC
:101ED8000A10024070B582B00446036813F0010F7F
:101EE80034D03E4BDB6913F0805F48D13B4BDA6955
:101EF80042F08052DA61DB6903F080530193019B61
:101F08000125374B1B6813F4807F3AD0334B1B6A8B
:101F180013F4407311D0626802F440729A420CD0F4
:101F28002E4A136A23F440702E4901260E600026BB
:101F38000E60106213F0010F37D1284A136A23F498
:101F4800407361680B431362002D3FD1236813F07F
:101F5800020F06D0214A536823F44043A1680B437B
:101F68005360236813F0100F35D01C4A536823F4CC
:101F7800800361690B435360002002B070BD0025E7
:101F8800BFE7174A136843F480731360FEF776FEC1
:101F98000646134B1B6813F4807FB7D1FEF76EFE1D
:101FA800801B6428F5D90320E7E7FEF767FE06469D
:101FB8000A4B1B6A13F0020FBFD1FEF75FFE801BAE
:101FC80041F288339842F3D90320D6E7D36923F046
:101FD8008053D361BAE70020CFE700BF001002406A
:101FE8000070004040044242F8B505460F461646C8
:101FF8001C463BE02CB1FEF741FE069BC01AA042EE
:1020080034D32A68536823F0E00353606B68B3F550
:10201800827F0BD0AB6AB3F5005F14D0012385F83B
:102028005130002385F85030032027E0AB68B3F522
:10203800004F02D0B3F5806FECD12A68136823F003
:1020480040031360E6E72A68136823F400531B046F
:102058001B0C13602A68136843F400531360DDE710
:102068000123B34209D0B4F1FF3FC3D12B689B6869
:1020780037EA0303F4D00023F3E70020F8BD10B5D6
:1020880082B0044600920B4600228021FFF7ACFF85
:10209800034610B9184602B010BD636D43F0200323
:1020A80063650323F6E72DE9F04184B01E4690F8F6
:1020B8005030012B00F0C88004460D46904601239D
:1020C80080F85030FEF7DAFD074694F85130DBB25D
:1020D800012B0AD00223012284F85120002284F81F
:1020E8005020184604B0BDE8F081002D00F0A4800F
:1020F800B8F1000F00F0A280032384F851300023C8
:1021080063652563A4F83480A4F83680A363A387A5
:10211800E38763642364A368B3F5004F1BD0236887
:102128001A6812F0400F03D11A6842F040021A6090
:10213800E368B3F5006F14D063681BB1E38E9BB2FC
:10214800012B3ED1236815F8012B1A73E38E013B4E
:102158009BB2E38635E02268136843F4804313603A
:10216800DDE763681BB1E38E9BB2012B0DD12368B9
:1021780035F8022BDA60E38E013B9BB2E38604E07C
:10218800002E5DD0B6F1FF3F0FD1E38E9BB27BB33B
:1021980023689A6812F0020FF2D035F8022BDA6041
:1021A800E38E013B9BB2E386EFE7FEF767FDC01BBA
:1021B800B042EAD303238EE7002E43D0B6F1FF3FA7
:1021C8000FD1E38E9BB29BB123689A6812F0020F7D
:1021D800F2D015F8012B1A73E38E013B9BB2E3860C
:1021E800EFE7FEF74BFDC01BB042EAD3032372E7CB
:1021F80000973346012202212046FFF7F5FE08B179
:10220800032368E73A4631462046FFF738FF03467E
:1022180018B12023636501235DE7A26832B90392F0
:102228002268D168039192680392039A626D002A2A
:102238003FF451AF01234EE701234CE701234AE75E
:10224800032348E7032346E702234AE700283CD054
:1022580010B504460023836290F85130002B31D02A
:10226800022384F851302268136823F04003136076
:102278006368A2681343E2681343226913436269DF
:102288001343A26902F400721343E2691343226AFA
:102298001343A16A22680B431360638B03F00403A2
:1022A800616A22680B4353602368E26A1A612268F4
:1022B800D36923F40063D36100206065012384F8A7
:1022C800513010BD02F0C0F8CAE7012070477047CE
:1022D800704770477047704710B5044603681A691D
:1022E80012F0020F11D0DA6812F0020F0DD06FF061
:1022F80002021A610123037703689B6913F0030F35
:1023080070D0FFF7E6FF0023237723681A6912F0DD
:10231800040F12D0DA6812F0040F0ED06FF0040226
:102328001A610223237723689B6913F4407F5FD0E7
:102338002046FFF7CEFF0023237723681A6912F09F
:10234800080F12D0DA6812F0080F0ED06FF00802EA
:102358001A61042323772368DB6913F0030F4ED037
:102368002046FFF7B6FF0023237723681A6912F087
:10237800100F12D0DA6812F0100F0ED06FF01002A2
:102388001A61082323772368DB6913F4407F3DD063
:102398002046FFF79EFF0023237723681A6912F06F
:1023A800010F03D0DA6812F0010F36D123681A69D9
:1023B80012F0800F03D0DA6812F0800F34D123684E
:1023C8001A6912F0400F03D0DA6812F0400F32D1C8
:1023D80023681A6912F0200F03D0DA6812F0200F70
:1023E80030D110BDFFF774FF2046FFF773FF8AE76F
:1023F8002046FFF76DFF2046FFF76CFF9BE720465E
:10240800FFF766FF2046FFF765FFACE72046FFF7BA
:102418005FFF2046FFF75EFFBDE76FF001021A611C
:102428002046FFF754FFC1E76FF080021A6120468B
:1024380000F002F9C3E76FF040021A612046FFF787
:102448004AFFC5E76FF020021A61204600F0F3F852
:10245800C7E700000368244A904212D002F50062E0
:1024680090420ED0B0F1804F0BD0A2F59832904236
:1024780007D002F58062904203D002F58062904254
:1024880003D123F070034A681343174A904212D0CD
:1024980002F5006290420ED0B0F1804F0BD0A2F549
:1024A8009832904207D002F58062904203D002F53C
:1024B8008062904203D123F44073CA68134323F027
:1024C80080034A69134303608B68C3620B688362A5
:1024D800054B984203D003F50063984201D10B697C
:1024E8000363012343617047002C0140002847D053
:1024F800F8B505460C4690F83D30002B3BD002233A
:1025080085F83D30294651F8042B936823F00703DA
:1025180093602868FFF79EFF29688A688E690F6AAA
:102528002068104326F4407626F00306A268A369C3
:1025380042EA0323334323F47C4323F0FC03E66895
:10254800E26946EA02261E43226A1303226943EA25
:102558000213334327F0AA076268646942EA041247
:102568003A43886029688B612B681A62012385F8D1
:102578003D300020F8BD80F83C3001F0BBFFBEE7DD
:102588000120704710B4012303FA01F4036A23EA17
:1025980004030362036A8A401343036210BC704752
:1025A80010B5044661B1042916D001220021006843
:1025B800FFF7E8FF012204212068FFF7E3FF04E0AA
:1025C800012200210068FFF7DDFF2268136843F04D
:1025D80001031360002010BD012204210068FFF7E9
:1025E800D1FFF2E790F83C30012B22D030B4012221
:1025F80080F83C20022380F83D300468636823F0AB
:1026080070036360046863680D682B436360046843
:10261800A36823F08003A3600468A36849680B4398
:10262800A36080F83D20002380F83C30184630BC79
:102638007047022070477047704784B001A880E84F
:102648000E00002004B07047B0F8403043F43F4318
:10265800A0F8403000207047B0F8403023F474539D
:102668005B045B0CA0F840300020704700207047E6
:1026780084B038B505AC84E80E000123A0F84030DA
:102688000024A0F84040A0F84440A0F85040FFF7CC
:10269800DBFF2046BDE8384004B0704710B4CB7863
:1026A800032B0FD8DFE803F0026D54600A7830F886
:1026B80022309BB223F4EC4323F0700343F40073FD
:1026C80020F822300A7830F8223023F0F0031B0576
:1026D8001B0D134343F4004343F0800320F82230DA
:1026E8008B7A002B40F0AF804B78002B56D08A882D
:1026F8005208B0F850300C7803EBC40300EB4303E6
:102708005200C3F800240A7830F8223013F0400F42
:102718000BD030F8223023F0F0031B051B0D43F4D7
:10272800004343F0C00320F822300A7830F8223002
:102738009BB223F4E04323F0400383F0200343F4E7
:10274800004343F0800320F82230002010BC70477B
:102758000A7830F822309BB223F4EC4323F070035C
:102768009BB220F82230ADE70A7830F822309BB2CD
:1027780023F4EC4323F0700343F4C06320F82230C1
:10278800A0E70A7830F822309BB223F4EC4323F018
:10279800700343F4806320F8223093E78A88520854
:1027A800B0F850300C7803EBC403043300EB430358
:1027B8005200C3F80024B0F850300A7803EBC20383
:1027C800063300EB43030C693E2C30D9C4F34F1297
:1027D80014F01F0F01D1013A92B26FEAC2626FEA98
:1027E800524292B2C3F800240A7830F8223013F427
:1027F800804F0BD030F8223023F0F0031B051B0D5F
:1028080043F4404343F0800320F822300A7830F83C
:1028180022309BB223F4804323F0700383F44053A7
:1028280043F4004343F0800320F822308DE7C4F3DB
:102838004F0214F0010F01D0013292B2920292B20B
:10284800C3F80024D0E70A7830F8223023F4F8736C
:102858001B051B0D43F4014343F0800320F822308D
:10286800CA885208B0F850300C7803EBC40300EB68
:1028780043035200C3F800240A895208B0F85030C4
:102888000C7803EBC403043300EB43035200C3F892
:1028980000244B78002B4BD10A7830F8223013F4FF
:1028A800804F0BD030F8223023F0F0031B051B0DAE
:1028B80043F4404343F0800320F822300A7830F88C
:1028C800223013F0400F0BD030F8223023F0F00301
:1028D8001B051B0D43F4004343F0C00320F82230CE
:1028E8000A7830F8223023F0F0031B051B0D43F45F
:1028F800004343F0C00320F822300A7830F8223031
:102908009BB223F4804323F0700383F4405348F2CE
:102918008004234320F822300A7830F822309BB212
:1029280023F4E04323F04003234320F822300CE74C
:102938000A7830F8223013F4804F0BD030F8223068
:1029480023F0F0031B051B0D43F4404343F08003C1
:1029580020F822300A7830F8223013F0400F0BD0DC
:1029680030F8223023F0F0031B051B0D43F400431D
:1029780043F0C00320F822300A7830F8223023F0E0
:10298800F0031B051B0D43F4404343F0800320F87C
:1029980022300B7830F8232092B222F4E04222F061
:1029A800400248F28004224320F823200A7830F8B5
:1029B80022309BB223F4804323F07003234320F892
:1029C8002230C2E68B7A002B44D14B780BB30A78BD
:1029D80030F8223013F0400F0BD030F8223023F0BB
:1029E800F0031B051B0D43F4004343F0C00320F81C
:1029F80022300A7830F822309BB223F4E04323F0E7
:102A0800400343F4004343F0800320F822300020C1
:102A180070470A7830F8223013F4804F0BD030F822
:102A2800223023F0F0031B051B0D43F4404343F011
:102A3800800320F822300A7830F822309BB223F441
:102A4800804323F0700343F4004343F0800320F8ED
:102A58002230DCE710B44B78002B4BD10A7830F8E1
:102A6800223013F4804F0BD030F8223023F0F003DB
:102A78001B051B0D43F4404343F0800320F822302C
:102A88000A7830F8223013F0400F0BD030F822309B
:102A980023F0F0031B051B0D43F4004343F0C00370
:102AA80020F822300A7830F8223023F0F0031B0592
:102AB8001B0D43F4004343F0C00320F822300B7889
:102AC80030F8232092B222F4804222F0700248F2B9
:102AD8008004224320F823200A7830F822309BB261
:102AE80023F4E04323F04003234320F8223000205E
:102AF80010BC70470A7830F8223013F4804F0BD09E
:102B080030F8223023F0F0031B051B0D43F440433B
:102B180043F0800320F822300A7830F8223013F08E
:102B2800400F0BD030F8223023F0F0031B051B0DAB
:102B380043F4004343F0C00320F822300A7830F809
:102B4800223023F0F0031B051B0D43F4404343F0F0
:102B5800800320F822300B7830F8232092B222F438
:102B6800E04222F0400248F28004224320F8232069
:102B78000A7830F822309BB223F4804323F07003A4
:102B8800234320F82230B2E70A788AB14B7813BB86
:102B980030F822309BB223F4804323F0700383F48F
:102BA800805343F4004343F0800320F8223010E0C0
:102BB80030F822309BB223F4804323F0400383F49F
:102BC800805383F0100343F4004343F0800320F85C
:102BD80022300020704730F822309BB223F4E043C3
:102BE80023F0400383F0100343F4004343F08003D1
:102BF80020F82230EDE74B781BB30A7830F8223002
:102C080013F0400F0BD030F8223023F0F0031B05EF
:102C18001B0D43F4004343F0C00320F822300A7828
:102C280030F822309BB223F4E04323F0400383F0D2
:102C3800300343F4004343F0800320F8223000209F
:102C480070470A7830F8223013F4804F0BD030F8F0
:102C5800223023F0F0031B051B0D43F4404343F0DF
:102C6800800320F822300A7830F822309BB223F40F
:102C7800804323F0700383F4405343F4004343F04C
:102C8800800320F82230DAE711B98023A0F84C300D
:102C9800002070470020704700207047B0F84400BB
:102CA80070470020704701335B1000EB420202F5C9
:102CB800806263B110B40C78487844EA002422F8A2
:102CC800044B0231013B002BF5D110BC7047704713
:102CD800F8B58A694D78012D34D00B69934280F09C
:102CE800EA80D21A8A618A7A002A40F0F480B0F821
:102CF80050200C7802EBC402063200EB42023E2B55
:102D080040F2DD80C3F34F1413F01F0F01D1013CD3
:102D1800A4B26FEAC4646FEA5444A4B2C2F800448F
:102D28000A7830F822309BB223F4804323F07003F2
:102D380083F4405343F4004343F0800320F82230E7
:102D48000020F8BD0F69974225D2D21B8A610E4632
:102D580004468B7A1BB30B7830F8232012F0400F0F
:102D680069D0002D37D1B0F8502002EBC3030633E9
:102D780000EB43033E2F22D9C7F34F1217F01F0F62
:102D880001D1013A92B26FEAC2626FEA524292B23C
:102D9800C3F8002428E000238B611746D7E7BBB2AD
:102DA8008A884969FFF77FFFB4F85030327803EB1F
:102DB800C203023304EB4303C3F800742AE0C7F3E9
:102DC8004F0217F0010F01D0013292B2920292B273
:102DD800C3F8002408E0B0F8502002EBC303023324
:102DE80000EB4303C3F800743289BBB27169204613
:102DF800FFF759FF7378002B4DD1327834F8223021
:102E080023F0F0031B051B0D43F4004343F0C003FC
:102E180024F82230327834F822309BB223F4E0438D
:102E280023F0400383F0300343F4004343F080036E
:102E380024F8223084E71DBBB0F8502002EBC3030E
:102E4800023300EB43033E2F0ED9C7F34F1217F09E
:102E58001F0F01D1013A92B26FEAC2626FEA524281
:102E680092B2C3F8002414E0C7F34F0217F0010F21
:102E780001D0013292B2920292B2C3F8002408E063
:102E8800B0F8502002EBC303023300EB4303C3F84E
:102E98000074F288A9E7012BBCD1327834F82230CB
:102EA80023F0F0031B051B0D43F4404343F080035C
:102EB80024F82230AEE700238B61134613E7C3F3EF
:102EC8004F0413F0010F01D00134A4B2A402A4B23C
:102ED800C2F8004424E7BDB9B0F850200C7802EBE2
:102EE800C402023200EB42023E2B28D9C3F34F142E
:102EF80013F01F0F01D1013CA4B26FEAC4646FEA5A
:102F08005444A4B2C2F800444A7882BBB0F85020B6
:102F18000C7802EBC402063200EB42023E2B1AD9AF
:102F2800C3F34F1413F01F0F01D1013CA4B26FEA91
:102F3800C4646FEA5444A4B2C2F80044F0E6C3F390
:102F48004F0413F0010F01D00134A4B2A402A4B2BB
:102F5800C2F80044D8E7C3F34F0413F0010F01D0BF
:102F68000134A4B2A402A4B2C2F80044D8E6012AEB
:102F78007FF4D6AEB0F850200C7802EBC4020232CF
:102F880000EB4202C2F80034CAE601335B1000EBE2
:102F9800420202F5806204E0106821F8020B013B4E
:102FA8000432002BF8D17047D0F818321BB100203A
:102FB800C3F8140270470220704710B5D0F81842C1
:102FC800D0F81C325BB194F80002FF2807D09B6848
:102FD80094F8012221469847FF2384F80032002004
:102FE80010BD0000432303800048704708000020FC
:102FF80043230380004870474C000020432303808C
:1030080000487047900000200A230380004870475A
:10301800D400002038B50446D0F8185201F0BAFDA3
:10302800C5F80C02D4F818324BB1D4F81C32DB685E
:1030380005F50371D5F804029847002038BD022031
:10304800FCE7000070B505460C46D0F818620B780E
:1030580013F0600225D0202A07D1CA883AB9D0F8DF
:103068001C329B68002248789847002070BD13F0F6
:10307800800F0BD0D0F81C329B6831466078984797
:10308800E2883146284600F059FCEEE74B7886F88E
:103098000032CB8886F80132CA88314600F063FCDA
:1030A800E3E74B780A2BE0D10122024900F046FC05
:1030B800DBE700BF6403002010B50446812101F05E
:1030C80002FD0121204601F0FEFC8221204601F08C
:1030D800FAFCD4F8183253B1D4F81C325B6898471C
:1030E800D4F8180201F060FD0023C4F8183200205B
:1030F80010BD38B50446037C73BB4FF4007302223D
:10310800812101F0CFFC4FF40073022201212046F7
:1031180001F0C8FC082303228221204601F0C2FCEA
:103128004FF4077001F03CFD0546C4F8180248B397
:10313800D4F81C321B6898470023C5F81432C5F828
:103148001832237CA3B14023D5F80422012120465C
:1031580001F012FD002038BD40230222812101F038
:10316800A1FC402302220121204601F09BFCD1E76B
:103178004FF40073D5F804220121204601F0FCFC2D
:103188000020E8E70120E6E719B1C0F81C1200208A
:10319800704702207047D0F81832C3F80812C3F8F5
:1031A800102200207047D0F81832C3F8041200200B
:1031B8007047D0F818229AB108B5037C3BB1402378
:1031C800D2F80422012101F0D7FC002008BD4FF4F9
:1031D8000073D2F80422012101F0CEFC0020F5E7AB
:1031E8000220704798B108B50346D0F8140210B110
:1031F8000020C3F8140209B1C3F8101218460123BD
:1032080080F8FC31027001F0F5FB002008BD0220B7
:10321800704719B1C0F81412002070470220704797
:1032280008B501F031FC002008BD08B5D0F814320B
:1032380033B11B68984708B9002008BD0220FCE795
:103248000220FAE708B5D0F814325B6898470020E6
:1032580008BD38B5044600F50275284600F00CF99B
:103268000123C4F8F431B4F80E32C4F8F83194F8F4
:10327800081201F01F03012B0ED03BB1022B10D016
:1032880001F08001204601F02CFC03E0294620468D
:1032980000F06BFA002038BD2946204600F089FA74
:1032A800F8E72946204600F0A0FAF3E710B50446EF
:1032B80021BB1346D0F8F421032A01D0002010BD09
:1032C800D0F80C11D0F8102191420CD8D0F8143253
:1032D8001B6923B190F8FC21032A00D198472046A6
:1032E80000F058FBEAE7891AC0F80C118A4228BF97
:1032F8000A4692B2194600F045FBDFE70A46D0F8C5
:1033080014329B69002BD9D090F8FC110329D5D130
:1033180011469847D2E710B50446002946D113460E
:10332800D0F8F421022A05D094F80032012B39D0C4
:10333800002010BDC169026A914219D88169B1FBA8
:10334800F2F302FB13132BB98A4203D8D0F8F831F1
:1033580099421AD3D4F81432DB682BB194F8FC21C3
:10336800032A01D120469847204600F01EFBDBE7E0
:103378008A1AC26192B2194600F0EDFA00231A4681
:103388001946204601F0F8FBCEE70022114600F06E
:10339800E2FA0021C4F8F8110B460A46204601F06B
:1033A800EBFBC1E7002384F80032C1E70A46D0F8F6
:1033B80014325B69002BBBD090F8FC110329B7D1FC
:1033C80011469847B4E738B5044640230022114611
:1033D80001F068FB4025C4F810512B4600228021DB
:1033E800204601F05FFB2562012384F8FC31D4F804
:1033F80018322BB1D4F814325B68217920469847EB
:10340800002038BD01740020704790F8FC3180F826
:10341800FD31042380F8FC310020704790F8FD311D
:1034280080F8FC310020704708B590F8FC31032B78
:1034380001D0002008BDD0F81432DB69002BF8D089
:103448009847F6E7002302E00133DBB20130027847
:10345800002AF9D1184670474B88012B0BD110B5BB
:103468000446C0F80432D0F814329B6898472046C6
:1034780000F090FA10BD70470B7803704B784370DA
:103488008B78CA7803EB022343800B794A7903EBE4
:10349800022383808B79CA7903EB0223C3807047A8
:1034A80010B50446802101F01CFB0021204601F0E4
:1034B80018FB10BD30B583B004460D464A88130A80
:1034C800013B062B00F28180DFE803F00413277F1D
:1034D8007F637000D0F810321B680DF10601007C84
:1034E8009847BDF8062012B1EB88002B71D103B0C4
:1034F80030BD037C43B9D0F814329B6A0DF1060045
:10350800984702234370ECE7D0F81432DB6A0DF1D8
:103518000600984702234370E3E7D2B2052A34D85D
:10352800DFE802F0030B131B232BD0F810325B6883
:103538000DF10601007C9847D3E7D0F810329B685C
:103548000DF10601007C9847CBE7D0F81032DB6814
:103558000DF10601007C9847C3E7D0F810321B69CB
:103568000DF10601007C9847BBE7D0F810325B6983
:103578000DF10601007C9847B3E7D0F810329B693B
:103588000DF10601007C9847ABE72946FFF788FF55
:10359800ADE7037C33B9D0F814325B6B0DF106004C
:1035A80098479EE72946FFF77BFFA0E7037C43B9CE
:1035B800D0F814321B6B0DF10600984707234370AF
:1035C8008FE72946FFF76CFF91E72946FFF768FF69
:1035D8008DE79A4228BF1A46ADF8062001462046D4
:1035E80000F0ACF983E738B504468B88E3B9CB889B
:1035F800D3B98D7805F07F0590F8FC31032B0CD0FA
:1036080080F8FE51294601F09BFA204600F0C2F9E5
:1036180035B1022384F8FC3109E0FFF741FF06E0E9
:10362800012384F8FC3102E02046FFF739FF38BD5A
:1036380038B504460D468978254B1970012909D8F3
:1036480090F8FC31022B09D0032B1CD02946FFF738
:1036580027FF02E02946FFF723FF38BD81B141600B
:10366800032380F8FC31FFF7E0FD022803D0204651
:1036780000F090F9F1E729462046FFF711FFECE743
:1036880000F088F9E9E789B1436899421DD0D9B2B9
:10369800FFF7D8FD0E4B197861602046FFF7C5FD8E
:1036A80002280DD0204600F075F9D6E7022380F8ED
:1036B800FC314160FFF7C6FD204600F06BF9CCE70E
:1036C80029462046FFF7ECFEC7E700F063F9C4E798
:1036D8006503002008B5CB88012B08D190F8FC3190
:1036E800022B07D0032B0DD0FFF7DAFE01E0FFF71E
:1036F800D7FE08BD0146002341F8083F012200F02B
:103708001DF9F6E70122011D00F018F9F1E708B5E7
:1037180090F8FC31023B012B0CD80123C360D0F890
:1037280004320BB10323C360022200F10C0100F044
:1037380005F908BDFFF7B4FEFBE710B5044690F89D
:10374800FC31023B012B0DD84B88012B09D10023FA
:10375800C0F80432D0F814329B689847204600F02D
:1037680019F910BDFFF79CFEFBE708B54B78092B4C
:103778001CD8DFE803F012181B151B09051B0F0CDA
:10378800FFF798FE002008BDFFF72DFFFAE7FFF7C7
:103798004FFFF7E7FFF79EFFF4E7FFF7B8FFF1E702
:1037A800FFF75AFEEEE7FFF7C8FFEBE7FFF778FEF3
:1037B800E8E738B504460D4690F8FC31032B11D1E3
:1037C8000B79012B0BD8D0F814329B689847EB88FB
:1037D8000BB1002038BD204600F0DCF8F9E7FFF710
:1037E8005FFEF6E7FFF75CFEF3E738B505460C46E3
:1037F8008A880B7803F06003202B05D1D0F81432A7
:103808009B689847002038BDD1B26378012B25D03A
:10381800002B47D0032BF5D190F8FC31022B05D0B3
:10382800032B0AD02146FFF73BFEEBE70029E9D03E
:103838008029E7D001F055F9E4E7638823B919B185
:10384800802901D001F04DF9D5F814329B68214642
:1038580028469847284600F09DF8D3E790F8FC31B1
:10386800022B05D0032B0AD02146FFF719FEC9E722
:103878000029C7D08029C5D001F033F9C2E7638891
:10388800002BBFD111F07F0F03D1284600F082F83A
:10389800B8E701F034F9D5F814329B682146284678
:1038A8009847F2E790F8FC31022B05D0032B09D09A
:1038B8002146FFF7F5FDA5E711F07F0FA2D001F033
:1038C80010F99FE712F0800F11D101F07F04103436
:1038D80000EB04140434284601F01FF970B10123E9
:1038E800236002222146284600F028F88AE701F0E2
:1038F8007F04013400EB04140434ECE70023236054
:10390800EFE7D0B170B50D4616460446FFF79AFDAD
:103918000130400080B23080287003236B7002238E
:1039280007E001345A1CD2B2E9540233DBB2002159
:10393800A95421780029F4D170BD704710B51346F9
:103948000222C0F8F4218361C3610A46002101F014
:1039580005F9002010BD08B513460A46002101F0FC
:10396800FDF8002008BD10B513460322C0F8F42165
:10397800C0F80831C0F80C310A46002101F0FCF803
:10398800002010BD08B513460A46002101F0F4F8DE
:10399800002008BD08B50423C0F8F43100231A46F6
:1039A800194601F0DBF8002008BD08B50523C0F86A
:1039B800F43100231A46194601F0DEF8002008BD4C
:1039C80008B500224FF480510148FDF7E7FA08BD19
:1039D800000C014010B5084C00224FF480712046BD
:1039E800FDF7DCFA0120FDF74FF901224FF4807151
:1039F8002046FDF7D3FA10BD0014014010B582B07F
:103A080002AC04F8010D00224FF400710548FDF7DF
:103A1800C5FA4FF0FF33012221460348FEF743FB66
:103A280002B010BD00140140A005002070B5064684
:103A38000D4601224FF400710B48FDF7AFFA0FE075
:103A48002C46B5F5004F28BF4FF40044A4B24FF000
:103A5800FF33224631460548FEF725FB26442D1B39
:103A6800002DEDD170BD00BF00140140A00500205D
:103A7800F0B583B007460D4616461C462A20FFF7C8
:103A8800BDFF3B0A8DF804308DF80570330A8DF8B8
:103A980006308DF8076004210DEB0100FFF7C6FF23
:103AA8002B20FFF7ABFF2B0A8DF804308DF805505B
:103AB800230A8DF806308DF8074004210DEB01002C
:103AC800FFF7B4FF2C20FFF799FF03B0F0BD82B0D9
:103AD8002DE9F04383B091460B93BDF83470BDF8DF
:103AE8003860DAB2024492B2C3F307230B449BB2A4
:103AF800013B013A9BB292B2FFF7BAFF4FF00008C0
:103B08001EE0330A8DF804308DF80560022101A803
:103B1800FFF78CFF01349DF82C30A3420ED905FA2B
:103B280004F313F4004FECD03B0A8DF804308DF801
:103B38000570022101A8FFF779FFEBE708F10108FA
:103B48009DF82D20424508D9A9F1200302FB0383E3
:103B58000C9A32F813500024DDE703B0BDE8F043B7
:103B680002B0704708B501224FF480510148FDF7B3
:103B780015FA08BD000C014070B584B0FFF720FFAE
:103B8800FFF728FF0120FFF739FFC820FDF77CF871
:103B9800CB20FFF733FF714C94E8030000908DF8B9
:103BA800041005216846FFF741FFCF20FFF726FFE5
:103BB800A368ADF800301B0C8DF80230032168466D
:103BC800FFF734FFE820FFF719FFE368ADF800308E
:103BD8001B0C8DF8023003216846FFF727FFEA2007
:103BE800FFF70CFF00258DF800508DF801500221D9
:103BF8006846FFF71BFFED20FFF700FF23690093DE
:103C080004216846FFF712FFF720FFF7F7FE20238D
:103C18008DF8003001216846FFF708FFC020FFF744
:103C2800EDFE23238DF8003001216846FFF7FEFEE4
:103C3800C120FFF7E3FE10238DF80030012168460C
:103C4800FFF7F4FEC520FFF7D9FEA38AADF80030D0
:103C580002216846FFF7EAFEC720FFF7CFFE86235A
:103C68008DF8003001216846FFF7E0FE3620FFF7A7
:103C7800C5FE48238DF8003001216846FFF7D6FEBF
:103C88003A20FFF7BBFE55238DF800300121684626
:103C9800FFF7CCFEB120FFF7B1FE8DF800501823D6
:103CA8008DF8013002216846FFF7C0FEB620FFF705
:103CB800A5FEA369ADF800301B0C8DF80230032176
:103CC8006846FFF7B3FEF220FFF798FE8DF8005024
:103CD80001216846FFF7AAFE2620FFF78FFE01267E
:103CE8008DF8006031466846FFF7A0FEE020FFF738
:103CF80085FE6D4604F11C030FCB07C525F8023B72
:103D08001B0C2B700F216846FFF790FEE120FFF790
:103D180075FE6D462C3494E80F0007C525F8023B64
:103D28001B0C2B700F216846FFF780FE1120FFF750
:103D380065FE1420FCF7A8FF2920FFF75FFE362058
:103D4800FFF75CFEE8238DF8003031466846FFF740
:103D58006DFEFFF707FF04B070BD00BFF0950008C7
:103D6800B0F5A07F01D2EF2900D9704770B582B0B5
:103D780016460D460446FFF723FE6B1C621C9BB2D9
:103D880092B229462046FFF773FE330A8DF80430B5
:103D98008DF80560022101A8FFF748FEFFF7E2FE53
:103DA80002B070BD82B02DE9F04385B006460D46DD
:103DB80017460D93BDF83C90BDF84080FFF700FE14
:103DC80010E0013700260DE0CDF80880CDF804900A
:103DD8000E9B00930D9B29463046FFF778FE34442E
:103DE800A6B201373A7882B19DF834403319B3F559
:103DF800A07FE9DB9DF835301D44ADB22B44EF2B95
:103E080003DC202ADDD00026DEE7FFF7ABFE05B095
:103E1800BDE8F04302B070472DE9F04182B0BDF82B
:103E28002080B0F5A07F41D204460F4616461D46B5
:103E3800EF293BD88318013BB3F5A07F02DBC0F51F
:103E4800A076B6B27B19013BEF2B02DDC7F1F00576
:103E5800ADB2FFF7B5FD321992B2EB199BB2013B37
:103E6800013A9BB292B239462046FFF701FE4FEA6B
:103E780018238DF804308DF8058001224FF4007165
:103E88000C48FDF78BF80CE04FF0FF33022201A934
:103E98000948FEF708F9013CA4B2002CF4D1013D11
:103EA800ADB20DB13446F8E7FFF75CFE02B0BDE8ED
:103EB800F08100BF00140140A005002000B583B0C8
:103EC8000090F0234FF4A07200210846FFF7A4FFEA
:103ED80003B05DF804FB00002DE9F04389B0424BC4
:103EE8009A6942F010029A619A6902F010020092EF
:103EF800009A9A6942F004029A619A6902F00402EF
:103F08000192019A9A6942F008029A619A6902F04C
:103F180008020292029A9A6942F020029A619B6909
:103F280003F020030393039B304D002242F210015B
:103F38002846FDF733F8DFF8C09000224FF480518F
:103F48004846FDF72BF8DFF8B48000224FF44071A3
:103F58004046FDF723F84FF40053049301260596D5
:103F6800002406940227079704A92846FCF71EFF99
:103F7800102304930596069407960DEB0301284633
:103F8800FCF714FF20230493194B0593069404A906
:103F98002846FCF70BFF4FF48053049305960694CC
:103FA800079704A94846FCF701FF4FF440730493B0
:103FB80005960694079704A94046FCF7F7FE4023A8
:103FC80004930C4B0593069404A92846FCF7EEFECF
:103FD800224621461720FCF77DFE1720FCF7AEFE8F
:103FE80009B0BDE8F08300BF001002400010014096
:103FF8000000111000003110000C014000140140B5
:1040080008B5FFF7AFFDFFF7B7FD08BDFEE70000F5
:1040180000B58DB01748184B0360002343608360D8
:104028004FF6FF72C2600361836103220392049317
:104038000122059206930793089309920A930B931A
:1040480003A9FEF753FA50B900230193029301A97B
:104058000848FEF7C7FA38B90DB05DF804FB4FF40D
:10406800D3710648FFF7D2FF40F2AD110348FFF7BE
:10407800CDFF00BFF8050020000800401097000899
:1040880008B50F480F4B03604FF482734360002359
:104098008360C360036143614FF400728261302220
:1040A800C2610362436283620A23C362FEF7CEF8E9
:1040B80000B908BD40F271110348FFF7A7FF00BF20
:1040C8003C060020003001401097000808B50E4853
:1040D8000E4B03604FF48273436000238360C36018
:1040E800036143614FF400728261C36103624362FA
:1040F80083620A23C362FEF7A9F800B908BD40F23B
:1041080089110348FFF782FFA0050020003800400E
:104118001097000800B597B001220C924FF4803335
:104128000D9300210E9110920222139214934FF4D2
:10413800E01315930CA8FDF7CBFB58BB0F2307938F
:1041480002210891002309934FF480620A920B938D
:1041580007A8FDF7E9FD10BB102301930023069380
:1041680001A8FDF7B7FEF8B9FDF7A0FDFDF798FE29
:10417800104BA3FB00308009FCF7ECFD0420FCF792
:10418800FFFD002211464FF0FF30FCF7A3FD17B0EA
:104198005DF804FB4FF49B710748FFF737FF4FF4B6
:1041A800A2710548FFF732FF40F24B110248FFF7B2
:1041B8002DFF00BFD34D62101097000800000000CB
:1041C8002DE9F04188B0FCF73BFDFFF7A3FFFFF7AF
:1041D80083FEFFF71DFF00F067FBFFF751FFFFF7B6
:1041E80075FFFFF70DFF18216148FEF7D9F9614BFC
:1041F80007930020FFF762FE00263246B04621E012
:104208005D4B2DE000225D4B20462946FCF70EF859
:1042180004460D464FF050082D23049309230393B9
:10422800574B0293CDE900450022564B07A940465B
:1042380000F0B4FA544B1B68032B02DD524B0022EA
:104248001A603A46514B5F6ABB1A1E44002BB8BF2E
:104258005B42B3F5004F04DBBA42D1DD4FF6FF7382
:104268001E444FF400514A48FCF79EFE3046FCF7C6
:1042780029F935A3D3E90023FCF78EF90022454B31
:10428800FCF78AF90022444BFBF7D0FF30A3D3E9AF
:104298000023FCF7ABFA04460D4600223F4BFCF71F
:1042A80001FC38B92CA3D3E9002320462946FCF7A2
:1042B800EFFB88B12AA3D3E9002320462946FCF75F
:1042C800F1FB48B10022364B20462946FBF7AEFFEA
:1042D80004460D464FF014080022324B204629466A
:1042E800FCF7E0FB38B91EA3D3E900232046294692
:1042F800FCF7CEFB88B11CA3D3E90023204629464E
:10430800FCF7D0FB48B10022264B20462946FBF794
:104318008DFF04460D464FF028080022174B204613
:104328002946FCF7BFFB00287FF46CAF0EA3D3E946
:10433800002320462946FCF7ABFB00283FF46CAF6E
:1043480060E700BFAFF30080190019001900793F3A
:10435800000000000088C3403333333333B32C40AC
:10436800CDCCCCCCCCCC1C406666666666660E406E
:10437800F80500204C5342000100FFFF00000C40EC
:104388006666A63F00000840680300200008004059
:10439800001001400000244000408F4000002C40E5
:1043A80000002A4000001C4000B583B0244B9A69E5
:1043B80042F001029A619A6902F001020092009AA1
:1043C800DA6942F08052DA61DB6903F080530193C5
:1043D800019B0320FCF76CFC002211466FF00B00D8
:1043E800FCF778FC002211466FF00A00FCF772FC1B
:1043F800002211466FF00900FCF76CFC0022114600
:104408006FF00400FCF766FC002211466FF0030011
:10441800FCF760FC002211466FF00100FCF75AFC23
:10442800002211464FF0FF30FCF754FC054A536850
:1044380023F0E06343F08063536003B05DF804FB4E
:10444800001002400000014010B586B00368244AFD
:10445800934204D0234A934220D006B010BD224B89
:104468009A6942F480529A619B6903F480530093DD
:10447800009BA023029302230393032305931B4C61
:1044880002A92046FCF792FC4023029300230393E1
:10449800049302A92046FCF789FCDEE7124BDA698F
:1044A80042F48042DA61DB6903F480430193019BA3
:1044B8004FF42043029302230393032305930C4CE8
:1044C80002A92046FCF772FC4FF4804302930023B4
:1044D8000393049302A92046FCF768FCBDE700BFDC
:1044E8000030014000380040001002400008014040
:1044F800000C01400268164B9A4200D0704710B574
:1045080086B003F50233DA6942F00402DA61DB6946
:1045180003F004030193019B4FF4405302930024DA
:1045280003940123049302A90A48FCF73FFC0A4AB2
:10453800536843F0E06343F48053536022462146B6
:104548001E20FCF7C7FB1E20FCF7F8FB06B010BDC9
:1045580000080040001401400000014008B5FDF7C4
:10456800A7FC08BDFEE7FEE7FEE7FEE770477047D9
:10457800704708B5FCF776FBFCF713FC08BD000094
:1045880008B50248FDF770F808BD00BFC01100204B
:1045980008B5084B5B6913F0200F03D0064A13686F
:1045A800013313602020FCF705FD4020FCF702FDD5
:1045B80008BD00BF000401406803002008B5024898
:1045C800FDF78AFE08BD00BFF80500200F4B1A68EA
:1045D80042F001021A6059680D4A0A405A601A6886
:1045E80022F0847222F480321A601A6822F480223F
:1045F8001A605A6822F4FE025A604FF41F029A6049
:10460800044B4FF000629A60704700BF00100240F0
:104618000000FFF800ED00E000B585B000920B4601
:1046280002460A490A4800F0C5FF0A4B00200290DA
:104638004FF6E07201925A6800921B68064ADC2124
:10464800FFF7B0FB05B05DF804FB00BF1499000844
:104658000007002020010020349900082DE9F04FC0
:1046680085B092469B4667240DE0A5B24FF4784288
:104678002946A020FFF774FB4FF478422946A02072
:10468800FFF76EFB0134C22CEFDD3A4D0024029493
:104698001F2601966B6800932B68374A67212046CE
:1046A800FFF780FB029401966B6800932B68334AEE
:1046B80085212046FFF776FB029401966B680093EC
:1046C8002B682F4AA3212046FFF76CFB00222D4BB5
:1046D80050465946FBF7A8FDFCF7F8F980462A4BE7
:1046E80018600022274B50465946FBF79FFDFCF700
:1046F800EDF90746254B18604046FBF7F5FE804666
:104708008946234E3846FBF7EFFECDE90201214BDF
:104718001868FBF7E9FECDE9000142464B461E4901
:10472800304600F047FF02944FF4FC6301936B6836
:1047380000932B683246C8210A20FFF733FB13E0A9
:10474800A5B24FF6FF72D3212846FFF709FB4FF6B3
:10475800FF72D4212846FFF703FB4FF6FF72D521DD
:104768002846FFF7FDFA0134B4F5A07FE8DB05B071
:10477800BDE8F08F28010020549900085C990008D2
:10478800649900080000E03FC8070020FC060020EC
:1047980064070020F40600206C9900082DE9F04316
:1047A80085B08146884616461F46364B002402943B
:1047B80040F2FF7201925A6800921B68324A214601
:1047C8002046FFF7EFFA13E0A5B24FF6FF725F211C
:1047D8002846FFF7C5FA4FF6FF7260212846FFF713
:1047E800BFFA4FF6FF7261212846FFF7B9FA013484
:1047F800B4F5A07FE8DB98F8003098F8012098F825
:104808000210DFF8A080CDE90267019100924A46C4
:104818001E49404600F0CEFE1D4DDDE90C231D4922
:10482800284600F0C7FE1C4B002402944FF6E072A5
:1048380001925A6800921B68424623212046FFF7DE
:10484800B1FA104B02944FF6FF7201925A68009227
:104858001B682A4641212046FFF7A4FADDE90C230C
:104868000E4909780E480078FFF7F8FE0E98FBF716
:104878003BFE9DF840309DF83C20FFF7CDFE05B08B
:10488800BDE8F0831801002094990008A899000851
:10489800C4060020CC99000820010020F906002059
:1048A800F80600209406002010B5094C002209499A
:1048B8002046FEF797FC08492046FEF7AAFC074960
:1048C8002046FEF761FC2046FEF7AAFC10BD00BF9B
:1048D800CC0700205C010020E0000020340100200B
:1048E800002070470020704710B5054C014620464F
:1048F800FEF759FC2046FEF75CFC002010BD00BF07
:10490800CC07002010B5064C002206492046FEF7C9
:1049180042FC05492046FEF746FC002010BD00BFBA
:10492800CC070020D80D0020F009002002680E4BAB
:104938009A4200D0704700B583B003F5DA33DA69DC
:1049480042F40002DA61DB6903F400030193019B7E
:10495800002211461420FCF7BDF91420FCF7EEF9EB
:1049680003B05DF804FB00BF005C004008B500F22E
:104978002C41D0F85C04FEF76CFC08BD08B500EBD0
:104988004113D3F83C22D0F85C04FEF78FFC08BD35
:1049980008B500EB4113DA6BD0F85C04FEF7BBFCFA
:1049A80008BD08B5D0F85C04FEF73EFD08BD10B59B
:1049B80004460121D0F85C04FEF724FDD4F85C0419
:1049C800FEF701FD10BD000010B50446D0F85C04E8
:1049D800FEF71BFDA36923B1024A136943F00603DE
:1049E800136110BD00ED00E008B5D0F85C04FEF7D7
:1049F80015FD08BD10B504462048C0F85C44C4F84D
:104A080020021F4B036008234360022383600323B3
:104A1800C36000238361C3610362FCF7D9FA30BB2A
:104A2800182300221146D4F82002FCF722FF58234D
:104A380000228021D4F82002FCF71BFFC0230022AB
:104A48008121D4F82002FCF714FF4FF48873002268
:104A58000121D4F82002FCF70CFF4FF480730022E8
:104A68008221D4F82002FCF704FF002010BD4FF487
:104A780097710448FFF7CAFAD2E700BFC0110020B7
:104A8800005C0040E099000808B5D0F82002FCF767
:104A98000AFB18B1022803D0022008BD0020FCE759
:104AA8000120FAE710B51C4613462246D0F820022A
:104AB800FCF724FB18B1022803D0022010BD002007
:104AC800FCE70120FAE708B5D0F82002FCF73FFB25
:104AD80018B1022803D0022008BD0020FCE70120FD
:104AE800FAE708B5D0F82002FCF76EFE18B10228E4
:104AF80003D0022008BD0020FCE70120FAE708B532
:104B0800D0F82002FCF78EFE18B1022803D002204C
:104B180008BD0020FCE70120FAE7D0F8203211F0A8
:104B2800800F06D101F07F0103EB411191F82A02B1
:104B3800704701F07F0103EB411191F82A0070479B
:104B480008B5D0F82002FCF7C5FA18B1022803D03E
:104B5800022008BD0020FCE70120FAE708B5D0F8DC
:104B68002002FCF741FB18B1022803D0022008BD3F
:104B78000020FCE70120FAE708B5D0F82002FCF78E
:104B88000DFB18B1022803D0022008BD0020FCE765
:104B98000120FAE708B5D0F82002FCF71EFB08BD93
:104BA80000487047700300207047704712230B803D
:104BB800004870474401002004230B8000487047D8
:104BC8005801002008B50A4628B105490548FEF7EE
:104BD80098FE034808BD02490248FEF792FEF8E72E
:104BE80020160020F499000810B5044C0A46214606
:104BF8000348FEF786FE204610BD00BF20160020A1
:104C08000C9A000808B50A4628B105490548FEF778
:104C180078FE034808BD02490248FEF772FEF8E72D
:104C280020160020209A000808B50A4628B1054930
:104C38000548FEF766FE034808BD02490248FEF72C
:104C480060FEF8E720160020309A000808B50A46EA
:104C580028B105490548FEF754FE034808BD024936
:104C68000248FEF74EFEF8E7201600203C9A00089E
:104C7800002103E00B4B5B58435004310A480B4BAF
:104C880042189A42F6D30A4A02E0002342F8043B4B
:104C9800084B9A42F9D3FFF799FC00F00FF8FFF799
:104CA8008FFA7047B09C00080000002048030020DD
:104CB8004803002024180020FEE7000070B50025F6
:104CC8000C4E0D4CA41BA410A54209D102F06AF8A1
:104CD80000250A4E0A4CA41BA410A54205D170BD9C
:104CE80056F8253098470135EEE756F825309847AD
:104CF8000135F2E7A89C0008A89C0008A89C0008B9
:104D0800AC9C000803460244934200D1704703F864
:104D1800011BF9E7002B2DE9F0471E46BBBF03F145
:104D280000431E4600232D2388B0149FDDE9121A84
:104D380027F02007462F1446109D0B7004D0452FEE
:104D480000D10135022300E0032307AA049206AA32
:104D5800CDE902A2CDE900352246334600F0D8FC61
:104D6800472F804602D1119BDB0726D5462F08EB3B
:104D7800050911D198F80030302B0AD10022002300
:104D880020463146FBF770FE18B9C5F10105CAF88F
:104D98000050DAF8003099440022002320463146BA
:104DA800FBF762FE38B93022079B4B4505D2591CE8
:104DB80007911A70F8E7CDF81C904046079B159AA2
:104DC800A3EB0803136008B0BDE8F087F7B5002926
:104DD800B4BF2D232B230446B8BF4942092904F840
:104DE800022B437021DD0DF107031F460A2691FBB4
:104DF800F6F506FB1511092D01F1300103F8011C28
:104E080003F1FF32294609DC3031023B02F8011C6C
:104E1800BB42224604D3101A03B0F0BD1346E6E79E
:104E280013F8012B04F8012BF2E73023194483709F
:104E3800021DC170EFE700002DE9F04F91B00C465C
:104E48001A9F93461E46054601F016FA036818464F
:104E58000993FBF78BFE00230E933B680A900733F8
:104E680023F0070303F1080294F81880D4F800A08F
:104E78003A60D3E90023C4E91223D4E9127929F06E
:104E880000430B934FF0FF32A64B38460B99FBF7C4
:104E980075FE68BB4FF0FF32A24B38460B99FBF703
:104EA800F7FD28BB0022002338464946FBF7E6FDFC
:104EB80010B12D2384F843309B4F9C4BB8F1470F1A
:104EC80098BF1F4603234FF0000923612AF004030B
:104ED800236000965B460FAA2146284600F0E2F9B7
:104EE800013040F090804FF0FF3011B0BDE8F08FF6
:104EF8003A464B4638464946FBF740FE10B18C4FC0
:104F08008C4BDBE763684AF48062591C0DA80EA934
:104F180040D1062363604FF0000C0DF13303CDE957
:104F2800012363682260CDE9030800933A464B46A3
:104F3800CDE9051C2846FFF7EDFE08F0DF03472BF7
:104F4800074609D10D9BD81C02DB6268934247DDF6
:104F5800A8F102085FFA88F8B8F1650F0D9924D80E
:104F68000139424604F150000D91FFF72FFF0E9AC8
:104F780081461318012A236102DC2268D10701D572
:104F8800013323619DF83330002BA2D02D2384F800
:104F980043309EE7B8F1670F00F06E81B8F1470F14
:104FA800B9D1002BB7D10123B4E7B8F1660F19D1F5
:104FB800002963680CDD216113B92268D20702D584
:104FC80001330B4423610D9B4FF00009A365D9E71A
:104FD80013B92268D00701D50233F3E70123F1E7BB
:104FE8004FF06708DDE90D32934205DB2268236143
:104FF800D107E8D50133E5E7002BCCBF0123C3F186
:1050080002031344DEE723685A0507D423693A46A6
:1050180059462846B047013029D164E7B8F1650FF1
:1050280040F2D780D4E9120100220023FBF71CFDCF
:1050380088B30123404A59462846B04701303FF417
:1050480052AFDDE90D239A4202DB2368D8070ED55B
:10505800DDE9092359462846B04701303FF443AFFC
:10506800002704F11A080E9B013BBB4209DC2368A8
:105078009F0700F1FD80E0680F9B9842B8BF184673
:1050880033E70123424659462846B04701303FF4EA
:105098002AAF0137E7E70D9B002B2BDC0123264ABB
:1050A80059462846B04701303FF41DAF0D9B23B940
:1050B8000E9B13B92368D907D9D5DDE909235946C9
:1050C8002846B04701303FF40EAF4FF0000804F116
:1050D8001A090D9B5B42434501DC0E9B97E70123B0
:1050E8004A4659462846B04701303FF4FCAE08F11D
:1050F8000108EEE70E9AA36D9A42A8BF1A46002A45
:10510800904607DD134659463A462846B0470130CF
:105118003FF4E9AE04F11A034FF0000A28EAE878F0
:105128000B9315E0FFFFEF7F509A00084C9A000898
:10513800589A0008549A00085C9A000801230B9AB0
:1051480059462846B04701303FF4CDAE0AF1010A6E
:10515800D4F85890A9EB08035345EFDCDDE90D239B
:105168009A424F4414DB2368DA0711D40E9B0D9939
:10517800A3EB0902A3EB01099145A8BF9146B9F138
:10518800000F0DDC002729EAE97904F11A0818E074
:10519800DDE9092359462846B0470130E6D1A2E6A1
:1051A8004B463A4659462846B0470130EAD19AE676
:1051B8000123424659462846B04701303FF493AE92
:1051C8000137DDE90D239B1AA3EB0903BB42EFDC92
:1051D8004DE70E9A012A01DCDB0738D501233A4650
:1051E80059462846B04701303FF47DAEDDE9092332
:1051F80059462846B047013007F101073FF473AE1E
:10520800D4E912010E9B002203F1FF380023FBF7BB
:105218002BFCC0B943463A4659462846B0470130A8
:105228000DD160E60123424659462846B047013071
:105238003FF459AE01370E9B013BBB42F2DC4B46B3
:1052480004F15002E4E6002704F11A08F3E7012309
:10525800E1E70123424659462846B04701303FF46A
:1052680042AE0137E3680F9A9B1ABB42F1DC02E7B2
:10527800002704F11908F5E7002B3FF494AE4FF02E
:10528800000CCDE9051C0DF133012260CDE90308BE
:10529800CDE9012100933A464B462846FFF73AFDEF
:1052A80007464FE62DE9F04791461F468A680B6985
:1052B80006469342B8BF1346C9F8003091F8432018
:1052C8000C46DDF8208012B10133C9F8003023689C
:1052D800990642BFD9F800300233C9F80030256872
:1052E80015F0060507D104F1190AE368D9F800207A
:1052F8009B1AAB4229DC94F843302268003318BF6C
:10530800012392062ED404F1430239463046C047A1
:10531800013021D02368E56803F00603042B18BF89
:105328000025D9F800204FF0000908BFAD1AA3687E
:10533800226908BF25EAE5759342C4BF9B1AED1898
:105348001A344D451AD1002008E001235246394647
:105358003046C047013003D14FF0FF30BDE8F08739
:105368000135C2E73020E11881F843005A1C94F84F
:1053780045102244023382F84310C4E70123224631
:1053880039463046C0470130E6D009F10109D8E76F
:105398002DE9F04301F1430C0C46097E85B06E29D6
:1053A8001746064698460C9A00F0B38022D863291F
:1053B80036D00AD8002900F0B980582900F0838037
:1053C80004F1420584F8421032E0642901D06929C9
:1053D800F6D120681368050603F104012AD51B6875
:1053E8001160002B03DA2D225B4284F843206F48BA
:1053F8000A2239E0732900F09D8008D86F2920D04F
:105408007029DDD1236843F02003236003E0752968
:1054180017D07829D4D17823654884F8453055E0E9
:10542800136804F14205191D1B68116084F84230A5
:1054380001238CE01B6810F0400F116018BF1BB2ED
:10544800CFE713682568181D1060280601D51B686A
:1054580002E06806FBD51B886F2914BF0A220822C0
:105468005248002184F843106568002DA560C0F2F9
:105478009580216821F004012160002B3DD1002D89
:1054880040F08E806546082A0BD12368DB0708D5D3
:10549800236962689A42DEBF302305F8013C05F1B2
:1054A800FF35ACEB05032361CDF800803B4603AA2A
:1054B80021463046FFF7F6FE01304DD14FF0FF3060
:1054C80005B0BDE8F083394884F8451013682168B1
:1054D8001D1D1B6815600A060BD5CA0744BF41F09D
:1054E800200121601BB9226822F0200222601022CC
:1054F800B7E74D0648BF9BB2EFE76546B3FBF2F14D
:1055080002FB1133C35C05F8013D0B460029F5D1B8
:10551800B9E713682568181D6169106028061B68BB
:1055280001D5196002E06A06FBD51980002365469B
:105538002361B9E71368191D11601D6862680021AD
:10554800284600F0AFFE08B1401B60606368236125
:10555800002384F84330A7E723692A4639463046B2
:10556800C0470130AAD023689B0713D4E068039B87
:105578009842B8BF1846A3E701234A463946304641
:10558800C04701309AD00135E368039A9B1AAB42B1
:10559800F2DCEBE7002504F11909F5E7002BACD1A3
:1055A800037804F1420584F842306CE75E9A0008FB
:1055B8006F9A00080EB46FF0004100B59CB01DABA7
:1055C80002900690079104910848094953F8042B62
:1055D8000591006802A9019301F068FA0022029B74
:1055E8001A701CB05DF804EB03B070477801002016
:1055F8000802FFFF2DE9F74F03690C698046A342B3
:10560800C0F28480013C01F1140700F1140657F838
:10561800245056F824000135B0FBF5F54FEA840C08
:1056280006EB0C0307EB0C0901939DB34FF0000A3E
:105638003846B646D34650F8042B93B205FB03A36D
:10564800120C4FEA134A05FB02A29BB2ABEB030311
:10565800DEF800B04FEA124A1FFA8BFB5B441FFAD0
:1056680082FBDEF800208145CBEB124202EB23429D
:105678009BB243EA02434FEA224B4EF8043BDAD28C
:1056880056F80C3033B9019B043B9E421A4631D37D
:10569800C8F81040404601F033F8002826DB3046B1
:1056A8004FF0000C013557F8041BD0F800E08BB21E
:1056B800ACEB03031FFA8EF213440A0CC2EB1E4232
:1056C80002EB23429BB243EA0243B9454FEA224C1C
:1056D80040F8043BE7D256F8242006EB84032AB9A5
:1056E800043B9E421A460BD3C8F81040284603B024
:1056F800BDE8F08F1268043B002AC9D1013CC4E719
:105708001268043B002AEFD1013CEAE70020EEE7EB
:105718002DE9F04F16461F46456A95B00446DDF858
:105728008480CDE902673DB9102000F0B3FD6062C6
:10573800C0E901550560C560636A196851B15A68C6
:10574800012393404A608B60204600F0F8FD002258
:10575800636A1A603B1EAFBF0023012223F0004397
:105768000393ACBFC8F80030C8F80020AE4BDDF892
:105778000C8033EA08031BD142F20F73209A13609E
:10578800029B23B9C8F31300002800F04585229B2B
:1057980053B9A64B21E0A64B06930833229A13600F
:1057A800069815B0BDE8F08FA04B06930333F5E7D4
:1057B800DDE902670022002330463946FBF754F939
:1057C800824660B10123209A1360229B002B00F0CF
:1057D8002085984B229A1360013B0693E0E712ABB1
:1057E800019313AB009332463B46204601F000F884
:1057F800C8F30A558346002D7DD0B046C7F313037E
:1058080043F07F5949F44019A5F2FF35CDF840A07F
:105818000022894B40464946FAF706FD7CA3D3E9A6
:105828000023FAF7B9FE7CA3D3E90023FAF7FEFCBC
:10583800064628460F46FAF745FE79A3D3E9002322
:10584800FAF7AAFE02460B4630463946FAF7EEFC4E
:1058580006460F46FBF7A8F9002282460023304689
:105868003946FBF70BF948B15046FAF72BFE32469A
:105878003B46FBF7F9F808B90AF1FF3ABAF1160FF7
:105888005AD8DDE902236D4901EBCA01D1E90001CB
:10589800FBF712F9002851D000230AF1FF3A0D93C3
:1058A800129B5D1B6B1E079343BF0023C5F10109C3
:1058B80007934FF00009BAF1000F41DB079BCDF8C1
:1058C80030A053440793002308931E9B092B00F232
:1058D8008F80052BC4BF043B1E931E9BC8BF0025A9
:1058E800A3F10203D8BF0125032B00F28D80DFE866
:1058F80003F07B7D2F6FDDE912531D4405F2324022
:10590800202813DDC0F14000029B08FA00F805F2D8
:10591800124023FA00F048EA0000FAF7C3FD012319
:105928008046A1F1F879013D109371E7029BC0F11F
:10593800200003FA00F0F0E70123B0E70D90AFE78D
:10594800CAF1000308930023A9EB0A090C93BCE7EA
:10595800012309931F9B002B74DD984604930022B2
:10596800666A7260042202F11400984271686ED966
:10597800204600F0B0FC636A30601B68B8F10E0F77
:10598800069300F2ED80002D00F0EA80DDE90223A5
:10599800BAF1000FCDE90E2377DD284A0AF00F038C
:1059A8004FEA2A1602EBC303F006D3E90023CDE938
:1059B8000A2368D5DDE90E01214B0325D3E9082325
:1059C800FAF714FFCDE9020106F00F061C4F4FE06D
:1059D800012309931F9B534403F101080493434691
:1059E800012BB8BF0123BAE70023B2E70023F0E791
:1059F8000125002309951E934FF0FF3300220493DD
:105A0800984612231F92AAE701230993F4E700BFDF
:105A180061436F63A787D23FB3C8608B288AC63FAC
:105A2800FB799F501344D33F0000F07F899A000808
:105A3800809A00085D9A00080000F83FB89A0008AC
:105A4800909A00080123049398461A46DAE7013130
:105A58007160520087E7F10708D5DDE90A01D7E947
:105A68000023FAF799FDCDE90A01013576100837C8
:105A7800002EF0D1DDE90A23DDE90201FAF7B6FECE
:105A8800CDE902011BE00225A0E700F0A480DDE9D2
:105A98000E01CAF10006A04B06F00F0203EBC20389
:105AA800D3E90023FAF778FD02250023CDE90201A6
:105AB8009A4F3611002E40F08380002BE0D10D9BC9
:105AC800002B00F08A80DDE90223CDE90A23DDE915
