:020000040800F2
:1000000000000120393A0008A5340008AD3400088A
:10001000AF340008B1340008B33400080000000019
:10002000000000000000000000000000B5340008DF
:10003000B734000800000000B9340008BB340008E1
:10004000813A0008813A0008813A0008813A0008A4
:10005000813A0008813A0008813A0008813A000894
:10006000813A0008813A0008813A0008813A000884
:10007000813A0008813A0008813A0008813A000874
:10008000813A0008813A0008813A0008813A000864
:10009000813A0008813A0008813A0008C934000812
:1000A000813A0008813A0008813A0008813A000844
:1000B000813A0008813A000835350008813A000885
:1000C000813A0008813A0008813A0008813A000824
:1000D000813A0008813A0008813A0008813A000814
:1000E000813A0008813A0008813A0008813A000804
:1000F000813A0008813A0008813A0008813A0008F4
:10010000813A0008813A0008813A0008813A0008E3
:10011000813A0008813A0008813A0008813A0008D3
:10012000813A0008813A0008813A0008813A0008C3
:1001300000000000000000000000000000000000BF
:1001400000000000000000000000000000000000AF
:10015000000000000000000000000000000000009F
:10016000000000000000000000000000000000008F
:10017000000000000000000000000000000000007F
:10018000000000000000000000000000000000006F
:10019000000000000000000000000000000000005F
:1001A000000000000000000000000000000000004F
:1001B000000000000000000000000000000000003F
:1001C000000000000000000000000000000000002F
:1001D000000000000000000000000000000000001F
:0401E0005FF8E0F1F3
:1001E80010B5054C237833B9044B13B10448AFF369
:1001F80000800123237010BDF401002000000000DE
:10020800CC5B00080C4B43B10C4810B50C49AFF35C
:1002180000800C48036823B910BD0A48036833B945
:100228007047094B002BF7D0BDE810401847064B24
:10023800002BF5D0184700BF00000000CC5B000879
:10024800F8010020F40100200000000081F00041C6
:1002580002E000BF83F0004330B54FEA41044FEAA3
:10026800430594EA050F08BF90EA020F1FBF54EA3E
:10027800000C55EA020C7FEA645C7FEA655C00F0DA
:10028800E2804FEA5454D4EB5555B8BF6D420CDDAB
:100298002C4480EA020281EA030382EA000083EA2E
:1002A800010180EA020281EA0303362D88BF30BDCE
:1002B80011F0004F4FEA01314FF4801C4CEA113124
:1002C80002D0404261EB410113F0004F4FEA033383
:1002D8004CEA133302D0524263EB430394EA050F0E
:1002E80000F0A780A4F10104D5F1200E0DDB02FA7D
:1002F8000EFC22FA05F2801841F1000103FA0EF211
:10030800801843FA05F359410EE0A5F120050EF1D6
:10031800200E012A03FA0EFC28BF4CF0020C43FA07
:1003280005F3C01851EBE37101F0004507D54FF014
:10033800000EDCF1000C7EEB00006EEB0101B1F564
:10034800801F1BD3B1F5001F0CD349085FEA3000AA
:100358004FEA3C0C04F101044FEA445212F5800FB5
:1003680080F09A80BCF1004F08BF5FEA500C50F152
:10037800000041EB045141EA050130BD5FEA4C0C35
:10038800404141EB010111F4801FA4F10104E9D1BE
:1003980091F0000F04BF01460020B1FA81F308BFB5
:1003A8002033A3F10B03B3F120020CDA0C3208DD81
:1003B80002F1140CC2F10C0201FA0CF021FA02F15C
:1003C8000CE002F11402D8BFC2F1200C01FA02F1CC
:1003D80020FA0CFCDCBF41EA0C019040E41AA2BFF1
:1003E80001EB0451294330BD6FEA04041F3C1CDAB9
:1003F8000C340EDC04F11404C4F1200220FA04F0D9
:1004080001FA02F340EA030021FA04F345EA030182
:1004180030BDC4F10C04C4F1200220FA02F001FA44
:1004280004F340EA0300294630BD21FA04F02946C6
:1004380030BD94F0000F83F4801306BF81F480115F
:100448000134013D4EE77FEA645C18BF7FEA655CD2
:1004580029D094EA050F08BF90EA020F05D054EAA4
:10046800000C04BF1946104630BD91EA030F1EBFA9
:100478000021002030BD5FEA545C05D140004941AD
:1004880028BF41F0004130BD14F580043CBF01F5A0
:10049800801130BD01F0004545F0FE4141F4700186
:1004A8004FF0000030BD7FEA645C1ABF1946104661
:1004B8007FEA655C1CBF0B46024650EA013406BF62
:1004C80052EA033591EA030F41F4002130BD00BF21
:1004D80090F0000F04BF0021704730B54FF48064DE
:1004E80004F132044FF000054FF0000150E700BF5F
:1004F80090F0000F04BF0021704730B54FF48064BE
:1005080004F1320410F0004548BF40424FF00001AA
:100518003EE700BF42004FEAE2014FEA31014FEAED
:1005280002701FBF12F07F4393F07F4F81F060513C
:10053800704792F0000F14BF93F07F4F704730B5AB
:100548004FF4607401F0004521F0004120E700BF3E
:1005580050EA010208BF704730B54FF000050AE0C5
:1005680050EA010208BF704730B511F0004502D5C6
:10057800404261EB41014FF4806404F132045FEAC8
:10058800915C3FF4DCAE4FF003025FEADC0C18BF6D
:1005980003325FEADC0C18BF033202EBDC02C2F163
:1005A800200300FA03FC20FA02F001FA03FE40EAF5
:1005B8000E0021FA02F11444C1E600BF70B54FF0F5
:1005C800FF0C4CF4E06C1CEA11541DBF1CEA1355D7
:1005D80094EA0C0F95EA0C0F00F0DEF82C4481EA3F
:1005E800030621EA4C5123EA4C5350EA013518BF5F
:1005F80052EA033541F4801143F4801338D0A0FB4C
:1006080002CE4FF00005E1FB02E506F00042E0FBF8
:1006180003E54FF00006E1FB03569CF0000F18BFFE
:100628004EF0010EA4F1FF04B6F5007F64F54074A6
:1006380004D25FEA4E0E6D4146EB060642EAC62139
:1006480041EA55514FEAC52040EA5E504FEACE2EA6
:10065800B4F1FD0C88BFBCF5E06F1ED8BEF1004FA9
:1006680008BF5FEA500E50F1000041EB045170BD25
:1006780006F0004646EA010140EA020081EA030169
:10068800B4EB5C04C2BFD4EB0C0541EA045170BD65
:1006980041F480114FF0000E013C00F3AB8014F1DF
:1006A800360FDEBF002001F0004170BDC4F1000428
:1006B800203C35DA0C341BDC04F11404C4F12005A9
:1006C80000FA05F320FA04F001FA05F240EA020004
:1006D80001F0004221F0004110EBD37021FA04F63A
:1006E80042EB06015EEA430E08BF20EAD37070BDF4
:1006F800C4F10C04C4F1200500FA04F320FA05F053
:1007080001FA04F240EA020001F0004110EBD37054
:1007180041F100015EEA430E08BF20EAD37070BDC4
:10072800C4F1200500FA05F24EEA020E20FA04F39D
:1007380001FA05F243EA020321FA04F001F000414C
:1007480021FA04F220EA020000EBD3705EEA430EBD
:1007580008BF20EAD37070BD94F0000F0FD101F0EC
:100768000046400041EB010111F4801F08BF013C25
:10077800F7D041EA060195F0000F18BF704703F063
:100788000046520043EB030313F4801F08BF013DEA
:10079800F7D043EA0603704794EA0C0F0CEA1355A6
:1007A80018BF95EA0C0F0CD050EA410618BF52EA60
:1007B8004306D1D181EA030101F000414FF0000066
:1007C80070BD50EA410606BF1046194652EA430674
:1007D80019D094EA0C0F02D150EA013613D195EAE8
:1007E8000C0F05D152EA03361CBF104619460AD130
:1007F80081EA030101F0004141F0FE4141F470013A
:100808004FF0000070BD41F0FE4141F4780170BD29
:1008180070B54FF0FF0C4CF4E06C1CEA11541DBF8E
:100828001CEA135594EA0C0F95EA0C0F00F0A7F890
:10083800A4EB050481EA030E52EA03354FEA0131BD
:1008480000F088804FEA03334FF0805545EA1313D0
:1008580043EA12634FEA022245EA111545EA106598
:100868004FEA00260EF000419D4208BF964244F12F
:10087800FD0404F5407402D25B084FEA3202B61A4E
:1008880065EB03055B084FEA32024FF480104FF422
:10089800002CB6EB020E75EB030E22BFB61A754696
:1008A80040EA0C005B084FEA3202B6EB020E75EB29
:1008B800030E22BFB61A754640EA5C005B084FEA91
:1008C8003202B6EB020E75EB030E22BFB61A75465E
:1008D80040EA9C005B084FEA3202B6EB020E75EB69
:1008E800030E22BFB61A754640EADC0055EA060E2A
:1008F80018D04FEA051545EA16754FEA06164FEA6D
:10090800C30343EA52734FEAC2025FEA1C1CC0D118
:1009180011F4801F0BD141EA00014FF000004FF0A5
:10092800004CB6E711F4801F04BF01430020B4F166
:10093800FD0C88BFBCF5E06F3FF6AFAEB5EB030C1E
:1009480004BFB6EB020C5FEA500C50F1000041EB1B
:10095800045170BD0EF0004E4EEA113114EB5C04E8
:10096800C2BFD4EB0C0541EA045170BD41F48011BB
:100978004FF0000E013C90E645EA060E8DE60CEAC3
:10098800135594EA0C0F08BF95EA0C0F3FF43BAFE0
:1009980094EA0C0F0AD150EA01347FF434AF95EA97
:1009A8000C0F7FF425AF104619462CE795EA0C0F7B
:1009B80006D152EA03353FF4FDAE1046194622E748
:1009C80050EA410618BF52EA43067FF4C5AE50EA22
:1009D80041047FF40DAF52EA43057FF4EBAE12E712
:1009E8004FF0FF3C06E000BF4FF0010C02E000BFF3
:1009F8004FF0010C4DF804CD4FEA410C7FEA6C5CD6
:100A08004FEA430C18BF7FEA6C5C1BD001B050EA78
:100A1800410C0CBF52EA430C91EA030F02BF90EA63
:100A2800020F0020704710F1000F91EA030F58BF22
:100A3800994208BF90422CBFD8176FEAE37040F084
:100A4800010070474FEA410C7FEA6C5C02D150EA22
:100A5800013C07D14FEA430C7FEA6C5CD6D152EADD
:100A6800033CD3D05DF8040B704700BF84461046A2
:100A780062468C461946634600E000BF01B5FFF7A1
:100A8800B7FF002848BF10F1000F01BD4DF808ED71
:100A9800FFF7F4FF0CBF012000205DF808FB00BF42
:100AA8004DF808EDFFF7EAFF34BF012000205DF89C
:100AB80008FB00BF4DF808EDFFF7E0FF94BF0120E9
:100AC80000205DF808FB00BF4DF808EDFFF7CEFFEA
:100AD80094BF012000205DF808FB00BF4DF808ED29
:100AE800FFF7C4FF34BF012000205DF808FB00BFFA
:100AF8004FEA4102B2F1E04324BFB3F5001CDCF138
:100B0800FE5C0DD901F0004C4FEAC0024CEA50706F
:100B1800B2F1004F40EB830008BF20F0010070479E
:100B280011F0804F21D113F13872BCBF01F00040A1
:100B3800704741F480114FEA5252C2F11802C2F1D3
:100B4800200C10FA0CF320FA02F018BF40F0010054
:100B58004FEAC1234FEAD32303FA0CFC40EA0C0006
:100B680023FA02F34FEA4303CCE77FEA625307D143
:100B780050EA01331EBF4FF0FE4040F4400070477A
:100B880001F0004040F0FE4040F40000704700BF14
:100B9800034613F8012B002AFBD1181A01387047B5
:100BA8004FEA410C7FEA6C5C02D150EA013C0AD161
:100BB8004FEA430C7FEA6C5C02D152EA033C02D153
:100BC8004FF0000070474FF0010070474FEA4102B4
:100BD80012F5001215D211D56FF47873B3EB625287
:100BE80012D94FEAC12343F0004343EA505311F0AE
:100BF800004F23FA02F018BF404270474FF0000040
:100C0800704750EA013005D111F0004008BF6FF07D
:100C1800004070474FF00000704700BF10B5044611
:100C28000E4B18784FF47A73B3FBF0F30C4A106844
:100C3800B0FBF3F000F0F6F968B90F2C01D90120E8
:100C480010BD002221464FF0FF3000F0ADF9034BF4
:100C58005C60002010BD012010BD00BF0000002016
:100C68002000002008B5074A136843F010031360FA
:100C7800032000F087F90020FFF7D0FF02F08CFA7C
:100C8800002008BD00200240034A1168034B1B786E
:100C98000B441360704700BF2402002000000020AE
:100CA800014B1868704700BF2402002038B504467D
:100CB800FFF7F6FF0546B4F1FF3F02D0044B1B785F
:100CC8001C44FFF7EDFF401B8442FAD838BD00BF33
:100CD8000000002030B482B00023019390F8243043
:100CE800012B00F08B800246012380F824304B68EA
:100CF800062B29D80568686B03EB8303053B1F2483
:100D08009C4020EA04000C6804FA03F303436B6375
:100D18000B68092B38D91568E86803EB43031E3BB9
:100D280007249C4020EA04008C6804FA03F3034378
:100D3800EB600B68103B012B34D90020002382F8AC
:100D4800243002B030BC70470C2B0ED80568286BD5
:100D580003EB8303233B1F249C4020EA04000C6818
:100D680004FA03F303432B63D2E70568E86A03EB4D
:100D78008303413B1F249C4020EA04000C6804FACA
:100D880003F30343EB62C3E71568286903EB4303E6
:100D980007249C4020EA04008C6804FA03F3034308
:100DA8002B61C6E713681648834205D0936A43F05F
:100DB800200393620120C1E7986810F4000F1BD14B
:100DC800986840F4000098600B68102B01D0002050
:100DD800B4E70C4B1B680C49A1FB03139B0C03EBFA
:100DE80083035900019102E0019B013B0193019BA0
:100DF800002BF9D10020A1E700209FE70220A0E7FF
:100E0800002401402000002083DE1B4338B503681E
:100E18009A6812F0010F01D1002038BD04469A6883
:100E280022F001029A60FFF73BFF054623689B68A2
:100E380013F0010F0ED0FFF733FF401B0228F5D93E
:100E4800A36A43F01003A362E36A43F00103E36279
:100E5800012038BD002038BD002800F08A8070B518
:100E68000446836A002B4DD02046FFF7CFFFA36AC4
:100E780013F0100377D1002875D1A26A22F48852A2
:100E880022F0020242F00202A262656821683A4A30
:100E980091423DD0E2692A43E66842EA4602A568E3
:100EA800B5F5807F3ED0012D39D06569012D3CD044
:100EB8004D6825F469452B434B6021688D682F4B9D
:100EC8002B4013438B60A368B3F5807F3ED0012B82
:100ED8003CD000232568E96A21F470010B43EB62DA
:100EE80023689968264B0B409A4233D0A36A23F0B3
:100EF800120343F01003A362E36A43F00103E362C1
:100F0800012070BDC36280F8243002F095F9ABE788
:100F1800E269B2F5402FBED14FF40022BBE74FF48F
:100F28008073C2E74FF48073BFE736B9A569013D06
:100F380043EA453343F40063BAE7A56A45F0200560
:100F4800A562E56A45F00105E562B1E72369013B61
:100F58001B05BFE70023E362A36A23F0030343F002
:100F68000103A36270BDA36A43F01003A3620120CA
:100F780070BD0120704700BF003C0140FDF7E1FF54
:100F8800FE0E1FFF074AD36823F4E0631B041B0C03
:100F9800000200F4E060184340F0BF6040F4003005
:100FA800D060704700ED00E030B4164BDB68C3F347
:100FB8000223C3F10704042C28BF04241D1D062D99
:100FC80017D9033B012505FA04F4013C2140994057
:100FD80005FA03F3013B1340194300280BDB090111
:100FE800C9B200F1604000F5614080F8001330BCE0
:100FF80070470023E6E700F00F000901C9B2024B71
:101008001954F4E700ED00E014ED00E0420900F0A7
:101018001F00012303FA00F0014B43F82200704738
:1010280000E100E00138B0F1807F0AD2064B586039
:10103800F021064A82F823100020986007221A60DF
:1010480070470120704700BF10E000E000ED00E0AD
:10105800042805D0054A136823F004031360704779
:10106800024A136843F004031360704710E000E07D
:10107800704708B5FFF7FCFF08BD0000F0B583B066
:101088000026344679E0002D00F0A980012D00D11A
:10109800CE68FF2B00F2B7808646FF2B00F2B680A1
:1010A800A500DEF800200F27AF4022EA070206FA63
:1010B80005F52A43CEF800204A6812F0805F5BD01D
:1010C800674A956945F001059561926902F0010248
:1010D8000192019AA208971C624D55F8275004F016
:1010E80003074FEA870E0F2707FA0EF725EA0705C9
:1010F8005D4FB84200F0908007F58067B84200F075
:101108008D8007F58067B84200F08A8007F5806710
:10111800B84200F0878007F58067B84200F0848005
:1011280007F58067B84275D0062707FA0EF73D43E2
:1011380002324C4F47F822504A6812F4803F75D06B
:101148004A4D2A681A432A604A6812F4003F73D04D
:10115800464D6A681A436A604A6812F4801F71D063
:10116800424DAA681A43AA604A6812F4001F6FD059
:101178003E4DEA681343EB6001340F2C6ED8012210
:10118800A2400B6813409A42F6D14D68122D30D018
:101198000BD8022D2AD07FF676AF032D2FD0112D34
:1011A8007FF477AFCE68043673E7314FBD4216D06F
:1011B8000CD9304FBD4212D007F58037BD420ED052
:1011C800A7F58017BD427FF464AF08E0A7F5801744
:1011D800BD4204D007F58037BD427FF45AAF8D6811
:1011E8007DB1012D08D04261082652E7CE68083645
:1011F8004FE7CE680C364CE70261082649E700261F
:1012080047E7042645E700F1040E46E7A4F1080580
:10121800AD0046E7052788E7002786E7012784E72A
:10122800022782E7032780E704277EE70F4D2A6815
:1012380022EA03022A6087E70C4D6A6822EA030261
:101248006A6089E7094DAA6822EA0302AA608BE767
:10125800064DEA6822EA0303EB608DE703B0F0BDB0
:101268000010024000000140000801400004014055
:10127800000021100000311012B909040161704703
:1012880001617047C3685940C160704770470000EA
:1012980008B5054B5B69034200D108BD024B586194
:1012A800FFF7F4FFF9E700BF0004014082B0084BE4
:1012B8001B68084AA2FB03235B0A00FB03F00190AA
:1012C80000BF019B5A1E0192002BF9D102B0704752
:1012D80020000020D34D621070B582B00446036828
:1012E80013F0010F3DD0AC4B5B6803F00C03042BEB
:1012F8002ED0A94B5B6803F00C03082B23D063683E
:10130800B3F5803F51D0002B55D103F1804303F54D
:1013180004331A6822F480321A601A6822F4802290
:101328001A606368002B60D0FFF7BAFC05469A4B39
:101338001B6813F4003F14D1FFF7B2FC401B64286C
:10134800F5D90320AFE1944B5B6813F4803FD6D006
:10135800914B1B6813F4003F03D06368002B00F027
:101368009F81236813F0020F65D08B4B5B6813F0E5
:101378000C0F4ED0884B5B6803F00C03082B43D04E
:101388002369002B79D00122844B1A60FFF788FC6F
:101398000546814B1B6813F0020F65D1FFF780FCEF
:1013A800401B0228F5D903207DE17B4A136843F4EA
:1013B80080331360B5E7B3F5A02F09D0764B1A68D0
:1013C80022F480321A601A6822F480221A60A8E790
:1013D80003F18043A3F53C331A6842F480221A6073
:1013E8001A6842F480321A609BE7FFF759FC0546F9
:1013F800694B1B6813F4003FB3D0FFF751FC401B47
:101408006428F5D903204EE1634B5B6813F4803FF1
:10141800B6D1614B1B6813F0020F04D02369012B6E
:1014280001D001203FE15C4A136823F0F8036169A9
:1014380043EAC1031360236813F0080F32D0A3698D
:10144800002B6ED00122564B1A60FFF729FC054687
:10145800514B5B6A13F0020F21D1FFF721FC401BAF
:101468000228F5D903201EE14B4A136823F0F8033C
:10147800616943EAC1031360DDE70022474B1A6044
:10148800FFF70EFC0546444B1B6813F0020FD2D041
:10149800FFF706FC401B0228F5D9032003E10120D1
:1014A800FFF704FF236813F0040F00F099803A4B0C
:1014B800DB6913F0805F46D1374BDA6942F080521E
:1014C800DA61DB6903F080530193019B0125354BF9
:1014D8001B6813F4807F38D0E368012B49D0002BB8
:1014E8004DD103F1804303F504331A6A22F0010257
:1014F8001A621A6A22F004021A62E368002B5DD0AD
:10150800FFF7CEFB0646244B1B6A13F0020F66D189
:10151800FFF7C6FB801B41F288339842F3D90320BA
:10152800C1E000221E4B1A60FFF7BAFB05461A4BB2
:101538005B6A13F0020FB5D0FFF7B2FB401B02281D
:10154800F5D90320AFE00025C1E7164A136843F434
:1015580080731360FFF7A4FB0646124B1B6813F455
:10156800807FB9D1FFF79CFB801B6428F5D9032045
:1015780099E0094A136A43F001031362BDE7052B9A
:1015880012D0054B1A6A22F001021A621A6A22F076
:1015980004021A62B1E700BF001002400000424294
:1015A8008004424200700040414B1A6A42F0040233
:1015B8001A621A6A42F001021A629EE7FFF770FB8C
:1015C80006463B4B1B6A13F0020F08D0FFF768FB77
:1015D800801B41F288339842F3D9032063E0E5B9D0
:1015E800E369002B5ED0324A526802F00C02082AE6
:1015F8005BD0022B17D000222E4B1A60FFF750FB4E
:1016080004462B4B1B6813F0007F47D0FFF748FBBD
:10161800001B0228F5D9032045E0254AD36923F0A9
:101628008053D361DCE70022224B1A60FFF738FBB6
:1016380005461F4B1B6813F0007F06D0FFF730FBF1
:10164800401B0228F5D903202DE0236AB3F5803F1B
:101658001AD017494B6823F47413226A606A02434C
:1016680013434B600122134B1A60FFF719FB044622
:101678000F4B1B6813F0007F0ED1FFF711FB001B07
:101688000228F5D903200EE0094A536823F40033F1
:10169800A1680B435360DCE7002004E0002002E06F
:1016A800012000E0002002B070BD0120FBE700BF70
:1016B80000100240600042420122014B1A6070474C
:1016C8004C00424210B586B0154C94E80F000DF15D
:1016D800180E0EE90F00238AADF80430114B5B6831
:1016E80003F00C02082A18D1C3F38342724412F89B
:1016F800102C13F4803F03D10B4800FB02F00DE0DF
:10170800084B5B68C3F34043734413F8143C074821
:1017180000FB02F0B0FBF3F000E0044806B010BD97
:10172800E85B00080010024000093D0000127A0042
:10173800594B1B6803F007038B420CD2564A1368B7
:1017480023F007030B431360136803F00703994260
:1017580001D00120704770B5036813F0020F06D05E
:101768004E4A536823F0F0038468234353600D46C0
:101778000446036813F0010F52D04368012B23D0AD
:10178800022B28D0454A126812F0020F00F082801E
:1017980042494A6822F0030213434B60FFF780FA7C
:1017A80006466368012B1DD0022B2AD03B4B5B6891
:1017B80013F00C0F34D0FFF773FA801B41F2883313
:1017C8009842F3D9032070BD344A126812F4003FDE
:1017D800DED1012070BD314A126812F0007FD7D1E6
:1017E800012070BD2D4B5B6803F00C03042B17D050
:1017F800FFF756FA801B41F288339842F2D903204A
:1018080070BD264B5B6803F00C03082B08D0FFF76C
:1018180047FA801B41F288339842F2D9032070BD01
:101828001D4B1B6803F007039D420CD21A4A13682C
:1018380023F007032B431360136803F007039D424B
:1018480001D0012070BD236813F0040F06D0134A9D
:10185800536823F4E063E1680B435360236813F093
:10186800080F07D00D4A536823F46053216943EAEF
:10187800C1035360FFF726FF084B5B68C3F30313EC
:10188800074AD35CD840074B18600020FFF7C6F919
:10189800002070BD012070BD0020024000100240F1
:1018A8004C84000820000020014B1868704700BFD6
:1018B800200000207047000008B5064B9B6813F015
:1018C800800F00D108BDFFF7F5FF8022024B1A7088
:1018D800F8E700BF001002400A10024070B582B05D
:1018E8000446036813F0010F34D03E4BDB6913F054
:1018F800805F48D13B4BDA6942F08052DA61DB699C
:1019080003F080530193019B0125374B1B6813F4A7
:10191800807F3AD0334B1B6A13F4407311D062684E
:1019280002F4407293420CD02E4A136A23F440709A
:101938002E4901260E6000260E60106213F0010F7A
:1019480037D1284A136A23F4407361680B43136242
:10195800002D3FD1236813F0020F06D0214A5368A7
:1019680023F44043A1680B435360236813F0100F1E
:1019780035D01C4A536823F4800361690B435360D4
:10198800002002B070BD0025BFE7174A136843F472
:1019980080731360FFF784F90646134B1B6813F432
:1019A800807FB7D1FFF77CF9801B6428F5D9032025
:1019B800E7E7FFF775F906460A4B1B6A13F0020FB3
:1019C800BFD1FFF76DF9801B41F288339842F3D9F4
:1019D8000320D6E7D36923F08053D361BAE7002008
:1019E800CFE700BF001002400070004040044242B0
:1019F800F8B505460F4616461C463BE02CB1FFF7E6
:101A08004FF9069BC01A844234D82A68536823F0D9
:101A1800E00353606B68B3F5827F0BD0AB6AB3F514
:101A2800005F14D0012385F85130002385F8503029
:101A38000320F8BDAB68B3F5004F02D0B3F5806F53
:101A4800ECD12A68136823F040031360E6E72A689C
:101A5800136823F400531B041B0C13602A681368D3
:101A680043F400531360DDE70123B34209D0B4F116
:101A7800FF3FC3D12B689B6837EA0303F4D00023E8
:101A8800F3E70020F8BD10B582B0044600920B467B
:101A980000228021FFF7ACFF034620B1636D43F0BD
:101AA800200363650323184602B010BD2DE9F041F9
:101AB80084B01D4690F85030012B04D102231846FB
:101AC80004B0BDE8F08104460E469046012380F834
:101AD8005030FFF7E5F8074694F85130DBB2012B98
:101AE80007D00223012284F85120002284F85020D4
:101AF800E5E7002E00F0A480B8F1000F00F0A28006
:101B0800032384F85130002363652663A4F83480E6
:101B1800A4F83680A363A387E38763642364A36878
:101B2800B3F5004F1CD023681A6812F0400F03D198
:101B38001A6842F040021A60E368B3F5006F15D0E6
:101B480063681BB1E38E9BB2012B44D1236816F85E
:101B5800012B1A73E38E9BB2013B9BB2E3863AE0FA
:101B68002268136843F480431360DCE763681BB1A1
:101B7800E38E9BB2012B13D1236836F8022BDA606F
:101B8800E38E9BB2013B9BB2E38609E0002D5BD05C
:101B9800B5F1FF3F04D0FFF783F8C01B854255D944
:101BA800E38E9BB243B323689A6812F0020FEDD01C
:101BB80036F8022BDA60E38E9BB2013B9BB2E386D8
:101BC800EEE7002D44D0B5F1FF3F04D0FFF768F8E9
:101BD800C01B85423ED9E38E9BB26BB123689A68DD
:101BE80012F0020FEDD016F8012B1A73E38E9BB298
:101BF800013B9BB2E386EEE700972B4601220221C8
:101C08002046FFF7F5FE08B103236BE73A4629465D
:101C18002046FFF738FF034618B1202363650123E8
:101C280060E7A26832B903922268D168039192688A
:101C38000392039A626D002A3FF454AF012351E7DF
:101C480001234FE701234DE703234BE7032349E72C
:101C5800032347E7032345E72DE9F04385B098467A
:101C68000C9D90F85030012B04D10223184605B082
:101C7800BDE8F08304460F461646012380F850302D
:101C8800FFF70EF8814694F85130DBB26268012BF9
:101C980012D0B2F5827F07D00223012284F85120A6
:101CA800002284F85020E1E7A268002A40F0E98089
:101CB800042B01D00223F0E7002F00F0E480002E6F
:101CC80000F0E380B8F1000F00F0E18094F85130A3
:101CD800DBB2012B2CD000236365A663A4F83E80F9
:101CE800A4F83C802763A4F83680A4F834802364E1
:101CF800636423681A6812F0400F03D11A6842F02F
:101D080040021A60E368B3F5006F15D063681BB131
:101D1800E38E9BB2012B08D1236817F8012B1A73A5
:101D2800E38E9BB2013B9BB2E3864FF0010869E06A
:101D3800052384F85130CEE763681BB1E38E9BB26C
:101D4800012B08D1236837F8022BDA60E38E9BB2A7
:101D5800013B9BB2E3864FF001081AE0E38F9BB288
:101D680073B123689A6812F0010F09D0DB6826F86E
:101D7800023BE38F9BB2013B9BB2E3874FF0010824
:101D8800B5F1FF3F05D0FEF78BFFA0EB09008542B8
:101D98007FD9E38E9BB21BB9E38F9BB2002B4ED049
:101DA800B8F1000FDAD0E38E9BB2002BD6D02368AF
:101DB8009A6812F0020FD1D037F8022BDA60E38E5E
:101DC8009BB2013B9BB2E3864FF00008C6E7E38F66
:101DD8009BB273B123689A6812F0010F09D0DB68CF
:101DE8003370E38F9BB2013B9BB2E38701364FF020
:101DF8000108B5F1FF3F05D0FEF752FFA0EB09003F
:101E0800854248D9E38E9BB213B9E38F9BB2B3B135
:101E1800B8F1000FDBD0E38E9BB2002BD7D023683C
:101E28009A6812F0020FD2D03A781A73E38E9BB2F6
:101E3800013B9BB2E38601374FF00008C7E7CDF8B6
:101E480000902B46012202212046FFF7D1FD08B160
:101E5800032322E74A4629462046FFF714FE034695
:101E680018B120236365012317E7A268002A7FF4CD
:101E780014AF03922268D168039192680392039A7F
:101E88000BE7022309E7012307E7012305E70123FD
:101E980003E7032301E70323FFE62DE9F04182B0BE
:101EA80004460D4690461E464368B3F5827F07D028
:101EB80094F85030012B0FD1022002B0BDE8F08118
:101EC8008368002BF4D1042380F851300096134620
:101ED8000A46FFF7C1FEF0E7012384F85030FEF709
:101EE800DFFE074694F85130DBB2012B07D0022001
:101EF800012384F85130002384F85030DDE7002DA9
:101F080072D0B8F1000F71D0042384F85130002347
:101F18006365A563A4F83C80A4F83E802363A38688
:101F2800E38623646364A368B3F5004F0BD023688A
:101F38001A6812F0400F03D11A6842F040021A6082
:101F4800E36883B12AE02268136823F480431360AE
:101F5800EDE7002E4CD0B6F1FF3F04D0FEF7A0FE0F
:101F6800C01B864246D9E38F9BB243B323689A6865
:101F780012F0010FEDD01B7B05F8013BE38F9BB2FC
:101F8800013B9BB2E387EEE7002E35D0B6F1FF3F69
:101F980004D0FEF785FEC01B86422FD9E38F9BB283
:101FA8006BB123689A6812F0010FEDD0DB6825F851
:101FB800023BE38F9BB2013B9BB2E387EEE763688A
:101FC800B3F5827F03D0636DD3B9002090E7A3688F
:101FD800B3F5004F02D0B3F5806FF4D122681368CF
:101FE80023F040031360EEE7012081E701207FE73B
:101FF80003207DE703207BE7032079E7032077E7C9
:10200800012075E700283CD010B504460023836200
:1020180090F85130002B31D0022384F851302268D7
:10202800136823F04003136022686368A1680B43B8
:10203800E1680B4321690B4361690B43A16901F412
:1020480000710B43E1690B43216A0B43A16A0B43FF
:1020580013602268638B03F00403616A0B435360C7
:102068002368E26A1A612268D36923F40063D361A2
:1020780000206065012384F8513010BD01F0FEF89E
:10208800CAE701207047704770477047704770472C
:1020980010B5044603681A6912F0020F11D0DA6805
:1020A80012F0020F0DD06FF002021A6101230377BC
:1020B80003689B6913F0030F70D0FFF7E6FF002356
:1020C800237723681A6912F0040F12D0DA6812F025
:1020D800040F0ED06FF004021A61022323772368DD
:1020E8009B6913F4407F5FD02046FFF7CEFF0023A3
:1020F800237723681A6912F0080F12D0DA6812F0F1
:10210800080F0ED06FF008021A61042323772368A2
:10211800DB6913F0030F4ED02046FFF7B6FF00230C
:10212800237723681A6912F0100F12D0DA6812F0B8
:10213800100F0ED06FF010021A610823237723685E
:10214800DB6913F4407F3DD02046FFF79EFF002354
:10215800237723681A6912F0010F03D0DA6812F0A6
:10216800010F36D123681A6912F0800F03D0DA689C
:1021780012F0800F34D123681A6912F0400F03D08F
:10218800DA6812F0400F32D123681A6912F0200F72
:1021980003D0DA6812F0200F30D110BDFFF774FFBA
:1021A8002046FFF773FF8AE72046FFF76DFF2046BA
:1021B800FFF76CFF9BE72046FFF766FF2046FFF717
:1021C80065FFACE72046FFF75FFF2046FFF75EFF9D
:1021D800BDE76FF001021A612046FFF754FFC1E71F
:1021E8006FF080021A61204600F004F9C3E76FF02F
:1021F80040021A612046FFF74AFFC5E76FF0200248
:102208001A61204600F0F5F8C7E700000368254A80
:10221800904212D002F5006290420ED0B0F1804F89
:102228000BD0A2F59832904207D002F58062904216
:1022380003D002F58062904203D123F070034A680C
:102248001343184A904212D002F5006290420ED011
:10225800B0F1804F0BD0A2F59832904207D002F52A
:102268008062904203D002F58062904203D123F449
:102278004073CA68134323F080034A691343036019
:102288008B68C3620B688362064B984206D003F5DD
:102298000063984202D00123436170470B690363CE
:1022A800F9E700BF002C0140002847D0F8B50546E3
:1022B8000C4690F83D30002B3BD0022385F83D308A
:1022C800294651F8042B936823F007039360286884
:1022D800FFF79CFF286886688369026A21680E43B5
:1022E80023F4407323F00303A168A76941EA072197
:1022F8000B4323F47C4323F0FC03E168E76941EADC
:1023080007210B432769216A090341EA07110B4397
:1023180022F0AA026168646941EA04110A438660EE
:1023280029688B612B681A62012385F83D300020EB
:10233800F8BD80F83C3001F01BF8BEE7012070477B
:1023480010B4012303FA01F4036A23EA04030362C5
:10235800036A8A401343036210BC704710B50446F1
:1023680061B1042916D0012200210068FFF7E8FFB7
:10237800012204212068FFF7E3FF04E00122002185
:102388000068FFF7DDFF2268136843F0010313605C
:10239800002010BD012204210068FFF7D1FFF2E7F9
:1023A80090F83C30012B22D030B4012280F83C2038
:1023B800022380F83D300468636823F0700363608B
:1023C800046863680D682B4363600468A36823F09E
:1023D8008003A3600468A36849680B43A36080F87E
:1023E8003D20002380F83C30184630BC704702205E
:1023F800704770477047000008B500224FF48051BD
:102408000148FEF739FF08BD000C014010B5084C23
:1024180000224FF400712046FEF72EFF0120FEF740
:1024280045FC01224FF400712046FEF725FF10BD40
:102438000014014010B582B002AC04F8010D00226E
:102448004FF480710548FEF717FF4FF0FF33012264
:1024580021460348FFF72AFB02B010BD00140140D3
:102468002802002070B506460D4601224FF48071FF
:102478000B48FEF701FF0FE02C46B5F5004F28BFCB
:102488004FF40044A4B24FF0FF33224631460548CA
:10249800FFF70CFB26442D1B002DEDD170BD00BFAE
:1024A8000014014028020020F0B583B007460D460D
:1024B80016461C462A20FFF7BDFF3B0A8DF804305C
:1024C8008DF80570330A8DF806308DF80760042101
:1024D8000DEB0100FFF7C6FF2B20FFF7ABFF2B0A20
:1024E8008DF804308DF80550230A8DF806308DF8E4
:1024F800074004210DEB0100FFF7B4FF2C20FFF784
:1025080099FF03B0F0BD82B02DE9F04383B0914646
:102518000B93BDF83470BDF83860DAB2024492B259
:10252800C3F307230B449BB2013B013A9BB292B21F
:10253800FFF7BAFF4FF000081EE0330A8DF80430A9
:102548008DF80560022101A8FFF78CFF01349DF882
:102558002C309C420ED205FA04F313F4004FECD051
:102568003B0A8DF804308DF80570022101A8FFF7A9
:1025780079FFEBE708F101089DF82D20904508D276
:10258800A9F1200302FB03830C9A32F813500024AC
:10259800DDE703B0BDE8F04302B0704708B501229B
:1025A8004FF480510148FEF767FE08BD000C01405A
:1025B80070B584B0FFF720FFFFF728FF0120FFF771
:1025C80039FFC820FEF772FBCB20FFF733FF714CB1
:1025D80094E8030000908DF8041005216846FFF781
:1025E80041FFCF20FFF726FFA368ADF800301B0C92
:1025F8008DF8023003216846FFF734FFE820FFF723
:1026080019FFE368ADF800301B0C8DF80230032188
:102618006846FFF727FFEA20FFF70CFF00258DF833
:1026280000508DF8015002216846FFF71BFFED208E
:10263800FFF700FF2369009304216846FFF712FFA4
:10264800F720FFF7F7FE20238DF8003001216846B8
:10265800FFF708FFC020FFF7EDFE23238DF80030B9
:1026680001216846FFF7FEFEC120FFF7E3FE1023B5
:102678008DF8003001216846FFF7F4FEC520FFF70A
:10268800D9FEA38AADF8003002216846FFF7EAFEBA
:10269800C720FFF7CFFE86238DF80030012168465A
:1026A800FFF7E0FE3620FFF7C5FE48238DF800301F
:1026B80001216846FFF7D6FE3A20FFF7BBFE5523F7
:1026C8008DF8003001216846FFF7CCFEB120FFF7F6
:1026D800B1FE8DF8005018238DF8013002216846AC
:1026E800FFF7C0FEB620FFF7A5FEA369ADF80030DE
:1026F8001B0C8DF8023003216846FFF7B3FEF22069
:10270800FFF798FE8DF8005001216846FFF7AAFEF2
:102718002620FFF78FFE01268DF8006031466846B7
:10272800FFF7A0FEE020FFF785FE6D4604F11C03CD
:102738000FCB07C525F8023B1B0C2B700F216846F1
:10274800FFF790FEE120FFF775FE6D462C3494E804
:102758000F0007C525F8023B1B0C2B700F2168469C
:10276800FFF780FE1120FFF765FE1420FEF79EFAA2
:102778002920FFF75FFE3620FFF75CFEE8238DF87F
:10278800003031466846FFF76DFEFFF707FF04B0DB
:1027980070BD00BF10840008B0F5A07F01D2EF29FA
:1027A80000D9704770B582B016460D460446FFF74B
:1027B80023FE6B1C621C9BB292B229462046FFF78F
:1027C80073FE330A8DF804308DF80560022101A8E4
:1027D800FFF748FEFFF7E2FE02B070BD82B02DE9B8
:1027E800F04385B006460C4617460D93BDF83C905D
:1027F800BDF84080FFF700FE10E0013700260DE02D
:10280800CDF80880CDF804900E9B00930D9B2146CF
:102818003046FFF778FE3544AEB201373A7882B1D8
:102828009DF834507319B3F5A07FE9DB9DF8353076
:102838001C44A4B22344EF2B03DC202ADDD000265D
:10284800DEE7FFF7ABFE05B0BDE8F04302B0704726
:102858002DE9F04182B0BDF82080B0F5A07F41D2CB
:1028680004460F4616461D46EF293BD88318013B00
:10287800B3F5A07F02DBC0F5A076B6B27B19013BA9
:10288800EF2B02DDC7F1F005ADB2FFF7B5FD321948
:1028980092B2EB199BB2013B013A9BB292B2394614
:1028A8002046FFF701FE4FEA18238DF804308DF813
:1028B800058001224FF480710C48FEF7DDFC0CE026
:1028C8004FF0FF33022201A90948FFF7EFF8013C56
:1028D800A4B2002CF4D1013DADB20DB13446F8E7F5
:1028E800FFF75CFE02B0BDE8F08100BF00140140B4
:1028F8002802002000B583B00090F0234FF4A072A6
:1029080000210846FFF7A4FF03B05DF804FB0000B0
:102918002DE9F0438BB0464B9A6942F010029A6158
:102928009A6902F010020192019A9A6942F004022F
:102938009A619A6902F004020292029A9A6942F034
:1029480040029A619A6902F040020392039A9A69D6
:1029580042F008029A619A6902F008020492049A05
:102968009A6942F020029A619B6903F0200305935B
:10297800059B304D002242F210012846FEF77CFCF0
:10298800DFF8BC9000224FF480514846FEF774FCF3
:10299800DFF8B08000224FF440714046FEF76CFC2F
:1029A8004FF4005306930127079700240894022642
:1029B800099606A92846FEF761FB10230693079798
:1029C8000894099706A92846FEF758FB2023069382
:1029D800194B0793089606A92846FEF74FFB4FF4B4
:1029E8008053069307970894099606A94846FEF768
:1029F80045FB4FF44073069307970894099606A978
:102A08004046FEF73BFB4FF4807306930B4B07934E
:102A1800089606A92846FEF731FB224621461720CC
:102A2800FEF7C2FA1720FEF7F1FA0BB0BDE8F08303
:102A38000010024000100140000031100000111089
:102A4800000C01400014014008B5FFF7A7FDFFF78F
:102A5800AFFD00F099FD00F0ABFD00F09FFD08BD53
:102A6800FEE7000000B58DB01748184B036000233F
:102A7800436083604FF6FF72C26003618361032283
:102A880003920493012205920693079308930992EF
:102A98000A930B9303A9FFF707FC50B9002301938E
:102AA800029301A90848FFF77BFC38B90DB05DF81F
:102AB80004FB40F2D3210648FFF7D2FF40F2DA21A7
:102AC8000348FFF7CDFF00BF800200200008004048
:102AD8003085000808B50F480F4B03604FF4827328
:102AE800436000238360C360036143614FF4007255
:102AF80082612822C2610362436283620A23C3623D
:102B0800FFF780FA00B908BD40F219210348FFF722
:102B1800A7FF00BFD4030020003001403085000823
:102B280008B50E480E4B03604FF4827343600023D0
:102B38008360C360036143614FF400728261C361C3
:102B48000362436283620A23C362FFF75BFA00B938
:102B580008BD40F231210348FFF782FF2802002018
:102B6800003800403085000800B58DB01748184B74
:102B780003600023436083604FF6FF72C260036105
:102B8800836102220392049301220592069307931C
:102B9800089309920A930B9303A9FFF785FB50B991
:102BA80000230193029301A90848FFF7F9FB38B9FC
:102BB8000DB05DF804FB40F2AF210648FFF750FF67
:102BC80040F2B6210348FFF74BFF00BFC0020020C8
:102BD800000400403085000808B50E480E4B03601D
:102BE8004FF48273436000238360C36003614361D1
:102BF8004FF400728261C3610362436283620A23F5
:102C0800C362FFF7FFF900B908BD40F24921034844
:102C1800FFF726FF00030020003C00403085000835
:102C280000B58DB01748184B0360002343608360DC
:102C38004FF6FF72C260036143618361022203920F
:102C480004930122059206930793089309920A9325
:102C58000B9303A9FFF728FB50B9002301930293B4
:102C680001A90848FFF79CFB38B90DB05DF804FBD3
:102C780040F267210548FFF7F3FE40F26E21034852
:102C8800FFF7EEFE94030020002C01403085000879
:102C980000B58DB016484FF08043036000234360B1
:102CA8008360C360036183610122039204930592E8
:102CB80006930793089309920A930B9303A9FFF7C6
:102CC800F3FA50B900230193029301A90848FFF7CA
:102CD80067FB38B90DB05DF804FB40F28B2105485D
:102CE800FFF7BEFE40F292210248FFF7B9FE00BF8F
:102CF8002C0400203085000800B585B01348144B1B
:102D0800036000238360C36043614FF46022C261A3
:102D1800436001230361FEF79FF868B9022301931A
:102D2800012302930023039301A90848FDF7D2FF6A
:102D380038B905B05DF804FB40F2F7110548FFF714
:102D48008FFE40F201210348FFF78AFE5803002056
:102D5800002401403085000800B597B001220C928C
:102D68004FF480330D9300210E911092022213929A
:102D780014934FF4E01315930CA8FEF7ADFA60BB5B
:102D88000F23079302210891002309934FF48062CF
:102D98000A920B9307A8FEF7CBFC18BB02230193FA
:102DA8004FF40043039301A8FEF798FDF8B9FEF726
:102DB80083FCFEF779FD104BA3FB00308009FEF77A
:102DC80031F90420FEF744F9002211464FF0FF3094
:102DD800FEF7EAF817B05DF804FB4FF4DF71074817
:102DE800FFF73EFE4FF4E6710448FFF739FE40F264
:102DF800D3110248FFF734FED34D62103085000826
:102E08002DE9F04F8DB0FDF72DFFFFF7A5FFFFF778
:102E18007FFDFFF727FEFFF75DFEFFF781FEFFF757
:102E2800A3FEFFF7D9FEFFF7FBFEFFF731FFFFF721
:102E380063FFFFF709FE1821AF48FFF78FFA182143
:102E4800AE48FFF78BFAAE4B0B930020FFF752FD0D
:102E580000263146374632460523B346B2469946E0
:102E68004BE0A84B57E0A74B64E00022A64BDDE9F6
:102E78000601FDF7F1F9CDE906014FF0500AA34B21
:102E88001B68012B00F0EF80022B00F07081002BF3
:102E980000F0C2802D230493092303939C4B0293D3
:102EA800DDE90623CDE900234A460BA9504600F088
:102EB8008DFC984B1868984B196806EBD67EDFF89E
:102EC8004C82D8F8003000220392029201920092BC
:102ED800DBB2CEF3470200F0FBFCD8F80030032B3E
:102EE80002DD0022C8F80020884B1B689B4502D0F1
:102EF800864BD3F800B021462A46884B5D6AAB1A48
:102F08001F44002BB8BF5B42B3F5004F04DBAA4255
:102F1800A7DD4FF6FF731F44814B5C6A631A1E449A
:102F2800002BB8BF5B42B3F5004F05DBA1429ADD29
:102F38004FF6FF731E44013E4FF400517948FEF7E7
:102F4800A1F93846FDF7D4FA61A3D3E90023FDF7C8
:102F580035FB0022744BFDF731FB0022734BFDF764
:102F68007BF95DA3D3E90023FDF752FCCDE9060107
:102F780000226F4BFDF7A8FD38B959A3D3E9002308
:102F8800DDE90601FDF796FD88B157A3D3E90023D3
:102F9800DDE90601FDF798FD48B10022654BDDE942
:102FA8000601FDF759F9CDE906014FF0140A002290
:102FB800614BDDE90601FDF787FD38B94AA3D3E97E
:102FC8000023DDE90601FDF775FD88B148A3D3E9C3
:102FD8000023DDE90601FDF777FD48B10022564BD5
:102FE800DDE90601FDF738F9CDE906014FF0280AB9
:102FF8000022454BDDE90601FDF766FD00287FF458
:1030080034AF3BA3D3E90023DDE90601FDF752FD08
:1030180000283FF434AF28E706EBD673C3F3470321
:10302800012B0ED0022B0FD0032B10D0042B11D064
:10303800052B12D0062B13D0062B7FF62BAF0C26B0
:1030480028E74FF0A00AEDE74FF0500AECE74FF001
:10305800280AEBE74FF01E0AEAE74FF0140AE9E7FF
:103068004FF00B0AE8E706EBD678C8F34708B8F143
:10307800000F0ED0B8F1010F1AD0B8F1020F5FD0CF
:10308800B8F1030F6BD0B8F1030F7FF603AF062634
:1030980000E70CAB1A461A4B42F8083D0992104655
:1030A800FDF776FD024609990BA800F00BFDE1E754
:1030B8000CAB1A46214B42F8083D09921046FDF721
:1030C80067FD024609990BA800F0FCFCD5E700BF94
:1030D800190019001900793F000000000088C3405A
:1030E8003333333333B32C40CDCCCCCCCCCC1C4095
:1030F8006666666666660E408002002094030020BD
:103108004C5342000100FFFF00000C401002002059
:103118006666A63F880300208C0300200008004054
:10312800002C0140001001400000244000408F4066
:1031380000002C4000002A4000001C40555342006B
:103148000CAB1A46124B42F8083D09921046FDF79F
:103158001FFD024609990BA800F0B4FC90E70D4B3F
:103168000A93ADF82C301B0C8DF82E308BE706EB4C
:10317800D673C3F34709B9F1080F02D912264FF0E5
:103188000909B9F1000F7FF485AE022682E600BF77
:10319800412F4D00462F4D0000B583B0244B9A694E
:1031A80042F001029A619A6902F001020092009AC3
:1031B800DA6942F08052DA61DB6903F080530193E7
:1031C800019B0320FDF7DEFE002211466FF00B0085
:1031D800FDF7EAFE002211466FF00A00FDF7E4FE53
:1031E800002211466FF00900FDF7DEFE00221146AD
:1031F8006FF00400FDF7D8FE002211466FF00300BF
:10320800FDF7D2FE002211466FF00100FDF7CCFE5B
:10321800002211464FF0FF30FDF7C6FE054A5368FD
:1032280023F0E06343F08063536003B05DF804FB70
:10323800001002400000014002680E4B9A4200D084
:10324800704700B587B003F56C439A6942F4007281
:103258009A619B6903F400730193019B0C23029309
:103268000323039302A90448FDF708FF07B05DF89C
:1032780004FB00BF002401400008014010B588B0DD
:103288000368354A934207D0344A934223D0344ADC
:10329800934241D008B010BD324B9A6942F4805233
:1032A8009A619B6903F480530193019BA0230493C3
:1032B80002230593032307932B4C04A92046FDF70B
:1032C800DDFE4023049300230593069304A92046BA
:1032D800FDF7D4FEDEE7234BDA6942F48042DA6177
:1032E800DB6903F480430293029B4FF42043049369
:1032F80002230593032307931C4C04A92046FDF7DA
:10330800BDFE4FF48043049300230593069304A95C
:103318002046FDF7B3FEBDE7124BDA6942F40042DE
:10332800DA61DB6903F400430393039B28230493C6
:1033380002230593032307930C4C04A92046FDF7A9
:103348009DFE1023049300230593069304A92046A9
:10335800FDF794FE9EE700BF0030014000380040B2
:10336800003C00400010024000080140000C0140F1
:1033780010B588B00368404A93420AD0B3F1804F31
:1033880024D03E4A934236D03D4A93424FD008B0AB
:1033980010BD3C4B9A6942F400629A619B6903F440
:1033A80000630093009B4FF420630493002305936C
:1033B8000123069304A93448FDF760FE334A536895
:1033C80043F0E06343F0C0035360E0E703F50433E0
:1033D800DA6942F00102DA61DB6903F00103019363
:1033E800019B0323049300230593069304A928480B
:1033F800FDF744FECBE7234BDA6942F00202DA61BB
:10340800DB6903F002030293029BC02304930023A9
:1034180005930123069304A91E48FDF72FFE1B4AB6
:10342800536843F0E06343F440635360AFE7154BE0
:10343800DA6942F00402DA61DB6903F004030393FA
:10344800039B4FF4405304930024059401230693EF
:1034580004A91148FDF712FE0C4A536843F0E063D3
:1034680043F480535360224621461E20FDF79CFDFD
:103478001E20FDF7CBFD8AE7002C01400004004028
:103488000008004000100240001801400000014000
:1034980000080140001001400014014008B5FEF783
:1034A8000BFA08BDFEE7FEE7FEE7FEE77047704748
:1034B800704708B5FDF7E8FBFDF7DBFD08BD000028
:1034C80008B5164B5B6913F4807F07D04FF4807200
:1034D800124B5A61124A1368013313600F4B5B6930
:1034E80013F0200F07D12020FDF7D2FE4FF4807093
:1034F800FDF7CEFE08BD2022084B5A6100F06AF89D
:10350800084B186000F08CF8074B186000F03CF886
:1035180000F04EF800F042F8E5E700BF0004014073
:1035280010020020880300208C03002008B5024800
:10353800FEF7AEFD08BD00BF800200200F4B1A68E1
:1035480042F001021A6059680D4A0A405A601A6826
:1035580022F0847222F480321A601A6822F48022DF
:103568001A605A6822F4FE025A604FF41F029A60E9
:103578004FF00062034B9A60704700BF0010024092
:103588000000FFF800ED00E008B500221021024815
:10359800FDF772FE08BD00BF0010014008B501220A
:1035A80010210248FDF768FE08BD00BF0010014069
:1035B80000B583B002A9802301F8043D4FF0FF3322
:1035C80001220348FEF772FA03B05DF804FB00BF5E
:1035D800D403002010B582B0FFF7D6FFD3238DF8AF
:1035E800043000238DF800300C4C4FF0FF330122DB
:1035F80001A92046FEF75AFA4FF0FF330222694626
:103608002046FEF74AFCFFF7C9FF9DF800009DF829
:1036180001301B0943EA001002B010BDD40300209A
:1036280010B582B0FFF7B0FF93238DF80430002364
:103638008DF800300C4C4FF0FF33012201A92046D1
:10364800FEF734FA4FF0FF33022269462046FEF7B0
:1036580024FCFFF7A3FF9DF800009DF801301B092B
:1036680043EA001002B010BDD403002000B585B0B5
:1036780000920B4602460A490A4800F097FE0A4B98
:10368800002002904FF6E07201925A6800921B687F
:10369800064ADC21FFF7A2F805B05DF804FB00BF7D
:1036A800348700080C06002010000020548700080A
:1036B8002DE9F04385B0904699463A4D002402948E
:1036C8001F2601966B6800932B68374A67212046AE
:1036D800FFF784F8029401966B6800932B68334ACD
:1036E80085212046FFF77AF8029401966B680093CB
:1036F8002B682F4AA3212046FFF770F800222D4B94
:1037080040464946FCF7A6FDFDF7F2F906462A4B66
:1037180018600022274B40464946FCF79DFDFDF7FF
:10372800E7F90746254B18603046FCF7F3FE80465C
:103738008946234E3846FCF7EDFECDE90201214BC0
:103748001868FCF7E7FECDE9000142464B461E49E2
:10375800304600F02BFE02944FF4FC6301936B6833
:1037680000932B683246C8210A20FFF737F813E088
:10377800A5B24FF6FF72D3212846FFF70DF84FF692
:10378800FF72D4212846FFF707F84FF6FF72D521BC
:103798002846FFF701F80134B4F5A07FE8DB05B04F
:1037A800BDE8F08318000020748700087C870008B3
:1037B800848700080000E03FD40600202C05002084
:1037C80070060020F80400208C8700082DE9F041DD
:1037D80084B007460E469046344B0024029440F2CB
:1037E800FF7201925A6800921B68314A21462046AE
:1037F800FEF7F4FF13E0A5B24FF6FF725F212846EB
:10380800FEF7CAFF4FF6FF7260212846FEF7C4FF95
:103818004FF6FF7261212846FEF7BEFF0134B4F56A
:10382800A07FE8DB33787278B178224ECDF8088033
:10383800019100923A462049304600F0B7FD1F4DED
:10384800DDE90A231E49284600F0B0FD1D4B00247F
:1038580002944FF6E07201925A6800921B68324651
:1038680023212046FEF7BAFF104B02944FF6FF7251
:1038780001925A6800921B682A4641212046FEF7A9
:10388800ADFFDDE90A231049097810480078FFF7F1
:103898000FFF0C98FCF73EFE9DF838309DF8342059
:1038A800FFF7E4FE04B0BDE8F08100BF0800002087
:1038B800B487000880040020C8870008C8040020D6
:1038C800E88700081000002014050020FC040020F0
:1038D8002DE9F04784B006468A4691469846454CFD
:1038E800002502954FF47843019363680093236899
:1038F800414A67213220FEF771FF404F5346324656
:103908003F49384600F052FD02954FF6E0760196A1
:103918006368009323683A4671213220FEF75EFF00
:10392800384F4A463849384600F040FD029501961E
:103938006368009323683A467B213220FEF74EFFE6
:10394800324F42463249384600F030FD0295019622
:103958006368009323683A4685213220FEF73EFFCC
:103968002C4F9DF830202C49384600F01FFD029559
:1039780001966368009323683A468F213220FEF748
:103988002DFFDFF8A880254F9DF8342041463846A2
:1039980000F00CFD029501966368009323683A468F
:1039A80099213220FEF71AFF1D4F9DF838201D4936
:1039B800384600F0FBFC0295019663680093236883
:1039C8003A46A3213220FEF709FF174F9DF83C2005
:1039D8004146384600F0EAFC029501966368009378
:1039E80023683A46AD213220FEF7F8FE04B0BDE860
:1039F800F08700BF18000020FC870008A8050020F9
:103A080004880008300500201888000800050020F8
:103A1800248800086C0400203088000894050020E1
:103A2800B0040020408800081805002038880008E5
:103A3800002103E00B4B5B58435004310A480B4B01
:103A480042189A42F6D30A4A02E0002342F8043B9D
:103A5800084B9A42F9D3FFF771FD00F00FF8FFF712
:103A6800CFF97047B08A000800000020F401002058
:103A7800F4010020DC060020FEE7000070B50025F8
:103A88000C4E0D4CA41BA410A54209D102F09AF8C3
:103A980000250A4E0A4CA41BA410A54205D170BDEE
:103AA80056F8253098470135EEE756F825309847FF
:103AB8000135F2E7A88A0008A88A0008A88A000841
:103AC800AC8A000810B5431E0A44914200D110BDCB
:103AD80011F8014B03F8014FF7E7034602449342FC
:103AE80000D1704703F8011BF9E7002B2DE9F047D7
:103AF8001E46BBBF03F100431E4600232D2388B09A
:103B0800149F129927F02007462F1446109DDDF8C0
:103B18004CA00B7004D0452F00D10135022300E0E2
:103B2800032307AA049206AA03928DE828042246D2
:103B3800334600F0EDFC472F804602D1119BDB078E
:103B480026D5462F08EB050911D198F80030302BFF
:103B58000AD10022002320463146FCF797FF18B906
:103B6800C5F10105CAF80050DAF80030994400227E
:103B7800002320463146FCF789FF38B93022079BDD
:103B8800994505D9591C07911A70F8E7CDF81C908A
:103B98004046079B159AA3EB0803136008B0BDE8DD
:103BA800F0870346F7B5002903F8022BB6BF2D228C
:103BB8002B2249420929427021DD0DF107021746DF
:103BC8000A2691FBF6F506FB1511092D01F13001C6
:103BD80002F8011C02F1FF34294609DC3031023AAF
:103BE80004F8011CBA421C4604D3201A03B0F0BDE5
:103BF8002246E6E712F8011B03F8011BF2E7302220
:103C08001C46114404F8022B5970EEE72DE9F04FD9
:103C180091B00C461A9F93461E46054601F04CFA91
:103C2800036818460993FCF7B3FF00230E933B681B
:103C38000A90073323F0070303F1080294F8188069
:103C4800D4F800A03A60D3E90023C4E91223D4F8D9
:103C58004C90A76C29F000430B934FF0FF32A64B12
:103C680038460B99FCF79CFF002840F0F7814FF08D
:103C7800FF32A14B38460B99FCF71CFF002840F097
:103C8800ED810022002338464946FCF709FF10B1B0
:103C98002D2384F84330994B994FB8F1470F98BFBB
:103CA8001F4603234FF0000923612AF00403236011
:103CB80000965B460FAA2146284600F0DFF901303E
:103CC80040F09A804FF0FF3011B0BDE8F08F626885
:103CD8000EA8531C0DF1340E4AF4806341D106221C
:103CE800626000212360019363680DF1330205903F
:103CF800029200933A464B460691CDF81080CDF8D3
:103D08000CE02846FFF7F1FE08F0DF03472B0746D3
:103D180009D10D9BD81C02DB6268934259DDA8F1DA
:103D280002085FFA88F8B8F1650F0D9936D801399D
:103D3800424604F150000D91FFF733FF0E9A814679
:103D48008318012A236102DC2268D10701D50133D7
:103D580023619DF83330002BAAD02D2384F84330FB
:103D6800A6E7B8F1670F02D0B8F1470FB9D19AB1F9
:103D7800002106910DF133018DE80C0023600590B8
:103D88003A46CDF81080CDF80CE002914B46284613
:103D9800FFF7ABFE0746BCE70122A1E7B8F1660FC3
:103DA80019D1002963680CDD216113B92268D20793
:103DB80002D501330B4423610D9B4FF00009A36525
:103DC800C7E713B92268D00701D50233F3E7012307
:103DD800F1E74FF067080D9B0E9A934205DB2268C6
:103DE8002361D107E8D50133E5E7002BCCBF0123D8
:103DF800C3F102031344DEE723685A0507D4236995
:103E08003A4659462846B04701302AD15AE7B8F110
:103E1800650F40F2DC80D4E9120100220023FCF790
:103E280035FE002839D00123364A59462846B0477E
:103E380001303FF447AF0E9B0D9A9A4202DB23688C
:103E4800D8070ED50A9B099A59462846B04701302B
:103E58003FF438AF002704F11A080E9B013B9F423C
:103E680011DB23689F0708D5002704F11908E368C8
:103E78000F9A9B1A9F42C0F2E780E0680F9B984216
:103E8800B8BF184620E70123424659462846B0479E
:103E980001303FF417AF0137DFE70D9B002B33DC10
:103EA8000123184A59462846B04701303FF40AAF63
:103EB8000D9B23B90E9B13B92368D907D1D50A9B4B
:103EC800099A59462846B04701303FF4FBAE4FF0F7
:103ED800000804F11A090D9B5B42984501DB0E9B13
:103EE8008EE701234A4659462846B04701303FF439
:103EF800E9AE08F10108EEE7FFFFEF7F4C88000804
:103F0800508800085C8800080E9AA36D9A42A8BFE2
:103F18001A46002A904636DC4FF0000A04F11A03CC
:103F280028EAE8780B93D4F85890A9EB08039A4547
:103F380031DB0E9B0D9A9A4238DB2368DA0735D4B9
:103F48000E9B0D99A3EB0902A3EB01089045A8BFAE
:103F58009046B8F1000F31DC002728EAE87804F130
:103F68001A090D9A0E9B9B1AA3EB08039F42BFF6F2
:103F780078AF01234A4659462846B04701303FF4F6
:103F8800A1AE0137EDE7134659463A462846B047F1
:103F98000130C1D196E601230B9A59462846B0470D
:103FA80001303FF48FAE0AF1010ABCE70A9B099A77
:103FB80059462846B0470130C2D183E6434607EB4D
:103FC800090259462846B0470130C5D17AE60E9A0B
:103FD800012A01DCDB0734D501233A465946284635
:103FE800B04701303FF46EAE0A9B099A59462846FD
:103FF800B04701303FF466AED4E912010022002335
:10400800FCF744FD50B1002704F11A080E9B013B50
:104018009F420CDB4B4604F15002F2E60E9B7A1CE1
:10402800013B59462846B0470130F3D14AE60123FF
:10403800424659462846B04701303FF443AE01375F
:10404800E4E701233A46ECE701234246594628466D
:10405800B04701303FF436AE013708E73A464B46E1
:1040680038464946FCF79CFD00283FF430AE014B2A
:10407800014F12E654880008588800082DE9F047D7
:1040880091461F468A680B6906469342B8BF134695
:10409800C9F8003091F843200C46DDF8208012B1B1
:1040A8000133C9F800302368990642BFD9F80030B7
:1040B8000233C9F80030256815F0060507D104F168
:1040C800190AE368D9F800209B1A9D422ADB94F864
:1040D80043302268003318BF012392062FD404F11D
:1040E800430239463046C047013022D02368E5688C
:1040F80003F00603042B18BF0025D9F800204FF061
:10410800000908BFAD1AA368226908BF25EAE5754A
:104118009342C4BF9B1AED181A344D451BD1002099
:10412800BDE8F0870123524639463046C047013082
:1041380003D14FF0FF30BDE8F0870135C1E73020EB
:10414800E11881F843005A1C94F8451022440233C0
:1041580082F84310C3E70123224639463046C04758
:104168000130E6D009F10109D7E700002DE9F04355
:1041780017460A7E85B06E2A984606460C460C9B62
:1041880001F1430E00F0BC801AD8632A2ED00AD859
:10419800002A00F0C880582A00F08A8004F14205FD
:1041A80084F842202AE0642A01D0692AF6D12168DD
:1041B8001A6811F0800F23D0111D1960136827E0C9
:1041C800732A00F0B48008D86F2A2AD0702AE5D163
:1041D8000A6842F020020A6003E0752A21D0782A92
:1041E800DCD178226F4984F8452064E01A6801F12F
:1041F8004205111D1960136884F842300123A3E0B9
:1042080011F0400F02F104011960D7D0B2F9003063
:10421800002B03DA2D225B4284F8432062490A22EC
:1042280017E02068196810F0800F03D0081D186087
:104238000B6806E010F0400F01F104001860F7D099
:104248000B886F2A14BF0A2208225749002084F8D5
:1042580043006568002DA560C0F29C80206820F0AE
:1042680004002060002B3FD1002D40F0958075465A
:10427800082A0BD12368DA0708D5236962689A42AD
:10428800DEBF302305F8013C05F1FF35AEEB050331
:104298002361CDF800803B4603AA21463046FFF74C
:1042A800EDFE013055D14FF0FF3005B0BDE8F08389
:1042B80081F845203C492268186812F0800F00F107
:1042C80004051D6001D0036802E05506FBD503888C
:1042D800D00744BF42F0200222601BB9226822F0B6
:1042E800200222601022B1E77546B3FBF2F002FB10
:1042F8001033CB5C05F8013D03460028F5D1B7E73C
:1043080008681A6810F0800F496904D0101D1860F9
:104318001368196007E010F0400F02F104001860FC
:104328001368F6D01980002375462361B1E71A682F
:10433800111D1960156800216268284600F0D2FE38
:1043480008B1401B606063682361002384F8433030
:104358009FE723692A4639463046C0470130A2D034
:1043680023689B0707D5002504F11909E368039A18
:104378009B1A9D4205DBE068039B9842B8BF18462C
:1043880093E701234A4639463046C04701308AD070
:104398000135EBE7002BA7D10B7804F1420584F82F
:1043A800423065E76F8800085E8800080EB44FF455
:1043B800027100B59CB0ADF814106FF00041049183
:1043C80007914FF6FF711DAB02900690084853F80D
:1043D800042BADF81610006802A9019301F076FAD3
:1043E8000022029B1A701CB05DF804EB03B0704702
:1043F800240000202DE9F74F03690C6980469C4290
:1044080000F38280013C01F1140700F1140657F80B
:10441800245056F824000135B0FBF5F54FEA840E18
:1044280006EB0E0307EB0E0901938DB34FF0000A5C
:104438003846B446D34650F8042B93B205FB03A381
:10444800120C4FEA134A05FB02A29BB2ABEB030323
:10445800BCF800B04FEA124A5B441FFA82FBDCF852
:1044680000208145CBEB124202EB23429BB243EA88
:1044780002434FEA224B4CF8043BDCD256F80E308C
:1044880033B9019B043B9E421A4631D3C8F8104009
:10449800404601F03EF8002826DB30464FF0000E7B
:1044A800013557F8041BD0F800C08BB2AEEB0303FC
:1044B8001FFA8CF213440A0CC2EB1C4202EB234293
:1044C8009BB243EA0243B9454FEA224E40F8043B07
:1044D800E7D256F8242006EB84032AB9043B9E420F
:1044E8001A460BD3C8F81040284603B0BDE8F08F31
:1044F8001268043B002AC9D1013CC4E71268043B96
:10450800002AEFD1013CEAE70020EEE700000000B6
:104518002DE9F04F466A95B00446219DCDE9022366
:104528003EB9102000F0D6FD6062466086600660E5
:10453800C660636A196851B15A68012393404A609A
:104548008B60204600F010FE0022636A1A60039B0D
:10455800002BB7BF012300232B60039BAEBF2B604A
:1045680023F000430393DDF80C90AB4B33EA0903C7
:104578001BD142F20F73209A1360029B23B9C9F32F
:104588001300002800F08385229B53B9A34B21E038
:10459800A34B06930833229A1360069815B0BDE81A
:1045A800F08F9E4B06930333F5E7DDE9026700229F
:1045B800002330463946FCF769FA804660B101238A
:1045C800209A1360229B002B00F05E85954B229A5F
:1045D8001360013B0693E0E712AB019313AB009322
:1045E80032463B46204601F00DF8C9F30A5582468B
:1045F800002D7DD03046C7F3130343F07F5141F4BB
:104608004011A5F2FF35CDF840800022864BFBF71C
:1046180021FE7BA3D3E90023FBF7D0FF7AA3D3E9DC
:104628000023FBF719FE064628460F46FBF760FFF6
:1046380077A3D3E90023FBF7C1FF02460B463046B8
:104648003946FBF709FE06460F46FCF7BFFA00227B
:104658008346002330463946FCF722FA58B15846BB
:10466800FBF746FF02460B4630463946FCF70EFA82
:1046780008B90BF1FF3BBBF1160F58D8DDE902234F
:104688006A4901EBCB01D1E90001FCF727FA0028C0
:104698004FD000230BF1FF3B0D93129B5D1B6B1E4C
:1046A800079343BF0023C5F1010807934FF00008A3
:1046B800BBF1000F3FDB079BCDF830B05B4407939D
:1046C800002308931E9B092B00F2B480052BC4BF5E
:1046D800043B1E931E9BC8BF0026A3F10203D8BF4C
:1046E8000126032B00F2B280DFE803F084862D78E0
:1046F800139B129D1D4405F23243202B11DD029AB3
:1047080005F21240C3F1400322FA00F009FA03F35C
:104718001843FBF7DDFE0123A1F1F871013D109369
:1047280073E7C3F12000029B03FA00F0F1E70123CD
:10473800B2E70D90B1E7CBF1000308930023A8EB93
:104748000B080C93BEE7012309931F9B002B40F332
:1047580080809946049300220421656A6A6001F109
:1047680014029A427AD96968204600F0C9FC636A43
:1047780028601B68B9F10E0F069300F2F080002E36
:1047880000F0ED80DDE90223BBF1000FCDE90E2337
:1047980079DD264A0BF00F034FEA2B1602EBC30311
:1047A800F006D3E90023CDE90A235CD5DDE90E0143
:1047B8001F4B0325D3E90823FCF72AF8CDE90201AA
:1047C80006F00F061A4F002E4FD1DDE90A23DDE966
:1047D8000201FCF71DF8CDE902016EE001230993FF
:1047E8001F9B5B4403F1010904934B46012BB8BF9F
:1047F8000123B0E70023A7E70023F0E7AFF3008029
:1048080061436F63A787D23FB3C8608B288AC63FCE
:10481800FB799F501344D33F0000F07F898800083C
:10482800808800085D8800080000F83FB888000804
:10483800908800080126002309961E934FF0FF3345
:1048480000220493994612231F9284E701230993B7
:10485800F4E70123049399461A46F5E76A68490084
:1048680001326A607BE70225ACE7F10708D5DDE98C
:104878000A01D7E90023FBF7A1FECDE90A010135BA
:10488800761008379FE700F0A580DDE90E01CBF12F
:104898000006A24B06F00F0203EBC203D3E9002384
:1048A800FBF78CFE02250023CDE902019C4F36114F
:1048B800002E40F08480002B8DD10D9B002B00F042
:1048C8008B80DDE90223CDE90A23DDE90A01002214
:1048D800944BFCF7E5F800287ED0B9F1000F7BD0A7
:1048E800049B002B37DDDDE90A0100228E4BFBF724
:1048F80065FECDE90201049E0BF1FF37013528461C
:10490800FBF7F6FDDDE90223FBF758FE874B002293
:10491800FBF7A2FCCDE90A010B9BA3F150750B959F
:10492800002E5CD1DDE902010022814BFBF792FCED
:104938000A9A2B46CDE90201FCF7D0F8002840F08E
:10494800F782DDE902010A9A05F10043FCF7A8F8AD
:10495800002840F0EB82DDE90E23CDE90223139B0A
:10496800002BC0F25081BBF10E0F00F34C816B4B52
:1049780003EBCB03D3E90023CDE904231F9B002BD2
:1049880080F2DA80B9F1000F00F3D68040F0CD82D2
:10499800DDE904010022664BFBF710FEDDE9022386
:1049A800FCF792F84E464F46002840F0A482069B3A
:1049B800069A5D1C31230BF1010B13709FE2F2077D
:1049C80005D5D7E90023FBF7F9FD0123013576105A
:1049D80008376DE7022570E75F464E468FE7069A6F
:1049E8004E4B32441192099A711E002A48D003EBAB
:1049F800C103D3E9002300204E49FBF709FFDDE995
:104A08000A23FBF727FCCDE90A01069DDDE902012F
:104A1800FCF7DCF80646FBF76BFD02460B46DDE9C2
:104A28000201FBF717FCDDE90A23303605F8016BB4
:104A3800CDE90201FCF734F8002864D1DDE902234E
:104A480000203849FBF706FCDDE90A23FCF728F8C3
:104A5800002840F0B980119B9D423FF47CAFDDE90E
:104A68000A010022304BFBF7A9FD0022CDE90A011B
:104A7800DDE902012C4BFBF7A1FDCDE90201C5E7F9
:104A880003EBC101D1E90001DDE90A23FBF796FD3B
:104A9800CDE90A01069DDDE90201FCF797F8064613
:104AA800FBF726FD02460B46DDE90201FBF7D2FBC8
:104AB8003036119B05F8016BAB42CDE902014FF08E
:104AC800000224D11B4BDDE90A01FBF7C5FB0246B6
:104AD8000B46DDE90201FCF701F8002874D1DDE995
:104AE8000A2300201349FBF7B5FB02460B46DDE914
:104AF8000201FBF7D5FF00283FF42DAF15F8013C64
:104B08006A1E302B01D0BB464DE01546F6E7064B32
:104B1800FBF754FDCDE90201BDE700BFB8880008E6
:104B2800908800080000F03F0000244000001C406E
:104B3800000014400000E03F069DDDE90267DDE962
:104B4800042330463946FBF763FEFCF73FF88046FE
:104B5800FBF7CEFCDDE90423FBF730FD02460B46EC
:104B680030463946FBF776FB08F1300605F8016B4D
:104B7800069E0246AE1BB1450B4637D1FBF76CFBD0
:104B880006460F4602460B46DDE90401FBF788FF9F
:104B9800C8B9DDE9040132463B46FBF777FF10B19F
:104BA80018F0010F0FD15146204600F0DDFA00231E
:104BB800209A2B700BF101031360229B002B3FF40A
:104BC800ECAC1D60E9E45F4615F8012C6B1E392A30
:104BD80006D1069A9A4207D130231370134601373B
:104BE8001A7801321A708EE71D46EDE70022B54BA0
:104BF800FBF7E4FC0022002306460F46FBF746FFBE
:104C080000289CD0CFE7099A002A00F029811E9A33
:104C1800012A00F30E81109A002A00F0068103F29F
:104C280033434546089E079A01211A442046984472
:104C3800079200F039FB0746002D0BDD079B002B80
:104C480008DDAB42A8BF2B46079AA8EB0308ED1A6C
:104C5800D31A0793089BFBB1099B002B00F0048132
:104C6800002E11DD39463246204600F0B3FB52468D
:104C780001460746204600F020FB51460A90204690
:104C880000F072FA0A9B9A46089B9A1B04D0514678
:104C9800204600F09FFB82460121204600F004FBDD
:104CA8000C9B0646002B40F3E1801A46014620463D
:104CB80000F090FB1E9B0646012B40F3DA80002390
:104CC8000893336906EB8303186900F09FFAC0F173
:104CD8002000079B184410F01F0000F0F080C0F17E
:104CE8002003042B40F3E280079BC0F11C008044A2
:104CF800054403440793B8F1000F05DD51464246C9
:104D0800204600F0B5FB8246079B002B05DD3146A7
:104D18001A46204600F0ACFB06460D9B002B00F01F
:104D2800D3803146504600F0F4FB002880F2CC8056
:104D3800002351460A22204600F02DFA099B0BF168
:104D4800FF3B8246002B00F0A981002339460A2246
:104D5800204600F020FA049B0746002B03DC1E9B2C
:104D6800022B00F3B980002D05DD39462A4620467E
:104D780000F07EFB0746089B002B00F01081796845
:104D8800204600F0BDF905463A6907F10C010232E8
:104D980092000C30FEF796FE01222946204600F0CC
:104DA80067FB07970746029BDDF8188003F00103AD
:104DB800089331465046FFF71DFB0799054600F159
:104DC8003009504600F0A5FB3A460290314620468D
:104DD80000F0B9FBC3680246002B40F0E2800146B0
:104DE8000990504600F095FB0346099A1146204663
:104DF800099300F0B9F9099B002B40F0D4801E9A62
:104E0800002A40F0D080089A002A40F0CC80B9F1FE
:104E1800390F00F0E880029B002B01DD05F1310914
:104E280008F1010588F800906BE0129BC3F1360386
:104E3800F7E6089B09F1FF36B342B7BF089B9E1BF4
:104E4800F21A0C9BBFBF08969B180C930026B9F169
:104E5800000FB9BFA8EB0905002345464B46E2E61B
:104E6800089E4546099FE7E6089A10E71E9B012B16
:104E780018DC029BB3B9039BC3F31303A3B9039BC9
:104E880023F000431B0D1B052BB1079B08F10108FC
:104E980001330793012308930C9B002B7FF411AF78
:104EA800012016E70023F6E7029BF4E73FF423AF5F
:104EB800079A1C331A4498441D4413461AE70346BC
:104EC800F6E700BF00002440B9F1000F33DC1E9B59
:104ED800022B30DDCDF81090049B63B931460522D2
:104EE800204600F058F901460646504600F011FBEE
:104EF80000283FF75CAD1F9B069D6FEA030B00235C
:104F080007933146204600F02FF9002F3FF44BAEAF
:104F1800079B2BB1BB4203D01946204600F024F969
:104F28003946204600F020F93DE600263746E2E7FC
:104F3800BB4637463BE5099BCDF81090002B7FF424
:104F480012AF069D31465046FFF754FA069B00F112
:104F5800300905F8019B049AEB1A9A4200F3818004
:104F6800069B012AACBF9B18013398460023079380
:104F780051460122204600F07BFA3146824600F075
:104F8800C8FA002834DC02D119F0010F30D14546A7
:104F980015F8013C6A1E302BB3D11546F8E73846A0
:104FA800FFE6012322E7029A002A04DB28D11E9A91
:104FB80032BB089A22BB002B7FF732AF5146012241
:104FC800204600F055FA3146824600F0A2FA002841
:104FD80005DC7FF425AF19F0010F3FF421AFB9F1DB
:104FE800390F7FF41BAF392308F1010808F8013C99
:104FF800454615F8013C6A1E392B3AD001333FE08B
:10500800002B08F1010505DDB9F1390FEBD009F1E5
:10501800010907E7069B049AEB1A9342A84605F88C
:10502800019CA5D0514600230A22204600F0B3F87F
:10503800079B8246BB424FF00A024FF000030799D4
:10504800204604D100F0A7F807900746B1E600F023
:10505800A2F8002307900A223946204600F09BF860
:10506800F3E7514600230A22204600F094F88246CE
:1050780068E7069B934205D13123069A0BF1010B91
:1050880013703EE71546B4E7094BFFF7A3BA229B16
:10509800002B7FF47DAA074BFFF79CBA049B002BDB
:1050A8003FF74FAF1E9B022B7FF74BAF14E700BFB4
:1050B8005C88000880880008044B1B68186A044B49
:1050C800002808BF1846F030704700BF24000020B1
:1050D80088000020024B0146186800F03DBB00BF65
:1050E8002400002010B5C9B202449042034601D101
:1050F800002010BD1C7801308C42F6D1184610BD36
:1051080070B5456A04460E463DB91020FFF7E2FF28
:105118006062456085600560C560656AEB6883B15B
:10512800636ADB6853F82600B8B9012101FA06F56D
:105138006A1D9200204600F0B4FA60B146608560AE
:105148000EE021220421204600F0ABFA636AE860F1
:10515800DB68002BE4D1002070BD026843F82620EC
:1051680000230361C36070BD70B5446A06460D46EE
:105178003CB91020FFF7AEFF7062446084600460A1
:10518800C4603DB1736A6A68DB6853F8221029600D
:1051980043F8225070BD2DE9F0411F4606460C46E3
:1051A80000230D6901F1140EDEF80000013381B20D
:1051B80002FB0171000C0F0C02FB007089B201EBBD
:1051C80000419D424FEA10474EF8041BECDCD7B172
:1051D800A3689D4212DB616830460131FFF790FFFA
:1051E8008046226904F10C01023292000C30FEF76D
:1051F80069FC21463046FFF7B7FF444604EB8503B8
:1052080001355F6125612046BDE8F081020C12047A
:105218000346B2B90304102013F07F4F04BF1B02EA
:10522800083013F0704F04BF1B01043013F0404FD7
:1052380004BF9B000230002B06DB5B0003D5013066
:1052480070470020E8E7202070470368014613F004
:1052580007020BD0DA0723D4980749BF5B089B08DD
:1052680001200B605CBF0B600220704798B2A8B9A0
:1052780010201B0C13F0FF0F04BF1B0A08301A077D
:1052880004BF1B0904309A0704BF9B080230DA07E1
:1052980002D45B0806D001300B6070471046E9E77E
:1052A800002070472020704710B50C460121FFF7F9
:1052B80027FF01224461026110BD2DE9F74F144612
:1052C8000A69236989469A42BEBF0B46A1461C4615
:1052D800D9F81070D4F810A0D9F80830D9F804100B
:1052E80007EB0A069E42C8BF0131FFF709FF00F12C
:1052F80014052B46002205EB8608434516D304F116
:10530800140209F1140102EB8A0301EB87070193E8
:10531800019C134694420CD8002E03DD58F8043D36
:10532800002B54D0066103B0BDE8F08F43F8042B7E
:10533800E3E7B3F800A00432BAF1000F20D0AE467C
:1053480089464FF0000C59F8044BBEF800B0A3B2E0
:105358000AFB03B34FEA144BDEF8004063444FEAFC
:10536800144C0AFB0BC404EB13449BB243EA0443FA
:105378004F454FEA144C4EF8043BE4D8CEF800C031
:1053880032F8029CB9F1000F1FD0AE468C464FF0A0
:10539800000A2B68BCF80040BEF802B09BB209FBBB
:1053A80004B4A24443EA0A434EF8043B5CF8043BC5
:1053B800BEF800401B0C09FB0343674503EB1A4387
:1053C8004FEA134AE6D8CEF800300435A0E7013E8C
:1053D800A2E700002DE9F843154612F0030206463D
:1053E8000F4607D0214C013A002354F82220FFF73A
:1053F800D2FE0746AD1035D0746A3CB91020FFF7CD
:1054080069FE7062446084600460C460D6F82480D9
:10541800D8F808404CB940F271213046FFF744FFF4
:1054280000230446C8F8080003604FF00008EB07A3
:105438000AD5394622463046FFF73FFF81463946AE
:105448003046FFF791FE4F466D100BD0206838B9F3
:10545800224621463046FFF730FF2060C0F8008022
:105468000446E4E73846BDE8F88300BF80890008B1
:105478002DE9F0470C460746164623694FEA621A9B
:105488000AEB03094968A36809F10105AB4231DB5E
:105498003846FFF735FE00228046114600F1140316
:1054A80052452ADB20692AEAEA7A04F1140116F047
:1054B8001F0203EB8A0301EB800E22D00020C2F109
:1054C800200C0E689640304343F8040B51F8040B47
:1054D8008E4520FA0CF0F4D8186008B109F10205DD
:1054E800013D3846C8F810502146FFF73DFE4046BA
:1054F800BDE8F08701315B00C8E743F822100132AC
:10550800CEE7043B51F8042B8E4543F8042FF9D815
:10551800E6E703690A6930B59B1A0CD1920014308A
:1055280014318418114454F8045D51F8042D95423F
:1055380003D005D30123184630BDA042F3D3FAE7C0
:105548004FF0FF33F7E72DE9F0470D4607461146C0
:1055580028461446FFF7DDFF061E08D131463846B7
:10556800FFF7CEFD012346610361BDE8F087A4BFC4
:1055780023462C4638466168A6BF1D4600260126EC
:10558800FFF7BEFD4FF0000CC6602B69266904F1D9
:10559800140205F1140902EB860709EB830800F1F0
:1055A800140152F804AB59F8045B1FFA8AF36344F8
:1055B800ACB21B1B2C0CC4EB1A4404EB23449BB267
:1055C8004FEA244CC84543EA0444964641F8044B44
:1055D800E7D8BE4505D351F8043D8BB10661BDE857
:1055E800F0875EF8044BA2B26244131403EB144331
:1055F80092B242EA03424FEA234C41F8042BE8E70F
:10560800013EE8E72DE9F3411C4601219046089E3A
:10561800099DFFF775FDC4F31302C4F30A54074646
:1056280034BB0192B8F1000F27D002A840F8088DCA
:10563800FFF70BFE0099F0B1019AC0F1200302FABE
:1056480003F30B43C2407B610192019B002B14BF03
:1056580002210121BB613961C4B1A4F2334404447D
:105668003460C0F135002860384602B0BDE8F081EA
:1056780042F48012D5E77961E7E701A8FFF7E5FD75
:105688000121019B39617B612030E5E7A0F23240BE
:1056980007EB810330601869FFF7B8FDC0EB4110D4
:1056A800E1E738B502FB01F4214600F055F805465C
:1056B80018B122460021FEF710FA284638BD00002E
:1056C80038B50546002943D051F8043C0C1F002B7F
:1056D800B8BFE41800F02AFA1E4A1368104633B916
:1056E800636014602846BDE8384000F020BAA34241
:1056F8000BD921686218934201BF1A685B68521877
:10570800226063600460EDE713465A680AB1A2425A
:10571800FAD919685818A0420BD1206801445818C2
:1057280082421960DED110685268014419605A60DB
:10573800D8E702D90C232B60D4E7206821188A42C5
:1057480001BF116852680918216062605C60C9E78E
:1057580038BD00BF1802002070B5CD1C25F0030528
:1057680008350C2D38BF0C25002D064601DBA94253
:1057780003D90C233360002070BD00F0D7F9234A09
:105788001468214691B9224C23681BB9304600F0B1
:1057980091F920602946304600F08CF9431C26D147
:1057A8000C233046336000F0C2F9E4E70B685B1B5A
:1057B8001AD40B2B0FD90B60CC18CD50304600F003
:1057C800B6F904F10B00231D20F00700C31A1BD003
:1057D8005A42E25070BD8C420BBF63684B6813603D
:1057E800636018BF0C46E9E70C464968CAE7C41C61
:1057F80024F00304A04205D0211A304600F05AF9DB
:105808000130CDD02560D9E770BD00BF1802002057
:105818001C0200202DE9F0478E6882469E420C4605
:105828009146984635D88A8912F4906F31D0022370
:10583800256809696F1A656905EB450595FBF3F558
:1058480008F101033B449D4238BF1D46530531D53D
:105858002946FFF781FF064650B90C23CAF80030E5
:10586800A3894FF0FF3043F04003A381BDE8F087E0
:105878003A462169FEF726F9A38923F4906343F099
:105888008003A38126613E44266046466561ED1B80
:10589800A560464528BF464649463246206800F07E
:1058A8002BF9A36800209B1BA36023681E44266075
:1058B800BDE8F0872A4600F03BF906460028E1D10A
:1058C80021695046FFF7FCFEC7E700002DE9F04FBD
:1058D8009DB003938B8980461C060D4616460FD54E
:1058E8000B696BB94021FFF737FF2860286128B999
:1058F8000C23C8F800304FF0FF30C4E040236B6140
:105908000023099320238DF8293030234FF0010B11
:105918008DF82A3037463C4614F8013B002B3CD121
:10592800B7EB060A0BD05346324629464046FFF7E6
:1059380071FF013000F0A280099B534409933B7822
:10594800002B00F09B8000234FF0FF320493079355
:10595800059206938DF853301A9305222178504802
:10596800FFF7C0FB671C049BD8B9D90644BF2022A7
:105978008DF853201A0744BF2B228DF85320227824
:105988002A2A16D000210A20079A27463B78013494
:10599800303B092B50D9C9B111E0252BC0D027467F
:1059A800B9E73F4A3C46801A0BFA00F018430490C6
:1059B800D3E7039A111D12680391002A01DB0792AD
:1059C80004E0524243F00203079204933B782E2BE3
:1059D8000DD17B78791C2A2B32D1039B02371A1DF3
:1059E8001B680392002BB8BF4FF0FF3305932D4C73
:1059F800032239782046FFF775FB38B14023001B96
:105A080003FA00F0049B0137034304933978062214
:105A180025487E1C8DF82810FFF764FB002835D038
:105A2800224BFBB9039B073323F007030833039387
:105A3800099B4B4409936DE700FB02320121A4E75F
:105A480000230A24184605930F463A780131303A64
:105A5800092A03D9002BCAD00590C8E704FB002007
:105A68000123F1E703AB00932A46114B04A94046F2
:105A7800FEF7CCF8B0F1FF3F8146D9D1AB895B0680
:105A88003FF539AF09981DB0BDE8F08F03AB00931F
:105A98002A46074B04A94046FEF768FBEAE700BF21
:105AA8008C8900089289000896890008153C00082E
:105AB8001D58000838B50023054C054608462360E4
:105AC80000F072F8431C02D1236803B12B6038BD83
