:020000040800F2
:100000000000012039560008CD4C0008D54C0008EE
:10001000D74C0008D94C0008DB4C00080000000059
:10002000000000000000000000000000DD4C00089F
:10003000DF4C000800000000E14C0008E34C000821
:100040008156000881560008815600088156000834
:100050008156000881560008815600088156000824
:100060008156000881560008815600088156000814
:100070008156000881560008815600088156000804
:1000800081560008815600088156000881560008F4
:10009000F14C00088156000881560008014D000807
:1000A00081560008815600088156000881560008D4
:1000B00081560008815600086D4D000881560008E1
:1000C00081560008815600088156000881560008B4
:1000D00081560008815600088156000881560008A4
:1000E0008156000881560008815600088156000894
:1000F0008156000881560008815600088156000884
:100100008156000881560008815600088156000873
:100110008156000881560008815600088156000863
:100120008156000881560008815600088156000853
:1001300000000000000000000000000000000000BF
:1001400000000000000000000000000000000000AF
:10015000000000000000000000000000000000009F
:10016000000000000000000000000000000000008F
:10017000000000000000000000000000000000007F
:10018000000000000000000000000000000000006F
:10019000000000000000000000000000000000005F
:1001A000000000000000000000000000000000004F
:1001B000000000000000000000000000000000003F
:1001C000000000000000000000000000000000002F
:1001D000000000000000000000000000000000001F
:0401E0005FF8E0F1F3
:1001E80010B5054C237833B9044B13B10448AFF369
:1001F80000800123237010BD480300200000000088
:100208006C77000808B5034B1BB103490348AFF3EB
:10021800008008BD000000004C0300206C77000837
:1002280081F0004102E000BF83F0004330B54FEA9F
:1002380041044FEA430594EA050F08BF90EA020F0C
:100248001FBF54EA000C55EA020C7FEA645C7FEA9F
:10025800655C00F0E2804FEA5454D4EB5555B8BFC2
:100268006D420CDD2C4480EA020281EA030382EA33
:10027800000083EA010180EA020281EA0303362DC5
:1002880088BF30BD11F0004F4FEA01314FF4801C98
:100298004CEA113102D0404261EB410113F0004FAA
:1002A8004FEA03334CEA133302D0524263EB430361
:1002B80094EA050F00F0A780A4F10104D5F1200EFF
:1002C8000DDB02FA0EFC22FA05F2801841F100015A
:1002D80003FA0EF2801843FA05F359410EE0A5F12E
:1002E80020050EF1200E012A03FA0EFC28BF4CF05F
:1002F800020C43FA05F3C01851EBE37101F0004515
:1003080007D54FF0000EDCF1000C7EEB00006EEB21
:100318000101B1F5801F1BD3B1F5001F0CD34908AB
:100328005FEA30004FEA3C0C04F101044FEA445202
:1003380012F5800F80F09A80BCF1004F08BF5FEA89
:10034800500C50F1000041EB045141EA050130BD69
:100358005FEA4C0C404141EB010111F4801FA4F10C
:100368000104E9D191F0000F04BF01460020B1FA61
:1003780081F308BF2033A3F10B03B3F120020CDA99
:100388000C3208DD02F1140CC2F10C0201FA0CF077
:1003980021FA02F10CE002F11402D8BFC2F1200CDC
:1003A80001FA02F120FA0CFCDCBF41EA0C01904092
:1003B800E41AA2BF01EB0451294330BD6FEA0404DB
:1003C8001F3C1CDA0C340EDC04F11404C4F12002C6
:1003D80020FA04F001FA02F340EA030021FA04F3D8
:1003E80045EA030130BDC4F10C04C4F1200220FA2F
:1003F80002F001FA04F340EA0300294630BD21FA6D
:1004080004F0294630BD94F0000F83F4801306BF32
:1004180081F480110134013D4EE77FEA645C18BF26
:100428007FEA655C29D094EA050F08BF90EA020FBD
:1004380005D054EA000C04BF1946104630BD91EAB5
:10044800030F1EBF0021002030BD5FEA545C05D1B8
:100458004000494128BF41F0004130BD14F58004F7
:100468003CBF01F5801130BD01F0004545F0FE416B
:1004780041F470014FF0000030BD7FEA645C1ABFA0
:10048800194610467FEA655C1CBF0B46024650EAD7
:10049800013406BF52EA033591EA030F41F4002103
:1004A80030BD00BF90F0000F04BF0021704730B589
:1004B8004FF4806404F132044FF000054FF000015E
:1004C80050E700BF90F0000F04BF0021704730B51F
:1004D8004FF4806404F1320410F0004548BF4042F4
:1004E8004FF000013EE700BF42004FEAE2014FEA49
:1004F80031014FEA02701FBF12F07F4393F07F4F24
:1005080081F06051704732F07F4208BF704793F026
:100518007F4F04BF41F40021704730B54FF4607439
:1005280001F0004521F000411CE700BF50EA01023C
:1005380008BF704730B54FF000050AE050EA0102E5
:1005480008BF704730B511F0004502D5404261EB55
:1005580041014FF4806404F132045FEA915C3FF496
:10056800D8AE4FF003025FEADC0C18BF03325FEA33
:10057800DC0C18BF033202EBDC02C2F1200300FAE4
:1005880003FC20FA02F001FA03FE40EA0E0021FA09
:1005980002F11444BDE600BF70B54FF0FF0C4CF4F7
:1005A800E06C1CEA11541DBF1CEA135594EA0C0FA9
:1005B80095EA0C0F00F0DEF82C4481EA030621EAE4
:1005C8004C5123EA4C5350EA013518BF52EA03351F
:1005D80041F4801143F4801338D0A0FB02CE4FF0D1
:1005E8000005E1FB02E506F00042E0FB03E54FF001
:1005F8000006E1FB03569CF0000F18BF4EF0010EF9
:10060800A4F1FF04B6F5007F64F5407404D25FEAF4
:100618004E0E6D4146EB060642EAC62141EA5551A7
:100628004FEAC52040EA5E504FEACE2EB4F1FD0CE9
:1006380088BFBCF5E06F1ED8BEF1004F08BF5FEA67
:10064800500E50F1000041EB045170BD06F0004619
:1006580046EA010140EA020081EA0301B4EB5C04C6
:10066800C2BFD4EB0C0541EA045170BD41F48011BE
:100678004FF0000E013C00F3AB8014F1360FDEBFE3
:10068800002001F0004170BDC4F10004203C35DABF
:100698000C341BDC04F11404C4F1200500FA05F342
:1006A80020FA04F001FA05F240EA020001F00042E3
:1006B80021F0004110EBD37021FA04F642EB060159
:1006C8005EEA430E08BF20EAD37070BDC4F10C0483
:1006D800C4F1200500FA04F320FA05F001FA04F247
:1006E80040EA020001F0004110EBD37041F1000133
:1006F8005EEA430E08BF20EAD37070BDC4F120053E
:1007080000FA05F24EEA020E20FA04F301FA05F2A5
:1007180043EA020321FA04F001F0004121FA04F24D
:1007280020EA020000EBD3705EEA430E08BF20EA1D
:10073800D37070BD94F0000F0FD101F00046400057
:1007480041EB010111F4801F08BF013CF7D041EAD9
:10075800060195F0000F18BF704703F000465200DD
:1007680043EB030313F4801F08BF013DF7D043EAAE
:100778000603704794EA0C0F0CEA135518BF95EA64
:100788000C0F0CD050EA410618BF52EA4306D1D1EB
:1007980081EA030101F000414FF0000070BD50EA0A
:1007A800410606BF1046194652EA430619D094EA94
:1007B8000C0F02D150EA013613D195EA0C0F05D17E
:1007C80052EA03361CBF104619460AD181EA0301D2
:1007D80001F0004141F0FE4141F470014FF000008A
:1007E80070BD41F0FE4141F4780170BD70B54FF025
:1007F800FF0C4CF4E06C1CEA11541DBF1CEA1355A5
:1008080094EA0C0F95EA0C0F00F0A7F8A4EB050486
:1008180081EA030E52EA03354FEA013100F088807D
:100828004FEA03334FF0805545EA131343EA126346
:100838004FEA022245EA111545EA10654FEA0026FB
:100848000EF000419D4208BF964244F1FD0404F5B4
:10085800407402D25B084FEA3202B61A65EB030510
:100868005B084FEA32024FF480104FF4002CB6EBCD
:10087800020E75EB030E22BFB61A754640EA0C004D
:100888005B084FEA3202B6EB020E75EB030E22BF8D
:10089800B61A754640EA5C005B084FEA3202B6EBCE
:1008A800020E75EB030E22BFB61A754640EA9C008D
:1008B8005B084FEA3202B6EB020E75EB030E22BF5D
:1008C800B61A754640EADC0055EA060E18D04FEA1B
:1008D800051545EA16754FEA06164FEAC30343EABB
:1008E80052734FEAC2025FEA1C1CC0D111F4801F88
:1008F8000BD141EA00014FF000004FF0004CB6E781
:1009080011F4801F04BF01430020B4F1FD0C88BF1F
:10091800BCF5E06F3FF6AFAEB5EB030C04BFB6EB2A
:10092800020C5FEA500C50F1000041EB045170BD1D
:100938000EF0004E4EEA113114EB5C04C2BFD4EB4A
:100948000C0541EA045170BD41F480114FF0000ECE
:10095800013C90E645EA060E8DE60CEA135594EA4A
:100968000C0F08BF95EA0C0F3FF43BAF94EA0C0F4D
:100978000AD150EA01347FF434AF95EA0C0F7FF4C2
:1009880025AF104619462CE795EA0C0F06D152EA16
:1009980003353FF4FDAE1046194622E750EA4106FA
:1009A80018BF52EA43067FF4C5AE50EA41047FF40B
:1009B8000DAF52EA43057FF4EBAE12E74FF0FF3C70
:1009C80006E000BF4FF0010C02E000BF4FF0010C41
:1009D8004DF804CD4FEA410C7FEA6C5C4FEA430CBA
:1009E80018BF7FEA6C5C1BD001B050EA410C0CBF09
:1009F80052EA430C91EA030F02BF90EA020F00206B
:100A0800704710F1000F91EA030F58BF994208BFD1
:100A180090422CBFD8176FEAE37040F0010070478E
:100A28004FEA410C7FEA6C5C02D150EA013C07D1E5
:100A38004FEA430C7FEA6C5CD6D152EA033CD3D030
:100A48005DF8040B704700BF8446104662468C462A
:100A58001946634600E000BF01B5FFF7B7FF00285D
:100A680048BF10F1000F01BD4DF808EDFFF7F4FF86
:100A78000CBF012000205DF808FB00BF4DF808ED11
:100A8800FFF7EAFF34BF012000205DF808FB00BF34
:100A98004DF808EDFFF7E0FF94BF012000205DF856
:100AA80008FB00BF4DF808EDFFF7CEFF94BF01200B
:100AB80000205DF808FB00BF4DF808EDFFF7C4FF04
:100AC80034BF012000205DF808FB00BF4FEA410257
:100AD800B2F1E04324BFB3F5001CDCF1FE5C0DD994
:100AE80001F0004C4FEAC0024CEA5070B2F1004FDE
:100AF80040EB830008BF20F00100704711F0804FE1
:100B080021D113F13872BCBF01F00040704741F4A5
:100B180080114FEA5252C2F11802C2F1200C10FAA9
:100B28000CF320FA02F018BF40F001004FEAC1238D
:100B38004FEAD32303FA0CFC40EA0C0023FA02F331
:100B48004FEA4303CCE77FEA625307D150EA013307
:100B58001EBF4FF0FE4040F44000704701F00040D7
:100B680040F0FE4040F40000704700BF034613F811
:100B7800012B002AFBD1181A013870474FEA410CA3
:100B88007FEA6C5C02D150EA013C0AD14FEA430C7F
:100B98007FEA6C5C02D152EA033C02D14FF00000BC
:100BA80070474FF0010070474FEA410212F50012FA
:100BB80015D211D56FF47873B3EB625212D94FEA9C
:100BC800C12343F0004343EA505311F0004F23FA86
:100BD80002F018BF404270474FF00000704750EADB
:100BE800013005D111F0004008BF6FF00040704798
:100BF8004FF00000704700BF10B504460E4B187840
:100C08004FF47A73B3FBF0F30C4A1068B0FBF3F0BF
:100C180000F0A0F868B90F2C01D901200AE00022E1
:100C280021464FF0FF3000F055F8034B5C60002080
:100C380000E0012010BD00BF0000002030010020AE
:100C480008B5074A136843F010031360032000F047
:100C58002FF80020FFF7D0FF03F0EEFE002008BDBC
:100C680000200240034A1168034B1B780B441360B1
:100C7800704700BF9C05002000000020014B186849
:100C8800704700BF9C05002038B50446FFF7F6FF03
:100C98000546B4F1FF3F02D0044B1B781C44FFF714
:100CA800EDFF401BA042FAD338BD00BF0000002072
:100CB800074AD36823F4E0631B041B0C000200F40A
:100CC800E060184340F0BF6040F40030D0607047E7
:100CD80000ED00E030B4174BDB68C3F30223C3F127
:100CE8000704042C28BF04241D1D062D18D9033B16
:100CF8004FF0FF3505FA04F421EA0401994005FA9A
:100D080003F322EA0303194300280BDB0901C9B2E4
:100D180000F1604000F5614080F8001330BC704776
:100D28000023E5E700F00F000901C9B2024B19548E
:100D3800F4E700BF00ED00E014ED00E000F01F0252
:100D4800400901239340024A42F82030704700BF0F
:100D580000E100E00138B0F1807F0AD2064B58600C
:100D6800064AF02182F823100020986007221A60B2
:100D780070470120704700BF10E000E000ED00E080
:100D8800042805D0054A136823F00403136070474C
:100D9800024A136843F004031360704710E000E050
:100DA800704708B5FFF7FCFF08BD0000F0B482B03B
:100DB80000263546ABE0002C63D0012C00D1CE686C
:100DC800FF2B72D88446FF2B72D8AC00DCF80020C9
:100DD8000F27A74022EA070206FA04F42243CCF8B8
:100DE80000204A6812F0805F00F09080654A94699C
:100DF80044F001049461926902F001020192019A9F
:100E0800AC08A71C604A52F827C005F003029700F7
:100E18000F22BA402CEA020C5C4A90424ED002F5EE
:100E28008062904200F08B8002F58062904200F070
:100E3800888002F58062904200F0858002F5806229
:100E4800904200F0828002F58062904234D00622FF
:100E580035E04F4FBC4214D00BD94E4FBC4210D096
:100E680007F58037BC420CD0A7F58017BC42A7D144
:100E780007E0A7F58017BC4203D007F58037BC42CE
:100E88009ED18C687CB1012C08D04261082697E776
:100E9800CE68083694E7CE680C3691E702610826DA
:100EA8008EE700268CE704268AE700F1040C8AE71F
:100EB800A5F10804A40089E7052200E00022BA4051
:100EC80042EA0C020234304F47F824204A6812F4F0
:100ED800803F3CD0304C22681A4322604A6812F4A2
:100EE800003F3AD02C4C62681A4362604A6812F498
:100EF800801F38D0284CA2681A43A2604A6812F4AE
:100F0800001F36D0244CE2681343E36001350F2DEF
:100F180035D80122AA400B6813409A42F6D14C6892
:100F2800122CB8D095D8022CB2D07FF644AF032C3F
:100F3800B7D0112C7FF444AFCE68043640E70122C5
:100F4800BDE70222BBE70322B9E70422B7E7124C48
:100F5800226822EA03022260C0E70F4C626822EA94
:100F680003026260C2E70C4CA26822EA0302A26094
:100F7800C4E7094CE26822EA0303E360C6E702B06B
:100F8800F0BC70470010024000000140000801401A
:100F980000002110000031100004014012B90904BA
:100FA8000161704701617047C3685940C16070476B
:100FB8007047000008B5054B5B69034200D108BDC6
:100FC800024B5861FFF7F4FFF9E700BF0004014046
:100FD800002866D0F0B587B0044690F82934C3B12C
:100FE800032384F82934206801F006FD254655F8C6
:100FF800107B6E460FCD0FC62B683360231D0ECBBA
:10100800384601F0EAFC0021206801F0FFFC0023CB
:1010180015E080F8283404F069F9E1E704EB43129D
:10102800012182F8291082F828309386002182F85D
:101038002B109163D1639A1C5201A15001330E2BDE
:10104800ECD9002312E004EB4312002182F82912A4
:1010580082F82832938682F82B12C2F83812C2F826
:101068003C1203F112025201A15001330E2BEAD9AE
:10107800254655F8107B6E460FCD0FC62B6833609A
:10108800231D0ECB384601F0C3FC002584F82450FC
:10109800012384F82934206801F0CEFF284607B0E0
:1010A800F0BD0120704790F82834012B10D010B5FE
:1010B8000446012180F8281404F057FA206801F04A
:1010C800B9FF206801F090FC002084F8280410BDC6
:1010D8000220704790F82834012B0DD010B5044633
:1010E800012380F8283480F82410006801F09CFF60
:1010F800002084F8280410BD0220704738B54DB28E
:10110800002D1CDB01F07F04640104F50A7404441B
:1011180001F07F012170ED0F65702261E37090F896
:101128002834012B11D00546012380F828342146A4
:10113800006801F083FC002085F8280438BD01F020
:101148007F04640128340444E2E70220F6E74AB247
:10115800002A1BDB01F07F035B0103F50A730344DC
:1011680001F07F011970D20F5A7090F82824012AD3
:1011780012D010B50446012280F8282419460068C8
:1011880001F0F0FD002084F8280410BD01F07F0371
:101198005B0128330344E3E70220704770B501F090
:1011A8007F056C0104F50A7101440444C4F83C222B
:1011B80005F112025201861883500023736084F8E7
:1011C800293284F8285225B1006801F051FF002027
:1011D80070BD006801F04CFFF9E701F00F01123112
:1011E80000EB41118888704770B501F07F056C01EC
:1011F80004F1280101440444E263AA1C5201861840
:10120800835000237360012384F8293084F8285020
:1012180025B1006801F02CFF002070BD006801F0C6
:1012280027FFF9E770B582B004460023ADF8063011
:10123800ADF804302068B0F844309BB2ADF8063001
:1012480013F4004F00F00D82BDF8065015F00F059D
:1012580040F0C280BDF8063013F0100F50D003885C
:101268009BB2ADF80430BDF8043013F4006F79D1A7
:10127800BDF8043013F4004FDCD0038823F070036A
:101288001B051B0D03802068B0F8503094F8282205
:1012980003EBC203063300EB4303D3F80034C3F374
:1012A8000903C4F84432002B7CD10021204604F005
:1012B80045F82368B3F85020063203EB4203D4F80C
:1012C80038123E297CD9C1F34F1211F01F0F01D1FA
:1012D800013A92B26FEAC2626FEA524292B2C3F81E
:1012E8000024226813889BB223F4804323F0700300
:1012F80083F4405343F4004343F08003138099E799
:1013080003889BB223F4E14323F070039BB203806C
:101318002268B2F8503094F8281003EBC103023366
:1013280002EB4303D3F80034C3F309036364E26BAD
:101338001344E3630021204604F00AF894F82430AB
:10134800002B3FF477AF236C002B7FF473AF94F836
:101358002430226843F08003A2F84C30002384F83C
:10136800243067E7B0F8503094F8282203EBC20322
:10137800063300EB4303D3F80034C3F30903C4F87E
:101388004432B4F82C2204F22C4101F0CEFF22683A
:10139800138823F070031B051B0D1380204603F0F0
:1013A800C5FF47E7B4F82C22D4F83C1201F0BDFF82
:1013B800D4F84422D4F83C321344C4F83C3274E7DD
:1013C800C1F34F0211F0010F01D0013292B2920223
:1013D80092B2C3F8002484E730F825309BB2ADF808
:1013E8000430BDF8043013F4004F35D1BDF8043093
:1013F80013F0800F3FF41EAF226832F825309BB2FD
:1014080023F4E14323F070039BB222F8253004EB68
:10141800451393F83230002B40F0B2802068B0F8C2
:10142800503004EB451292F8282003EBC203023334
:1014380000EB4303D3F80034C3F30903AA1C04EBFD
:1014480042125360002B00F0C68004EB45118A8DD0
:10145800C96B01F0F8FDBEE030F8253023F07003C9
:101468001B051B0D20F8253004EB451393F8323289
:10147800D3B92068B0F8503004EB451292F828220E
:1014880003EBC203063300EB4303B3F80064C6F36F
:10149800090686B304EB45113346B1F82C22D1F87E
:1014A8003C1201F042FF26E0206804EB451393F854
:1014B800282230F8223013F4804F42D0B0F8503050
:1014C80003EBC203023300EB4303B3F80064C6F333
:1014D800090666BB226804EB451393F8281232F814
:1014E800213023F0F0031B051B0D43F4004343F0A8
:1014F800C00322F8213005F112035B01E1184A68A4
:1015080032444A6004EB4511D1F83C223244C1F818
:101518003C22E3581BB1D1F838128E4228D204EB92
:10152800451393F82812204603F008FF5EE704EB02
:1015380045113346B1F82E22D1F83C1201F0F5FEE0
:10154800C8E7B0F8503003EBC203063300EB43039F
:10155800B3F80064C6F30906002EBBD004EB4511AE
:101568003346B1F83022D1F83C1201F0DEFEB1E783
:1015780004EB451191F828122046FFF70FFE35E7D6
:10158800206804EB451393F8282030F8223013F034
:10159800400F46D0B0F8503003EBC203023300EBE3
:1015A8004303D3F80034C3F30903AA1C04EB421223
:1015B80053607BBB226804EB451393F8281032F87C
:1015C800213023F0F0031B051B0D43F4404343F087
:1015D800800322F821302268B2F8503004EB45101D
:1015E80090F8281003EBC103023302EB4303D3F84E
:1015F8000024C2F30902AB1C5B01E1184A60C16B0D
:101608000A44C263E35823BB90F82810204603F02D
:101618009FFE0FE604EB4511CA8DC96B01F013FD5F
:10162800C8E7B0F8503003EBC203063300EB4303BE
:10163800D3F80034C3F30903AA1C04EB4212536025
:10164800002BB7D004EB45110A8EC96B01F0FBFCE7
:10165800B0E704EB451595F828102046FFF7C4FDC0
:10166800E8E5002002B070BD10B50446006801F03E
:10167800E5FC10F4004F45D1206801F0DFFC10F4C0
:10168800806F43D1206801F0D9FC10F4804F08D056
:101698002268B2F844309BB223F480439BB2A2F88C
:1016A8004430206801F0CAFC10F4005F08D02268BA
:1016B800B2F844309BB223F400539BB2A2F84430F2
:1016C800206801F0BBFC10F4805F30D1206801F085
:1016D800B5FC10F4006F49D1206801F0AFFC10F49C
:1016E800007F64D1206801F0A9FC10F4807F08D045
:1016F8002268B2F844309BB223F480739BB2A2F8FC
:10170800443010BD2046FFF78DFDB5E72268B2F8DA
:1017180044309BB223F480639BB2A2F84430204645
:1017280003F025FE00212046FFF7D4FCAAE7226833
:10173800B2F840309BB223F004039BB2A2F84030C9
:101748002268B2F840309BB223F008039BB2A2F89B
:101758004030204603F028FE2268B2F844309BB29D
:1017680023F480539BB2A2F84430AFE72268B2F862
:10177800403043F00803A2F840302268B2F8443001
:101788009BB223F400639BB2A2F844302268B2F8FB
:10179800403043F00403A2F84030206801F04EFCCA
:1017A80010F4805F98D1204603F0EEFD94E722689C
:1017B800B2F844309BB223F400739BB2A2F84430D1
:1017C800204603F0CEFD8DE738B54AB2002A1BDB70
:1017D8004B0103F50A73034401249C7001F07F0553
:1017E8001D70D20F5A7090F82824A24218D00446CF
:1017F800012280F828241946006801F095FB4DB1B4
:10180800002084F8280438BD01F07F035B012833E9
:101818000344E1E704F22C41206801F012FCEFE7F1
:101828000220F0E710B54AB2002A1ADB4B0103F593
:101838000A73034400249C7001F07F011970D20FD1
:101848005A7090F82824012A11D00446012280F801
:1018580028241946006801F09EFB002084F828041B
:1018680010BD01F07F035B0128330344E2E7022047
:10187800F6E711F0800F0CD001F07F014901283103
:1018880001445AB101228A72CB801B0C0B810020C3
:101898007047490101F50A710144F2E78A728B80A9
:1018A800F5E7000082B0084B1B68084AA2FB032337
:1018B8005B0A00FB03F0019000BF019B5A1E0192D6
:1018C800002BF9D102B0704730010020D34D6210CF
:1018D80070B582B00446036813F0010F2CD0AB4BEF
:1018E8005B6803F00C03042B1DD0A84B5B6803F066
:1018F8000C03082B12D06368B3F5803F41D0002B4E
:1019080055D103F1804303F504331A6822F4803279
:101918001A601A6822F480221A6037E09B4B5B68D1
:1019280013F4803FE7D0994B1B6813F4003F03D0B2
:101938006368002B00F0AE81236813F0020F76D0A5
:10194800924B5B6813F00C0F5FD0904B5B6803F011
:101958000C03082B54D02369002B00F08A808C4B91
:1019680001221A60FFF78AF90546884B1B6813F0B5
:10197800020F75D1FFF782F9401B0228F5D9032021
:101988008BE1824A136843F480331360636843B37E
:10199800FFF774F905467D4B1B6813F4003FCBD164
:1019A800FFF76CF9401B6428F5D9032075E1B3F5FE
:1019B800A02F09D0754B1A6822F480321A601A6871
:1019C80022F480221A60E1E703F18043A3F53C3357
:1019D8001A6842F480221A601A6842F480321A6047
:1019E800D4E7FFF74BF90546684B1B6813F4003F33
:1019F800A2D0FFF743F9401B6428F5D903204CE136
:101A0800624B5B6813F4803FA5D1604B1B6813F0F1
:101A1800020F04D02369012B01D001203DE15B4A6C
:101A2800136823F0F803616943EAC103136023686C
:101A380013F0080F32D0A369002B5BD0554B01225D
:101A48001A60FFF71BF90546504B5B6A13F0020F4B
:101A580021D1FFF713F9401B0228F5D903201CE117
:101A68004A4A136823F0F803616943EAC103136023
:101A7800DDE7474B00221A60FFF700F90546434BA4
:101A88001B6813F0020FD2D0FFF7F8F8401B0228AA
:101A9800F5D9032001E10120FFF704FF236813F0C3
:101AA800040F00F09780394BDB6913F0805F33D166
:101AB800364BDA6942F08052DA61DB6903F0805311
:101AC8000193019B0125344B1B6813F4807F25D0BB
:101AD800E368012B36D0002B4CD103F1804303F58A
:101AE80004331A6A22F001021A621A6A22F0040206
:101AF8001A622CE0274B00221A60FFF7BFF8054650
:101B0800224B5B6A13F0020FC8D0FFF7B7F8401BEF
:101B18000228F5D90320C0E00025D4E71E4A13683F
:101B280043F480731360FFF7A9F806461A4B1B6845
:101B380013F4807FCCD1FFF7A1F8801B6428F5D976
:101B48000320AAE0114A136A43F001031362E36811
:101B580073B3FFF793F806460C4B1B6A13F0020F9A
:101B680037D1FFF78BF8801B41F288339842F3D9BD
:101B7800032092E0052B11D0044B1A6A22F00102CF
:101B88001A621A6A22F004021A62E0E700100240A0
:101B9800000042428004424200700040414B1A6AF1
:101BA80042F004021A621A6A42F001021A62CEE78F
:101BB800FFF764F806463B4B1B6A13F0020F08D088
:101BC800FFF75CF8801B41F288339842F3D9032071
:101BD80063E0E5B9E369002B5ED0324A526802F04F
:101BE8000C02082A5BD0022B17D02F4B00221A6058
:101BF800FFF744F804462B4B1B6813F0007F47D0CF
:101C0800FFF73CF8001B0228F5D9032045E0254AD8
:101C1800D36923F08053D361DCE7234B00221A6099
:101C2800FFF72CF805461F4B1B6813F0007F06D002
:101C3800FFF724F8401B0228F5D903202DE0236A7A
:101C4800B3F5803F1AD017494B6823F47413226AFE
:101C5800606A024313434B60134B01221A60FFF77B
:101C68000DF804460F4B1B6813F0007F0ED1FFF7E9
:101C780005F8001B0228F5D903200EE0094A53682D
:101C880023F40033A1680B435360DCE7002004E031
:101C9800002002E0012000E0002002B070BD012019
:101CA800FBE700BF0010024060004242014B0122E6
:101CB8001A6070474C00424210B487B0164C94E842
:101CC8000F000DF1180C0CE90F00238AADF8043051
:101CD800124B5B6803F00C02082A1AD1C3F3834243
:101CE800624412F8102C13F4803F05D10C4800FB15
:101CF80002F007B010BC7047084B5B68C3F3404361
:101D0800634413F8143C074800FB02F0B0FBF3F0FF
:101D1800EFE70448EDE700BF8877000800100240AD
:101D280000093D0000127A00594B1B6803F00703B5
:101D38008B420CD2564A136823F007030B431360F7
:101D4800136803F007038B4201D00120704770B578
:101D5800036813F0020F06D04E4A536823F0F003CD
:101D68008468234353600C460546036813F0010F4B
:101D780052D04368012B23D0022B28D0454A126841
:101D880012F0020F00F0828042494A6822F00302F2
:101D980013434B60FEF772FF06466B68012B1DD09C
:101DA800022B2AD03B4B5B6813F00C0F34D0FEF7A4
:101DB80065FF801B41F288339842F3D9032064E021
:101DC800344A126812F4003FDED101205DE0314A46
:101DD800126812F0007FD7D1012056E02D4B5B68C6
:101DE80003F00C03042B17D0FEF748FF801B41F2C9
:101DF80088339842F2D9032047E0264B5B6803F00A
:101E08000C03082B08D0FEF739FF801B41F28833FA
:101E18009842F2D9032038E01D4B1B6803F00703F2
:101E2800A3420CD91A4A136823F00703234313600B
:101E3800136803F00703A34201D0012025E02B68B3
:101E480013F0040F06D0134A536823F4E063E968DB
:101E58000B4353602B6813F0080F07D00D4A5368E3
:101E680023F46053296943EAC1035360FFF724FF51
:101E7800084B5B68C3F30313074AD35CD840074B8E
:101E880018600020FEF7B8FE002070BD0120FCE7B6
:101E98000020024000100240EC9F000830010020A2
:101EA800014B1868704700BF3001002070470000E0
:101EB80008B5064B9B6813F0800F00D108BDFFF7EB
:101EC800F5FF034B80221A70F8E700BF00100240AC
:101ED8000A10024070B582B00446036813F0010F7F
:101EE80034D03E4BDB6913F0805F48D13B4BDA6955
:101EF80042F08052DA61DB6903F080530193019B61
:101F08000125374B1B6813F4807F3AD0334B1B6A8B
:101F180013F4407311D0626802F440729A420CD0F4
:101F28002E4A136A23F440702E4901260E600026BB
:101F38000E60106213F0010F37D1284A136A23F498
:101F4800407361680B431362002D3FD1236813F07F
:101F5800020F06D0214A536823F44043A1680B437B
:101F68005360236813F0100F35D01C4A536823F4CC
:101F7800800361690B435360002002B070BD0025E7
:101F8800BFE7174A136843F480731360FEF776FEC1
:101F98000646134B1B6813F4807FB7D1FEF76EFE1D
:101FA800801B6428F5D90320E7E7FEF767FE06469D
:101FB8000A4B1B6A13F0020FBFD1FEF75FFE801BAE
:101FC80041F288339842F3D90320D6E7D36923F046
:101FD8008053D361BAE70020CFE700BF001002406A
:101FE8000070004040044242F8B505460F461646C8
:101FF8001C463BE02CB1FEF741FE069BC01AA042EE
:1020080034D32A68536823F0E00353606B68B3F550
:10201800827F0BD0AB6AB3F5005F14D0012385F83B
:102028005130002385F85030032027E0AB68B3F522
:10203800004F02D0B3F5806FECD12A68136823F003
:1020480040031360E6E72A68136823F400531B046F
:102058001B0C13602A68136843F400531360DDE710
:102068000123B34209D0B4F1FF3FC3D12B689B6869
:1020780037EA0303F4D00023F3E70020F8BD10B5D6
:1020880082B0044600920B4600228021FFF7ACFF85
:10209800034610B9184602B010BD636D43F0200323
:1020A80063650323F6E72DE9F04184B01E4690F8F6
:1020B8005030012B00F0C88004460D46904601239D
:1020C80080F85030FEF7DAFD074694F85130DBB25D
:1020D800012B0AD00223012284F85120002284F81F
:1020E8005020184604B0BDE8F081002D00F0A4800F
:1020F800B8F1000F00F0A280032384F851300023C8
:1021080063652563A4F83480A4F83680A363A387A5
:10211800E38763642364A368B3F5004F1BD0236887
:102128001A6812F0400F03D11A6842F040021A6090
:10213800E368B3F5006F14D063681BB1E38E9BB2FC
:10214800012B3ED1236815F8012B1A73E38E013B4E
:102158009BB2E38635E02268136843F4804313603A
:10216800DDE763681BB1E38E9BB2012B0DD12368B9
:1021780035F8022BDA60E38E013B9BB2E38604E07C
:10218800002E5DD0B6F1FF3F0FD1E38E9BB27BB33B
:1021980023689A6812F0020FF2D035F8022BDA6041
:1021A800E38E013B9BB2E386EFE7FEF767FDC01BBA
:1021B800B042EAD303238EE7002E43D0B6F1FF3FA7
:1021C8000FD1E38E9BB29BB123689A6812F0020F7D
:1021D800F2D015F8012B1A73E38E013B9BB2E3860C
:1021E800EFE7FEF74BFDC01BB042EAD3032372E7CB
:1021F80000973346012202212046FFF7F5FE08B179
:10220800032368E73A4631462046FFF738FF03467E
:1022180018B12023636501235DE7A26832B90392F0
:102228002268D168039192680392039A626D002A2A
:102238003FF451AF01234EE701234CE701234AE75E
:10224800032348E7032346E702234AE72DE9F0433F
:1022580085B099460C9D90F85030012B00F0108104
:1022680004460F461646012380F85030FEF706FD57
:10227800804694F85130DBB26268012B15D0B2F574
:10228800827F0AD00223012284F85120002284F898
:102298005020184605B0BDE8F083A268002A40F037
:1022A800E780042B01D00223EDE7002F00F0E28045
:1022B800002E00F0E180B9F1000F00F0DF8094F803
:1022C8005130DBB2012B2BD000236365A663A4F841
:1022D8003E90A4F83C902763A4F83690A4F8349074
:1022E8002364636423681A6812F0400F03D11A68E4
:1022F80042F040021A60E368B3F5006F14D06368D7
:102308001BB1E38E9BB2012B07D1236817F8012B71
:102318001A73E38E013B9BB2E3864FF0010961E03B
:10232800052384F85130CFE763681BB1E38E9BB275
:10233800012B07D1236837F8022BDA60E38E013BC3
:102348009BB2E3864FF0010913E0E38F9BB26BB1B8
:1023580023689A6812F0010F08D0DB6826F8023B60
:10236800E38F013B9BB2E3874FF00109B5F1FF3FD3
:102378001CD1E38E9BB21BB9E38F9BB2002B55D0C7
:10238800B9F1000FE1D0E38E9BB2002BDDD02368BA
:102398009A6812F0020FD8D037F8022BDA60E38E71
:1023A800013B9BB2E3864FF00009CEE7FEF766FCDF
:1023B800A0EB0800A842DCD3032364E7E38F9BB2B9
:1023C8006BB123689A6812F0010F08D0DB6833708C
:1023D800E38F013B9BB2E38701364FF00109B5F16A
:1023E800FF3F1BD1E38E9BB213B9E38F9BB2EBB1D6
:1023F800B9F1000FE2D0E38E9BB2002BDED0236848
:102408009A6812F0020FD9D03A781A73E38E013B1A
:102418009BB2E38601374FF00009CFE7FEF72EFCA9
:10242800A0EB0800A842DDD303232CE7CDF80080F9
:102438002B46012202212046FFF7D6FD08B10323CF
:1024480021E7424629462046FFF719FE034618B100
:1024580020236365012316E7A268002A7FF413AFDF
:1024680003922268D168039192680392039A0AE75B
:10247800022308E7012306E7012304E7012302E713
:10248800022306E72DE9F04182B004460D461746BF
:102498001E464368B3F5827F19D094F85030012B5B
:1024A80000F0A280012384F85030FEF7E7FB804655
:1024B80094F85130DBB2012B15D00220012384F8A7
:1024C8005130002384F8503002B0BDE8F0818368B1
:1024D800002BE2D1042380F85130009613460A46B7
:1024E800FFF7B4FEF0E7002D74D0002F74D004235A
:1024F80084F8513000236365A563A787E7872363C2
:10250800A386E38623646364A368B3F5004F0BD006
:1025180023681A6812F0400F03D11A6842F040028B
:102528001A60E3685BB128E02268136823F48043EB
:102538001360EDE7002E51D0B6F1FF3F10D1E38FC5
:102548009BB2002B31D023689A6812F0010FF1D0AA
:102558001B7B05F8013BE38F013B9BB2E387EEE76A
:10256800FEF78CFBA0EB0800B042E8D30320A5E7F8
:10257800002E35D0B6F1FF3F0FD1E38F9BB2A3B148
:1025880023689A6812F0010FF2D0DB6825F8023B45
:10259800E38F013B9BB2E387EFE7FEF76FFBA0EB0E
:1025A8000800B042E9D3032088E76368B3F5827F67
:1025B80003D0636DB3B9002080E7A368B3F5004F7B
:1025C80002D0B3F5806FF4D12268136823F040037A
:1025D8001360EEE7012071E701206FE703206DE744
:1025E80003206BE7012069E702206DE700283CD053
:1025F80010B504460023836290F85130002B31D087
:10260800022384F851302268136823F040031360D2
:102618006368A2681343E26813432269134362693B
:102628001343A26902F400721343E2691343226A56
:102638001343A16A22680B431360638B03F00403FE
:10264800616A22680B4353602368E26A1A61226850
:10265800D36923F40063D36100206065012384F803
:10266800513010BD02F038FACAE7012070477047B0
:10267800704770477047704710B5044603681A6979
:1026880012F0020F11D0DA6812F0020F0DD06FF0BD
:1026980002021A610123037703689B6913F0030F91
:1026A80070D0FFF7E6FF0023237723681A6912F03A
:1026B800040F12D0DA6812F0040F0ED06FF0040283
:1026C8001A610223237723689B6913F4407F5FD044
:1026D8002046FFF7CEFF0023237723681A6912F0FC
:1026E800080F12D0DA6812F0080F0ED06FF0080247
:1026F8001A61042323772368DB6913F0030F4ED094
:102708002046FFF7B6FF0023237723681A6912F0E3
:10271800100F12D0DA6812F0100F0ED06FF01002FE
:102728001A61082323772368DB6913F4407F3DD0BF
:102738002046FFF79EFF0023237723681A6912F0CB
:10274800010F03D0DA6812F0010F36D123681A6935
:1027580012F0800F03D0DA6812F0800F34D12368AA
:102768001A6912F0400F03D0DA6812F0400F32D124
:1027780023681A6912F0200F03D0DA6812F0200FCC
:1027880030D110BDFFF774FF2046FFF773FF8AE7CB
:102798002046FFF76DFF2046FFF76CFF9BE72046BA
:1027A800FFF766FF2046FFF765FFACE72046FFF717
:1027B8005FFF2046FFF75EFFBDE76FF001021A6179
:1027C8002046FFF754FFC1E76FF080021A612046E8
:1027D80000F002F9C3E76FF040021A612046FFF7E4
:1027E8004AFFC5E76FF020021A61204600F0F3F8AF
:1027F800C7E700000368244A904212D002F500623D
:1028080090420ED0B0F1804F0BD0A2F59832904292
:1028180007D002F58062904203D002F580629042B0
:1028280003D123F070034A681343174A904212D029
:1028380002F5006290420ED0B0F1804F0BD0A2F5A5
:102848009832904207D002F58062904203D002F598
:102858008062904203D123F44073CA68134323F083
:1028680080034A69134303608B68C3620B68836201
:10287800054B984203D003F50063984201D10B69D8
:102888000363012343617047002C0140002847D0AF
:10289800F8B505460C4690F83D30002B3BD0022396
:1028A80085F83D30294651F8042B936823F0070337
:1028B80093602868FFF79EFF29688A688E690F6A07
:1028C8002068104326F4407626F00306A268A36920
:1028D80042EA0323334323F47C4323F0FC03E668F2
:1028E800E26946EA02261E43226A1303226943EA82
:1028F8000213334327F0AA076268646942EA0412A4
:102908003A43886029688B612B681A62012385F82D
:102918003D300020F8BD80F83C3002F057F9BEE7A2
:102928000120704710B4012303FA01F4036A23EA73
:1029380004030362036A8A401343036210BC7047AE
:1029480010B5044661B1042916D00122002100689F
:10295800FFF7E8FF012204212068FFF7E3FF04E006
:10296800012200210068FFF7DDFF2268136843F0A9
:1029780001031360002010BD012204210068FFF745
:10298800D1FFF2E790F83C30012B22D030B401227D
:1029980080F83C20022380F83D300468636823F007
:1029A80070036360046863680D682B4363600468A0
:1029B800A36823F08003A3600468A36849680B43F5
:1029C800A36080F83D20002380F83C30184630BCD6
:1029D8007047022070477047704784B001A880E8AC
:1029E8000E00002004B07047B0F8403043F43F4375
:1029F800A0F8403000207047B0F8403023F47453FA
:102A08005B045B0CA0F84030002070470020704742
:102A180084B038B505AC84E80E000123A0F8403036
:102A28000024A0F84040A0F84440A0F85040FFF728
:102A3800DBFF2046BDE8384004B0704710B4CB78BF
:102A4800032B0FD8DFE803F0026D54600A7830F8E2
:102A580022309BB223F4EC4323F0700343F4007359
:102A680020F822300A7830F8223023F0F0031B05D2
:102A78001B0D134343F4004343F0800320F8223036
:102A88008B7A002B40F0AF804B78002B56D08A8889
:102A98005208B0F850300C7803EBC40300EB430342
:102AA8005200C3F800240A7830F8223013F0400F9F
:102AB8000BD030F8223023F0F0031B051B0D43F434
:102AC800004343F0C00320F822300A7830F822305F
:102AD8009BB223F4E04323F0400383F0200343F444
:102AE800004343F0800320F82230002010BC7047D8
:102AF8000A7830F822309BB223F4EC4323F07003B9
:102B08009BB220F82230ADE70A7830F822309BB229
:102B180023F4EC4323F0700343F4C06320F822301D
:102B2800A0E70A7830F822309BB223F4EC4323F074
:102B3800700343F4806320F8223093E78A885208B0
:102B4800B0F850300C7803EBC403043300EB4303B4
:102B58005200C3F80024B0F850300A7803EBC203DF
:102B6800063300EB43030C693E2C30D9C4F34F12F3
:102B780014F01F0F01D1013A92B26FEAC2626FEAF4
:102B8800524292B2C3F800240A7830F8223013F483
:102B9800804F0BD030F8223023F0F0031B051B0DBB
:102BA80043F4404343F0800320F822300A7830F899
:102BB80022309BB223F4804323F0700383F4405304
:102BC80043F4004343F0800320F822308DE7C4F338
:102BD8004F0214F0010F01D0013292B2920292B268
:102BE800C3F80024D0E70A7830F8223023F4F873C9
:102BF8001B051B0D43F4014343F0800320F82230EA
:102C0800CA885208B0F850300C7803EBC40300EBC4
:102C180043035200C3F800240A895208B0F8503020
:102C28000C7803EBC403043300EB43035200C3F8EE
:102C380000244B78002B4BD10A7830F8223013F45B
:102C4800804F0BD030F8223023F0F0031B051B0D0A
:102C580043F4404343F0800320F822300A7830F8E8
:102C6800223013F0400F0BD030F8223023F0F0035D
:102C78001B051B0D43F4004343F0C00320F822302A
:102C88000A7830F8223023F0F0031B051B0D43F4BB
:102C9800004343F0C00320F822300A7830F822308D
:102CA8009BB223F4804323F0700383F4405348F22B
:102CB8008004234320F822300A7830F822309BB26F
:102CC80023F4E04323F04003234320F822300CE7A9
:102CD8000A7830F8223013F4804F0BD030F82230C5
:102CE80023F0F0031B051B0D43F4404343F080031E
:102CF80020F822300A7830F8223013F0400F0BD039
:102D080030F8223023F0F0031B051B0D43F4004379
:102D180043F0C00320F822300A7830F8223023F03C
:102D2800F0031B051B0D43F4404343F0800320F8D8
:102D380022300B7830F8232092B222F4E04222F0BD
:102D4800400248F28004224320F823200A7830F811
:102D580022309BB223F4804323F07003234320F8EE
:102D68002230C2E68B7A002B44D14B780BB30A7819
:102D780030F8223013F0400F0BD030F8223023F017
:102D8800F0031B051B0D43F4004343F0C00320F878
:102D980022300A7830F822309BB223F4E04323F043
:102DA800400343F4004343F0800320F8223000201E
:102DB80070470A7830F8223013F4804F0BD030F87F
:102DC800223023F0F0031B051B0D43F4404343F06E
:102DD800800320F822300A7830F822309BB223F49E
:102DE800804323F0700343F4004343F0800320F84A
:102DF8002230DCE710B44B78002B4BD10A7830F83E
:102E0800223013F4804F0BD030F8223023F0F00337
:102E18001B051B0D43F4404343F0800320F8223088
:102E28000A7830F8223013F0400F0BD030F82230F7
:102E380023F0F0031B051B0D43F4004343F0C003CC
:102E480020F822300A7830F8223023F0F0031B05EE
:102E58001B0D43F4004343F0C00320F822300B78E5
:102E680030F8232092B222F4804222F0700248F215
:102E78008004224320F823200A7830F822309BB2BD
:102E880023F4E04323F04003234320F822300020BA
:102E980010BC70470A7830F8223013F4804F0BD0FA
:102EA80030F8223023F0F0031B051B0D43F4404398
:102EB80043F0800320F822300A7830F8223013F0EB
:102EC800400F0BD030F8223023F0F0031B051B0D08
:102ED80043F4004343F0C00320F822300A7830F866
:102EE800223023F0F0031B051B0D43F4404343F04D
:102EF800800320F822300B7830F8232092B222F495
:102F0800E04222F0400248F28004224320F82320C5
:102F18000A7830F822309BB223F4804323F0700300
:102F2800234320F82230B2E70A788AB14B7813BBE2
:102F380030F822309BB223F4804323F0700383F4EB
:102F4800805343F4004343F0800320F8223010E01C
:102F580030F822309BB223F4804323F0400383F4FB
:102F6800805383F0100343F4004343F0800320F8B8
:102F780022300020704730F822309BB223F4E0431F
:102F880023F0400383F0100343F4004343F080032D
:102F980020F82230EDE74B781BB30A7830F822305E
:102FA80013F0400F0BD030F8223023F0F0031B054C
:102FB8001B0D43F4004343F0C00320F822300A7885
:102FC80030F822309BB223F4E04323F0400383F02F
:102FD800300343F4004343F0800320F822300020FC
:102FE80070470A7830F8223013F4804F0BD030F84D
:102FF800223023F0F0031B051B0D43F4404343F03C
:10300800800320F822300A7830F822309BB223F46B
:10301800804323F0700383F4405343F4004343F0A8
:10302800800320F82230DAE711B98023A0F84C3069
:10303800002070470020704700207047B0F8440017
:1030480070470020704701335B1000EB420202F525
:10305800806263B110B40C78487844EA002422F8FE
:10306800044B0231013B002BF5D110BC704770476F
:10307800F8B58A694D78012D34D00B69934280F0F8
:10308800EA80D21A8A618A7A002A40F0F480B0F87D
:1030980050200C7802EBC402063200EB42023E2BB1
:1030A80040F2DD80C3F34F1413F01F0F01D1013C30
:1030B800A4B26FEAC4646FEA5444A4B2C2F80044EC
:1030C8000A7830F822309BB223F4804323F070034F
:1030D80083F4405343F4004343F0800320F8223044
:1030E8000020F8BD0F69974225D2D21B8A610E468F
:1030F80004468B7A1BB30B7830F8232012F0400F6C
:1031080069D0002D37D1B0F8502002EBC303063345
:1031180000EB43033E2F22D9C7F34F1217F01F0FBE
:1031280001D1013A92B26FEAC2626FEA524292B298
:10313800C3F8002428E000238B611746D7E7BBB209
:103148008A884969FFF77FFFB4F85030327803EB7B
:10315800C203023304EB4303C3F800742AE0C7F345
:103168004F0217F0010F01D0013292B2920292B2CF
:10317800C3F8002408E0B0F8502002EBC303023380
:1031880000EB4303C3F800743289BBB2716920466F
:10319800FFF759FF7378002B4DD1327834F822307D
:1031A80023F0F0031B051B0D43F4004343F0C00359
:1031B80024F82230327834F822309BB223F4E043EA
:1031C80023F0400383F0300343F4004343F08003CB
:1031D80024F8223084E71DBBB0F8502002EBC3036B
:1031E800023300EB43033E2F0ED9C7F34F1217F0FB
:1031F8001F0F01D1013A92B26FEAC2626FEA5242DE
:1032080092B2C3F8002414E0C7F34F0217F0010F7D
:1032180001D0013292B2920292B2C3F8002408E0BF
:10322800B0F8502002EBC303023300EB4303C3F8AA
:103238000074F288A9E7012BBCD1327834F8223027
:1032480023F0F0031B051B0D43F4404343F08003B8
:1032580024F82230AEE700238B61134613E7C3F34B
:103268004F0413F0010F01D00134A4B2A402A4B298
:10327800C2F8004424E7BDB9B0F850200C7802EB3E
:10328800C402023200EB42023E2B28D9C3F34F148A
:1032980013F01F0F01D1013CA4B26FEAC4646FEAB6
:1032A8005444A4B2C2F800444A7882BBB0F8502013
:1032B8000C7802EBC402063200EB42023E2B1AD90C
:1032C800C3F34F1413F01F0F01D1013CA4B26FEAEE
:1032D800C4646FEA5444A4B2C2F80044F0E6C3F3ED
:1032E8004F0413F0010F01D00134A4B2A402A4B218
:1032F800C2F80044D8E7C3F34F0413F0010F01D01C
:103308000134A4B2A402A4B2C2F80044D8E6012A47
:103318007FF4D6AEB0F850200C7802EBC40202322B
:1033280000EB4202C2F80034CAE601335B1000EB3E
:10333800420202F5806204E0106821F8020B013BAA
:103348000432002BF8D17047D0F818321BB1002096
:10335800C3F8140270470220704710B5D0F818421D
:10336800D0F81C325BB194F80002FF2807D09B68A4
:1033780094F8012221469847FF2384F80032002060
:1033880010BD000043230380004870470800002058
:1033980043230380004870474C00002043230380E8
:1033A80000487047900000200A23038000487047B7
:1033B800D400002038B50446D0F8185202F0CAF8F4
:1033C800C5F80C02D4F818324BB1D4F81C32DB68BB
:1033D80005F50371D5F804029847002038BD02208E
:1033E800FCE7000070B505460C46D0F818620B786B
:1033F80013F0600225D0202A07D1CA883AB9D0F83C
:103408001C329B68002248789847002070BD13F052
:10341800800F0BD0D0F81C329B68314660789847F3
:10342800E2883146284600F059FCEEE74B7886F8EA
:103438000032CB8886F80132CA88314600F063FC36
:10344800E3E74B780A2BE0D10122024900F046FC61
:10345800DBE700BF6403002010B50446812102F0B9
:1034680012F80121204602F00EF88221204602F0CF
:103478000AF8D4F8183253B1D4F81C325B6898476C
:10348800D4F8180202F070F80023C4F818320020AB
:1034980010BD38B50446037C73BB4FF40073022299
:1034A800812101F0DFFF4FF4007302220121204641
:1034B80001F0D8FF082303228221204601F0D2FF21
:1034C8004FF4077002F04CF80546C4F8180248B3E8
:1034D800D4F81C321B6898470023C5F81432C5F885
:1034E8001832237CA3B14023D5F8042201212046B9
:1034F80002F022F8002038BD40230222812101F089
:10350800B1FF402302220121204601F0ABFFD1E7A1
:103518004FF40073D5F804220121204602F00CF87C
:103528000020E8E70120E6E719B1C0F81C120020E6
:10353800704702207047D0F81832C3F80812C3F851
:10354800102200207047D0F81832C3F80412002067
:103558007047D0F818229AB108B5037C3BB14023D4
:10356800D2F80422012101F0E7FF002008BD4FF442
:103578000073D2F80422012101F0DEFF0020F5E7F4
:103588000220704798B108B50346D0F8140210B16C
:103598000020C3F8140209B1C3F810121846012319
:1035A80080F8FC31027001F005FF002008BD022000
:1035B800704719B1C0F814120020704702207047F4
:1035C80008B501F041FF002008BD08B5D0F8143255
:1035D80033B11B68984708B9002008BD0220FCE7F2
:1035E8000220FAE708B5D0F814325B689847002043
:1035F80008BD38B5044600F50275284600F00CF9F8
:103608000123C4F8F431B4F80E32C4F8F83194F850
:10361800081201F01F03012B0ED03BB1022B10D072
:1036280001F08001204601F03CFF03E029462046D6
:1036380000F06BFA002038BD2946204600F089FAD0
:10364800F8E72946204600F0A0FAF3E710B504464B
:1036580021BB1346D0F8F421032A01D0002010BD65
:10366800D0F80C11D0F8102191420CD8D0F81432AF
:103678001B6923B190F8FC21032A00D19847204602
:1036880000F058FBEAE7891AC0F80C118A4228BFF3
:103698000A4692B2194600F045FBDFE70A46D0F821
:1036A80014329B69002BD9D090F8FC110329D5D18D
:1036B80011469847D2E710B50446002946D113466B
:1036C800D0F8F421022A05D094F80032012B39D021
:1036D800002010BDC169026A914219D88169B1FB05
:1036E800F2F302FB13132BB98A4203D8D0F8F8314E
:1036F80099421AD3D4F81432DB682BB194F8FC2120
:10370800032A01D120469847204600F01EFBDBE73C
:103718008A1AC26192B2194600F0EDFA00231A46DD
:103728001946204601F008FFCEE70022114600F0B6
:10373800E2FA0021C4F8F8110B460A46204601F0C7
:10374800FBFEC1E7002384F80032C1E70A46D0F83F
:1037580014325B69002BBBD090F8FC110329B7D158
:1037680011469847B4E738B504464023002211466D
:1037780001F078FE4025C4F810512B460022802124
:10378800204601F06FFE2562012384F8FC31D4F84D
:1037980018322BB1D4F814325B6821792046984747
:1037A800002038BD01740020704790F8FC3180F883
:1037B800FD31042380F8FC310020704790F8FD317A
:1037C80080F8FC310020704708B590F8FC31032BD5
:1037D80001D0002008BDD0F81432DB69002BF8D0E6
:1037E8009847F6E7002302E00133DBB201300278A4
:1037F800002AF9D1184670474B88012B0BD110B518
:103808000446C0F80432D0F814329B689847204622
:1038180000F090FA10BD70470B7803704B78437036
:103828008B78CA7803EB022343800B794A7903EB40
:10383800022383808B79CA7903EB0223C380704704
:1038480010B50446802101F02CFE0021204601F02D
:1038580028FE10BD30B583B004460D464A88130AC9
:10386800013B062B00F28180DFE803F00413277F79
:103878007F637000D0F810321B680DF10601007CE0
:103888009847BDF8062012B1EB88002B71D103B020
:1038980030BD037C43B9D0F814329B6A0DF10600A1
:1038A800984702234370ECE7D0F81432DB6A0DF135
:1038B8000600984702234370E3E7D2B2052A34D8BA
:1038C800DFE802F0030B131B232BD0F810325B68E0
:1038D8000DF10601007C9847D3E7D0F810329B68B9
:1038E8000DF10601007C9847CBE7D0F81032DB6871
:1038F8000DF10601007C9847C3E7D0F810321B6928
:103908000DF10601007C9847BBE7D0F810325B69DF
:103918000DF10601007C9847B3E7D0F810329B6997
:103928000DF10601007C9847ABE72946FFF788FFB1
:10393800ADE7037C33B9D0F814325B6B0DF10600A8
:1039480098479EE72946FFF77BFFA0E7037C43B92A
:10395800D0F814321B6B0DF106009847072343700B
:103968008FE72946FFF76CFF91E72946FFF768FFC5
:103978008DE79A4228BF1A46ADF806200146204630
:1039880000F0ACF983E738B504468B88E3B9CB88F7
:10399800D3B98D7805F07F0590F8FC31032B0CD056
:1039A80080F8FE51294601F0ABFD204600F0C2F92F
:1039B80035B1022384F8FC3109E0FFF741FF06E046
:1039C800012384F8FC3102E02046FFF739FF38BDB7
:1039D80038B504460D468978254B1970012909D850
:1039E80090F8FC31022B09D0032B1CD02946FFF795
:1039F80027FF02E02946FFF723FF38BD81B1416068
:103A0800032380F8FC31FFF7E0FD022803D02046AD
:103A180000F090F9F1E729462046FFF711FFECE79F
:103A280000F088F9E9E789B1436899421DD0D9B215
:103A3800FFF7D8FD0E4B197861602046FFF7C5FDEA
:103A480002280DD0204600F075F9D6E7022380F849
:103A5800FC314160FFF7C6FD204600F06BF9CCE76A
:103A680029462046FFF7ECFEC7E700F063F9C4E7F4
:103A78006503002008B5CB88012B08D190F8FC31EC
:103A8800022B07D0032B0DD0FFF7DAFE01E0FFF77A
:103A9800D7FE08BD0146002341F8083F012200F087
:103AA8001DF9F6E70122011D00F018F9F1E708B544
:103AB80090F8FC31023B012B0CD80123C360D0F8ED
:103AC80004320BB10323C360022200F10C0100F0A1
:103AD80005F908BDFFF7B4FEFBE710B5044690F8FA
:103AE800FC31023B012B0DD84B88012B09D1002357
:103AF800C0F80432D0F814329B689847204600F08A
:103B080019F910BDFFF79CFEFBE708B54B78092BA8
:103B18001CD8DFE803F012181B151B09051B0F0C36
:103B2800FFF798FE002008BDFFF72DFFFAE7FFF723
:103B38004FFFF7E7FFF79EFFF4E7FFF7B8FFF1E75E
:103B4800FFF75AFEEEE7FFF7C8FFEBE7FFF778FE4F
:103B5800E8E738B504460D4690F8FC31032B11D13F
:103B68000B79012B0BD8D0F814329B689847EB8857
:103B78000BB1002038BD204600F0DCF8F9E7FFF76C
:103B88005FFEF6E7FFF75CFEF3E738B505460C463F
:103B98008A880B7803F06003202B05D1D0F8143203
:103BA8009B689847002038BDD1B26378012B25D097
:103BB800002B47D0032BF5D190F8FC31022B05D010
:103BC800032B0AD02146FFF73BFEEBE70029E9D09B
:103BD8008029E7D001F065FCE4E7638823B919B1CF
:103BE800802901D001F05DFCD5F814329B6821468C
:103BF80028469847284600F09DF8D3E790F8FC310E
:103C0800022B05D0032B0AD02146FFF719FEC9E77E
:103C18000029C7D08029C5D001F043FCC2E76388DA
:103C2800002BBFD111F07F0F03D1284600F082F896
:103C3800B8E701F044FCD5F814329B6821462846C1
:103C48009847F2E790F8FC31022B05D0032B09D0F6
:103C58002146FFF7F5FDA5E711F07F0FA2D001F08F
:103C680020FC9FE712F0800F11D101F07F0410347F
:103C780000EB04140434284601F02FFC70B1012332
:103C8800236002222146284600F028F88AE701F03E
:103C98007F04013400EB04140434ECE700232360B0
:103CA800EFE7D0B170B50D4616460446FFF79AFD0A
:103CB8000130400080B23080287003236B700223EB
:103CC80007E001345A1CD2B2E9540233DBB20021B6
:103CD800A95421780029F4D170BD704710B5134656
:103CE8000222C0F8F4218361C3610A46002101F071
:103CF80015FC002010BD08B513460A46002101F046
:103D08000DFC002008BD10B513460322C0F8F421AD
:103D1800C0F80831C0F80C310A46002101F00CFC4B
:103D2800002010BD08B513460A46002101F004FC26
:103D3800002008BD08B50423C0F8F43100231A4652
:103D4800194601F0EBFB002008BD08B50523C0F8B3
:103D5800F43100231A46194601F0EEFB002008BD95
:103D680008B500224FF480510148FDF717F908BD46
:103D7800000C014010B5084C00224FF40071204699
:103D8800FDF70CF90120FCF77FFF01224FF40071C9
:103D98002046FDF703F910BD0014014010B582B0AC
:103DA80002AC04F8010D00224FF480710548FDF7BC
:103DB800F5F84FF0FF33012221460348FEF773F967
:103DC80002B010BD00140140A005002070B50646E1
:103DD8000D4601224FF480710B48FDF7DFF80FE024
:103DE8002C46B5F5004F28BF4FF40044A4B24FF05D
:103DF800FF33224631460548FEF755F926442D1B68
:103E0800002DEDD170BD00BF00140140A0050020B9
:103E1800F0B583B007460D4616461C462A20FFF724
:103E2800BDFF3B0A8DF804308DF80570330A8DF814
:103E380006308DF8076004210DEB0100FFF7C6FF7F
:103E48002B20FFF7ABFF2B0A8DF804308DF80550B7
:103E5800230A8DF806308DF8074004210DEB010088
:103E6800FFF7B4FF2C20FFF799FF03B0F0BD82B035
:103E78002DE9F04383B091460B93BDF83470BDF83B
:103E88003860DAB2024492B2C3F307230B449BB200
:103E9800013B013A9BB292B2FFF7BAFF4FF000081C
:103EA8001EE0330A8DF804308DF80560022101A860
:103EB800FFF78CFF01349DF82C30A3420ED905FA88
:103EC80004F313F4004FECD03B0A8DF804308DF85E
:103ED8000570022101A8FFF779FFEBE708F1010857
:103EE8009DF82D20424508D9A9F1200302FB038340
:103EF8000C9A32F813500024DDE703B0BDE8F04314
:103F080002B0704708B501224FF480510148FDF70F
:103F180045F808BD000C014070B584B0FFF720FFDC
:103F2800FFF728FF0120FFF739FFC820FCF7ACFE98
:103F3800CB20FFF733FF714C94E8030000908DF815
:103F4800041005216846FFF741FFCF20FFF726FF41
:103F5800A368ADF800301B0C8DF8023003216846C9
:103F6800FFF734FFE820FFF719FFE368ADF80030EA
:103F78001B0C8DF8023003216846FFF727FFEA2063
:103F8800FFF70CFF00258DF800508DF80150022135
:103F98006846FFF71BFFED20FFF700FF236900933A
:103FA80004216846FFF712FFF720FFF7F7FE2023EA
:103FB8008DF8003001216846FFF708FFC020FFF7A1
:103FC800EDFE23238DF8003001216846FFF7FEFE41
:103FD800C120FFF7E3FE10238DF800300121684669
:103FE800FFF7F4FEC520FFF7D9FEA38AADF800302D
:103FF80002216846FFF7EAFEC720FFF7CFFE8623B7
:104008008DF8003001216846FFF7E0FE3620FFF703
:10401800C5FE48238DF8003001216846FFF7D6FE1B
:104028003A20FFF7BBFE55238DF800300121684682
:10403800FFF7CCFEB120FFF7B1FE8DF80050182332
:104048008DF8013002216846FFF7C0FEB620FFF761
:10405800A5FEA369ADF800301B0C8DF802300321D2
:104068006846FFF7B3FEF220FFF798FE8DF8005080
:1040780001216846FFF7AAFE2620FFF78FFE0126DA
:104088008DF8006031466846FFF7A0FEE020FFF794
:1040980085FE6D4604F11C030FCB07C525F8023BCE
:1040A8001B0C2B700F216846FFF790FEE120FFF7ED
:1040B80075FE6D462C3494E80F0007C525F8023BC1
:1040C8001B0C2B700F216846FFF780FE1120FFF7AD
:1040D80065FE1420FCF7D8FD2920FFF75FFE362087
:1040E800FFF75CFEE8238DF8003031466846FFF79D
:1040F8006DFEFFF707FF04B070BD00BFB09F00085A
:10410800B0F5A07F01D2EF2900D9704770B582B011
:1041180016460D460446FFF723FE6B1C621C9BB235
:1041280092B229462046FFF773FE330A8DF8043011
:104138008DF80560022101A8FFF748FEFFF7E2FEAF
:1041480002B070BD82B02DE9F04385B006460D4639
:1041580017460D93BDF83C90BDF84080FFF700FE70
:1041680010E0013700260DE0CDF80880CDF8049066
:104178000E9B00930D9B29463046FFF778FE34448A
:10418800A6B201373A7882B19DF834403319B3F5B5
:10419800A07FE9DB9DF835301D44ADB22B44EF2BF1
:1041A80003DC202ADDD00026DEE7FFF7ABFE05B0F2
:1041B800BDE8F04302B070472DE9F04182B0BDF888
:1041C8002080B0F5A07F41D204460F4616461D4612
:1041D800EF293BD88318013BB3F5A07F02DBC0F57C
:1041E800A076B6B27B19013BEF2B02DDC7F1F005D3
:1041F800ADB2FFF7B5FD321992B2EB199BB2013B94
:10420800013A9BB292B239462046FFF701FE4FEAC7
:1042180018238DF804308DF8058001224FF4807141
:104228000C48FCF7BBFE0CE04FF0FF33022201A95B
:104238000948FDF738FF013CA4B2002CF4D1013D38
:10424800ADB20DB13446F8E7FFF75CFE02B0BDE849
:10425800F08100BF00140140A005002000B583B024
:104268000090F0234FF4A07200210846FFF7A4FF46
:1042780003B05DF804FB00002DE9F0438BB0464B1A
:104288009A6942F010029A619A6902F0100201924A
:10429800019A9A6942F004029A619A6902F004024A
:1042A8000292029A9A6942F040029A619A6902F06F
:1042B80040020392039A9A6942F008029A619A6945
:1042C80002F008020492049A9A6942F020029A6164
:1042D8009B6903F020030593059B304D002242F2B1
:1042E80010012846FCF75AFEDFF8BC9000224FF474
:1042F80080514846FCF752FEDFF8B08000224FF4A8
:1043080040714046FCF74AFE4FF4005306930127DC
:104318000797002408940226099606A92846FCF760
:1043280045FD1023069307970894099706A9284680
:10433800FCF73CFD20230693194B0793089606A922
:104348002846FCF733FD4FF48053069307970894EB
:10435800099606A94846FCF729FD4FF440730693D1
:1043680007970894099606A94046FCF71FFD4FF4E5
:10437800807306930B4B0793089606A92846FCF70B
:1043880015FD224621461720FCF7A4FC1720FCF750
:10439800D5FC0BB0BDE8F0830010024000100140CE
:1043A8000000311000001110000C01400014014001
:1043B80008B5FFF7A7FDFFF7AFFD00F001FD00F01E
:1043C80013FD00F007FD08BDFEE7000000B58DB045
:1043D8001748184B03600023436083604FF6FF7251
:1043E800C260036183610322039204930122059250
:1043F80006930793089309920A930B9303A9FEF770
:1044080045FA50B900230193029301A90848FEF721
:10441800B9FA38B90DB05DF804FB40F295210648A9
:10442800FFF7D2FF4FF427710348FFF7CDFF00BF16
:10443800F805002000080040D0A0000808B50F4883
:104448000F4B03604FF48273436000238360C360A3
:10445800036143614FF4007282612822C2610362E2
:10446800436283620A23C362FEF7C0F800B908BD3D
:1044780040F2FF110348FFF7A7FF00BF1C07002009
:1044880000300140D0A0000808B50E480E4B03606C
:104498004FF48273436000238360C3600361436108
:1044A8004FF400728261C3610362436283620A232C
:1044B800C362FEF79BF800B908BD40F21721034814
:1044C800FFF782FFA005002000380040D0A00008B8
:1044D80000B58DB01748184B036000234360836014
:1044E8004FF6FF72C2600361836102220392049354
:1044F8000122059206930793089309920A930B9356
:1045080003A9FEF7C3F950B900230193029301A947
:104518000848FEF737FA38B90DB05DF804FB40F2E9
:1045280071210648FFF750FF4FF41E710348FFF74B
:104538004BFF00BF3806002000040040D0A0000850
:1045480008B50E480E4B03604FF482734360002396
:104558008360C360036143614FF400728261C36189
:104568000362436283620A23C362FEF73FF800B91D
:1045780008BD40F22F210348FFF726FF78060020E8
:10458800003C0040D0A0000800B58DB01748184B7B
:1045980003600023436083604FF6FF72C2600361CB
:1045A80043618361022203920493012205920693D8
:1045B8000793089309920A930B9303A9FEF766F9E8
:1045C80050B900230193029301A90848FEF7DAF9CC
:1045D80038B90DB05DF804FB40F24D210548FFF7EE
:1045E800F3FE4FF415710348FFF7EEFEDC060020DA
:1045F800002C0140D0A0000800B597B001220C9211
:104608004FF480330D9300210E91109202221392E1
:1046180014934FF4E01315930CA8FDF759F958BB00
:104628000F23079302210891002309934FF4806216
:104638000A920B9307A8FDF777FB10BB1023019391
:104648000023069301A8FDF745FCF8B9FDF72EFBFA
:10465800FDF726FC104BA3FB00308009FCF77AFB22
:104668000420FCF78DFB002211464FF0FF30FCF7C9
:1046780031FB17B05DF804FB4FF4E2710748FFF710
:10468800A3FE4FF4E9710548FFF79EFE40F2D911E9
:104698000248FFF799FE00BFD34D6210D0A0000872
:1046A8002DE9F04F8DB0FCF7CBFAFFF7A5FFFFF728
:1046B800E3FDFFF78BFE00F0D7FDFFF7BFFEFFF726
:1046C800E3FEFFF705FFFFF73BFFFFF75DFFFFF78F
:1046D8006FFE1821B048FEF733F91821AF48FEF7EE
:1046E8002FF9AF4B0B930020FFF7B8FD002631469A
:1046F800374632460523B346B24699464BE0A94BA6
:1047080057E0A84B64E00022A74BDDE90601FBF760
:104718008DFDCDE906014FF0500AA44B1B68012B13
:1047280000F0EF80022B00F07281002B00F0C280B5
:104738002D230493092303939D4B0293DDE906235C
:10474800CDE900234A460BA9504600F05BFC994B83
:104758001868994B196806EBD67CDFF85082D8F8B0
:10476800003000220392029201920092DBB2CCF355
:10477800470200F0C9FCD8F80030032B02DD002204
:10478800C8F80020894B1B685B4502D0874BD3F8DB
:1047980000B029462246894B5C6AA31A1F44002BA5
:1047A800B8BF5B42B3F5004F04DBA242A7DD4FF66A
:1047B800FF731F44824B5D6A6B1A1E44002BB8BFFF
:1047C8005B42B3F5004F05DBA9429ADD4FF6FF7354
:1047D8001E44013E4FF400517A48FCF7E5FB384689
:1047E800FBF770FE62A3D3E90023FBF7D5FE002296
:1047F800754BFBF7D1FE0022744BFBF717FD5EA348
:10480800D3E90023FBF7F2FFCDE906010022704B44
:10481800FCF748F938B95AA3D3E90023DDE90601C2
:10482800FCF736F988B158A3D3E90023DDE906017E
:10483800FCF738F948B10022664BDDE90601FBF7C1
:10484800F5FCCDE906014FF0140A0022624BDDE9C0
:104858000601FCF727F938B94BA3D3E90023DDE9B2
:104868000601FCF715F988B149A3D3E90023DDE96E
:104878000601FCF717F948B10022574BDDE906019C
:10488800FBF7D4FCCDE906014FF0280A0022464B7D
:10489800DDE90601FCF706F900287FF434AF3CA3F4
:1048A800D3E90023DDE90601FCF7F2F800283FF41C
:1048B80034AF28E706EBD673C3F34703012B0ED0BA
:1048C800022B0FD0032B10D0042B11D0052B12D0A4
:1048D800062B13D0062B7FF62BAF0C2628E74FF0BC
:1048E800A00AEDE74FF0500AECE74FF0280AEBE793
:1048F8004FF01E0AEAE74FF0140AE9E74FF00B0AF7
:10490800E8E706EBD678C8F34708B8F1000F0ED0F1
:10491800B8F1010F1AD0B8F1020F61D0B8F1030F46
:104928006DD0B8F1030F7FF603AF062600E70CAB96
:104938001A461B4B42F8083D09921046FCF716F937
:10494800024609990BA800F0BDFEE1E70CAB1A4638
:10495800224B42F8083D09921046FCF707F9024637
:1049680009990BA800F0AEFED5E700BFAFF30080B1
:10497800190019001900793F000000000088C340A1
:104988003333333333B32C40CDCCCCCCCCCC1C40DC
:104998006666666666660E40F8050020DC0600203E
:1049A8004C5342000100FFFF00000C406803002048
:1049B8006666A63FD0060020D40600200008004006
:1049C800002C0140001001400000244000408F40AE
:1049D80000002C4000002A4000001C4055534200B3
:1049E8000CAB1A46124B42F8083D09921046FCF7E8
:1049F800BDF8024609990BA800F064FE8EE70D4B3E
:104A08000A93ADF82C301B0C8DF82E3089E706EB95
:104A1800D673C3F34709B9F1080F05D8B9F1000FE8
:104A28007FF486AE022683E612264FF009097FE658
:104A3800412F4D00462F4D0000B583B0244B9A6995
:104A480042F001029A619A6902F001020092009A0A
:104A5800DA6942F08052DA61DB6903F0805301932E
:104A6800019B0320FCF724F9002211466FF00B008C
:104A7800FCF730F9002211466FF00A00FCF72AF91A
:104A8800002211466FF00900FCF724F900221146B4
:104A98006FF00400FCF71EF9002211466FF00300C6
:104AA800FCF718F9002211466FF00100FCF712F923
:104AB800002211464FF0FF30FCF70CF9054A536805
:104AC80023F0E06343F08063536003B05DF804FBB8
:104AD800001002400000014010B588B00368354A54
:104AE800934207D0344A934223D0344A934241D068
:104AF80008B010BD324B9A6942F480529A619B69A2
:104B080003F480530193019BA0230493022305938C
:104B1800032307932B4C04A92046FCF747F94023AD
:104B2800049300230593069304A92046FCF73EF955
:104B3800DEE7234BDA6942F48042DA61DB6903F489
:104B480080430293029B4FF420430493022305936E
:104B5800032307931C4C04A92046FCF727F94FF4BC
:104B68008043049300230593069304A92046FCF789
:104B78001DF9BDE7124BDA6942F40042DA61DB69DC
:104B880003F400430393039B282304930223059310
:104B9800032307930C4C04A92046FCF707F91023BC
:104BA800049300230593069304A92046FCF7FEF816
:104BB8009EE700BF0030014000380040003C004044
:104BC8000010024000080140000C014010B588B0F8
:104BD8000368344A934207D0334A934221D0334A78
:104BE80093423AD008B010BD314B9A6942F4006242
:104BF8009A619B6903F400630193019B4FF420635E
:104C08000493002305930123069304A92948FCF77C
:104C1800CDF8294A536843F0E06343F0C00353607A
:104C2800E0E7234BDA6942F00202DA61DB6903F05C
:104C380002030293029BC0230493002305930123DC
:104C4800069304A91D48FCF7B1F81B4A536843F0C2
:104C5800E06343F440635360C4E7154BDA6942F0FC
:104C68000402DA61DB6903F004030393039B4FF446
:104C780040530493002405940123069304A9104883
:104C8800FCF794F80C4A536843F0E06343F480530C
:104C98005360224621461E20FCF71CF81E20FCF714
:104CA8004DF89FE7002C0140000400400008004038
:104CB80000100240001801400000014000100140AF
:104CC8000014014008B5FDF7F3F808BDFEE7FEE75C
:104CD800FEE7FEE770477047704708B5FBF7C2FF6D
:104CE800FCF75FF808BD000008B50248FCF7BCFCFB
:104CF80008BD00BFD413002008B5164B5B6913F438
:104D0800807F07D0134B4FF480725A61124A1368A0
:104D1800013313600F4B5B6913F0200F07D120207C
:104D2800FCF748F94FF48070FCF744F908BD094BCB
:104D380020225A6100F06AF8084B186000F08CF8DD
:104D4800074B186000F03CF800F04EF800F042F80D
:104D5800E5E700BF0004014068030020D0060020FA
:104D6800D406002008B50248FDF786FC08BD00BF40
:104D7800F80500200F4B1A6842F001021A605968C2
:104D88000D4A0A405A601A6822F0847222F480326E
:104D98001A601A6822F480221A605A6822F4FE0205
:104DA8005A604FF41F029A60044B4FF000629A60F9
:104DB800704700BF001002400000FFF800ED00E05F
:104DC80008B5002210210248FCF7E8F808BD00BF2A
:104DD8000010014008B5012210210248FCF7DEF856
:104DE80008BD00BF0010014000B583B002A98023B0
:104DF80001F8043D4FF0FF3301220348FDF753F952
:104E080003B05DF804FB00BF1C07002010B582B09A
:104E1800FFF7D6FFD3238DF8043000238DF8003038
:104E28000C4C4FF0FF33012201A92046FDF73BF956
:104E38004FF0FF33022269462046FDF723FBFFF7B8
:104E4800C9FF9DF800009DF801301B0943EA0010D6
:104E580002B010BD1C07002010B582B0FFF7B0FFEC
:104E680093238DF8043000238DF800300C4C4FF05C
:104E7800FF33012201A92046FDF715F94FF0FF3352
:104E8800022269462046FDF7FDFAFFF7A3FF9DF8C9
:104E980000009DF801301B0943EA001002B010BD64
:104EA8001C07002000B585B000920B4602460A494F
:104EB8000A4801F069F80A4B002002904FF6E072A8
:104EC80001925A6800921B68064ADC21FFF73AF9FA
:104ED80005B05DF804FB00BFD4A200081409002047
:104EE80020010020F4A200082DE9F04385B0904687
:104EF80099463A4D002402941F2601966B68009348
:104F08002B68374A67212046FFF71CF9029401965F
:104F18006B6800932B68334A85212046FFF712F906
:104F2800029401966B6800932B682F4AA3212046B0
:104F3800FFF708F900222D4B40464946FBF774F964
:104F4800FBF7C4FD06462A4B18600022274B404653
:104F58004946FBF76BF9FBF7B9FD0746254B186087
:104F68003046FBF7C1FA80468946234E3846FBF7A0
:104F7800BBFACDE90201214B1868FBF7B5FACDE978
:104F8800000142464B461E49304600F0FDFF0294A0
:104F98004FF4FC6301936B6800932B683246C82179
:104FA8000A20FFF7CFF813E0A5B24FF6FF72D3211E
:104FB8002846FFF7A5F84FF6FF72D4212846FFF7D9
:104FC8009FF84FF6FF72D5212846FFF799F801346C
:104FD800B4F5A07FE8DB05B0BDE8F0832801002028
:104FE80014A300081CA3000824A300080000E03F45
:104FF800DC0900203408002078090020000800207F
:105008002CA300082DE9F04184B007460E469046CF
:10501800344B0024029440F2FF7201925A680092C5
:105028001B68314A21462046FFF78CF813E0A5B2E9
:105038004FF6FF725F212846FFF762F84FF6FF72BE
:1050480060212846FFF75CF84FF6FF726121284679
:10505800FFF756F80134B4F5A07FE8DB33787278AF
:10506800B178224ECDF80880019100923A46204945
:10507800304600F089FF1F4DDDE90A231E49284606
:1050880000F082FF1D4B002402944FF6E07201925B
:105098005A6800921B68324623212046FFF752F8CF
:1050A800104B02944FF6FF7201925A6800921B68E7
:1050B8002A4641212046FFF745F8DDE90A23104931
:1050C800097810480078FFF70FFF0C98FBF70CFAE7
:1050D8009DF838309DF83420FFF7E4FE04B0BDE8B1
:1050E800F08100BF1801002054A3000888070020A1
:1050F80068A30008D007002088A30008200100202A
:105108001C080020040800202DE9F04784B006465A
:105118008A4691469846454C002502954FF47843B7
:105128000193636800932368414A67213220FFF79F
:1051380009F8404F534632463F49384600F024FFAD
:1051480002954FF6E07601966368009323683A4625
:1051580071213220FEF7F6FF384F4A463849384663
:1051680000F012FF029501966368009323683A469F
:105178007B213220FEF7E6FF324F4246324938465D
:1051880000F002FF029501966368009323683A468F
:1051980085213220FEF7D6FF2C4F9DF830202C4970
:1051A800384600F0F1FE0295019663680093236883
:1051B8003A468F213220FEF7C5FFDFF8A880254F39
:1051C8009DF834204146384600F0DEFE02950196EF
:1051D8006368009323683A4699213220FEF7B2FFAC
:1051E8001D4F9DF838201D49384600F0CDFE029528
:1051F80001966368009323683A46A3213220FEF79C
:10520800A1FF174F9DF83C204146384600F0BCFEF0
:10521800029501966368009323683A46AD213220CF
:10522800FEF790FF04B0BDE8F08700BF280100201A
:105238009CA30008B0080020A4A300083808002098
:10524800B8A3000808080020C4A3000874070020B9
:10525800D0A300089C080020B8070020E0A300089D
:1052680020080020D8A3000810B5094C00220949DD
:105278002046FEF787F908492046FEF79AF90749BC
:105288002046FEF751F92046FEF79AF910BD00BFF7
:10529800E00900205C010020E0000020340100202B
:1052A800002070470020704710B5054C0146204685
:1052B800FEF749F92046FEF74CF9002010BD00BF63
:1052C800E009002010B5064C002206492046FEF7EA
:1052D80032F905492046FEF736F9002010BD00BF17
:1052E800E0090020EC0F0020040C002002680E4B9F
:1052F8009A4200D0704700B583B003F5DA33DA6913
:1053080042F40002DA61DB6903F400030193019BB4
:10531800002211461420FBF7DDFC1420FBF70EFDDC
:1053280003B05DF804FB00BF005C004008B500F264
:105338002C41D0F85C04FEF75CF908BD08B500EB19
:105348004113D3F83C22D0F85C04FEF77FF908BD7E
:1053580008B500EB4113DA6BD0F85C04FEF7ABF943
:1053680008BD08B5D0F85C04FEF72EFA08BD10B5E4
:1053780004460121D0F85C04FEF714FAD4F85C0462
:10538800FEF7F1F910BD000010B50446D0F85C0432
:10539800FEF70BFAA36923B1024A136943F0060327
:1053A800136110BD00ED00E008B5D0F85C04FEF70D
:1053B80005FA08BD10B504462048C0F85C44C4F896
:1053C80020021F4B036008234360022383600323EA
:1053D800C36000238361C3610362FBF7F9FD30BB3F
:1053E800182300221146D4F82002FCF742FA582369
:1053F80000228021D4F82002FCF73BFAC0230022C7
:105408008121D4F82002FCF734FA4FF48873002283
:105418000121D4F82002FCF72CFA4FF48073002203
:105428008221D4F82002FCF724FA002010BD4FF4A2
:1054380097710448FEF7C8FFD2E700BFD4130020D5
:10544800005C0040ECA3000808B5D0F82002FBF788
:105458002AFE18B1022803D0022008BD0020FCE76C
:105468000120FAE710B51C4613462246D0F8200260
:10547800FBF744FE18B1022803D0022010BD00201B
:10548800FCE70120FAE708B5D0F82002FBF75FFE39
:1054980018B1022803D0022008BD0020FCE7012033
:1054A800FAE708B5D0F82002FCF78EF918B10228FF
:1054B80003D0022008BD0020FCE70120FAE708B568
:1054C800D0F82002FCF7AEF918B1022803D0022068
:1054D80008BD0020FCE70120FAE7D0F8203211F0DF
:1054E800800F06D101F07F0103EB411191F82A02E8
:1054F800704701F07F0103EB411191F82A007047D2
:1055080008B5D0F82002FBF7E5FD18B1022803D052
:10551800022008BD0020FCE70120FAE708B5D0F812
:105528002002FBF761FE18B1022803D0022008BD53
:105538000020FCE70120FAE708B5D0F82002FBF7C5
:105548002DFE18B1022803D0022008BD0020FCE778
:105558000120FAE708B5D0F82002FBF73EFE08BDA7
:1055680000487047700300207047704712230B8073
:10557800004870474401002004230B80004870470E
:105588005801002008B50A4628B105490548FEF724
:1055980088FB034808BD02490248FEF782FBF8E78A
:1055A8003418002000A4000810B5044C0A4621460F
:1055B8000348FEF776FB204610BD00BF34180020D4
:1055C80018A4000808B50A4628B105490548FEF799
:1055D80068FB034808BD02490248FEF762FBF8E78A
:1055E800341800202CA4000808B50A4628B105493B
:1055F8000548FEF756FB034808BD02490248FEF776
:1056080050FBF8E7341800203CA4000808B50A4607
:1056180028B105490548FEF744FB034808BD02497F
:105628000248FEF73EFBF8E73418002048A40008BB
:10563800002103E00B4B5B58435004310A480B4BE5
:1056480042189A42F6D30A4A02E0002342F8043B81
:10565800084B9A42F9D3FFF78DFB00F00FF8FFF7DC
:105668001FF87047C0A6000800000020480300206B
:1056780048030020381A0020FEE7000070B5002516
:105688000C4E0D4CA41BA410A54209D102F06AF8D7
:1056980000250A4E0A4CA41BA410A54205D170BDD2
:1056A80056F8253098470135EEE756F825309847E3
:1056B8000135F2E7B8A60008B8A60008B8A60008A1
:1056C800BCA6000810B5431E0A44914200D110BD83
:1056D80011F8014B03F8014FF7E7034602449342E0
:1056E80000D1704703F8011BF9E7002B2DE9F047BB
:1056F8001E46BBBF03F100431E4600232D2388B07E
:10570800149FDDE9121A27F02007462F1446109D32
:105718000B7004D0452F00D10135022300E003238C
:1057280007AA049206AACDE902A2CDE900352246CD
:10573800334600F0D9FC472F804602D1119BDB0786
:1057480026D5462F08EB050911D198F80030302BE3
:105758000AD10022002320463146FBF785F918B903
:10576800C5F10105CAF80050DAF800309944002262
:10577800002320463146FBF777F938B93022079BDA
:105788004B4505D2591C07911A70F8E7CDF81C90C3
:105798004046079B159AA3EB0803136008B0BDE8C1
:1057A800F087F7B50029B4BF2D232B230446B8BFD3
:1057B8004942092904F8022B437021DD0DF1070342
:1057C8001F460A2691FBF6F506FB1511092D01F176
:1057D800300103F8011C03F1FF32294609DC30319E
:1057E800023B02F8011CBB42224604D3101A03B044
:1057F800F0BD1346E6E713F8012B04F8012BF2E796
:10580800302319448370021DC170EFE72DE9F04F72
:1058180091B00C461A9F93461E46054601F018FAA9
:10582800036818460993FBF7A1F900230E933B6818
:105838000A90073323F0070303F1080294F818804D
:10584800D4F800A03A60D3E90023C4E91223D4E9CC
:10585800127929F000430B934FF0FF32A64B3846DC
:105868000B99FBF78BF968BB4FF0FF32A24B384618
:105878000B99FBF70DF928BB00220023384649464F
:10588800FBF7FCF810B12D2384F843309B4F9C4B59
:10589800B8F1470F98BF1F4603234FF00009236153
:1058A8002AF00403236000965B460FAA2146284687
:1058B80000F0E2F9013040F090804FF0FF3011B075
:1058C800BDE8F08F3A464B4638464946FBF756F94D
:1058D80010B18C4F8C4BDBE763684AF48062591C2B
:1058E8000DA80EA940D1062363604FF0000C0DF1FE
:1058F8003303CDE9012363682260CDE903080093EF
:105908003A464B46CDE9051C2846FFF7EEFE08F05F
:10591800DF03472B074609D10D9BD81C02DB6268C1
:10592800934247DDA8F102085FFA88F8B8F1650FDD
:105938000D9924D80139424604F150000D91FFF722
:1059480030FF0E9A81461318012A236102DC22686F
:10595800D10701D5013323619DF83330002BA2D044
:105968002D2384F843309EE7B8F1670F00F06E816D
:10597800B8F1470FB9D1002BB7D10123B4E7B8F17B
:10598800660F19D1002963680CDD216113B92268FB
:10599800D20702D501330B4423610D9B4FF0000958
:1059A800A365D9E713B92268D00701D50233F3E715
:1059B8000123F1E74FF06708DDE90D32934205DB7B
:1059C80022682361D107E8D50133E5E7002BCCBF76
:1059D8000123C3F102031344DEE723685A0507D401
:1059E80023693A4659462846B047013029D164E729
:1059F800B8F1650F40F2D780D4E9120100220023E4
:105A0800FBF732F888B30123404A59462846B04785
:105A180001303FF452AFDDE90D239A4202DB2368DF
:105A2800D8070ED5DDE9092359462846B047013085
:105A38003FF443AF002704F11A080E9B013BBB4219
:105A480009DC23689F0700F1FD80E0680F9B9842FE
:105A5800B8BF184633E70123424659462846B0479F
:105A680001303FF42AAF0137E7E70D9B002B2BDC11
:105A78000123264A59462846B04701303FF41DAF56
:105A88000D9B23B90E9B13B92368D907D9D5DDE936
:105A9800092359462846B04701303FF40EAF4FF06E
:105AA800000804F11A090D9B5B42434501DC0E9B7B
:105AB80097E701234A4659462846B04701303FF444
:105AC800FCAE08F10108EEE70E9AA36D9A42A8BF52
