:020000040800F2
:100000000000012045560008794A0008814A00088E
:10001000834A0008854A0008874A0008000000005B
:10002000000000000000000000000000894A0008F5
:100030008B4A0008000000008D4A00088F4A000823
:100040008D5600088D5600088D5600088D56000804
:100050008D5600088D5600088D5600088D560008F4
:100060008D5600088D5600088D5600088D560008E4
:100070008D5600088D5600088D5600088D560008D4
:100080008D5600088D5600088D5600088D560008C4
:100090009D4A00088D5600088D560008AD4A00089C
:1000A0008D5600088D5600088D5600088D560008A4
:1000B0008D5600088D560008D94A00088D56000854
:1000C0008D5600088D5600088D5600088D56000884
:1000D0008D5600088D5600088D5600088D56000874
:1000E0008D5600088D5600088D5600088D56000864
:1000F0008D5600088D5600088D5600088D56000854
:100100008D5600088D5600088D5600088D56000843
:100110008D5600088D5600088D5600088D56000833
:100120008D5600088D5600088D5600088D56000823
:1001300000000000000000000000000000000000BF
:1001400000000000000000000000000000000000AF
:10015000000000000000000000000000000000009F
:10016000000000000000000000000000000000008F
:10017000000000000000000000000000000000007F
:10018000000000000000000000000000000000006F
:10019000000000000000000000000000000000005F
:1001A000000000000000000000000000000000004F
:1001B000000000000000000000000000000000003F
:1001C000000000000000000000000000000000002F
:1001D000000000000000000000000000000000001F
:0401E0005FF8E0F1F3
:1001E80010B5054C237833B9044B13B10448AFF369
:1001F80000800123237010BD680300200000000068
:10020800D87700080C4B43B10C4810B50C49AFF334
:1002180000800C48036823B910BD0A48036833B945
:100228007047094B002BF7D0BDE810401847064B24
:10023800002BF5D0184700BF00000000D877000851
:100248006C030020680300200000000081F00041DA
:1002580002E000BF83F0004330B54FEA41044FEAA3
:10026800430594EA050F08BF90EA020F1FBF54EA3E
:10027800000C55EA020C7FEA645C7FEA655C00F0DA
:10028800E2804FEA5454D4EB5555B8BF6D420CDDAB
:100298002C4480EA020281EA030382EA000083EA2E
:1002A800010180EA020281EA0303362D88BF30BDCE
:1002B80011F0004F4FEA01314FF4801C4CEA113124
:1002C80002D0404261EB410113F0004F4FEA033383
:1002D8004CEA133302D0524263EB430394EA050F0E
:1002E80000F0A780A4F10104D5F1200E0DDB02FA7D
:1002F8000EFC22FA05F2801841F1000103FA0EF211
:10030800801843FA05F359410EE0A5F120050EF1D6
:10031800200E012A03FA0EFC28BF4CF0020C43FA07
:1003280005F3C01851EBE37101F0004507D54FF014
:10033800000EDCF1000C7EEB00006EEB0101B1F564
:10034800801F1BD3B1F5001F0CD349085FEA3000AA
:100358004FEA3C0C04F101044FEA445212F5800FB5
:1003680080F09A80BCF1004F08BF5FEA500C50F152
:10037800000041EB045141EA050130BD5FEA4C0C35
:10038800404141EB010111F4801FA4F10104E9D1BE
:1003980091F0000F04BF01460020B1FA81F308BFB5
:1003A8002033A3F10B03B3F120020CDA0C3208DD81
:1003B80002F1140CC2F10C0201FA0CF021FA02F15C
:1003C8000CE002F11402D8BFC2F1200C01FA02F1CC
:1003D80020FA0CFCDCBF41EA0C019040E41AA2BFF1
:1003E80001EB0451294330BD6FEA04041F3C1CDAB9
:1003F8000C340EDC04F11404C4F1200220FA04F0D9
:1004080001FA02F340EA030021FA04F345EA030182
:1004180030BDC4F10C04C4F1200220FA02F001FA44
:1004280004F340EA0300294630BD21FA04F02946C6
:1004380030BD94F0000F83F4801306BF81F480115F
:100448000134013D4EE77FEA645C18BF7FEA655CD2
:1004580029D094EA050F08BF90EA020F05D054EAA4
:10046800000C04BF1946104630BD91EA030F1EBFA9
:100478000021002030BD5FEA545C05D140004941AD
:1004880028BF41F0004130BD14F580043CBF01F5A0
:10049800801130BD01F0004545F0FE4141F4700186
:1004A8004FF0000030BD7FEA645C1ABF1946104661
:1004B8007FEA655C1CBF0B46024650EA013406BF62
:1004C80052EA033591EA030F41F4002130BD00BF21
:1004D80090F0000F04BF0021704730B54FF48064DE
:1004E80004F132044FF000054FF0000150E700BF5F
:1004F80090F0000F04BF0021704730B54FF48064BE
:1005080004F1320410F0004548BF40424FF00001AA
:100518003EE700BF42004FEAE2014FEA31014FEAED
:1005280002701FBF12F07F4393F07F4F81F060513C
:10053800704792F0000F14BF93F07F4F704730B5AB
:100548004FF4607401F0004521F0004120E700BF3E
:1005580050EA010208BF704730B54FF000050AE0C5
:1005680050EA010208BF704730B511F0004502D5C6
:10057800404261EB41014FF4806404F132045FEAC8
:10058800915C3FF4DCAE4FF003025FEADC0C18BF6D
:1005980003325FEADC0C18BF033202EBDC02C2F163
:1005A800200300FA03FC20FA02F001FA03FE40EAF5
:1005B8000E0021FA02F11444C1E600BF70B54FF0F5
:1005C800FF0C4CF4E06C1CEA11541DBF1CEA1355D7
:1005D80094EA0C0F95EA0C0F00F0DEF82C4481EA3F
:1005E800030621EA4C5123EA4C5350EA013518BF5F
:1005F80052EA033541F4801143F4801338D0A0FB4C
:1006080002CE4FF00005E1FB02E506F00042E0FBF8
:1006180003E54FF00006E1FB03569CF0000F18BFFE
:100628004EF0010EA4F1FF04B6F5007F64F54074A6
:1006380004D25FEA4E0E6D4146EB060642EAC62139
:1006480041EA55514FEAC52040EA5E504FEACE2EA6
:10065800B4F1FD0C88BFBCF5E06F1ED8BEF1004FA9
:1006680008BF5FEA500E50F1000041EB045170BD25
:1006780006F0004646EA010140EA020081EA030169
:10068800B4EB5C04C2BFD4EB0C0541EA045170BD65
:1006980041F480114FF0000E013C00F3AB8014F1DF
:1006A800360FDEBF002001F0004170BDC4F1000428
:1006B800203C35DA0C341BDC04F11404C4F12005A9
:1006C80000FA05F320FA04F001FA05F240EA020004
:1006D80001F0004221F0004110EBD37021FA04F63A
:1006E80042EB06015EEA430E08BF20EAD37070BDF4
:1006F800C4F10C04C4F1200500FA04F320FA05F053
:1007080001FA04F240EA020001F0004110EBD37054
:1007180041F100015EEA430E08BF20EAD37070BDC4
:10072800C4F1200500FA05F24EEA020E20FA04F39D
:1007380001FA05F243EA020321FA04F001F000414C
:1007480021FA04F220EA020000EBD3705EEA430EBD
:1007580008BF20EAD37070BD94F0000F0FD101F0EC
:100768000046400041EB010111F4801F08BF013C25
:10077800F7D041EA060195F0000F18BF704703F063
:100788000046520043EB030313F4801F08BF013DEA
:10079800F7D043EA0603704794EA0C0F0CEA1355A6
:1007A80018BF95EA0C0F0CD050EA410618BF52EA60
:1007B8004306D1D181EA030101F000414FF0000066
:1007C80070BD50EA410606BF1046194652EA430674
:1007D80019D094EA0C0F02D150EA013613D195EAE8
:1007E8000C0F05D152EA03361CBF104619460AD130
:1007F80081EA030101F0004141F0FE4141F470013A
:100808004FF0000070BD41F0FE4141F4780170BD29
:1008180070B54FF0FF0C4CF4E06C1CEA11541DBF8E
:100828001CEA135594EA0C0F95EA0C0F00F0A7F890
:10083800A4EB050481EA030E52EA03354FEA0131BD
:1008480000F088804FEA03334FF0805545EA1313D0
:1008580043EA12634FEA022245EA111545EA106598
:100868004FEA00260EF000419D4208BF964244F12F
:10087800FD0404F5407402D25B084FEA3202B61A4E
:1008880065EB03055B084FEA32024FF480104FF422
:10089800002CB6EB020E75EB030E22BFB61A754696
:1008A80040EA0C005B084FEA3202B6EB020E75EB29
:1008B800030E22BFB61A754640EA5C005B084FEA91
:1008C8003202B6EB020E75EB030E22BFB61A75465E
:1008D80040EA9C005B084FEA3202B6EB020E75EB69
:1008E800030E22BFB61A754640EADC0055EA060E2A
:1008F80018D04FEA051545EA16754FEA06164FEA6D
:10090800C30343EA52734FEAC2025FEA1C1CC0D118
:1009180011F4801F0BD141EA00014FF000004FF0A5
:10092800004CB6E711F4801F04BF01430020B4F166
:10093800FD0C88BFBCF5E06F3FF6AFAEB5EB030C1E
:1009480004BFB6EB020C5FEA500C50F1000041EB1B
:10095800045170BD0EF0004E4EEA113114EB5C04E8
:10096800C2BFD4EB0C0541EA045170BD41F48011BB
:100978004FF0000E013C90E645EA060E8DE60CEAC3
:10098800135594EA0C0F08BF95EA0C0F3FF43BAFE0
:1009980094EA0C0F0AD150EA01347FF434AF95EA97
:1009A8000C0F7FF425AF104619462CE795EA0C0F7B
:1009B80006D152EA03353FF4FDAE1046194622E748
:1009C80050EA410618BF52EA43067FF4C5AE50EA22
:1009D80041047FF40DAF52EA43057FF4EBAE12E712
:1009E8004FF0FF3C06E000BF4FF0010C02E000BFF3
:1009F8004FF0010C4DF804CD4FEA410C7FEA6C5CD6
:100A08004FEA430C18BF7FEA6C5C1BD001B050EA78
:100A1800410C0CBF52EA430C91EA030F02BF90EA63
:100A2800020F0020704710F1000F91EA030F58BF22
:100A3800994208BF90422CBFD8176FEAE37040F084
:100A4800010070474FEA410C7FEA6C5C02D150EA22
:100A5800013C07D14FEA430C7FEA6C5CD6D152EADD
:100A6800033CD3D05DF8040B704700BF84461046A2
:100A780062468C461946634600E000BF01B5FFF7A1
:100A8800B7FF002848BF10F1000F01BD4DF808ED71
:100A9800FFF7F4FF0CBF012000205DF808FB00BF42
:100AA8004DF808EDFFF7EAFF34BF012000205DF89C
:100AB80008FB00BF4DF808EDFFF7E0FF94BF0120E9
:100AC80000205DF808FB00BF4DF808EDFFF7CEFFEA
:100AD80094BF012000205DF808FB00BF4DF808ED29
:100AE800FFF7C4FF34BF012000205DF808FB00BFFA
:100AF8004FEA4102B2F1E04324BFB3F5001CDCF138
:100B0800FE5C0DD901F0004C4FEAC0024CEA50706F
:100B1800B2F1004F40EB830008BF20F0010070479E
:100B280011F0804F21D113F13872BCBF01F00040A1
:100B3800704741F480114FEA5252C2F11802C2F1D3
:100B4800200C10FA0CF320FA02F018BF40F0010054
:100B58004FEAC1234FEAD32303FA0CFC40EA0C0006
:100B680023FA02F34FEA4303CCE77FEA625307D143
:100B780050EA01331EBF4FF0FE4040F4400070477A
:100B880001F0004040F0FE4040F40000704700BF14
:100B9800034613F8012B002AFBD1181A01387047B5
:100BA8004FEA410C7FEA6C5C02D150EA013C0AD161
:100BB8004FEA430C7FEA6C5C02D152EA033C02D153
:100BC8004FF0000070474FF0010070474FEA4102B4
:100BD80012F5001215D211D56FF47873B3EB625287
:100BE80012D94FEAC12343F0004343EA505311F0AE
:100BF800004F23FA02F018BF404270474FF0000040
:100C0800704750EA013005D111F0004008BF6FF07D
:100C1800004070474FF00000704700BF10B5044611
:100C28000E4B18784FF47A73B3FBF0F30C4A106844
:100C3800B0FBF3F000F0F6F968B90F2C01D90120E8
:100C480010BD002221464FF0FF3000F0ADF9034BF4
:100C58005C60002010BD012010BD00BF0000002016
:100C68005001002008B5074A136843F010031360C9
:100C7800032000F087F90020FFF7D0FF03F0FEFD06
:100C8800002008BD00200240034A1168034B1B786E
:100C98000B441360704700BFC0050020000000200F
:100CA800014B1868704700BFC005002038B50446DE
:100CB800FFF7F6FF0546B4F1FF3F02D0044B1B785F
:100CC8001C44FFF7EDFF401B8442FAD838BD00BF33
:100CD8000000002030B482B00023019390F8243043
:100CE800012B00F08B800246012380F824304B68EA
:100CF800062B29D80568686B03EB8303053B1F2483
:100D08009C4020EA04000C6804FA03F303436B6375
:100D18000B68092B38D91568E86803EB43031E3BB9
:100D280007249C4020EA04008C6804FA03F3034378
:100D3800EB600B68103B012B34D90020002382F8AC
:100D4800243002B030BC70470C2B0ED80568286BD5
:100D580003EB8303233B1F249C4020EA04000C6818
:100D680004FA03F303432B63D2E70568E86A03EB4D
:100D78008303413B1F249C4020EA04000C6804FACA
:100D880003F30343EB62C3E71568286903EB4303E6
:100D980007249C4020EA04008C6804FA03F3034308
:100DA8002B61C6E713681648834205D0936A43F05F
:100DB800200393620120C1E7986810F4000F1BD14B
:100DC800986840F4000098600B68102B01D0002050
:100DD800B4E70C4B1B680C49A1FB03139B0C03EBFA
:100DE80083035900019102E0019B013B0193019BA0
:100DF800002BF9D10020A1E700209FE70220A0E7FF
:100E0800002401405001002083DE1B4338B50368ED
:100E18009A6812F0010F01D1002038BD04469A6883
:100E280022F001029A60FFF73BFF054623689B68A2
:100E380013F0010F0ED0FFF733FF401B0228F5D93E
:100E4800A36A43F01003A362E36A43F00103E36279
:100E5800012038BD002038BD002800F08A8070B518
:100E68000446836A002B4DD02046FFF7CFFFA36AC4
:100E780013F0100377D1002875D1A26A22F48852A2
:100E880022F0020242F00202A262656821683A4A30
:100E980091423DD0E2692A43E66842EA4602A568E3
:100EA800B5F5807F3ED0012D39D06569012D3CD044
:100EB8004D6825F469452B434B6021688D682F4B9D
:100EC8002B4013438B60A368B3F5807F3ED0012B82
:100ED8003CD000232568E96A21F470010B43EB62DA
:100EE80023689968264B0B409A4233D0A36A23F0B3
:100EF800120343F01003A362E36A43F00103E362C1
:100F0800012070BDC36280F8243003F007FDABE711
:100F1800E269B2F5402FBED14FF40022BBE74FF48F
:100F28008073C2E74FF48073BFE736B9A569013D06
:100F380043EA453343F40063BAE7A56A45F0200560
:100F4800A562E56A45F00105E562B1E72369013B61
:100F58001B05BFE70023E362A36A23F0030343F002
:100F68000103A36270BDA36A43F01003A3620120CA
:100F780070BD0120704700BF003C0140FDF7E1FF54
:100F8800FE0E1FFF074AD36823F4E0631B041B0C03
:100F9800000200F4E060184340F0BF6040F4003005
:100FA800D060704700ED00E030B4164BDB68C3F347
:100FB8000223C3F10704042C28BF04241D1D062D99
:100FC80017D9033B012505FA04F4013C2140994057
:100FD80005FA03F3013B1340194300280BDB090111
:100FE800C9B200F1604000F5614080F8001330BCE0
:100FF80070470023E6E700F00F000901C9B2024B71
:101008001954F4E700ED00E014ED00E0420900F0A7
:101018001F00012303FA00F0014B43F82200704738
:1010280000E100E00138B0F1807F0AD2064B586039
:10103800F021064A82F823100020986007221A60DF
:1010480070470120704700BF10E000E000ED00E0AD
:10105800042805D0054A136823F004031360704779
:10106800024A136843F004031360704710E000E07D
:10107800704708B5FFF7FCFF08BD0000F0B583B066
:101088000026344679E0002D00F0A980012D00D11A
:10109800CE68FF2B00F2B7808646FF2B00F2B680A1
:1010A800A500DEF800200F27AF4022EA070206FA63
:1010B80005F52A43CEF800204A6812F0805F5BD01D
:1010C800674A956945F001059561926902F0010248
:1010D8000192019AA208971C624D55F8275004F016
:1010E80003074FEA870E0F2707FA0EF725EA0705C9
:1010F8005D4FB84200F0908007F58067B84200F075
:101108008D8007F58067B84200F08A8007F5806710
:10111800B84200F0878007F58067B84200F0848005
:1011280007F58067B84275D0062707FA0EF73D43E2
:1011380002324C4F47F822504A6812F4803F75D06B
:101148004A4D2A681A432A604A6812F4003F73D04D
:10115800464D6A681A436A604A6812F4801F71D063
:10116800424DAA681A43AA604A6812F4001F6FD059
:101178003E4DEA681343EB6001340F2C6ED8012210
:10118800A2400B6813409A42F6D14D68122D30D018
:101198000BD8022D2AD07FF676AF032D2FD0112D34
:1011A8007FF477AFCE68043673E7314FBD4216D06F
:1011B8000CD9304FBD4212D007F58037BD420ED052
:1011C800A7F58017BD427FF464AF08E0A7F5801744
:1011D800BD4204D007F58037BD427FF45AAF8D6811
:1011E8007DB1012D08D04261082652E7CE68083645
:1011F8004FE7CE680C364CE70261082649E700261F
:1012080047E7042645E700F1040E46E7A4F1080580
:10121800AD0046E7052788E7002786E7012784E72A
:10122800022782E7032780E704277EE70F4D2A6815
:1012380022EA03022A6087E70C4D6A6822EA030261
:101248006A6089E7094DAA6822EA0302AA608BE767
:10125800064DEA6822EA0303EB608DE703B0F0BDB0
:101268000010024000000140000801400004014055
:10127800000021100000311012B909040161704703
:1012880001617047C3685940C160704770470000EA
:1012980008B5054B5B69034200D108BD024B586194
:1012A800FFF7F4FFF9E700BF00040140002866D00B
:1012B800F0B587B0044690F82934C3B1032384F805
:1012C8002934206801F051FB254655F8107B6E46FD
:1012D8000FCD0FC62B683360231D0ECB384601F0A7
:1012E80034FB0021206801F04AFB002315E080F858
:1012F800283404F001F8E1E704EB4312012182F8F5
:10130800291082F828309386002182F82B109163E7
:10131800D1639A1C5201A15001330E2BECD9002342
:1013280012E004EB4312002182F8291282F82832D5
:10133800938682F82B12C2F83812C2F83C1203F1D5
:1013480012025201A15001330E2BEAD9254655F855
:10135800107B6E460FCD0FC62B683360231D0ECB56
:10136800384601F00EFB002584F82450012384F848
:101378002934206801F01EFE284607B0F0BD012080
:10138800704790F82834012B01D10220704710B51E
:101398000446012180F8281404F0EDF8206801F0D3
:1013A80007FE206801F0D8FA002084F8280410BD50
:1013B80090F82834012B01D10220704710B504465B
:1013C800012380F8283480F82410006801F0EAFD31
:1013D800002084F8280410BD38B54DB2002D12DB6A
:1013E80001F07F04640104F50A74044401F07F01EC
:1013F8002170ED0F65702261E37090F82834012B9D
:1014080007D1022038BD01F07F0464012834044468
:10141800ECE70546012380F828342146006801F0EE
:10142800C6FA002085F8280438BD4AB2002A10DB25
:1014380001F07F035B0103F50A73034401F07F01A8
:101448001970D20F5A7090F82824012A07D1022067
:10145800704701F07F035B0128330344EEE710B5C2
:101468000446012280F828241946006801F038FC57
:10147800002084F8280410BD70B501F07F056C01C8
:1014880004F50A7101440444C4F83C2205F112022F
:101498005201861883500023736084F8293284F837
:1014A800285225B1006801F0A2FD002070BD006837
:1014B80001F09DFDF9E701F00F01123100EB411138
:1014C8008888704770B501F07F056C0104F1280128
:1014D80001440444E263AA1C520186188350002385
:1014E8007360012384F8293084F8285025B10068F6
:1014F80001F07DFD002070BD006801F078FDF9E77E
:1015080070B582B005460023ADF80630ADF804305A
:1015180095E103889BB223F4E14323F070039BB267
:1015280003802A68B2F850309BB295F8281003EB74
:10153800C103023302EB4303D3F80034C3F30903B6
:101548006B64EA6B1344EB630021284603F006FF43
:1015580095F82430002B00F072812B6C002B40F0A2
:101568006E812A6895F8243043F08003A2F84C3045
:10157800002385F8243062E1B0F850309BB295F82A
:10158800282203EBC203063300EB4303D3F80034ED
:10159800C3F30903C5F84432B5F82C2205F22C41EF
:1015A80001F08BFE2A68138823F070031B051B0DBE
:1015B8001380284603F0C0FE41E1B5F82C22D5F887
:1015C8003C1201F07AFED5F84422D5F83C32134497
:1015D800C5F83C3272E1C1F34F0211F0010F01D09E
:1015E800013292B2920292B2C3F8002484E130F838
:1015F80024309BB2ADF80430BDF8043013F4004F2A
:1016080036D1BDF8043013F0800F00F018812A6835
:1016180032F824309BB223F4E14323F070039BB2E9
:1016280022F8243005EB441393F83230002B40F0B5
:10163800B6802868B0F850309BB205EB441292F897
:10164800282003EBC203023300EB4303D3F8003432
:10165800C3F30903A21C05EB42125360002B00F0F0
:10166800CD8005EB44118A8DC96B01F0ABFCC5E058
:1016780030F8243023F070031B051B0D20F82430AC
:1016880005EB441393F83232DBB92868B0F85030D0
:101698009BB205EB441292F8282203EBC2030633EF
:1016A80000EB4303B3F80064C6F309068EB305EBF9
:1016B80044113346B1F82C22D1F83C1201F0FDFD5B
:1016C80027E0286805EB441393F8282230F82230E5
:1016D80013F4804F43D0B0F850309BB203EBC203F1
:1016E800023300EB4303B3F80064C6F3090666BB94
:1016F8002A6805EB441393F8281232F8213023F0B6
:10170800F0031B051B0D43F4004343F0C00322F80C
:10171800213004F112035B01E9184A6832444A6037
:1017280005EB4411D1F83C223244C1F83C22EB5875
:101738001BB1D1F838128E4229D205EB441393F825
:101748002812284603F000FE5BE705EB44113346F8
:10175800B1F82E22D1F83C1201F0AFFDC8E7B0F87D
:1017680050309BB203EBC203063300EB4303B3F8DC
:101778000064C6F30906002EBAD005EB44113346BF
:10178800B1F83022D1F83C1201F097FDB0E705EB33
:10179800441191F828122846FFF76EFE31E72868B1
:1017A80005EB441393F8282030F8223013F0400F4B
:1017B80000F0B880B0F850309BB203EBC20302339C
:1017C80000EB4303D3F80034C3F30903A21C05EB71
:1017D80042125360002B40F09E802A6805EB4413A8
:1017E80093F8281032F8213023F0F0031B051B0D65
:1017F80043F4404343F0800322F821302A68B2F8CA
:1018080050309BB205EB441090F8281003EBC1034D
:10181800023302EB4303D3F80024C2F30902A31CEA
:101828005B01E9184A60C16B0A44C263EB58002B9C
:1018380040F0928090F82810284603F08FFD286821
:10184800B0F844309BB2ADF8063013F4004F00F006
:101858008B80BDF8064014F00F047FF4C8AEBDF8C5
:10186800063013F0100F3FF454AE03889BB2ADF866
:101878000430BDF8043013F4006F7FF47DAEBDF87A
:10188800043013F4004FDAD0038823F070031B05EB
:101898001B0D03802868B0F850309BB295F82822B9
:1018A80003EBC203063300EB4303D3F80034C3F35E
:1018B8000903C5F84432002B7FF47FAE0021284687
:1018C80003F042FD2A68B2F850309BB2063302EBAF
:1018D8004303D5F838123E297FF67DAEC1F34F1287
:1018E80011F01F0F01D1013A92B26FEAC2626FEA9A
:1018F800524292B2C3F800242A6813889BB223F498
:10190800804323F0700383F4405343F4004343F0CF
:101918008003138093E705EB4411CA8DC96B01F06E
:1019280051FB5AE7B0F850309BB203EBC2030633C1
:1019380000EB4303D3F80034C3F30903A21C05EBFF
:1019480042125360002B3FF448AF05EB44110A8E56
:10195800C96B01F037FB40E705EB441494F82810F5
:101968002846FFF7AFFD6AE7002002B070BD10B54A
:101978000446006801F020FB10F4004F45D12068B0
:1019880001F01AFB10F4806F43D1206801F014FBBA
:1019980010F4804F08D02268B2F844309BB223F488
:1019A80080439BB2A2F84430206801F005FB10F494
:1019B800005F08D02268B2F844309BB223F4005389
:1019C8009BB2A2F84430206801F0F6FA10F4805F68
:1019D80030D1206801F0F0FA10F4006F49D1206886
:1019E80001F0EAFA10F4007F66D1206801F0E4FA09
:1019F80010F4807F08D02268B2F844309BB223F4F8
:101A080080739BB2A2F8443010BD2046FFF778FDE2
:101A1800B5E72268B2F844309BB223F480639BB2E6
:101A2800A2F84430204603F0A8FC00212046FFF726
:101A3800BFFCAAE72268B2F840309BB223F0040347
:101A48009BB2A2F840302268B2F840309BB223F033
:101A580008039BB2A2F84030204603F0ABFC226892
:101A6800B2F844309BB223F480539BB2A2F84430BE
:101A7800AFE72268B2F840309BB243F00803A2F8FF
:101A880040302268B2F844309BB223F400639BB222
:101A9800A2F844302268B2F840309BB243F0040305
:101AA800A2F84030206801F087FA10F4805F96D1E0
:101AB800204603F06FFC92E72268B2F844309BB2EC
:101AC80023F400739BB2A2F84430204603F04FFC85
:101AD8008BE738B54AB2002A10DB4B0103F50A73CD
:101AE800034401249C7001F07F041C70D20F5A70CB
:101AF80090F82824012A07D1022038BD01F07F037D
:101B08005B0128330344ECE70546012280F82824CA
:101B18001946006801F0C6F91CB1002085F82804B0
:101B280038BD05F22C41286801F04AFAF5E710B5EE
:101B38004AB2002A10DB4B0103F50A730344002460
:101B48009C7001F07F011970D20F5A7090F8282408
:101B5800012A07D1022010BD01F07F035B01283361
:101B68000344ECE70446012280F82824194600685B
:101B780001F0CFF9002084F8280410BD11F0800F7F
:101B88000CD001F07F014901283101445AB10122EA
:101B98008A72CB801B0C0B8100207047490101F52C
:101BA8000A710144F2E78A728B80F5E782B0084B2C
:101BB8001B68084AA2FB03235B0A00FB03F00190A1
:101BC80000BF019B5A1E0192002BF9D102B0704749
:101BD80050010020D34D621070B582B004460368EE
:101BE80013F0010F3DD0AC4B5B6803F00C03042BE2
:101BF8002ED0A94B5B6803F00C03082B23D0636835
:101C0800B3F5803F51D0002B55D103F1804303F544
:101C180004331A6822F480321A601A6822F4802287
:101C28001A606368002B60D0FFF73AF805469A4BB4
:101C38001B6813F4003F14D1FFF732F8401B6428E7
:101C4800F5D90320AFE1944B5B6813F4803FD6D0FD
:101C5800914B1B6813F4003F03D06368002B00F01E
:101C68009F81236813F0020F65D08B4B5B6813F0DC
:101C78000C0F4ED0884B5B6803F00C03082B43D045
:101C88002369002B79D00122844B1A60FFF708F8EA
:101C98000546814B1B6813F0020F65D1FFF700F86A
:101CA800401B0228F5D903207DE17B4A136843F4E1
:101CB80080331360B5E7B3F5A02F09D0764B1A68C7
:101CC80022F480321A601A6822F480221A60A8E787
:101CD80003F18043A3F53C331A6842F480221A606A
:101CE8001A6842F480321A609BE7FEF7D9FF05466E
:101CF800694B1B6813F4003FB3D0FEF7D1FF401BBC
:101D08006428F5D903204EE1634B5B6813F4803FE8
:101D1800B6D1614B1B6813F0020F04D02369012B65
:101D280001D001203FE15C4A136823F0F8036169A0
:101D380043EAC1031360236813F0080F32D0A36984
:101D4800002B6ED00122564B1A60FEF7A9FF0546FC
:101D5800514B5B6A13F0020F21D1FEF7A1FF401B24
:101D68000228F5D903201EE14B4A136823F0F80333
:101D7800616943EAC1031360DDE70022474B1A603B
:101D8800FEF78EFF0546444B1B6813F0020FD2D0B6
:101D9800FEF786FF401B0228F5D9032003E1012046
:101DA800FFF704FF236813F0040F00F099803A4B03
:101DB800DB6913F0805F46D1374BDA6942F0805215
:101DC800DA61DB6903F080530193019B0125354BF0
:101DD8001B6813F4807F38D0E368012B49D0002BAF
:101DE8004DD103F1804303F504331A6A22F001024E
:101DF8001A621A6A22F004021A62E368002B5DD0A4
:101E0800FEF74EFF0646244B1B6A13F0020F66D1FD
:101E1800FEF746FF801B41F288339842F3D903202E
:101E2800C1E000221E4B1A60FEF73AFF05461A4B26
:101E38005B6A13F0020FB5D0FEF732FF401B022891
:101E4800F5D90320AFE00025C1E7164A136843F42B
:101E580080731360FEF724FF0646124B1B6813F4C9
:101E6800807FB9D1FEF71CFF801B6428F5D90320B9
:101E780099E0094A136A43F001031362BDE7052B91
:101E880012D0054B1A6A22F001021A621A6A22F06D
:101E980004021A62B1E700BF00100240000042428B
:101EA8008004424200700040414B1A6A42F004022A
:101EB8001A621A6A42F001021A629EE7FEF7F0FE01
:101EC80006463B4B1B6A13F0020F08D0FEF7E8FEEC
:101ED800801B41F288339842F3D9032063E0E5B9C7
:101EE800E369002B5ED0324A526802F00C02082ADD
:101EF8005BD0022B17D000222E4B1A60FEF7D0FEC3
:101F080004462B4B1B6813F0007F47D0FEF7C8FE32
:101F1800001B0228F5D9032045E0254AD36923F0A0
:101F28008053D361DCE70022224B1A60FEF7B8FE2B
:101F380005461F4B1B6813F0007F06D0FEF7B0FE66
:101F4800401B0228F5D903202DE0236AB3F5803F12
:101F58001AD017494B6823F47413226A606A024343
:101F680013434B600122134B1A60FEF799FE044697
:101F78000F4B1B6813F0007F0ED1FEF791FE001B7C
:101F88000228F5D903200EE0094A536823F40033E8
:101F9800A1680B435360DCE7002004E0002002E066
:101FA800012000E0002002B070BD0120FBE700BF67
:101FB80000100240600042420122014B1A60704743
:101FC8004C00424210B586B0154C94E80F000DF154
:101FD800180E0EE90F00238AADF80430114B5B6828
:101FE80003F00C02082A18D1C3F38342724412F892
:101FF800102C13F4803F03D10B4800FB02F00DE0D6
:10200800084B5B68C3F34043734413F8143C074818
:1020180000FB02F0B0FBF3F000E0044806B010BD8E
:10202800F07700080010024000093D0000127A0015
:10203800594B1B6803F007038B420CD2564A1368AE
:1020480023F007030B431360136803F00703994257
:1020580001D00120704770B5036813F0020F06D055
:102068004E4A536823F0F0038468234353600D46B7
:102078000446036813F0010F52D04368012B23D0A4
:10208800022B28D0454A126812F0020F00F0828015
:1020980042494A6822F0030213434B60FEF700FEF0
:1020A80006466368012B1DD0022B2AD03B4B5B6888
:1020B80013F00C0F34D0FEF7F3FD801B41F2883388
:1020C8009842F3D9032070BD344A126812F4003FD5
:1020D800DED1012070BD314A126812F0007FD7D1DD
:1020E800012070BD2D4B5B6803F00C03042B17D047
:1020F800FEF7D6FD801B41F288339842F2D90320BF
:1021080070BD264B5B6803F00C03082B08D0FEF764
:10211800C7FD801B41F288339842F2D9032070BD75
:102128001D4B1B6803F007039D420CD21A4A136823
:1021380023F007032B431360136803F007039D4242
:1021480001D0012070BD236813F0040F06D0134A94
:10215800536823F4E063E1680B435360236813F08A
:10216800080F07D00D4A536823F46053216943EAE6
:10217800C1035360FFF726FF084B5B68C3F30313E3
:10218800074AD35CD840074B18600020FEF746FD8D
:10219800002070BD012070BD0020024000100240E8
:1021A80054A0000850010020014B1868704700BF78
:1021B800500100207047000008B5064B9B6813F0DB
:1021C800800F00D108BDFFF7F5FF8022024B1A707F
:1021D800F8E700BF001002400A10024070B582B054
:1021E8000446036813F0010F34D03E4BDB6913F04B
:1021F800805F48D13B4BDA6942F08052DA61DB6993
:1022080003F080530193019B0125374B1B6813F49E
:10221800807F3AD0334B1B6A13F4407311D0626845
:1022280002F4407293420CD02E4A136A23F4407091
:102238002E4901260E6000260E60106213F0010F71
:1022480037D1284A136A23F4407361680B43136239
:10225800002D3FD1236813F0020F06D0214A53689E
:1022680023F44043A1680B435360236813F0100F15
:1022780035D01C4A536823F4800361690B435360CB
:10228800002002B070BD0025BFE7174A136843F469
:1022980080731360FEF704FD0646134B1B6813F4A6
:1022A800807FB7D1FEF7FCFC801B6428F5D903209A
:1022B800E7E7FEF7F5FC06460A4B1B6A13F0020F28
:1022C800BFD1FEF7EDFC801B41F288339842F3D969
:1022D8000320D6E7D36923F08053D361BAE70020FF
:1022E800CFE700BF001002400070004040044242A7
:1022F800F8B505460F4616461C463BE02CB1FEF7DE
:10230800CFFC069BC01A844234D82A68536823F04D
:10231800E00353606B68B3F5827F0BD0AB6AB3F50B
:10232800005F14D0012385F85130002385F8503020
:102338000320F8BDAB68B3F5004F02D0B3F5806F4A
:10234800ECD12A68136823F040031360E6E72A6893
:10235800136823F400531B041B0C13602A681368CA
:1023680043F400531360DDE70123B34209D0B4F10D
:10237800FF3FC3D12B689B6837EA0303F4D00023DF
:10238800F3E70020F8BD10B582B0044600920B4672
:1023980000228021FFF7ACFF034620B1636D43F0B4
:1023A800200363650323184602B010BD2DE9F041F0
:1023B80084B01D4690F85030012B04D102231846F2
:1023C80004B0BDE8F08104460E469046012380F82B
:1023D8005030FEF765FC074694F85130DBB2012B0C
:1023E80007D00223012284F85120002284F85020CB
:1023F800E5E7002E00F0A480B8F1000F00F0A280FD
:10240800032384F85130002363652663A4F83480DD
:10241800A4F83680A363A387E38763642364A3686F
:10242800B3F5004F1CD023681A6812F0400F03D18F
:102438001A6842F040021A60E368B3F5006F15D0DD
:1024480063681BB1E38E9BB2012B44D1236816F855
:10245800012B1A73E38E9BB2013B9BB2E3863AE0F1
:102468002268136843F480431360DCE763681BB198
:10247800E38E9BB2012B13D1236836F8022BDA6066
:10248800E38E9BB2013B9BB2E38609E0002D5BD053
:10249800B5F1FF3F04D0FEF703FCC01B854255D9B8
:1024A800E38E9BB243B323689A6812F0020FEDD013
:1024B80036F8022BDA60E38E9BB2013B9BB2E386CF
:1024C800EEE7002D44D0B5F1FF3F04D0FEF7E8FB5E
:1024D800C01B85423ED9E38E9BB26BB123689A68D4
:1024E80012F0020FEDD016F8012B1A73E38E9BB28F
:1024F800013B9BB2E386EEE700972B4601220221BF
:102508002046FFF7F5FE08B103236BE73A46294654
:102518002046FFF738FF034618B1202363650123DF
:1025280060E7A26832B903922268D1680391926881
:102538000392039A626D002A3FF454AF012351E7D6
:1025480001234FE701234DE703234BE7032349E723
:10255800032347E7032345E700283CD010B504468A
:102568000023836290F85130002B31D0022384F885
:1025780051302268136823F04003136022686368AF
:10258800A1680B43E1680B4321690B4361690B4365
:10259800A16901F400710B43E1690B43216A0B4304
:1025A800A16A0B4313602268638B03F00403616A1A
:1025B8000B4353602368E26A1A612268D36923F4E3
:1025C8000063D36100206065012384F8513010BD99
:1025D80002F0C4F9CAE70120704770477047704796
:1025E8007047704710B5044603681A6912F0020F65
:1025F80011D0DA6812F0020F0DD06FF002021A61E2
:102608000123037703689B6913F0030F70D0FFF76A
:10261800E6FF0023237723681A6912F0040F12D00B
:10262800DA6812F0040F0ED06FF004021A61022368
:10263800237723689B6913F4407F5FD02046FFF718
:10264800CEFF0023237723681A6912F0080F12D0EF
:10265800DA6812F0080F0ED06FF008021A6104232E
:1026680023772368DB6913F0030F4ED02046FFF76A
:10267800B6FF0023237723681A6912F0100F12D0CF
:10268800DA6812F0100F0ED06FF010021A610823EA
:1026980023772368DB6913F4407F3DD02046FFF79A
:1026A8009EFF0023237723681A6912F0010F03D0D5
:1026B800DA6812F0010F36D123681A6912F0800F18
:1026C80003D0DA6812F0800F34D123681A6912F047
:1026D800400F03D0DA6812F0400F32D123681A692C
:1026E80012F0200F03D0DA6812F0200F30D110BD9D
:1026F800FFF774FF2046FFF773FF8AE72046FFF7CE
:102708006DFF2046FFF76CFF9BE72046FFF766FF4B
:102718002046FFF765FFACE72046FFF75FFF20463E
:10272800FFF75EFFBDE76FF001021A612046FFF771
:1027380054FFC1E76FF080021A61204600F004F9E7
:10274800C3E76FF040021A612046FFF74AFFC5E76A
:102758006FF020021A61204600F0F5F8C7E7000084
:102768000368254A904212D002F5006290420ED0CA
:10277800B0F1804F0BD0A2F59832904207D002F505
:102788008062904203D002F58062904203D123F028
:1027980070034A681343184A904212D002F5006247
:1027A80090420ED0B0F1804F0BD0A2F598329042F3
:1027B80007D002F58062904203D002F58062904211
:1027C80003D123F44073CA68134323F080034A6992
:1027D800134303608B68C3620B688362064B98429D
:1027E80006D003F50063984202D001234361704785
:1027F8000B690363F9E700BF002C0140002847D0AC
:10280800F8B505460C4690F83D30002B3BD0022326
:1028180085F83D30294651F8042B936823F00703C7
:1028280093602868FFF79CFF286886688369026AB6
:1028380021680E4323F4407323F00303A168A769BA
:1028480041EA07210B4323F47C4323F0FC03E168AE
:10285800E76941EA07210B432769216A090341EA2D
:1028680007110B4322F0AA026168646941EA041166
:102878000A43866029688B612B681A62012385F8F0
:102888003D300020F8BD80F83C3002F0BDF8BEE7CE
:102898000120704710B4012303FA01F4036A23EA04
:1028A80004030362036A8A401343036210BC70473F
:1028B80010B5044661B1042916D001220021006830
:1028C800FFF7E8FF012204212068FFF7E3FF04E097
:1028D800012200210068FFF7DDFF2268136843F03A
:1028E80001031360002010BD012204210068FFF7D6
:1028F800D1FFF2E790F83C30012B22D030B401220E
:1029080080F83C20022380F83D300468636823F097
:1029180070036360046863680D682B436360046830
:10292800A36823F08003A3600468A36849680B4385
:10293800A36080F83D20002380F83C30184630BC66
:102948007047022070477047704784B001A880E83C
:102958000E00002004B07047B0F840309BB243F43A
:102968003F43A0F8403000207047B0F8403023F4CF
:1029780074535B045B0CA0F84030002070470020C3
:10298800704784B038B505AC84E80E000123A0F880
:1029980040300024A0F84040A0F84440A0F850403F
:1029A800FFF7DAFF2046BDE8384004B0704710B49E
:1029B800CB78032B0FD8DFE803F0026E55610A7855
:1029C80030F822309BB223F4EC4323F0700343F435
:1029D800007320F822300A7830F8223023F0F00310
:1029E8001B051B0D134343F4004343F0800320F8F9
:1029F80022308B7A002B40F0B2804B78002B57D0D6
:102A0800B0F850309BB20A7803EBC20300EB4303E3
:102A18008A8852085200C3F800240A7830F8223015
:102A280013F0400F0BD030F8223023F0F0031B05D1
:102A38001B0D43F4004343F0C00320F822300A780A
:102A480030F822309BB223F4E04323F0400383F0B4
:102A5800200343F4004343F0800320F82230002091
:102A680010BC70470A7830F822309BB223F4EC434C
:102A780023F070039BB220F82230ACE70A7830F8D4
:102A880022309BB223F4EC4323F0700343F4C06379
:102A980020F822309FE70A7830F822309BB223F4DE
:102AA800EC4323F0700343F4806320F8223092E76C
:102AB800B0F850309BB20A7803EBC203043300EB42
:102AC80043038A8852085200C3F80024B0F85030F3
:102AD8009BB20A7803EBC203063300EB43030C698D
:102AE8003E2C30D9C4F34F1214F01F0F01D1013A14
:102AF80092B26FEAC2626FEA524292B2C3F80024FD
:102B08000A7830F8223013F4804F0BD030F8223096
:102B180023F0F0031B051B0D43F4404343F08003EF
:102B280020F822300A7830F822309BB223F4804310
:102B380023F0700383F4405343F4004343F08003CD
:102B480020F822308BE7C4F34F0214F0010F01D0B4
:102B5800013292B2920292B2C3F80024D0E70A7806
:102B680030F8223023F4F8731B051B0D43F401439E
:102B780043F0800320F82230B0F850309BB20A7836
:102B880003EBC20300EB4303CA8852085200C3F8A0
:102B98000024B0F850309BB20A7803EBC203043328
:102BA80000EB43030A8952085200C3F800244B780B
:102BB800002B4BD10A7830F8223013F4804F0BD019
:102BC80030F8223023F0F0031B051B0D43F440437B
:102BD80043F0800320F822300A7830F8223013F0CE
:102BE800400F0BD030F8223023F0F0031B051B0DEB
:102BF80043F4004343F0C00320F822300A7830F849
:102C0800223023F0F0031B051B0D43F4004343F06F
:102C1800C00320F822300A7830F822309BB223F41F
:102C2800804323F0700383F4405348F28004234325
:102C380020F822300A7830F822309BB223F4E0439F
:102C480023F04003234320F8223008E70A7830F8BD
:102C5800223013F4804F0BD030F8223023F0F003E9
:102C68001B051B0D43F4404343F0800320F822303A
:102C78000A7830F8223013F0400F0BD030F82230A9
:102C880023F0F0031B051B0D43F4004343F0C0037E
:102C980020F822300A7830F8223023F0F0031B05A0
:102CA8001B0D43F4404343F0800320F822300B7897
:102CB80030F8232092B222F4E04222F0400248F297
:102CC8008004224320F823200A7830F822309BB26F
:102CD80023F4804323F07003234320F82230BEE618
:102CE8008B7A002B44D14B780BB30A7830F822301A
:102CF80013F0400F0BD030F8223023F0F0031B05FF
:102D08001B0D43F4004343F0C00320F822300A7837
:102D180030F822309BB223F4E04323F0400343F41D
:102D2800004343F0800320F82230002070470A78DF
:102D380030F8223013F4804F0BD030F8223023F0D3
:102D4800F0031B051B0D43F4404343F0800320F8B8
:102D580022300A7830F822309BB223F4804323F0E3
:102D6800700343F4004343F0800320F82230DCE78B
:102D780010B44B78002B4BD10A7830F8223013F47A
:102D8800804F0BD030F8223023F0F0031B051B0DC9
:102D980043F4404343F0800320F822300A7830F8A7
:102DA800223013F0400F0BD030F8223023F0F0031C
:102DB8001B051B0D43F4004343F0C00320F82230E9
:102DC8000A7830F8223023F0F0031B051B0D43F47A
:102DD800004343F0C00320F822300B7830F823205A
:102DE80092B222F4804222F0700248F28004224318
:102DF80020F823200A7830F822309BB223F4E043ED
:102E080023F04003234320F82230002010BC7047F1
:102E18000A7830F8223013F4804F0BD030F8223083
:102E280023F0F0031B051B0D43F4404343F08003DC
:102E380020F822300A7830F8223013F0400F0BD0F7
:102E480030F8223023F0F0031B051B0D43F4004338
:102E580043F0C00320F822300A7830F8223023F0FB
:102E6800F0031B051B0D43F4404343F0800320F897
:102E780022300B7830F8232092B222F4E04222F07C
:102E8800400248F28004224320F823200A7830F8D0
:102E980022309BB223F4804323F07003234320F8AD
:102EA8002230B2E70A788AB14B7813BB30F8223067
:102EB8009BB223F4804323F0700383F4805343F4DC
:102EC800004343F0800320F8223010E030F822302D
:102ED8009BB223F4804323F0400383F4805383F0B0
:102EE800100343F4004343F0800320F8223000200D
:102EF800704730F822309BB223F4E04323F04003BC
:102F080083F0100343F4004343F0800320F8223099
:102F1800EDE74B781BB30A7830F8223013F0400FF6
:102F28000BD030F8223023F0F0031B051B0D43F4BF
:102F3800004343F0C00320F822300A7830F82230EA
:102F48009BB223F4E04323F0400383F0300343F4BF
:102F5800004343F0800320F82230002070470A78AD
:102F680030F8223013F4804F0BD030F8223023F0A1
:102F7800F0031B051B0D43F4404343F0800320F886
:102F880022300A7830F822309BB223F4804323F0B1
:102F9800700383F4405343F4004343F0800320F864
:102FA8002230DAE711B98023A0F84C3000207047AE
:102FB8000020704700207047B0F8440080B2704786
:102FC8000020704701335B1000EB420202F580627B
:102FD80063B110B40C78487844EA002422F8044B12
:102FE8000231013B002BF5D110BC70477047F8B592
:102FF8008A694C78012C35D00B699A4240F2F080EE
:10300800D21A8A618A7A002A40F0FA80B0F85020F1
:1030180092B20C7802EBC402063200EB42023E2B5D
:1030280040F2E280C3F34F1413F01F0F01D1013CAB
:10303800A4B26FEAC4646FEA5444A4B2C2F800446C
:103048000A7830F822309BB223F4804323F07003CF
:1030580083F4405343F4004343F0800320F82230C4
:103068000020F8BD0F69BA4226D9D21B8A610E46E4
:1030780005468B7A23B30B7830F8232012F0400FE3
:103088006CD0002C39D1B0F8502092B202EBC303B7
:10309800063300EB43033E2F23D9C7F34F1217F033
:1030A8001F0F01D1013A92B26FEAC2626FEA52422F
:1030B80092B2C3F800242AE000238B611746D6E7B2
:1030C800BBB28A884969FFF77DFFB5F850309BB2DB
:1030D800327803EBC203023305EB4303C3F80074F1
:1030E8002BE0C7F34F0217F0010F01D0013292B263
:1030F800920292B2C3F8002409E0B0F8502092B2CC
:1031080002EBC303023300EB4303C3F800743289B4
:10311800BBB271692846FFF755FF7378002B4FD172
:10312800327835F8223023F0F0031B051B0D43F4E9
:10313800004343F0C00325F82230327835F82230B6
:103148009BB223F4E04323F0400383F0300343F4BD
:10315800004343F0800325F8223081E724BBB0F810
:10316800502092B202EBC303023300EB43033E2F1D
:103178000ED9C7F34F1217F01F0F01D1013A92B2BF
:103188006FEAC2626FEA524292B2C3F8002415E0B5
:10319800C7F34F0217F0010F01D0013292B2920229
:1031A80092B2C3F8002409E0B0F8502092B202EBC2
:1031B800C303023300EB4303C3F80074F288A7E7A4
:1031C800012BBAD1327835F8223023F0F0031B05F1
:1031D8001B0D43F4404343F0800325F82230ACE74D
:1031E80000238B6113460DE7C3F34F0413F0010F5F
:1031F80001D00134A4B2A402A4B2C2F800441FE76B
:10320800C4B9B0F8502092B20C7802EBC402023272
:1032180000EB42023E2B29D9C3F34F1413F01F0FC2
:1032280001D1013CA4B26FEAC4646FEA5444A4B269
:10323800C2F800444A788ABBB0F8502092B20C78A1
:1032480002EBC402063200EB42023E2B1AD9C3F34A
:103258004F1413F01F0F01D1013CA4B26FEAC464EC
:103268006FEA5444A4B2C2F80044E9E6C3F34F0439
:1032780013F0010F01D00134A4B2A402A4B2C2F821
:103288000044D7E7C3F34F0413F0010F01D0013412
:10329800A4B2A402A4B2C2F80044D1E6012A7FF481
:1032A800CFAEB0F8502092B20C7802EBC4020232D2
:1032B80000EB4202C2F80034C2E601335B1000EBB7
:1032C800420202F5806204E0106821F8020B013B1B
:1032D8000432002BF8D17047D0F818321BB1002007
:1032E800C3F8140270470220704710B5D0F818428E
:1032F800D0F81C325BB194F80002FF2807D09B6815
:1033080094F8012221469847FF2384F800320020D0
:1033180010BD0000432303800048704708000020C8
:1033280043230380004870474C0000204323038058
:1033380000487047900000200A2303800048704727
:10334800D400002038B50446D0F8185202F008F925
:10335800C5F80C02D4F818324BB1D4F81C32DB682B
:1033680005F50371D5F804029847002038BD0220FE
:1033780038BD000070B505460C46D0F818620B78C9
:1033880013F0600224D0202A25D1CA88CAB113F0CC
:10339800800F0AD14B7886F80032CB8886F8013244
:1033A800CA88314600F07AFC15E0D0F81C329B68D8
:1033B800314660789847E2883146284600F059FC43
:1033C80009E0D0F81C329B6800224878984702E050
:1033D8004B780A2B01D0002070BD0122014900F072
:1033E80048FCF8E78403002010B50446812102F068
:1033F80050F80121204602F04CF88221204602F0C4
:1034080048F8D4F8183253B1D4F81C325B6898479E
:10341800D4F8180202F0AEF80023C4F818320020DD
:1034280010BD38B50446037C73BB4FF40073022209
:10343800812102F01DF84FF4007302220121204679
:1034480002F016F8082303228221204602F010F821
:103458004FF4077002F08AF80546C4F8180248B31A
:10346800D4F81C321B6898470023C5F81432C5F8F5
:103478001832237CA3B14023D5F804220121204629
:1034880002F060F8002038BD40230222812101F0BB
:10349800EFFF402302220121204601F0E9FFD1E796
:1034A8004FF40073D5F804220121204602F04AF8AF
:1034B800002038BD012038BD19B1C0F81C12002009
:1034C800704702207047D0F81832C3F80812C3F8C2
:1034D800102200207047D0F81832C3F804120020D8
:1034E8007047D0F818229AB108B5037C3BB1402345
:1034F800D2F80422012102F025F8002008BD4FF47B
:103508000073D2F80422012102F01CF8002008BD43
:103518000220704798B108B50346D0F8140210B1DC
:103528000020C3F8140209B1C3F810121846012389
:1035380080F8FC31027001F043FF002008BD022032
:10354800704719B1C0F81412002070470220704764
:1035580008B501F07FFF002008BD08B5D0F8143287
:1035680023B11B68984718B1022008BD022008BD86
:10357800002008BD08B5D0F814325B6898470020D1
:1035880008BD38B5044600F50275284600F00DF967
:103598000123C4F8F431B4F80E32C4F8F83194F8C1
:1035A800081201F01F03012B0ED03BB1022B10D0E3
:1035B80001F08001204601F07AFF03E02946204609
:1035C80000F06EFA002038BD2946204600F08CFA3B
:1035D800F8E72946204600F0A3FAF3E710B50446B9
:1035E80019BB1346D0F8F421032A27D1D0F80C11BF
:1035F800D0F8102191420BD8D0F814321B691BB1B6
:1036080090F8FC21032A0ED0204600F05EFB15E05E
:10361800891AC0F80C118A4228BF0A4692B2194684
:1036280000F04BFB0AE09847EEE70A46D0F8143260
:103638009B691BB190F8FC11032901D0002010BD33
:1036480011469847FAE710B50446002947D11346B2
:10365800D0F8F421022A05D094F80032012B3AD090
:10366800002010BDC169026A914217D88169B1FB77
:10367800F2F302FB13132BB98A4203D8D0F8F831BE
:10368800994218D3D4F81432DB681BB194F8FC21A2
:10369800032A1DD0204600F023FBDDE78A1AC26109
:1036A80092B2194600F0F2FA00231A46194620464B
:1036B80001F048FFD0E70022114600F0E7FA0021A8
:1036C800C4F8F8110B460A46204601F03BFFC3E751
:1036D80020469847DEE7002384F80032C0E70A4610
:1036E800D0F814325B69002BBAD090F8FC1103298A
:1036F800B6D111469847B3E738B5044640230022AF
:10370800114601F0B5FE4025C4F810512B460022A1
:103718008021204601F0ACFE2562012384F8FC31AB
:10372800D4F818322BB1D4F814325B6821792046CA
:103738009847002038BD01740020704790F8FC318C
:1037480080F8FD31042380F8FC310020704790F8A0
:10375800FD3180F8FC310020704708B590F8FC3145
:10376800032B01D0002008BDD0F81432DB69002BF0
:10377800F8D09847F6E7002302E00133DBB20130C6
:103788000278002AF9D1184670474B88012B00D0DF
:10379800704710B50446C0F80432D0F814329B685C
:1037A8009847204600F091FA10BD0B7803704B78CB
:1037B80043708B78CA7803EB022343800B794A79EC
:1037C80003EB022383808B79CA7903EB0223C3803E
:1037D800704710B50446802101F069FE002120469B
:1037E80001F065FE10BD30B583B004460D464A8829
:1037F800130A013B062B00F28180DFE803F0041373
:10380800277F7F637000D0F810321B680DF1060126
:10381800007C9847BDF8062012B1EB88002B71D1C7
:1038280003B030BD037C43B9D0F814329B6A0DF164
:103838000600984702234370ECE7D0F81432DB6A9D
:103848000DF10600984702234370E3E7D2B2052A38
:1038580034D8DFE802F0030B131B232BD0F8103207
:103868005B680DF10601007C9847D3E7D0F8103269
:103878009B680DF10601007C9847CBE7D0F8103221
:10388800DB680DF10601007C9847C3E7D0F81032D9
:103898001B690DF10601007C9847BBE7D0F8103290
:1038A8005B690DF10601007C9847B3E7D0F8103248
:1038B8009B690DF10601007C9847ABE72946FFF7A5
:1038C80088FFADE7037C33B9D0F814325B6B0DF198
:1038D800060098479EE72946FFF77BFFA0E7037C91
:1038E80043B9D0F814321B6B0DF106009847072333
:1038F80043708FE72946FFF76CFF91E72946FFF7EA
:1039080068FF8DE79A4228BF1A46ADF8062001469F
:10391800204600F0AEF983E738B504468B88E3B952
:10392800CB88D3B98D7805F07F0590F8FC31032B4F
:103938000CD080F8FE51294601F0E8FD204600F041
:10394800C4F935B1022384F8FC3138BDFFF741FFD3
:1039580038BD012384F8FC3138BD2046FFF739FF14
:1039680038BD000038B504460D468978254B1970D6
:10397800012909D890F8FC31022B09D0032B1CD05F
:103988002946FFF726FF38BD2946FFF722FF38BD35
:1039980081B14160032380F8FC31FFF7DEFD022886
:1039A80003D0204600F091F938BD29462046FFF79C
:1039B80010FF38BD00F089F938BD89B143689942D4
:1039C8001DD0D9B2FFF7D6FD0E4B1978616020469D
:1039D800FFF7C3FD02280DD0204600F076F938BD68
:1039E800022380F8FC314160FFF7C4FD204600F057
:1039F8006CF938BD29462046FFF7EBFE38BD00F0CC
:103A080064F938BD8503002008B5CB88012B08D19F
:103A180090F8FC31022B07D0032B0DD0FFF7D9FE0D
:103A280008BDFFF7D6FE08BD0146002341F8083F50
:103A3800012200F01EF908BD0122011D00F019F94C
:103A480008BD08B590F8FC31023B012B0CD80123C6
:103A5800C360D0F804320BB10323C360022200F123
:103A68000C0100F006F908BDFFF7B3FE08BD10B55C
:103A7800044690F8FC31023B012B0ED84B88012BF1
:103A880000D010BD0023C0F80432D0F814329B686F
:103A98009847204600F019F910BDFFF79AFEF0E7A5
:103AA80008B54B78092B1CD8DFE803F012181B1552
:103AB8001B09051B0F0CFFF796FE002008BDFFF73A
:103AC8002BFFFAE7FFF74EFFF7E7FFF79DFFF4E755
:103AD800FFF7B7FFF1E7FFF758FEEEE7FFF7C7FF7D
:103AE800EBE7FFF776FEE8E738B504460D4690F8B1
:103AF800FC31032B11D10B79012B03D9FFF769FE98
:103B0800002038BDD0F814329B689847EB88002B0A
:103B1800F6D1204600F0D9F8F2E7FFF75AFEEFE7B2
:103B280038B505460C468A880B7803F06003202BCD
:103B380011D0D1B26378012B2BD0002B4DD0032BA1
:103B48000DD190F8FC31022B0BD0032B10D021465D
:103B5800FFF73FFE03E0D0F814329B689847002037
:103B680038BD0029FBD08029F9D001F0A0FCF6E788
:103B7800638823B919B1802901D001F098FCD5F8E0
:103B880014329B68214628469847284600F09DF83D
:103B9800E5E790F8FC31022B05D0032B0AD021462B
:103BA800FFF717FEDBE70029D9D08029D7D001F02D
:103BB8007EFCD4E76388002BD1D111F07F0F03D1AD
:103BC800284600F082F8CAE701F07FFCD5F81432E5
:103BD8009B68214628469847F2E790F8FC31022B6B
:103BE80005D0032B09D02146FFF7F3FDB7E711F005
:103BF8007F0FB4D001F05BFCB1E712F0800F11D158
:103C080001F07F04103400EB04140434284601F05A
:103C18006AFC70B10123236002222146284600F085
:103C280028F89CE701F07F04013400EB0414043405
:103C3800ECE700232360EFE7D0B170B50D461646D8
:103C48000446FFF798FD0130400080B230802870AC
:103C580003236B70022307E05A1CD2B20134E954E3
:103C68000233DBB20021A95421780029F4D170BDB8
:103C7800704710B513460222C0F8F4218361C3616E
:103C88000A46002101F050FC002010BD08B513467B
:103C98000A46002101F048FC002008BD10B5134673
:103CA8000322C0F8F421C0F80831C0F80C310A46E4
:103CB800002101F047FC002010BD08B513460A4654
:103CC800002101F03FFC002008BD08B50423C0F81E
:103CD800F43100231A46194601F026FC002008BDDD
:103CE80008B50523C0F8F43100231A46194601F037
:103CF80029FC002008BD000070B504460D46164694
:103D080055A3D3E90023FCF7E9FE90B100225E4BEE
:103D180020462946FCF7CEFE58B156B10B225B4B24
:103D28001A7000225A4B20462946FCF795FA044699
:103D38000D464BA3D3E9002320462946FCF7CEFEC7
:103D480090B10022534B20462946FCF7B3FE58B1E8
:103D580056B114224D4B1A7000224F4B204629466B
:103D6800FCF77AFA04460D4600224C4B20462946B9
:103D7800FCF7B4FE98B13CA3D3E9002320462946BA
:103D8800FCF798FE58B156B11E22404B1A7000221B
:103D9800434B20462946FCF75FFA04460D4634A3F8
:103DA800D3E9002320462946FCF798FE98B12CA3B6
:103DB800D3E9002320462946FCF77CFE58B156B1CA
:103DC8002822324B1A700022364B20462946FCF72F
:103DD80043FA04460D4600224FF080432046294608
:103DE800FCF77CFE98B122A3D3E90023204629469C
:103DF800FCF760FE58B156B15022244B1A700022CD
:103E0800294B20462946FCF727FA04460D461AA3F3
:103E1800D3E9002320462946FCF760FEA0B118A389
:103E2800D3E9002320462946FCF744FE60B15EB181
:103E3800A022164B1A7012A3D3E900232046294664
:103E4800FCF70AFA04460D4616B900220F4B1A7001
:103E58002046294670BD00BF3333333333B32C407B
:103E6800CDCCCCCCCCCC1C4033333333333324408F
:103E78006666666666660E409A9999999999B93FF9
:103E8800CDCCCCCCCCCCFC3F000039408C030020FE
:103E98000000384000002C4000002A4000001C4070
:103EA800000022400000184000000C4008B5002225
:103EB8004FF480510148FDF7DFF908BD000C0140BF
:103EC80010B5084C00224FF480712046FDF7D4F954
:103ED8000120FCF7EBFE01224FF480712046FDF72C
:103EE800CBF910BD0014014010B582B002AC04F843
:103EF800010D00224FF400710548FDF7BDF94FF0A0
:103F0800FF33012221460348FEF750FA02B010BDE4
:103F180000140140C805002070B506460D46012270
:103F28004FF400710B48FDF7A7F90FE02C46B5F5E3
:103F3800004F28BF4FF40044A4B24FF0FF3322468D
:103F480031460548FEF732FA26442D1B002DEDD1E7
:103F580070BD00BF00140140C8050020F0B583B053
:103F680007460D4616461C462A20FFF7BDFF3B0AAA
:103F78008DF804308DF80570330A8DF806308DF809
:103F8800076004210DEB0100FFF7C6FF2B20FFF7A8
:103F9800ABFF2B0A8DF804308DF80550230A8DF8F5
:103FA80006308DF8074004210DEB0100FFF7B4FF40
:103FB8002C20FFF799FF03B0F0BD82B02DE9F04344
:103FC80083B091460B93BDF83470BDF83860DAB20F
:103FD800024492B2C3F307230B449BB2013B013A5C
:103FE8009BB292B2FFF7BAFF4FF000081EE0330A07
:103FF8008DF804308DF80560022101A8FFF78CFFC9
:1040080001349DF82C309C420ED205FA04F313F4C7
:10401800004FECD03B0A8DF804308DF80570022172
:1040280001A8FFF779FFEBE708F101089DF82D20BB
:10403800904508D2A9F1200302FB03830C9A32F8B9
:1040480013500024DDE703B0BDE8F04302B0704729
:1040580008B501224FF480510148FDF70DF908BD5C
:10406800000C014070B584B0FFF720FFFFF728FF70
:104078000120FFF739FFC820FCF718FECB20FFF717
:1040880033FF714C94E8030000908DF8041005216B
:104098006846FFF741FFCF20FFF726FFA368ADF87A
:1040A80000301B0C8DF8023003216846FFF734FFFF
:1040B800E820FFF719FFE368ADF800301B0C8DF816
:1040C800023003216846FFF727FFEA20FFF70CFFBD
:1040D80000258DF800508DF8015002216846FFF741
:1040E8001BFFED20FFF700FF2369009304216846BA
:1040F800FFF712FFF720FFF7F7FE20238DF80030B7
:1041080001216846FFF708FFC020FFF7EDFE2323D3
:104118008DF8003001216846FFF7FEFEC120FFF749
:10412800E3FE10238DF8003001216846FFF7F4FE06
:10413800C520FFF7D9FEA38AADF8003002216846F2
:10414800FFF7EAFEC720FFF7CFFE86238DF8003081
:1041580001216846FFF7E0FE3620FFF7C5FE482339
:104168008DF8003001216846FFF7D6FE3A20FFF7A8
:10417800BBFE55238DF8003001216846FFF7CCFEC1
:10418800B120FFF7B1FE8DF8005018238DF80130EB
:1041980002216846FFF7C0FEB620FFF7A5FEA36917
:1041A800ADF800301B0C8DF8023003216846FFF78C
:1041B800B3FEF220FFF798FE8DF800500121684603
:1041C800FFF7AAFE2620FFF78FFE01268DF8006074
:1041D80031466846FFF7A0FEE020FFF785FE6D46F2
:1041E80004F11C030FCB07C525F8023B1B0C2B70F1
:1041F8000F216846FFF790FEE120FFF775FE6D4638
:104208002C3494E80F0007C525F8023B1B0C2B70D3
:104218000F216846FFF780FE1120FFF765FE142086
:10422800FCF744FD2920FFF75FFE3620FFF75CFE10
:10423800E8238DF8003031466846FFF76DFEFFF73A
:1042480007FF04B070BD00BF18A00008B0F5A07F3C
:1042580001D2EF2900D9704770B582B016460D46D5
:104268000446FFF723FE6B1C621C9BB292B22946E0
:104278002046FFF773FE330A8DF804308DF8056089
:10428800022101A8FFF748FEFFF7E2FE02B070BD69
:1042980082B02DE9F04385B006460C4617460D93CB
:1042A800BDF83C90BDF84080FFF700FE10E00137F4
:1042B80000260DE0CDF80880CDF804900E9B009301
:1042C8000D9B21463046FFF778FE3544AEB20137E4
:1042D8003A7882B19DF834507319B3F5A07FE9DBC1
:1042E8009DF835301C44A4B22344EF2B03DC202A6C
:1042F800DDD00026DEE7FFF7ABFE05B0BDE8F043F2
:1043080002B070472DE9F04182B0BDF82080B0F5C9
:10431800A07F41D204460F4616461D46EF293BD8DA
:104328008318013BB3F5A07F02DBC0F5A076B6B2D7
:104338007B19013BEF2B02DDC7F1F005ADB2FFF7AA
:10434800B5FD321992B2EB199BB2013B013A9BB20F
:1043580092B239462046FFF701FE4FEA18238DF83E
:1043680004308DF8058001224FF400710C48FCF7E9
:1043780083FF0CE04FF0FF33022201A90948FEF742
:1043880015F8013CA4B2002CF4D1013DADB20DB139
:104398003446F8E7FFF75CFE02B0BDE8F08100BFE5
:1043A80000140140C805002000B583B00090F02338
:1043B8004FF4A07200210846FFF7A4FF03B05DF890
:1043C80004FB00002DE9F04389B0424B9A6942F0A2
:1043D80010029A619A6902F010020092009A9A6992
:1043E80042F004029A619A6902F004020192019A69
:1043F8009A6942F008029A619A6902F008020292E8
:10440800029A9A6942F020029A619B6903F020039C
:104418000393039B304D002242F210012846FCF71B
:104428002BFFDFF8C09000224FF480514846FCF77C
:1044380023FFDFF8B48000224FF440714046FCF7B8
:104448001BFF4FF40053049301260596002406949D
:104458000227079704A92846FCF710FE10230493A7
:104468000596069407960DEB03012846FCF706FE11
:1044780020230493194B0593069404A92846FCF7B6
:10448800FDFD4FF48053049305960694079704A9FD
:104498004846FCF7F3FD4FF44073049305960694E1
:1044A800079704A94046FCF7E9FD402304930C4B09
:1044B8000593069404A92846FCF7E0FD2246214608
:1044C8001720FCF771FD1720FCF7A0FD09B0BDE827
:1044D800F08300BF001002400010014000001110DE
:1044E80000003110000C01400014014008B5FFF72E
:1044F800AFFDFFF7B7FD08BDFEE7000000B58DB0C2
:104508001748184B03600023436083604FF6FF721F
:10451800C26003618361032203920493012205921E
:1045280006930793089309920A930B9303A9FEF73E
:1045380065F950B900230193029301A90848FEF7D1
:10454800D9F938B90DB05DF804FB4FF4DB710648B2
:10455800FFF7D2FF40F2BD110348FFF7CDFF00BFC0
:10456800200600200008004038A1000808B50F48C0
:104578000F4B03604FF48273436000238360C36072
:10458800036143614FF4007282613022C2610362A9
:10459800436283620A23C362FDF7DEFF00B908BDE8
:1045A80040F281110348FFF7A7FF00BF9C060020D7
:1045B8000030014038A1000808B50E480E4B0360D2
:1045C8004FF48273436000238360C36003614361D7
:1045D8004FF400728261C3610362436283620A23FB
:1045E800C362FDF7B9FF00B908BD40F2991103484D
:1045F800FFF782FFC80500200038004038A10008F6
:1046080000B585B01348144B036000238360C36072
:1046180043614FF46022C261436001230361FCF7E8
:104628001BFC60B90023019301220292039301A9A4
:104638000848FCF74FFB38B905B05DF804FB40F2B9
:104648005F110648FFF758FF40F269110348FFF76A
:1046580053FF00BF680600200024014038A100086D
:1046680000B597B001220C924FF480330D930021CE
:104678000E9110920222139214934FF4E0131593A3
:104688000CA8FDF7A9FA70BB0F2307930221089124
:10469800002309934FF480620A920B9307A8FDF751
:1046A800C7FC28BB122301934FF400430393002354
:1046B800069301A8FDF792FDF8B9FDF77DFCFDF71B
:1046C80073FD104BA3FB00308009FCF7ABFC042002
:1046D800FCF7BEFC002211464FF0FF30FCF764FCEB
:1046E80017B05DF804FB40F225110748FFF704FFF7
:1046F80040F233110448FFF7FFFE40F23B11024835
:10470800FFF7FAFED34D621038A100080000000040
:104718002DE9F04F87B0FCF7A5FAFFF7A1FFFFF7E7
:1047280051FEFFF7EBFE00F0A5FDFFF71FFFFFF7B7
:1047380043FFFFF765FFFFF7D9FE18214648FEF74C
:10474800B7F80020FFF730FE002422463FE0434B35
:104758004BE0434B93F804B05FFA8BFBDFF818A1EA
:10476800DAE900679AF80820FFF7C6FA8046894612
:104778009AF8103004939AF811300393DAE9060195
:10478800FCF7B6F90290CDE9008932463B460AF1BA
:104798000C01584600F0E8FC11E000231A461946BF
:1047A800184600F01FFB00231A461946184600F069
:1047B80071FA00231A461946184600F0B7F9284B33
:1047C8001B68032B02DD0022254B1A602A46254B65
:1047D8005D6AAB1A1C44002BB8BF5B42B3F5004FAF
:1047E80004DBAA42B3DD4FF6FF731C444FF40051BB
:1047F8001D48FCF747FD2046FBF77AFE12A3D3E9D4
:104808000023FBF7DBFE0022184BFBF7D7FE002244
:10481800174BFBF721FD0EA3D3E90023FBF7F8FFA5
:10482800144BC3E900010E4B1B68303B032BC6D861
:1048380001A252F823F000BF5B470008A347000815
:10484800AF470008BB470008190019001900793F55
:10485800000000000088C340200600200100FFFF80
:104868008803002000080040001001400000244098
:1048780000408F40600600203001002000B583B062
:10488800244B9A6942F001029A619A6902F0010286
:104898000092009ADA6942F08052DA61DB6903F02B
:1048A80080530193019B0320FCF76CFB0022114607
:1048B8006FF00B00FCF778FB002211466FF00A003E
:1048C800FCF772FB002211466FF00900FCF76CFB45
:1048D800002211466FF00400FCF766FB0022114627
:1048E8006FF00300FCF760FB002211466FF0010037
:1048F800FCF75AFB002211464FF0FF30FCF754FB3F
:10490800054A536823F0E06343F08063536003B0C3
:104918005DF804FB001002400000014002680D4BE6
:104928009A4200D0704700B587B003F56C439A6986
:1049380042F400729A619B6903F400730193019B2E
:1049480003230293039302A90348FCF797FB07B0DC
:104958005DF804FB002401400008014010B586B052
:104968000368244A934204D0234A934220D006B0D5
:1049780010BD224B9A6942F480529A619B6903F4F4
:1049880080530093009BA0230293022303930323E5
:1049980005931B4C02A92046FCF770FB40230293A9
:1049A80000230393049302A92046FCF767FBDEE784
:1049B800124BDA6942F48042DA61DB6903F480431E
:1049C8000193019B4FF42043029302230393032393
:1049D80005930C4C02A92046FCF750FB4FF480438A
:1049E800029300230393049302A92046FCF746FB95
:1049F800BDE700BF00300140003800400010024011
:104A080000080140000C01400268164B9A4200D091
:104A1800704710B586B003F50233DA6942F0040234
:104A2800DA61DB6903F004030193019B4FF44053FF
:104A38000293002403940123049302A90A48FCF773
:104A48001DFB0A4A536843F0E06343F48053536004
:104A5800224621461E20FCF7A7FA1E20FCF7D6FAAC
:104A680006B010BD000800400014014000000140DD
:104A780008B5FDF7A1FB08BDFEE7FEE7FEE7FEE788
:104A880070477047704708B5FCF7FEF8FCF7F1FA75
:104A980008BD000008B50248FCF769FF08BD00BF63
:104AA8002012002008B5084B5B6913F0200F03D0D3
:104AB800064A1368013313602020FCF7E9FB402005
:104AC800FCF7E6FB08BD00BF000401408803002096
:104AD80008B50248FDF786FD08BD00BF2006002086
:104AE8000F4B1A6842F001021A6059680D4A0A40D1
:104AF8005A601A6822F0847222F480321A601A68A6
:104B080022F480221A605A6822F4FE025A604FF496
:104B18001F029A604FF00062034B9A60704700BF13
:104B2800001002400000FFF800ED00E070B584B00E
:104B38004C4B002402944FF4784201925A68009238
:104B48001B68494A21462046FFF7A2FB13E0A5B29D
:104B58004FF6FF7223212846FFF778FB4FF6FF72C6
:104B680024212846FFF772FB4FF6FF7225212846BD
:104B7800FFF76CFB0134B4F5A07FE8DB3B4D002464
:104B880002944FF6E07301936B6800932B68384AE0
:104B980028212046FFF77CFB02944FF4FC6601961F
:104BA8006B6800932B68334A4B212046FFF770FB54
:104BB800029401966B6800932B682F4A5F21204668
:104BC800FFF766FB029401966B6800932B682B4AEB
:104BD80073212046FFF75CFB029401966B680093F3
:104BE8002B68274A87212046FFF752FB029401963B
:104BF8006B6800932B68234A9B212046FFF748FBEC
:104C080013E0A5B24FF6FF72BE212846FFF71EFB40
:104C18004FF6FF72BF212846FFF718FB4FF6FF72C9
:104C2800C0212846FFF712FB0134B4F5A07FE8DB6A
:104C3800154D002402941F2601966B6800932B687B
:104C4800124AC8212046FFF723FB029401966B689D
:104C580000932B680E4AD2212046FFF719FB04B0B7
:104C680070BD00BF1801002048A1000820010020E5
:104C78005CA1000874A1000888A100089CA1000894
:104C8800B0A10008C4A1000828010020D0A1000894
:104C9800DCA1000870B584B0474B002402944FF49F
:104CA800784201925A6800921B68444A214620467D
:104CB800FFF7EEFA13E0A5B24FF6FF72232128465C
:104CC800FFF7C4FA4FF6FF7224212846FFF7BEFA11
:104CD8004FF6FF7225212846FFF7B8FA0134B4F5DC
:104CE800A07FE8DB364D002402944FF6E073019371
:104CF8006B6800932B68334A28212046FFF7C8FACF
:104D080002944FF4FC6601966B6800932B682E4A58
:104D18004B212046FFF7BCFA029401966B6800937A
:104D28002B682A4A5F212046FFF7B2FA02940196BF
:104D38006B6800932B68264A73212046FFF7A8FA70
:104D4800029401966B6800932B68224A87212046BB
:104D5800FFF79EFA13E0A5B24FF6FF72BE21284670
:104D6800FFF774FA4FF6FF72BF212846FFF76EFA75
:104D78004FF6FF72C0212846FFF768FA0134B4F5F0
:104D8800A07FE8DB144D002402941F2601966B686F
:104D980000932B68114AC8212046FFF779FA02943C
:104DA80001966B6800932B680D4AD2212046FFF7C5
:104DB8006FFA04B070BD00BF18010020E8A1000818
:104DC80020010020F8A1000810A200081CA2000879
:104DD80028A2000834A2000828010020D0A1000859
:104DE800DCA1000870B584B006466B4B0024029421
:104DF8004FF4784201925A6800921B68674A21462C
:104E08002046FFF745FA13E0A5B24FF6FF722321BB
:104E18002846FFF71BFA4FF6FF7224212846FFF7B2
:104E280015FA4FF6FF7225212846FFF70FFA0134CD
:104E3800B4F5A07FE8DB072E03D9082E56D804B0B6
:104E480070BD574D002402944FF4FC6601966B68C0
:104E580000932B68534A37212046FFF719FA02942A
:104E680001966B6800932B684F4A4B212046FFF749
:104E78000FFA029401966B6800932B684B4A5F21E6
:104E88002046FFF705FA029401966B6800932B6899
:104E9800474A73212046FFF7FBF9029401966B6895
:104EA80000932B68434A87212046FFF7F1F90294C3
:104EB80001966B6800932B683F4A9B212046FFF7B9
:104EC800E7F9029401966B6800932B683B4AAF217F
:104ED8002046FFF7DDF9029401966B6800932B6872
:104EE800374AC3212046FFF7D3F9A8E72C4D002401
:104EF80002944FF4FC6601966B6800932B68314A64
:104F080037212046FFF7C4F9029401966B68009395
:104F18002B682D4A4B212046FFF7BAF902940196D7
:104F28006B6800932B68294A5F212046FFF7B0F988
:104F3800029401966B6800932B68254A73212046DA
:104F4800FFF7A6F9029401966B6800932B68214A33
:104F580087212046FFF79CF9029401966B6800931D
:104F68002B681D4A9B212046FFF792F9029401966F
:104F78006B6800932B68194AAF212046FFF788F920
:104F8800029401966B6800932B68154AC32120464A
:104F9800FFF77EF953E700BF1801002040A2000880
:104FA8002001002048A2000858A2000864A20008B6
:104FB80074A2000884A2000894A200089CA2000819
:104FC800A4A20008B0A20008C0A20008D0A200084D
:104FD800E0A20008F0A2000804A3000818A3000833
:104FE8002CA3000800B585B000920B4602460A497A
:104FF8000A4800F0D7FF0A4B002002904FF6E072F3
:1050080001925A6800921B68064ADC21FFF740F9B2
:1050180005B05DF804FB00BF3CA300086007002052
:10502800200100205CA300082DE9F04F85B09246CE
:105038009B4667240DE0A5B24FF478422946A0208C
:10504800FFF704F94FF478422946A020FFF7FEF84D
:105058000134C22CEFDD3A4D002402941F2601963C
:105068006B6800932B68374A67212046FFF710F9D1
:10507800029401966B6800932B68334A8521204679
:10508800FFF706F9029401966B6800932B682F4A84
:10509800A3212046FFF7FCF800222D4B5046594625
:1050A800FBF7D8F8FBF724FD80462A4B186000224E
:1050B800274B50465946FBF7CFF8FBF719FD074633
:1050C800254B18604046FBF725FA80468946234E53
:1050D8003846FBF71FFACDE90201214B1868FBF7A8
:1050E80019FACDE9000142464B461E49304600F008
:1050F80059FF02944FF4FC6301936B6800932B688B
:105108003246C8210A20FFF7C3F813E0A5B24FF6CC
:10511800FF72D3212846FFF799F84FF6FF72D42182
:105128002846FFF793F84FF6FF72D5212846FFF778
:105138008DF80134B4F5A07FE8DB05B0BDE8F08F49
:10514800280100207CA3000884A300088CA3000881
:105158000000E03F280800205C070020C40700206A
:105168005407002094A300082DE9F04385B0814638
:10517800884616461F46364B0024029440F2FF72BA
:1051880001925A6800921B68324A21462046FFF76E
:105198007FF813E0A5B24FF6FF725F212846FFF7AC
:1051A80055F84FF6FF7260212846FFF74FF84FF683
:1051B800FF7261212846FFF749F80134B4F5A07F52
:1051C800E8DB98F8003098F8012098F80210DFF82A
:1051D800A080CDE90267019100924A461E494046E7
:1051E80000F0E0FE1D4DDDE90C231D49284600F0C6
:1051F800D9FE1C4B002402944FF6E07201925A68C3
:1052080000921B68424623212046FFF741F8104BC5
:1052180002944FF6FF7201925A6800921B682A4660
:1052280041212046FFF734F8DDE90C230E490978BF
:105238000E480078FFF7F8FE0E98FBF76BF99DF81B
:1052480040309DF83C20FFF7CDFE05B0BDE8F08367
:1052580018010020BCA30008D0A3000824070020E0
:10526800F4A3000820010020590700205807002057
:10527800F406002010B5094C002209492046FEF723
:1052880049F908492046FEF75CF907492046FEF728
:1052980013F92046FEF75CF910BD00BF2C0800206A
:1052A8007C010020E000002054010020002070470D
:1052B8000020704710B5054C01462046FEF70BF953
:1052C8002046FEF70EF9002010BD00BF2C08002074
:1052D80010B5064C002206492046FEF7F4F80549A9
:1052E8002046FEF7F8F8002010BD00BF2C0800206B
:1052F800380E0020500A002002680E4B9A4200D057
:10530800704700B583B003F5DA33DA6942F4000276
:10531800DA61DB6903F400030193019B0022114663
:105328001420FBF741FE1420FBF770FE03B05DF874
:1053380004FB00BF005C004008B500F22C41D0F827
:105348005C04FEF71EF908BD08B500EB4113D3F85D
:105358003C22D0F85C04FEF741F908BD08B500EB23
:105368004113DA6BD0F85C04FEF76DF908BD08B597
:10537800D0F85C04FEF7F1F908BD10B50446012128
:10538800D0F85C04FEF7D7F9D4F85C04FEF7B4F95A
:1053980010BD000010B50446D0F85C04FEF7CEF945
:1053A800A36923B1024A136943F00603136110BDD0
:1053B80000ED00E008B5D0F85C04FEF7C8F908BDB8
:1053C80010B504462048C0F85C44C4F820021F4BBE
:1053D800036008234360022383600323C360002320
:1053E8008361C3610362FBF761FF30BB18230022AE
:1053F8001146D4F82002FCF7C1FB58230022802173
:10540800D4F82002FCF7BAFBC02300228121D4F88B
:105418002002FCF7B3FB4FF4887300220121D4F873
:105428002002FCF7ABFB4FF4807300228221D4F8F2
:105438002002FCF7A3FB002010BD4FF4977104482D
:10544800FFF75AF8D2E700BF20120020005C0040A6
:1054580008A4000808B5D0F82002FBF792FF18B19D
:10546800022803D0022008BD002008BD012008BD85
:1054780010B51C4613462246D0F82002FBF7ACFFB5
:1054880018B1022803D0022010BD002010BD012051
:1054980010BD08B5D0F82002FBF7C7FF18B10228E5
:1054A80003D0022008BD002008BD012008BD08B5B2
:1054B800D0F82002FCF70DFB18B1022803D0022017
:1054C80008BD002008BD012008BD08B5D0F820029D
:1054D800FCF72DFB18B1022803D0022008BD0020DC
:1054E80008BD012008BDD0F8202211F0800F06D198
:1054F80001F07F0102EB411191F82A02704701F097
:105508007F0302EB431191F82A00704708B5D0F8E1
:105518002002FBF74DFF18B1022803D0022008BD76
:10552800002008BD012008BD08B5D0F82002FBF70F
:10553800C9FF18B1022803D0022008BD002008BD09
:10554800012008BD08B5D0F82002FBF795FF18B177
:10555800022803D0022008BD002008BD012008BD94
:1055680008B5D0F82002FBF7A6FF08BD0048704731
:10557800940300207047704712230B80004870473F
:105588006401002004230B80004870477801002044
:1055980008B50A4628B105490548FEF74DFB0348FA
:1055A80008BD02490248FEF747FBF8E780160020CD
:1055B8001CA4000810B5044C0A4621460348FEF70F
:1055C8003BFB204610BD00BF8016002034A4000815
:1055D80008B50A4628B105490548FEF72DFB0348DA
:1055E80008BD02490248FEF727FBF8E780160020AD
:1055F80048A4000808B50A4628B105490548FEF739
:105608001BFB034808BD02490248FEF715FBF8E7F3
:105618008016002058A4000808B50A4628B1054994
:105628000548FEF709FB034808BD02490248FEF792
:1056380003FBF8E78016002064A40008002103E0BB
:105648000B4B5B58435004310A480B4B42189A42A3
:10565800F6D30A4A02E0002342F8043B084B9A4278
:10566800F9D3FFF73DFA00F00FF8FFF751F870474C
:10567800D8A6000800000020680300206803002066
:1056880084180020FEE7000070B500250C4E0D4C74
:10569800A41BA410A54209D102F09AF800250A4ECD
:1056A8000A4CA41BA410A54205D170BD56F825309C
:1056B80098470135EEE756F8253098470135F2E767
:1056C800D0A60008D0A60008D0A60008D4A60008D6
:1056D80003460244934200D1704703F8011BF9E7DF
:1056E800002B2DE9F0471E46BBBF03F100431E46C1
:1056F80000232D2388B0149F129927F02007462FE6
:105708001446109DDDF84CA00B7004D0452F00D135
:105718000135022300E0032307AA049206AA039294
:105728008DE828042246334600F0EEFC472F8046D9
:1057380002D1119BDB0726D5462F08EB050911D1AD
:1057480098F80030302B0AD1002200232046314639
:10575800FBF79CF918B9C5F10105CAF80050DAF849
:10576800003099440022002320463146FBF78EF989
:1057780038B93022079B994505D9591C07911A70E9
:10578800F8E7CDF81C904046079B159AA3EB080351
:10579800136008B0BDE8F0870346F7B5002903F8A1
:1057A800022BB6BF2D222B2249420929427021DD46
:1057B8000DF1070217460A2691FBF6F506FB1511AF
:1057C800092D01F1300102F8011C02F1FF342946CC
:1057D80009DC3031023A04F8011CBA421C4604D3F1
:1057E800201A03B0F0BD2246E6E712F8011B03F8C1
:1057F800011BF2E730221C46114404F8022B5970B1
:10580800EEE700002DE9F04F91B00C461A9F934641
:105818001E46054601F04CFA036818460993FBF743
:10582800B7F900230E933B680A90073323F0070368
:1058380003F1080294F81880D4F800A03A60D3E97C
:105848000023C4E91223D4F84C90A76C29F0004334
:105858000B934FF0FF32A64B38460B99FBF7A0F994
:10586800002840F0F7814FF0FF32A14B38460B99E2
:10587800FBF720F9002840F0ED810022002338468C
:105888004946FBF70DF910B12D2384F84330994BA5
:10589800994FB8F1470F98BF1F4603234FF00009EF
:1058A80023612AF00403236000965B460FAA214671
:1058B800284600F0DFF9013040F09A804FF0FF30C1
:1058C80011B0BDE8F08F62680EA8531C0DF1340EBC
:1058D8004AF4806341D1062262600021236001936B
:1058E80063680DF133020590029200933A464B46E5
:1058F8000691CDF81080CDF80CE02846FFF7F0FEB1
:1059080008F0DF03472B074609D10D9BD81C02DBA3
:105918006268934259DDA8F102085FFA88F8B8F185
:10592800650F0D9936D80139424604F150000D91A2
:10593800FFF732FF0E9A81468318012A236102DCA1
:105948002268D10701D5013323619DF83330002B3C
:10595800AAD02D2384F84330A6E7B8F1670F02D008
:10596800B8F1470FB9D19AB1002106910DF1330171
:105978008DE80C00236005903A46CDF81080CDF8EC
:105988000CE002914B462846FFF7AAFE0746BCE703
:105998000122A1E7B8F1660F19D1002963680CDD6F
:1059A800216113B92268D20702D501330B44236160
:1059B8000D9B4FF00009A365C7E713B92268D0070C
:1059C80001D50233F3E70123F1E74FF067080D9B98
:1059D8000E9A934205DB22682361D107E8D501338B
:1059E800E5E7002BCCBF0123C3F102031344DEE734
:1059F80023685A0507D423693A4659462846B047CA
:105A080001302AD15AE7B8F1650F40F2DC80D4E9B9
:105A1800120100220023FBF739F8002839D00123AE
:105A2800364A59462846B04701303FF447AF0E9BE7
:105A38000D9A9A4202DB2368D8070ED50A9B099A69
:105A480059462846B04701303FF438AF002704F1E3
:105A58001A080E9B013B9F4211DB23689F0708D55C
:105A6800002704F11908E3680F9A9B1A9F42C0F2B5
:105A7800E780E0680F9B9842B8BF184620E70123EB
:105A8800424659462846B04701303FF417AF013720
:105A9800DFE70D9B002B33DC0123184A59462846C3
:105AA800B04701303FF40AAF0D9B23B90E9B13B9E1
:105AB8002368D907D1D50A9B099A59462846B04781
:105AC80001303FF4FBAE4FF0000804F11A090D9BBA
