:020000040800F2
:1000000000000120FD350008693100087131000849
:1000100073310008753100087731000800000000D6
:10002000000000000000000000000000793100081E
:100030007B310008000000007D3100087F3100089E
:1000400045360008453600084536000845360008A4
:100050004536000845360008453600084536000894
:100060004536000845360008453600084536000884
:100070004536000845360008453600084536000874
:100080004536000845360008453600088D31000821
:100090009D31000845360008453600084536000801
:1000A0004536000845360008453600084536000844
:1000B0004536000845360008453600084536000834
:1000C0004536000845360008453600084536000824
:1000D0004536000845360008453600084536000814
:1000E0004536000845360008453600084536000804
:1000F00045360008453600084536000845360008F4
:1001000045360008453600084536000845360008E3
:1001100045360008453600084536000845360008D3
:1001200045360008453600084536000845360008C3
:1001300000000000000000000000000000000000BF
:1001400000000000000000000000000000000000AF
:10015000000000000000000000000000000000009F
:10016000000000000000000000000000000000008F
:10017000000000000000000000000000000000007F
:10018000000000000000000000000000000000006F
:10019000000000000000000000000000000000005F
:1001A000000000000000000000000000000000004F
:1001B000000000000000000000000000000000003F
:1001C000000000000000000000000000000000002F
:1001D000000000000000000000000000000000001F
:0401E0005FF8E0F1F3
:1001E40010B5054C237833B9044B13B10448AFF36D
:1001F40000800123237010BDC40100200000000012
:10020400CC3E000808B5034B1BB103490348AFF3C8
:10021400008008BD00000000C8010020CC3E00089A
:10022400034613F8012B002AFBD1181A0138704732
:1002340010B504460E4B18784FF47A73B3FBF0F301
:100244000C4A1068B0FBF3F000F0A0F868B90F2C6A
:1002540001D901200AE0002221464FF0FF3000F0CE
:1002640055F8034B5C60002000E0012010BD00BF86
:10027400000000201801002008B5074A136843F065
:1002840010031360032000F02FF80020FFF7D0FFC5
:1002940002F070FE002008BD00200240034A1168ED
:1002A400034B1B780B441360704700BF10040020FD
:1002B40000000020014B1868704700BF10040020A4
:1002C40038B50446FFF7F6FF0546B4F1FF3F02D008
:1002D400044B1B781C44FFF7EDFF401BA042FAD3EC
:1002E40038BD00BF00000020074AD36823F4E06350
:1002F4001B041B0C000200F4E060184340F0BF60D4
:1003040040F40030D060704700ED00E030B4174B8B
:10031400DB68C3F30223C3F10704042C28BF0424BD
:100324001D1D062D18D9033B4FF0FF3505FA04F4C3
:1003340021EA0401994005FA03F322EA030319436D
:1003440000280BDB0901C9B200F1604000F56140EF
:1003540080F8001330BC70470023E5E700F00F007D
:100364000901C9B2024B1954F4E700BF00ED00E0E3
:1003740014ED00E000F01F02400901239340024AFB
:1003840042F82030704700BF00E100E00138B0F1CE
:10039400807F0AD2064B5860064AF02182F8231067
:1003A4000020986007221A6070470120704700BF40
:1003B40010E000E000ED00E0042805D0054A1368D1
:1003C40023F0040313607047024A136843F00403E4
:1003D4001360704710E000E0704708B5FFF7FCFFBA
:1003E40008BD0000F0B482B000263546ABE0002C16
:1003F40063D0012C00D1CE68FF2B72D88446FF2B2A
:1004040072D8AC00DCF800200F27A74022EA0702CC
:1004140006FA04F42243CCF800204A6812F0805F04
:1004240000F09080654A946944F0010494619269F3
:1004340002F001020192019AAC08A71C604A52F82A
:1004440027C005F0030297000F22BA402CEA020CE1
:100454005C4A90424ED002F58062904200F08B805C
:1004640002F58062904200F0888002F5806290423A
:1004740000F0858002F58062904200F0828002F5EF
:100484008062904234D0062235E04F4FBC4214D0F3
:100494000BD94E4FBC4210D007F58037BC420CD06C
:1004A400A7F58017BC42A7D107E0A7F58017BC4287
:1004B40003D007F58037BC429ED18C687CB1012CF7
:1004C40008D04261082697E7CE68083694E7CE68DC
:1004D4000C3691E7026108268EE700268CE7042695
:1004E4008AE700F1040C8AE7A5F10804A40089E76F
:1004F400052200E00022BA4042EA0C020234304FE6
:1005040047F824204A6812F4803F3CD0304C2268DB
:100514001A4322604A6812F4003F3AD02C4C6268B5
:100524001A4362604A6812F4801F38D0284CA268CB
:100534001A43A2604A6812F4001F36D0244CE268C1
:100544001343E36001350F2D35D80122AA400B680F
:1005540013409A42F6D14C68122CB8D095D8022C8C
:10056400B2D07FF644AF032CB7D0112C7FF444AF44
:10057400CE68043640E70122BDE70222BBE703222E
:10058400B9E70422B7E7124C226822EA0302226088
:10059400C0E70F4C626822EA03026260C2E70C4CB7
:1005A400A26822EA0302A260C4E7094CE26822EAD4
:1005B4000303E360C6E702B0F0BC704700100240DA
:1005C400000001400008014000002110000031102B
:1005D4000004014012B909040161704701617047C8
:1005E400C3685940C1607047002866D0F0B587B031
:1005F400044690F82934C3B1032384F829342068CD
:1006040001F040F9254655F8107B6E460FCD0FC614
:100614002B683360231D0ECB384601F024F90021EA
:10062400206801F039F9002315E080F8283402F03D
:1006340039FEE1E704EB4312012182F8291082F824
:1006440028309386002182F82B109163D1639A1C81
:100654005201A15001330E2BECD9002312E004EB1C
:100664004312002182F8291282F82832938682F8F4
:100674002B12C2F83812C2F83C1203F112025201D2
:10068400A15001330E2BEAD9254655F8107B6E464E
:100694000FCD0FC62B683360231D0ECB384601F0F7
:1006A400FDF8002584F82450012384F829342068B7
:1006B40001F008FC284607B0F0BD0120704790F80F
:1006C4002834012B10D010B50446012180F82814D9
:1006D40002F02FFF206801F0F3FB206801F0CAF854
:1006E400002084F8280410BD0220704790F82834B4
:1006F400012B0DD010B50446012380F8283480F86E
:100704002410006801F0D6FB002084F8280410BDF2
:100714000220704738B54DB2002D1CDB01F07F0478
:10072400640104F50A74044401F07F012170ED0FA3
:1007340065702261E37090F82834012B11D00546CE
:10074400012380F828342146006801F0BDF8002018
:1007540085F8280438BD01F07F046401283404447A
:10076400E2E70220F6E74AB2002A1BDB01F07F032E
:100774005B0103F50A73034401F07F011970D20F82
:100784005A7090F82824012A12D010B50446012288
:1007940080F828241946006801F02AFA002084F819
:1007A400280410BD01F07F035B0128330344E3E711
:1007B4000220704770B501F07F056C0104F50A71E1
:1007C40001440444C4F83C2205F112025201861883
:1007D40083500023736084F8293284F8285225B1A9
:1007E400006801F08BFB002070BD006801F086FBFF
:1007F400F9E701F00F01123100EB411188887047CD
:1008040070B501F07F056C0104F128010144044432
:10081400E263AA1C520186188350002373600123EB
:1008240084F8293084F8285025B1006801F066FB6B
:10083400002070BD006801F061FBF9E770B582B07B
:1008440004460023ADF80630ADF804302068B0F853
:1008540044309BB2ADF8063013F4004F00F00D8223
:10086400BDF8065015F00F0540F0C280BDF8063003
:1008740013F0100F50D003889BB2ADF80430BDF8CC
:10088400043013F4006F79D1BDF8043013F4004F31
:10089400DCD0038823F070031B051B0D0380206844
:1008A400B0F8503094F8282203EBC203063300EB6F
:1008B4004303D3F80034C3F30903C4F84432002BD0
:1008C4007CD10021204602F01DFD2368B3F850209E
:1008D400063203EB4203D4F838123E297CD9C1F323
:1008E4004F1211F01F0F01D1013A92B26FEAC262A6
:1008F4006FEA524292B2C3F80024226813889BB272
:1009040023F4804323F0700383F4405343F40043FF
:1009140043F08003138099E703889BB223F4E143F7
:1009240023F070039BB203802268B2F8503094F82D
:10093400281003EBC103023302EB4303D3F8003462
:10094400C3F309036364E26B1344E36300212046A9
:1009540002F0E2FC94F82430002B3FF477AF236CD0
:10096400002B7FF473AF94F82430226843F08003A3
:10097400A2F84C30002384F8243067E7B0F85030F4
:1009840094F8282203EBC203063300EB4303D3F8A5
:100994000034C3F30903C4F84432B4F82C2204F23B
:1009A4002C4101F008FC2268138823F070031B0516
:1009B4001B0D1380204602F09DFC47E7B4F82C225F
:1009C400D4F83C1201F0F7FBD4F84422D4F83C32BA
:1009D4001344C4F83C3274E7C1F34F0211F0010F21
:1009E40001D0013292B2920292B2C3F8002484E799
:1009F40030F825309BB2ADF80430BDF8043013F460
:100A0400004F35D1BDF8043013F0800F3FF41EAF12
:100A1400226832F825309BB223F4E14323F07003BB
:100A24009BB222F8253004EB451393F83230002BA7
:100A340040F0B2802068B0F8503004EB451292F8D0
:100A4400282003EBC203023300EB4303D3F8003442
:100A5400C3F30903AA1C04EB42125360002B00F0F9
:100A6400C68004EB45118A8DC96B01F032FABEE0F1
:100A740030F8253023F070031B051B0D20F82530BA
:100A840004EB451393F83232D3B92068B0F85030F0
:100A940004EB451292F8282203EBC203063300EB61
:100AA4004303B3F80064C6F3090686B304EB4511A7
:100AB4003346B1F82C22D1F83C1201F07CFB26E03D
:100AC400206804EB451393F8282230F8223013F4FD
:100AD400804F42D0B0F8503003EBC203023300EB36
:100AE4004303B3F80064C6F3090666BB226804EB4B
:100AF400451393F8281232F8213023F0F0031B0534
:100B04001B0D43F4004343F0C00322F8213005F1E8
:100B140012035B01E1184A6832444A6004EB451150
:100B2400D1F83C223244C1F83C22E3581BB1D1F83D
:100B340038128E4228D204EB451393F8281220462B
:100B440002F0E0FB5EE704EB45113346B1F82E22D8
:100B5400D1F83C1201F02FFBC8E7B0F8503003EB9A
:100B6400C203063300EB4303B3F80064C6F309067B
:100B7400002EBBD004EB45113346B1F83022D1F836
:100B84003C1201F018FBB1E704EB451191F828126F
:100B94002046FFF70FFE35E7206804EB451393F872
:100BA400282030F8223013F0400F46D0B0F85030EF
:100BB40003EBC203023300EB4303D3F80034C3F363
:100BC4000903AA1C04EB421253607BBB226804EBAA
:100BD400451393F8281032F8213023F0F0031B0555
:100BE4001B0D43F4404343F0800322F82130226874
:100BF400B2F8503004EB451090F8281003EBC10311
:100C0400023302EB4303D3F80024C2F30902AB1C02
:100C14005B01E1184A60C16B0A44C263E35823BB19
:100C240090F82810204602F077FB0FE604EB4511FC
:100C3400CA8DC96B01F04DF9C8E7B0F8503003EB29
:100C4400C203063300EB4303D3F80034C3F30903B0
:100C5400AA1C04EB42125360002BB7D004EB4511DD
:100C64000A8EC96B01F035F9B0E704EB451595F828
:100C740028102046FFF7C4FDE8E5002002B070BD4F
:100C840010B50446006801F01FF910F4004F45D177
:100C9400206801F019F910F4806F43D1206801F045
:100CA40013F910F4804F08D02268B2F844309BB294
:100CB40023F480439BB2A2F84430206801F004F985
:100CC40010F4005F08D02268B2F844309BB223F4D9
:100CD40000539BB2A2F84430206801F0F5F810F4F8
:100CE400805F30D1206801F0EFF810F4006F49D133
:100CF400206801F0E9F810F4007F64D1206801F065
:100D0400E3F810F4807F08D02268B2F844309BB234
:100D140023F480739BB2A2F8443010BD2046FFF741
:100D24008DFDB5E72268B2F844309BB223F48063AA
:100D34009BB2A2F84430204602F0FDFA002120467E
:100D4400FFF7D4FCAAE72268B2F840309BB223F044
:100D540004039BB2A2F840302268B2F840309BB240
:100D640023F008039BB2A2F84030204602F000FBB7
:100D74002268B2F844309BB223F480539BB2A2F8A9
:100D84004430AFE72268B2F8403043F00803A2F8D9
:100D940040302268B2F844309BB223F400639BB223
:100DA400A2F844302268B2F8403043F00403A2F8B9
:100DB4004030206801F088F810F4805F98D1204614
:100DC40002F0C6FA94E72268B2F844309BB223F4E6
:100DD40000739BB2A2F84430204602F0A6FA8DE7D5
:100DE40038B54AB2002A1BDB4B0103F50A730344EE
:100DF40001249C7001F07F051D70D20F5A7090F889
:100E04002824A24218D00446012280F82824194636
:100E1400006800F0CFFF4DB1002084F8280438BDED
:100E240001F07F035B0128330344E1E704F22C4122
:100E3400206801F04CF8EFE70220F0E710B54AB261
:100E4400002A1ADB4B0103F50A73034400249C7047
:100E540001F07F011970D20F5A7090F82824012AEA
:100E640011D00446012280F828241946006800F0B5
:100E7400D8FF002084F8280410BD01F07F035B0133
:100E840028330344E2E70220F6E711F0800F0CD088
:100E940001F07F014901283101445AB101228A72CB
:100EA400CB801B0C0B8100207047490101F50A71AE
:100EB4000144F2E78A728B80F5E7000082B0084BA8
:100EC4001B68084AA2FB03235B0A00FB03F00190A2
:100ED40000BF019B5A1E0192002BF9D102B070474A
:100EE40018010020D34D621070B582B00446036827
:100EF40013F0010F2CD0AB4B5B6803F00C03042BF5
:100F04001DD0A84B5B6803F00C03082B12D0636858
:100F1400B3F5803F41D0002B55D103F1804303F555
:100F240004331A6822F480321A601A6822F4802288
:100F34001A6037E09B4B5B6813F4803FE7D0994B12
:100F44001B6813F4003F03D06368002B00F0AE81EC
:100F5400236813F0020F76D0924B5B6813F00C0FEA
:100F64005FD0904B5B6803F00C03082B54D02369CB
:100F7400002B00F08A808C4B01221A60FFF79AF94B
:100F84000546884B1B6813F0020F75D1FFF792F9E1
:100F9400401B0228F5D903208BE1824A136843F4ED
:100FA40080331360636843B3FFF784F905467D4BD0
:100FB4001B6813F4003FCBD1FFF77CF9401B642876
:100FC400F5D9032075E1B3F5A02F09D0754B1A6844
:100FD40022F480321A601A6822F480221A60E1E74F
:100FE40003F18043A3F53C331A6842F480221A606B
:100FF4001A6842F480321A60D4E7FFF75BF90546B9
:10100400684B1B6813F4003FA2D0FFF753F9401B51
:101014006428F5D903204CE1624B5B6813F4803FEC
:10102400A5D1604B1B6813F0020F04D02369012B78
:1010340001D001203DE15B4A136823F0F8036169A4
:1010440043EAC1031360236813F0080F32D0A36985
:10105400002B5BD0554B01221A60FFF72BF9054694
:10106400504B5B6A13F0020F21D1FFF723F9401BA9
:101074000228F5D903201CE14A4A136823F0F80337
:10108400616943EAC1031360DDE7474B00221A603C
:10109400FFF710F90546434B1B6813F0020FD2D03B
:1010A400FFF708F9401B0228F5D9032001E10120CC
:1010B400FFF704FF236813F0040F00F09780394B07
:1010C400DB6913F0805F33D1364BDA6942F080522A
:1010D400DA61DB6903F080530193019B0125344BF2
:1010E4001B6813F4807F25D0E368012B36D0002BD6
:1010F4004CD103F1804303F504331A6A22F0010250
:101104001A621A6A22F004021A622CE0274B0022A7
:101114001A60FFF7CFF80546224B5B6A13F0020F03
:10112400C8D0FFF7C7F8401B0228F5D90320C0E058
:101134000025D4E71E4A136843F480731360FFF755
:10114400B9F806461A4B1B6813F4807FCCD1FFF71D
:10115400B1F8801B6428F5D90320AAE0114A136A68
:1011640043F001031362E36873B3FFF7A3F8064681
:101174000C4B1B6A13F0020F37D1FFF79BF8801B4F
:1011840041F288339842F3D9032092E0052B11D021
:10119400044B1A6A22F001021A621A6A22F004024B
:1011A4001A62E0E70010024000004242800442421A
:1011B40000700040414B1A6A42F004021A621A6A33
:1011C40042F001021A62CEE7FFF774F806463B4B81
:1011D4001B6A13F0020F08D0FFF76CF8801B41F272
:1011E40088339842F3D9032063E0E5B9E369002B1F
:1011F4005ED0324A526802F00C02082A5BD0022BFD
:1012040017D02F4B00221A60FFF754F804462B4BDB
:101214001B6813F0007F47D0FFF74CF8001B02282F
:10122400F5D9032045E0254AD36923F08053D361DF
:10123400DCE7234B00221A60FFF73CF805461F4BFE
:101244001B6813F0007F06D0FFF734F8401B022818
:10125400F5D903202DE0236AB3F5803F1AD017494E
:101264004B6823F47413226A606A024313434B608D
:10127400134B01221A60FFF71DF804460F4B1B683D
:1012840013F0007F0ED1FFF715F8001B0228F5D9E3
:1012940003200EE0094A536823F40033A1680B438A
:1012A4005360DCE7002004E0002002E0012000E0BD
:1012B400002002B070BD0120FBE700BF0010024017
:1012C40060004242014B01221A6070474C004242C6
:1012D40010B487B0164C94E80F000DF1180C0CE90B
:1012E4000F00238AADF80430124B5B6803F00C0244
:1012F400082A1AD1C3F38342624412F8102C13F45F
:10130400803F05D10C4800FB02F007B010BC7047C9
:10131400084B5B68C3F34043634413F8143C074829
:1013240000FB02F0B0FBF3F0EFE70448EDE700BF89
:10133400E43E00080010024000093D0000127A005B
:10134400594B1B6803F007038B420CD2564A1368AF
:1013540023F007030B431360136803F007038B4266
:1013640001D00120704770B5036813F0020F06D056
:101374004E4A536823F0F0038468234353600C46B9
:101384000546036813F0010F52D04368012B23D0A4
:10139400022B28D0454A126812F0020F00F0828016
:1013A40042494A6822F0030213434B60FEF782FF6E
:1013B40006466B68012B1DD0022B2AD03B4B5B6881
:1013C40013F00C0F34D0FEF775FF801B41F2883305
:1013D4009842F3D9032064E0344A126812F4003FBF
:1013E400DED101205DE0314A126812F0007FD7D1CE
:1013F400012056E02D4B5B6803F00C03042B17D03F
:10140400FEF758FF801B41F288339842F2D903203B
:1014140047E0264B5B6803F00C03082B08D0FEF76B
:1014240049FF801B41F288339842F2D9032038E007
:101434001D4B1B6803F00703A3420CD91A4A136817
:1014440023F0070323431360136803F00703A34245
:1014540001D0012025E02B6813F0040F06D0134AB5
:10146400536823F4E063E9680B4353602B6813F07B
:10147400080F07D00D4A536823F46053296943EADF
:10148400C1035360FFF724FF084B5B68C3F30313E6
:10149400074AD35CD840074B18600020FEF7C8FE0B
:1014A400002070BD0120FCE7002002400010024033
:1014B400F83E000818010020014B1868704700BF6F
:1014C400180100207047000008B5064B9B6813F014
:1014D400800F00D108BDFFF7F5FF034B80221A707F
:1014E400F8E700BF001002400A10024070B582B055
:1014F4000446036813F0010F34D03E4BDB6913F04C
:10150400805F48D13B4BDA6942F08052DA61DB6993
:1015140003F080530193019B0125374B1B6813F49F
:10152400807F3AD0334B1B6A13F4407311D0626846
:1015340002F440729A420CD02E4A136A23F440708B
:101544002E4901260E6000260E60106213F0010F72
:1015540037D1284A136A23F4407361680B4313623A
:10156400002D3FD1236813F0020F06D0214A53689F
:1015740023F44043A1680B435360236813F0100F16
:1015840035D01C4A536823F4800361690B435360CC
:10159400002002B070BD0025BFE7174A136843F46A
:1015A40080731360FEF786FE0646134B1B6813F424
:1015B400807FB7D1FEF77EFE801B6428F5D9032017
:1015C400E7E7FEF777FE06460A4B1B6A13F0020FA5
:1015D400BFD1FEF76FFE801B41F288339842F3D9E6
:1015E4000320D6E7D36923F08053D361BAE7002000
:1015F400CFE700BF001002400070004040044242A8
:1016040000283CD010B504460023836290F8513082
:10161400002B31D0022384F851302268136823F060
:10162400400313606368A2681343E26813432269AA
:10163400134362691343A26902F400721343E2691B
:101644001343226A1343A16A22680B431360638B1A
:1016540003F00403616A22680B4353602368E26A5F
:101664001A612268D36923F40063D36100206065A2
:10167400012384F8513010BD01F0CCFCCAE70120ED
:10168400704700000368244A904212D002F50062B9
:1016940090420ED0B0F1804F0BD0A2F59832904218
:1016A40007D002F58062904203D002F58062904236
:1016B40003D123F070034A681343174A904212D0AF
:1016C40002F5006290420ED0B0F1804F0BD0A2F52B
:1016D4009832904207D002F58062904203D002F51E
:1016E4008062904203D123F44073CA68134323F009
:1016F40080034A69134303608B68C3620B68836287
:10170400054B984203D003F50063984201D10B695D
:101714000363012343617047002C0140002847D034
:10172400F8B505460C4690F83D30002B3BD002231B
:1017340085F83D30294651F8042B936823F00703BC
:1017440093602868FFF79EFF29688A688E690F6A8C
:101754002068104326F4407626F00306A268A369A5
:1017640042EA0323334323F47C4323F0FC03E66877
:10177400E26946EA02261E43226A1303226943EA07
:101784000213334327F0AA076268646942EA041229
:101794003A43886029688B612B681A62012385F8B3
:1017A4003D300020F8BD80F83C3001F0ADFCBEE7D0
:1017B4000120704710B4012303FA01F4036A23EAF9
:1017C40004030362036A8A401343036210BC704734
:1017D40010B5044661B1042916D001220021006825
:1017E400FFF7E8FF012204212068FFF7E3FF04E08C
:1017F400012200210068FFF7DDFF2268136843F02F
:1018040001031360002010BD012204210068FFF7CA
:10181400D1FFF2E790F83C30012B22D030B4012202
:1018240080F83C20022380F83D300468636823F08C
:1018340070036360046863680D682B436360046825
:10184400A36823F08003A3600468A36849680B437A
:10185400A36080F83D20002380F83C30184630BC5B
:1018640070470220704784B001A880E80E00002071
:1018740004B07047B0F8403043F43F43A0F8403020
:1018840000207047B0F8403023F474535B045B0CC1
:10189400A0F84030002070470020704784B038B56D
:1018A40005AC84E80E000123A0F840300024A0F821
:1018B4004040A0F84440A0F85040FFF7DBFF20462A
:1018C400BDE8384004B0704710B4CB78032B0FD870
:1018D400DFE803F0026D54600A7830F822309BB2DE
:1018E40023F4EC4323F0700343F4007320F8223014
:1018F4000A7830F8223023F0F0031B051B0D134344
:1019040043F4004343F0800320F822308B7A002B09
:1019140040F0AF804B78002B56D08A885208B0F83C
:1019240050300C7803EBC40300EB43035200C3F8BC
:1019340000240A7830F8223013F0400F0BD030F82E
:10194400223023F0F0031B051B0D43F4004343F046
:10195400C00320F822300A7830F822309BB223F4F6
:10196400E04323F0400383F0200343F4004343F0B7
:10197400800320F82230002010BC70470A7830F829
:1019840022309BB223F4EC4323F070039BB220F883
:101994002230ADE70A7830F822309BB223F4EC43CE
:1019A40023F0700343F4C06320F82230A0E70A78E0
:1019B40030F822309BB223F4EC4323F0700343F459
:1019C400806320F8223093E78A885208B0F85030B8
:1019D4000C7803EBC403043300EB43035200C3F855
:1019E4000024B0F850300A7803EBC203063300EB4E
:1019F40043030C693E2C30D9C4F34F1214F01F0F6B
:101A040001D1013A92B26FEAC2626FEA524292B2D3
:101A1400C3F800240A7830F8223013F4804F0BD036
:101A240030F8223023F0F0031B051B0D43F4404330
:101A340043F0800320F822300A7830F822309BB239
:101A440023F4804323F0700383F4405343F40043AE
:101A540043F0800320F822308DE7C4F34F0214F0E2
:101A6400010F01D0013292B2920292B2C3F8002463
:101A7400D0E70A7830F8223023F4F8731B051B0DE5
:101A840043F4014343F0800320F82230CA8852080B
:101A9400B0F850300C7803EBC40300EB430352005E
:101AA400C3F800240A895208B0F850300C7803EBCC
:101AB400C403043300EB43035200C3F800244B78FF
:101AC400002B4BD10A7830F8223013F4804F0BD01E
:101AD40030F8223023F0F0031B051B0D43F4404380
:101AE40043F0800320F822300A7830F8223013F0D3
:101AF400400F0BD030F8223023F0F0031B051B0DF0
:101B040043F4004343F0C00320F822300A7830F84D
:101B1400223023F0F0031B051B0D43F4004343F074
:101B2400C00320F822300A7830F822309BB223F424
:101B3400804323F0700383F4405348F2800423432A
:101B440020F822300A7830F822309BB223F4E043A4
:101B540023F04003234320F822300CE70A7830F8BE
:101B6400223013F4804F0BD030F8223023F0F003EE
:101B74001B051B0D43F4404343F0800320F822303F
:101B84000A7830F8223013F0400F0BD030F82230AE
:101B940023F0F0031B051B0D43F4004343F0C00383
:101BA40020F822300A7830F8223023F0F0031B05A5
:101BB4001B0D43F4404343F0800320F822300B789C
:101BC40030F8232092B222F4E04222F0400248F29C
:101BD4008004224320F823200A7830F822309BB274
:101BE40023F4804323F07003234320F82230C2E619
:101BF4008B7A002B44D14B780BB30A7830F822301F
:101C040013F0400F0BD030F8223023F0F0031B0503
:101C14001B0D43F4004343F0C00320F822300A783C
:101C240030F822309BB223F4E04323F0400343F422
:101C3400004343F0800320F82230002070470A78E4
:101C440030F8223013F4804F0BD030F8223023F0D8
:101C5400F0031B051B0D43F4404343F0800320F8BD
:101C640022300A7830F822309BB223F4804323F0E8
:101C7400700343F4004343F0800320F82230DCE790
:101C840010B44B78002B4BD10A7830F8223013F47F
:101C9400804F0BD030F8223023F0F0031B051B0DCE
:101CA40043F4404343F0800320F822300A7830F8AC
:101CB400223013F0400F0BD030F8223023F0F00321
:101CC4001B051B0D43F4004343F0C00320F82230EE
:101CD4000A7830F8223023F0F0031B051B0D43F47F
:101CE400004343F0C00320F822300B7830F823205F
:101CF40092B222F4804222F0700248F2800422431D
:101D040020F823200A7830F822309BB223F4E043F1
:101D140023F04003234320F82230002010BC7047F6
:101D24000A7830F8223013F4804F0BD030F8223088
:101D340023F0F0031B051B0D43F4404343F08003E1
:101D440020F822300A7830F8223013F0400F0BD0FC
:101D540030F8223023F0F0031B051B0D43F400433D
:101D640043F0C00320F822300A7830F8223023F000
:101D7400F0031B051B0D43F4404343F0800320F89C
:101D840022300B7830F8232092B222F4E04222F081
:101D9400400248F28004224320F823200A7830F8D5
:101DA40022309BB223F4804323F07003234320F8B2
:101DB4002230B2E70A788AB14B7813BB30F822306C
:101DC4009BB223F4804323F0700383F4805343F4E1
:101DD400004343F0800320F8223010E030F8223032
:101DE4009BB223F4804323F0400383F4805383F0B5
:101DF400100343F4004343F0800320F82230002012
:101E0400704730F822309BB223F4E04323F04003C0
:101E140083F0100343F4004343F0800320F822309E
:101E2400EDE74B781BB30A7830F8223013F0400FFB
:101E34000BD030F8223023F0F0031B051B0D43F4C4
:101E4400004343F0C00320F822300A7830F82230EF
:101E54009BB223F4E04323F0400383F0300343F4C4
:101E6400004343F0800320F82230002070470A78B2
:101E740030F8223013F4804F0BD030F8223023F0A6
:101E8400F0031B051B0D43F4404343F0800320F88B
:101E940022300A7830F822309BB223F4804323F0B6
:101EA400700383F4405343F4004343F0800320F869
:101EB4002230DAE711B98023A0F84C3000207047B3
:101EC4000020704700207047B0F84400704700209D
:101ED400704701335B1000EB420202F5806263B18C
:101EE40010B40C78487844EA002422F8044B0231F8
:101EF400013B002BF5D110BC70477047F8B58A69D7
:101F04004D78012D34D00B69934280F0EA80D21AC7
:101F14008A618A7A002A40F0F480B0F850200C7864
:101F240002EBC402063200EB42023E2B40F2DD809B
:101F3400C3F34F1413F01F0F01D1013CA4B26FEA95
:101F4400C4646FEA5444A4B2C2F800440A7830F876
:101F540022309BB223F4804323F0700383F4405374
:101F640043F4004343F0800320F822300020F8BDFE
:101F74000F69974225D2D21B8A610E4604468B7A9A
:101F84001BB30B7830F8232012F0400F69D0002DDA
:101F940037D1B0F8502002EBC303063300EB430300
:101FA4003E2F22D9C7F34F1217F01F0F01D1013A68
:101FB40092B26FEAC2626FEA524292B2C3F800244C
:101FC40028E000238B611746D7E7BBB28A884969AA
:101FD400FFF77FFFB4F85030327803EBC2030233CB
:101FE40004EB4303C3F800742AE0C7F34F0217F06D
:101FF400010F01D0013292B2920292B2C3F80024CE
:1020040008E0B0F8502002EBC303023300EB4303B3
:10201400C3F800743289BBB271692046FFF759FFD7
:102024007378002B4DD1327834F8223023F0F0034A
:102034001B051B0D43F4004343F0C00324F8223076
:10204400327834F822309BB223F4E04323F0400387
:1020540083F0300343F4004343F0800324F8223038
:1020640084E71DBBB0F8502002EBC303023300EB3E
:1020740043033E2F0ED9C7F34F1217F01F0F01D1A0
:10208400013A92B26FEAC2626FEA524292B2C3F864
:10209400002414E0C7F34F0217F0010F01D00132FE
:1020A40092B2920292B2C3F8002408E0B0F8502031
:1020B40002EBC303023300EB4303C3F80074F2885A
:1020C400A9E7012BBCD1327834F8223023F0F00395
:1020D4001B051B0D43F4404343F0800324F82230D6
:1020E400AEE700238B61134613E7C3F34F0413F0E9
:1020F400010F01D00134A4B2A402A4B2C2F8004476
:1021040024E7BDB9B0F850200C7802EBC4020232C7
:1021140000EB42023E2B28D9C3F34F1413F01F0FD8
:1021240001D1013CA4B26FEAC4646FEA5444A4B27E
:10213400C2F800444A7882BBB0F850200C7802EB15
:10214400C402063200EB42023E2B1AD9C3F34F14E9
:1021540013F01F0F01D1013CA4B26FEAC4646FEA0B
:102164005444A4B2C2F80044F0E6C3F34F0413F09D
:10217400010F01D00134A4B2A402A4B2C2F80044F5
:10218400D8E7C3F34F0413F0010F01D00134A4B214
:10219400A402A4B2C2F80044D8E6012A7FF4D6AE61
:1021A400B0F850200C7802EBC402023200EB420279
:1021B400C2F80034CAE601335B1000EB420202F5B8
:1021C400806204E0106821F8020B013B0432002B0A
:1021D400F8D17047D0F818321BB10020C3F81402AC
:1021E40070470220704710B5D0F81842D0F81C325E
:1021F4005BB194F80002FF2807D09B6894F8012291
:1022040021469847FF2384F80032002010BD0000C7
:1022140043230380004870470800002043230380C1
:10222400004870474C000020432303800048704757
:10223400900000200A23038000487047D400002047
:1022440038B50446D0F8185201F068F9C5F80C0204
:10225400D4F818324BB1D4F81C32DB6805F503719D
:10226400D5F804029847002038BD0220FCE700009E
:1022740070B505460C46D0F818620B7813F060026E
:1022840025D0202A07D1CA883AB9D0F81C329B68D5
:10229400002248789847002070BD13F0800F0BD0BF
:1022A400D0F81C329B68314660789847E288314602
:1022B400284600F071FCEEE74B7886F80032CB88B4
:1022C40086F80132CA88314600F07BFCE3E74B789C
:1022D4000A2BE0D10122024900F05EFCDBE700BFDB
:1022E400E001002010B50446812101F0B0F801217D
:1022F400204601F0ACF88221204601F0A8F8D4F879
:10230400183253B1D4F81C325B689847D4F81802D9
:1023140001F00EF90023C4F81832002010BD38B5BE
:102324000446037C73BB4FF400730222812101F045
:102334007DF84FF4007302220121204601F076F863
:10234400082303228221204601F070F84FF407701D
:1023540001F0EAF80546C4F8180248B3D4F81C3270
:102364001B6898470023C5F81432C5F81832237C3B
:10237400A3B14023D5F804220121204601F0C0F87E
:10238400002038BD40230222812101F04FF8402370
:1023940002220121204601F049F8D1E74FF40073ED
:1023A400D5F804220121204601F0AAF80020E8E72C
:1023B4000120E6E719B1C0F81C1200207047022082
:1023C4007047D0F81832C3F80812C3F8102200205E
:1023D4007047D0F81832C3F8041200207047D0F8C0
:1023E40018228AB108B5D2F814320BB1012008BD05
:1023F4000123C2F81432B2F81032D2F80822812133
:1024040001F070F80020F2E702207047D0F818229B
:102414009AB108B5037C3BB14023D2F804220121D0
:1024240001F06EF8002008BD4FF40073D2F80422C6
:10243400012101F065F80020F5E70220704798B10A
:1024440008B50346D0F8140210B10020C3F81402F2
:1024540009B1C3F810121846012380F8FC31027048
:1024640000F08CFF002008BD0220704719B1C0F8AD
:102474001412002070470220704708B500F0C8FF0E
:10248400002008BD08B5D0F8143233B11B68984752
:1024940008B9002008BD0220FCE70220FAE708B5CD
:1024A400D0F814325B689847002008BD38B504465C
:1024B40000F50275284600F00CF90123C4F8F43144
:1024C400B4F80E32C4F8F83194F8081201F01F037E
:1024D400012B0ED03BB1022B10D001F0800120461D
:1024E40000F0C3FF03E02946204600F06CFA002008
:1024F40038BD2946204600F08AFAF8E729462046E6
:1025040000F0A1FAF3E710B5044621BB1346D0F856
:10251400F421032A01D0002010BDD0F80C11D0F80A
:10252400102191420CD8D0F814321B6923B190F8D1
:10253400FC21032A00D19847204600F059FBEAE722
:10254400891AC0F80C118A4228BF0A4692B2194669
:1025540000F046FBDFE70A46D0F814329B69002BF3
:10256400D9D090F8FC110329D5D111469847D2E768
:1025740010B50446002946D11346D0F8F421022AA6
:1025840005D094F80032012B39D0002010BDC16968
:10259400026A914219D88169B1FBF2F302FB131369
:1025A4002BB98A4203D8D0F8F83199421AD3D4F817
:1025B4001432DB682BB194F8FC21032A01D12046A4
:1025C4009847204600F01FFBDBE78A1AC26192B2EB
:1025D400194600F0EEFA00231A461946204600F088
:1025E4008FFFCEE70022114600F0E3FA0021C4F881
:1025F400F8110B460A46204600F082FFC1E700238B
:1026040084F80032C1E70A46D0F814325B69002B23
:10261400BBD090F8FC110329B7D111469847B4E711
:1026240038B5044640230022114600F0FFFE402541
:10263400C4F810512B4600228021204600F0F6FEFB
:102644002562012384F8FC31D4F818322BB1D4F874
:1026540014325B68217920469847002038BD017404
:102664000020704790F8FC3180F8FD31042380F895
:10267400FC310020704790F8FD3180F8FC310020D7
:10268400704708B590F8FC31032B01D0002008BD39
:10269400D0F81432DB69002BF8D09847F6E7002312
:1026A40002E00133DBB201300278002AF9D1184686
:1026B40070474B88012B0BD110B50446C0F8043287
:1026C400D0F814329B689847204600F091FA10BD68
:1026D40070470B7803704B7843708B78CA7803EBA0
:1026E400022343800B794A7903EB022383808B799D
:1026F400CA7903EB0223C380704710B504468021D6
:1027040000F0B3FE0021204600F0AFFE10BD30B54E
:1027140083B004460D464A88130A013B062B00F297
:102724008180DFE803F00413277F7F637000D0F813
:1027340010321B680DF10601007C9847BDF8062095
:1027440012B1EB88002B71D103B030BD037C43B9C7
:10275400D0F814329B6A0DF10600984702234370A7
:10276400ECE7D0F81432DB6A0DF106009847022337
:102774004370E3E7D2B2052A34D8DFE802F0030B52
:10278400131B232BD0F810325B680DF10601007C7B
:102794009847D3E7D0F810329B680DF10601007C0E
:1027A4009847CBE7D0F81032DB680DF10601007CC6
:1027B4009847C3E7D0F810321B690DF10601007C7D
:1027C4009847BBE7D0F810325B690DF10601007C35
:1027D4009847B3E7D0F810329B690DF10601007CED
:1027E4009847ABE72946FFF788FFADE7037C33B989
:1027F400D0F814325B6B0DF1060098479EE729462A
:10280400FFF77BFFA0E7037C43B9D0F814321B6BBE
:102814000DF106009847072343708FE72946FFF719
:102824006CFF91E72946FFF768FF8DE79A4228BFBE
:102834001A46ADF806200146204600F0ADF983E7BC
:1028440038B504468B88E3B9CB88D3B98D7805F0C5
:102854007F0590F8FC31032B0CD080F8FE512946FB
:1028640000F032FE204600F0C3F935B1022384F8AB
:10287400FC3109E0FFF741FF06E0012384F8FC3155
:1028840002E02046FFF739FF38BD000038B50446A2
:102894000D468978254B1970012909D890F8FC3127
:1028A400022B09D0032B1CD02946FFF726FF02E098
:1028B4002946FFF722FF38BD81B14160032380F828
:1028C400FC31FFF7DFFD022803D0204600F090F929
:1028D400F1E729462046FFF710FFECE700F088F9FE
:1028E400E9E789B1436899421DD0D9B2FFF7D7FD12
:1028F4000E4B197861602046FFF7C4FD02280DD005
:10290400204600F075F9D6E7022380F8FC314160D7
:10291400FFF7C5FD204600F06BF9CCE729462046B9
:10292400FFF7EBFEC7E700F063F9C4E7E10100201D
:1029340008B5CB88012B08D190F8FC31022B07D0C5
:10294400032B0DD0FFF7D9FE01E0FFF7D6FE08BD3B
:102954000146002341F8083F012200F01DF9F6E783
:102964000122011D00F018F9F1E708B590F8FC31D7
:10297400023B012B0CD80123C360D0F804320BB105
:102984000323C360022200F10C0100F005F908BD25
:10299400FFF7B3FEFBE710B5044690F8FC31023BA9
:1029A400012B0DD84B88012B09D10023C0F8043228
:1029B400D0F814329B689847204600F019F910BDEE
:1029C400FFF79BFEFBE708B54B78092B1CD8DFE823
:1029D40003F012181B151B09051B0F0CFFF797FEBC
:1029E400002008BDFFF72CFFFAE7FFF74FFFF7E7DA
:1029F400FFF79EFFF4E7FFF7B8FFF1E7FFF759FE93
:102A0400EEE7FFF7C8FFEBE7FFF777FEE8E738B537
:102A140004460D4690F8FC31032B11D10B79012BA0
:102A24000BD8D0F814329B689847EB880BB1002080
:102A340038BD204600F0DCF8F9E7FFF75EFEF6E764
:102A4400FFF75BFEF3E738B505460C468A880B783A
:102A540003F06003202B05D1D0F814329B6898470B
:102A6400002038BDD1B26378012B25D0002B47D08C
:102A7400032BF5D190F8FC31022B05D0032B0AD09F
:102A84002146FFF73AFEEBE70029E9D08029E7D099
:102A940000F0EBFCE4E7638823B919B1802901D085
:102AA40000F0E3FCD5F814329B6821462846984789
:102AB400284600F09DF8D3E790F8FC31022B05D0AE
:102AC400032B0AD02146FFF718FEC9E70029C7D017
:102AD4008029C5D000F0C9FCC2E76388002BBFD1B0
:102AE40011F07F0F03D1284600F082F8B8E700F018
:102AF400CAFCD5F814329B68214628469847F2E769
:102B040090F8FC31022B05D0032B09D02146FFF7A6
:102B1400F4FDA5E711F07F0FA2D000F0A6FC9FE71B
:102B240012F0800F11D101F07F04103400EB041473
:102B34000434284600F0B5FC70B10123236002225E
:102B44002146284600F028F88AE701F07F04013482
:102B540000EB04140434ECE700232360EFE7D0B166
:102B640070B50D4616460446FFF799FD0130400046
:102B740080B23080287003236B70022307E0013495
:102B84005A1CD2B2E9540233DBB20021A954217891
:102B94000029F4D170BD704710B513460222C0F865
:102BA400F4218361C3610A46002100F09BFC0020EC
:102BB40010BD08B513460A46002100F093FC00201E
:102BC40008BD10B513460322C0F8F421C0F808313B
:102BD400C0F80C310A46002100F092FC002010BD20
:102BE40008B513460A46002100F08AFC002008BDFF
:102BF40008B50423C0F8F43100231A46194600F03E
:102C040071FC002008BD08B50523C0F8F431002389
:102C14001A46194600F074FC002008BD2DE9F04363
:102C240089B02F4B9A6942F010029A619A6902F0B6
:102C340010020092009A9A6942F004029A619A6919
:102C440002F004020192019A9A6942F008029A6120
:102C54009A6902F008020292029A9A6942F02002EA
:102C64009A619B6903F020030393039BDFF8789038
:102C740000224FF400514846FDF7ACFCDFF86C80AD
:102C8400002208214046FDF7A5FC164F00224FF410
:102C940040713846FDF79EFC4FF40053049301261F
:102CA4000596002506950224079404A94846FDF7D5
:102CB40099FB0823049305960695079404A94046B6
:102CC400FDF790FB4FF44073049305960695079423
:102CD40004A93846FDF786FB09B0BDE8F08300BFC0
:102CE400001002400014014000100140000801409F
:102CF400FEE7000000B58DB01748184B03600023B1
:102D0400436083604FF6FF72C260036183610322F4
:102D14000392049301220592069307930893099260
:102D24000A930B9303A9FEF7F9FC50B9002301930E
:102D3400029301A90848FEF76DFD38B90DB05DF89E
:102D440004FB4FF49C710648FFF7D2FF40F23F1199
:102D54000348FFF7CDFF00BF6C04002000080040CB
:102D6400103F000808B50E480E4B03604FF4827301
:102D7400436000238360C360036143614FF4802296
:102D840082612022C2610362436283620A23C362B6
:102D9400FEF736FC00B908BDEB210348FFF7A8FF96
:102DA4000405002000300140103F000808B50E481B
:102DB4000E4B03604FF48273436000238360C3604F
:102DC400036143614FF480228261C3610362436201
:102DD40083620A23C362FEF713FC00B908BD40F204
:102DE40003110348FFF784FF140400200038004057
:102DF400103F000808B50E480E4B03604FF4827371
:102E0400436000238360C360036143614FF4007235
:102E14008261C3610362436283620A23C362FEF771
:102E2400EFFB00B908BD40F21B110348FFF760FF38
:102E3400AC040020003C0040103F000800B597B0EF
:102E440001220C924FF480330D9300210E911092C5
:102E54000222139214934FF4801315930CA8FEF7D7
:102E640043F868BB0F2307930223089300230993B5
:102E74004FF480620A920B93012107A8FEF760FACF
:102E840010BB102301934FF48003069301A8FEF7AF
:102E94002DFBE8B9FEF716FAFEF70EFB0E4BA3FB6B
:102EA40000308009FDF772FA0420FDF785FA00224C
:102EB40011464FF0FF30FDF729FA17B05DF804FB17
:102EC400B0210648FFF714FFBE210448FFF710FFA6
:102ED400C5210248FFF70CFFD34D6210103F0008D4
:102EE40030B589B0FDF7C8F9FFF7A8FFFFF796FEE4
:102EF400FFF700FF00F07EF9FFF734FFFFF756FFFE
:102F0400FFF778FF18211648FEF762FC00242246DA
:102F140016E0144B1C444FF400511348FDF760FBBA
:102F24002246124901A800F0B1FB01A8FDF778F987
:102F3400014601A800F0A0F96420FDF7C1F92A4672
:102F44000B4B5D6AAB1A1C44002BB8BF5B42B3F554
:102F5400004FE5DBAA42DCDD4FF6FF73DAE700BF82
:102F64006C0400200100FFFF00100140203F000816
:102F74000008004000B583B0244B9A6942F0010276
:102F84009A619A6902F001020092009ADA6942F0A9
:102F94008052DA61DB6903F080530193019B0320C3
:102FA400FDF7A2F9002211466FF00B00FDF7AEF910
:102FB400002211466FF00A00FDF7A8F9002211461D
:102FC4006FF00900FDF7A2F9002211466FF004002A
:102FD400FDF79CF9002211466FF00300FDF796F906
:102FE400002211466FF00100FDF790F9002211460E
:102FF4004FF0FF30FDF78AF9054A536823F0E06388
:1030040043F08063536003B05DF804FB001002409A
:103014000000014010B588B00368354A934207D0D8
:10302400344A934223D0344A934241D008B010BD6D
:10303400324B9A6942F480529A619B6903F480533B
:103044000193019BB0230493022305930323079365
:103054002B4C04A92046FDF7C5F940230493002313
:103064000593069304A92046FDF7BCF9DEE7234B3C
:10307400DA6942F48042DA61DB6903F48043029343
:10308400029B4FF4304304930223059303230793D5
:103094001C4C04A92046FDF7A5F94FF48043049382
:1030A40000230593069304A92046FDF79BF9BDE789
:1030B400124BDA6942F40042DA61DB6903F400433B
:1030C4000393039B28230493022305930323079369
:1030D4000C4C04A92046FDF785F910230493002322
:1030E4000593069304A92046FDF77CF99EE700BFEB
:1030F4000030014000380040003C00400010024015
:1031040000080140000C01400268134B9A4200D0B1
:10311400704700B587B003F50233DA6942F0040260
:10312400DA61DB6903F004030193019B4FF440531C
:103134000293002303930123049302A90748FDF794
:1031440051F9074A536843F0E06343F480535360F2
:1031540007B05DF804FB00BF000800400014014004
:103164000000014008B5FEF7AFF908BDFEE7FEE731
:10317400FEE7FEE770477047704708B5FDF78EF825
:10318400FDF72BF908BD000008B50248FDF778FDEE
:1031940008BD00BF500F002008B50248FDF770FDC0
:1031A40008BD00BF500F00200F4B1A6842F0010207
:1031B4001A6059680D4A0A405A601A6822F08472EB
:1031C40022F480321A601A6822F480221A605A6843
:1031D40022F4FE025A604FF41F029A60044B4FF02F
:1031E40000629A60704700BF001002400000FFF8C0
:1031F40000ED00E010B5094C002209492046FFF714
:103204001EF908492046FFF731F907492046FFF720
:10321400D1F82046FFF731F910BD00BF5C0500204E
:1032240044010020E00000201C0100200020704721
:103234000020704710B5054C01462046FFF7C9F839
:103244002046FFF7E3F8002010BD00BF5C05002016
:1032540010B5064C002206492046FFF7B2F805498E
:103264002046FFF7B6F8002010BD00BF5C05002023
:10327400680B002080070020094BD3F81832D3F8DC
:1032840014320BB10120704710B50A460146044CB4
:103294002046FFF796F82046FFF7A1F810BD00BFBF
:1032A4005C0500200268124B9A4200D0704700B5BA
:1032B40083B003F5DA33DA6942F40002DA61DB69D8
:1032C40003F400030193019B002211461320FDF730
:1032D4001DF81320FDF74EF8002211461420FDF7C7
:1032E40015F81420FDF746F803B05DF804FB00BFA1
:1032F400005C004008B500F22C41D0F85C04FFF7F4
:10330400D5F808BD08B500EB4113D3F83C22D0F83A
:103314005C04FFF7F8F808BD08B500EB4113DA6B5D
:10332400D0F85C04FFF724F908BD08B5D0F85C04B4
:10333400FFF7A7F908BD10B504460121D0F85C04D5
:10334400FFF78DF9D4F85C04FFF76AF910BD0000AB
:1033540010B50446D0F85C04FFF784F9A36923B1DF
:10336400024A136943F00603136110BD00ED00E047
:1033740008B5D0F85C04FFF77EF908BD10B5044623
:103384002048C0F85C44C4F820021F4B03600823A3
:103394004360022383600323C36000238361C3610A
:1033A4000362FDF721F930BB182300221146D4F83B
:1033B4002002FDF76AFD582300228021D4F8200260
:1033C400FDF763FDC02300228121D4F82002FDF71C
:1033D4005CFD4FF4887300220121D4F82002FDF72C
:1033E40054FD4FF4807300228221D4F82002FDF7AB
:1033F4004CFD002010BD4FF499710448FFF778FC90
:10340400D2E700BF500F0020005C0040303F0008AE
:1034140008B5D0F82002FDF752F918B1022803D0FC
:10342400022008BD0020FCE70120FAE710B51C4685
:1034340013462246D0F82002FDF76CF918B1022891
:1034440003D0022010BD0020FCE70120FAE708B5F4
:10345400D0F82002FDF787F918B1022803D0022022
:1034640008BD0020FCE70120FAE708B5D0F82002E7
:10347400FDF7B6FC18B1022803D0022008BD0020D5
:10348400FCE70120FAE708B5D0F82002FDF7D6FCE6
:1034940018B1022803D0022008BD0020FCE7012057
:1034A400FAE7D0F8203211F0800F06D101F07F0145
:1034B40003EB411191F82A02704701F07F0103EBFD
:1034C400411191F82A00704708B5D0F82002FDF7A1
:1034D4000DF918B1022803D0022008BD0020FCE732
:1034E4000120FAE708B5D0F82002FDF789F918B1F0
:1034F400022803D0022008BD0020FCE70120FAE7DF
:1035040008B5D0F82002FDF755F918B1022803D008
:10351400022008BD0020FCE70120FAE708B5D0F836
:103524002002FDF766F908BD00487047E401002059
:103534007047704712230B80004870472C0100200D
:1035440004230B80004870474001002008B50A4658
:1035540028B105490548FFF702FB034808BD0249A5
:103564000248FFF7FCFAF8E7B0130020443F0008D4
:1035740010B5044C0A4621460348FFF7F0FA2046EA
:1035840010BD00BFB01300205C3F000808B50A4618
:1035940028B105490548FFF7E2FA034808BD024986
:1035A4000248FFF7DCFAF8E7B0130020703F000888
:1035B40008B50A4628B105490548FFF7D0FA03487B
:1035C40008BD02490248FFF7CAFAF8E7B013002021
:1035D400803F000808B50A4628B105490548FFF7A9
:1035E400BEFA034808BD02490248FFF7B8FAF8E7F3
:1035F400B01300208C3F0008002103E00B4B5B5804
:10360400435004310A480B4B42189A42F6D30A4AF3
:1036140002E0002342F8043B084B9A42F9D3FFF737
:10362400C3FD00F00FF8FFF75BFC7047D83F0008BC
:1036340000000020C4010020C4010020B4150020B3
:10364400FEE7000070B500250C4E0D4CA41BA41021
:10365400A54209D100F038FC00250A4E0A4CA41BEF
:10366400A410A54205D170BD56F825309847013500
:10367400EEE756F8253098470135F2E7D03F0008C9
:10368400D03F0008D03F0008D43F00080EB46FF0CC
:10369400004100B59CB01DAB0290069007910491C7
:1036A4000848094953F8042B0591006802A90193BD
:1036B40000F066F80022029B1A701CB05DF804EB5F
:1036C40003B07047600100200802FFFF2DE9F047B6
:1036D4008E6882469E420C469046994637D88A891F
:1036E40012F4906F31D00223256809696F1A656955
:1036F40005EB450595FBF3F509F101033B449D42B8
:1037040038BF1D46530530D5294600F035FB064623
:1037140050B90C234FF0FF30CAF80030A38943F0AE
:103724004003A381BDE8F0873A46216900F0B4FA6A
:10373400A38923F4906343F08003A38126613E446C
:1037440026604E466561ED1BA5604E4500D94E4688
:1037540032464146206800F0AAFAA36800209B1B69
:10376400A36023681E442660DCE72A4600F05EFB63
:1037740006460028E2D12169504600F0B1FAC8E7B4
:103784002DE9F04F9DB003938B8980461D060C46AE
:1037940016460FD50B696BB9402100F0EDFA206095
:1037A400206128B90C23C8F800304FF0FF30C7E07F
:1037B400402363610023099320238DF829303023AB
:1037C4004FF0010B8DF82A3037463D4615F8013B82
:1037D4000BB1252B3ED1B7EB060A0BD0534632462C
:1037E40021464046FFF772FF013000F0A480099B98
:1037F400534409933B78002B00F09D8000234FF045
:10380400FF32CDE90523049307938DF853301A93BF
:103814002F46052217F8011B4F4800F02FFA049B8E
:10382400D0B9D90644BF20228DF853201A0744BFCB
:103834002B228DF853202A782A2A15D02F460020CF
:103844000A25079A394611F8013B303B092B4DD91B
:10385400B8B10FE02F46B8E73F4A3D46801A0BFA4D
:1038640000F018430490D3E7039A111D12680391E2
:10387400002A01DB079204E0524243F0020307925C
:1038840004933B782E2B0CD17B782A2B33D1039BCA
:1038940002371A1D1B680392002BB8BF4FF0FF3389
:1038A40005932E4D03223978284600F0E7F938B104
:1038B4004023401B03FA00F0049B013703430493A5
:1038C4003978062226487E1C8DF8281000F0D6F997
:1038D400002838D0234B13BB039B073323F0070383
:1038E40008330393099B4B4409936DE705FB0232AC
:1038F40001200F46A6E700230A2519460137059340
:10390400384610F8012B303A092A03D9002BC8D0C5
:103914000591C6E705FB012101230746F0E703AB48
:1039240000932246104B04A94046AFF30080B0F147
:10393400FF3F8146D6D1A3895B063FF536AF099890
:103944001DB0BDE8F08F03AB00932246064B04A9DB
:10395400404600F081F8EAE79C3F0008A23F0008D7
:10396400A63F000800000000D13600082DE9F0470A
:1039740091461F468A680B6906469342B8BF1346B0
:10398400C9F8003091F843200C46DDF8208012B1CC
:103994000133C9F800302368990642BFD9F80030D2
:1039A4000233C9F80030256815F0060507D104F183
:1039B400190AE368D9F800209B1AAB4229DC94F871
:1039C40043302268003318BF012392062ED404F139
:1039D400430239463046C047013021D02368E568A8
:1039E40003F00603042B18BF0025D9F800204FF07C
:1039F400000908BFAD1AA368226908BF25EAE57566
:103A04009342C4BF9B1AED181A344D451AD10020B5
:103A140008E00123524639463046C047013003D1FD
:103A24004FF0FF30BDE8F0870135C2E73020E118E0
:103A340081F843005A1C94F845102244023382F85A
:103A44004310C4E70123224639463046C0470130BB
:103A5400E6D009F10109D8E72DE9F04301F1430C5F
:103A64000C46097E85B06E291746064698460C9A80
:103A740000F0B38022D8632936D00AD8002900F098
:103A8400B980582900F0838004F1420584F842107B
:103A940032E0642901D06929F6D12068136805064B
:103AA40003F104012AD51B681160002B03DA2D22CF
:103AB4005B4284F843206F480A2239E0732900F0FE
:103AC4009D8008D86F2920D07029DDD1236843F068
:103AD4002003236003E0752917D07829D4D17823F3
:103AE400654884F8453055E0136804F14205191D12
:103AF4001B68116084F8423001238CE01B6810F0CD
:103B0400400F116018BF1BB2CFE713682568181D5A
:103B14001060280601D51B6802E06806FBD51B88E7
:103B24006F2914BF0A2208225248002184F8431046
:103B34006568002DA560C0F29580216821F004011C
:103B44002160002B3DD1002D40F08E806546082A6F
:103B54000BD12368DB0708D5236962689A42DEBF6C
:103B6400302305F8013C05F1FF35ACEB0503236177
:103B7400CDF800803B4603AA21463046FFF7F6FE07
:103B840001304DD14FF0FF3005B0BDE8F083394826
:103B940084F84510136821681D1D1B6815600A060A
:103BA4000BD5CA0744BF41F0200121601BB922682C
:103BB40022F0200222601022B7E74D0648BF9BB2D4
:103BC400EFE76546B3FBF2F102FB1133C35C05F882
:103BD400013D0B460029F5D1B9E713682568181D86
:103BE4006169106028061B6801D5196002E06A0645
:103BF400FBD51980002365462361B9E71368191DB5
:103C040011601D6862680021284600F037F808B189
:103C1400401B606063682361002384F84330A7E796
:103C240023692A4639463046C0470130AAD0236862
:103C34009B0713D4E068039B9842B8BF1846A3E7D8
:103C440001234A4639463046C04701309AD00135EF
:103C5400E368039A9B1AAB42F2DCEBE7002504F11C
:103C64001909F5E7002BACD1037804F1420584F877
:103C740042306CE7AD3F0008BE3F000810B5C9B242
:103C840002449042034601D1002303E01C78013032
:103C94008C42F6D1184610BD10B5431E0A44914219
:103CA40000D110BD11F8014B03F8014FF7E788422A
:103CB40010B501EB020307D8421E99420AD011F84D
:103CC400014B02F8014FF8E78342F5D98118D21A63
:103CD400D34200D110BD13F8014D01F8014DF7E7AF
:103CE40038B50546002943D051F8043C0C1F002B7D
:103CF400B8BFE41800F0D0F81E4A1368104633B970
:103D0400636014602846BDE8384000F0C6B8A3429A
:103D14000BD921686218934201BF1A685B68521874
:103D2400226063600460EDE713465A680AB1A24258
:103D3400FAD919685818A0420BD1206801445818C0
:103D440082421960DED110685268014419605A60D9
:103D5400D8E702D90C232B60D4E7206821188A42C3
:103D640001BF116852680918216062605C60C9E78C
:103D740038BD00BF0404002070B5CD1C25F0030538
:103D840008350C2D38BF0C25002D064601DBA94251
:103D940003D90C233360002070BD00F07DF8214A64
:103DA4001468214691B9204C23681BB9304600F0B1
:103DB40063F820602946304600F05EF8431C24D1A5
:103DC4000C233046336000F068F8E4E70B685B1BB3
:103DD40018D40B2B0FD90B60CC18CD50304600F003
:103DE4005CF804F10B00231D20F00700C31AD3D0A4
:103DF4005A42E250D0E74B688C4216BF63601360AE
:103E04000C46EBE70C464968CCE7C41C24F00304D9
:103E1400A04205D0211A304600F02EF80130CFD050
:103E24002560DBE70404002008040020F8B50746F9
:103E340014460E4621B9BDE8F8401146FFF79CBF71
:103E440022B9FFF74DFF25462846F8BD00F026F8B5
:103E5400A0420FD221463846FFF78EFF05460028C0
:103E6400F2D031462246FFF717FF31463846FFF7B6
:103E740037FFE9E73546E7E738B50023054C054643
:103E84000846236000F012F8431C02D1236803B1F2
:103E94002B6038BDB01500207047704751F8043CC2
:103EA400181F002BBCBF0B58C0187047044A0549A3
:103EB4001368002B08BF0B4618441060184670475F
:103EC4000C040020B8150020F8B500BFF8BC08BCED
:103ED4009E467047F8B500BFF8BC08BC9E467047C4
:103EE40002030405060708090A0B0C0D0E0F101037
:103EF40001020000000000000000000001020304B1
:103F04000607080900000000010203042E2E2F53A7
:103F140072632F6D61696E2E63000000636F756EAE
:103F2400743A205B256C645D0A0000002E2E2F532A
:103F340072632F757362645F636F6E662E63000035
:103F440053544D3332205669727475616C20436F3B
:103F54006D506F727400000053544D6963726F6545
:103F64006C656374726F6E69637300003030303057
:103F740030303030303031410000000043444320C1
:103F8400436F6E666967000043444320496E74655D
:103F94007266616365000000232D302B2000686C7D
:103FA4004C00656667454647003031323334353658
:103FB4003738394142434445460030313233343591
:0C3FC400363738396162636465660000BE
:043FD00009020008DA
:043FD400E5010008FB
:103FD800010000001000000009024300020100C0B7
:103FE8003209040000010202010005240010010545
:103FF80024010001042402020524060001070582A9
:104008000308001009040100020A00000007050166
:104018000240000007058102400000000902430039
:10402800020100C032090400000102020100052457
:1040380000100105240100010424020205240600E1
:10404800010705820308001009040100020A0000A4
:1040580000070501020002000705810200020000B6
:1040680009074300020104C03209040000010202EA
:1040780001000524001001052401000104240202A6
:104088000524060001070582030800FF0904010052
:10409800020A00000007050102400000070581022E
:1040A800400000000A060002000000400100000075
:1040B80023230008E92200087522000800000000F8
:1040C800EB210008D9210008452200080000000063
:1040D800000000000000000021220008152200084E
:1040E8002D2200083922000800A24A04553200088F
:1040F8003132000835320008393200081201000256
:10410800020200408304405700020102030100003C
:1041180004030904393500084535000875350008D9
:104128005135000891350008B5350008D935000823
:1041380064010020000000000000000000000000F2
:104148000000000000000000000000000000000067
:104158000000000000000000000000000000000057
:104168000000000000000000000000000000000047
:104178000000000000000000000000000000000037
:104188000000000000000000000000000000000027
:044198000000000023
:04000005080035FDBD
:00000001FF
